:020000040000FA
:100000000C940D040C94B9140C9492140C946B146D
:100010000C9444140C9435040C9435040C941D1465
:100020000C9435040C9435040C94DA100C9449119A
:100030000C9435040C9435040C9435040C9435045C
:100040000C9435040C9435040C9435040C9435044C
:100050000C9435040C9435040C9435040C94D3138F
:100060000C9435040C94A1130C947B130C9435045C
:100070000C9435040C9435040C9435040C9435041C
:100080000C9435040C9435040C9435040C9435040C
:100090000C9435040C9435040C9435040C943504FC
:1000A0000C9435040C9435040C9435046364696E27
:1000B0006F70737578585B000000000200090F0034
:1000C00000030401000C000000000000000000001C
:1000D00000000000000000080B00020202000009FE
:1000E00004000001020200000524001001052401A3
:1000F00001010424020605240600010705810310FE
:10010000004009040100020A000000070502024045
:1001100000000705830240000004030904120100E7
:1001200002EF0201404F1B0892000101020301533C
:100130007061726B46756E004C696C795061642019
:100140005553420041542B43504D533D22534D22B1
:100150002C22534D222C22534D220053494D38302E
:10016000304800093C2D2D2D2000092D2D2D3E203D
:100170000053494D434F4D5F53494D353332304560
:100180000053494D434F4D5F53494D353332304154
:100190000053494D383030205231330053494D38E7
:1001A0003038205231330053494D383038205231E5
:1001B0003400093C2D2D2D2000092D2D2D3E200031
:1001C00041542B435648553D300041544530004181
:1001D0005445300041540041540041540054696D6D
:1001E000656F75743A204E6F20726573706F6E7311
:1001F0006520746F2041542E2E2E206C6173742064
:10020000646974636820617474656D70742E004154
:100210005400415400415400417474656D70746918
:100220006E6720746F206F70656E20636F6D6D2038
:1002300077697468204154730022534D5F50222C1B
:100240000041542B43504D533F0022534D222C006C
:1002500041542B43504D533F0022534D222C00411B
:10026000542B43504D533F0041542B434D47463D83
:1002700031005748494420456C69746520312E335C
:100280002E31206973204F4B004F4B0041542B43BC
:100290004D4744413D2244454C20414C4C220D0ADF
:1002A000000A0D44656C6574696E6720534D532ECA
:1002B0002E2E004E756D626572206F6620534D5371
:1002C0003A200070696E7465726E65742E696E7482
:1002D00065726B6F6D2E6465004E4F2053494D382B
:1002E000303021002B4342433A200041542B4342FB
:1002F00043002B43495047534D4C4F433A20004154
:10030000542B43495047534D4C4F433D312C310002
:100310002B434D47523A0041542B434D47523D0029
:1003200041542B434D47523D0041542B43534448C5
:100330003D310041542B434D47463D31002B434D49
:1003400047523A0041542B434D47523D0041542BF4
:10035000434D47523D0041542B435344483D3100E7
:1003600041542B434D47463D31004E6F207265701E
:100370006C792100426174742025203D2000466183
:10038000696C656420746F207475726E206F666688
:100390002047505253004661696C20636F646520AA
:1003A00023004661696C656421004661696C65647F
:1003B00020746F207475726E206F6E2047505253F8
:1003C00000232323205354415254494E4720414394
:1003D0004F5553544943205355525645494C4C416F
:1003E0004E4345202323230043616C6C2046616902
:1003F0006C6564004661696C656420746F20747577
:10040000726E206F66662047505253004661696CD9
:10041000656420746F207475726E206F6E20475073
:1004200052530029203E202F6465762F63752E7568
:1004300073626D6F64656D4849442A3B00736C6557
:100440006570202E353B73747479202D66202F64DF
:1004500065762F63752E7573626D6F64656D48499F
:10046000442A20343830303B6563686F202D652086
:10047000224241473A222428002929203E20246C88
:100480000020736C656570202E353B6C3D24286C14
:1004900073202F6465762F73657269616C2F6279A2
:1004A0002D69642F2A4C696C795061642A293B7349
:1004B000747479202D4620246C20343830303B650C
:1004C00063686F204241473A24286563686F20249F
:1004D00028003B24703D6E65772D4F626A6563741A
:1004E0002053797374656D2E494F2E506F7274735B
:1004F0002E53657269616C506F72742024632C34C2
:100500003830302C4E6F6E652C382C6F6E653B2466
:10051000702E6F70656E28293B24702E5772697497
:10052000654C696E6528224241473A247222293B74
:1005300024702E436C6F736528293B436C65617290
:100540002D486973746F7279202D436F6D6D616EE4
:10055000644C696E6520222A242A223B65786974DE
:100560003B0024633D2867776D692057696E3332FD
:100570005F53657269616C506F72747C5768657205
:10058000652D4F626A6563747B245F2E504E504424
:1005900065766963654944202D6D61746368202226
:1005A00049445F31423446265049445F393230383D
:1005B000227D292E44657669636549443B24723D5A
:1005C000004469646E27742066696E6420534D533D
:1005D000206D65737361676520696E20736C6F743D
:1005E0002100736C6F743A20003E20003E200041D1
:1005F000542B434D47463D3100093C2D2D2D200005
:10060000092D2D2D3E200041542B43474154543D8C
:10061000300041542B53415042523D302C31005355
:10062000485554204F4B0041542B43495053485593
:100630005400093C2D2D2D200041542B43494943A2
:10064000520041542B53415042523D312C31004114
:10065000542B53415042523D332C312C225057449D
:10066000222C0041542B53415042523D332C312C0B
:100670002255534552222C0041542B435354543D90
:100680002200092D2D2D3E200041542B435354545C
:100690003D220041542B53415042523D332C312CCA
:1006A0002241504E222C0041542B53415042523D86
:1006B000332C312C22434F4E54595045222C224783
:1006C000505253220041542B43474154543D310072
:1006D00053485554204F4B0041542B4349505348E5
:1006E000555400093C2D2D2D2000092D2D2D3E2087
:1006F0000000000000250028002B002E0031000023
:10070000000000240027002A002D0030000404040B
:1007100004040304050202020204030202020206A8
:100720000606060606040402020204040408020186
:10073000104080401020408040800802040180402A
:100740002010020110801020404020093C2D2D2D4A
:100750002000092D2D2D3E2000000000000000008B
:10076000002A2B280000000000000000000000000C
:100770000000000000000000002C9EB4A0A1A2A474
:1007800034A6A7A5AE362D3738271E1F20212223D9
:10079000242526B333B62EB7B89F848586878889EB
:1007A0008A8B8C8D8E8F9091929394959697989931
:1007B0009A9B9C9D2F3130A3AD350405060708098F
:1007C0000A0B0C0D0E0F1011121314151617181911
:1007D0001A1B1C1DAFB1B0B50005010906A10185AA
:1007E00002050719E029E715002501750195088123
:1007F0000295017508810395067508150025730596
:1008000007190029738100C04F4B00464F4E41002D
:10081000464F4E416E657400161511241FBECFEF72
:10082000DAE0DEBFCDBF14E0A0E0B1E0E6EAFDE42F
:1008300002C005900D92A230B107D9F728E0A2E0DE
:10084000B4E001C01D92A23AB207E1F714E0CDE096
:10085000D4E004C02197FE010E94AB22CC30D10726
:10086000C9F70E943E160C94D1260C94000090E02B
:10087000FC01E45DF84F2491835F984FFC01849163
:10088000882399F090E0880F991FFC01E150F94FFF
:10089000A591B491FC01EF50F94F859194918FB7D8
:1008A000F894EC91E22BEC938FBF0895FC018091BA
:1008B0005406882311F13FB7F89482E08093E90051
:1008C0002091F200822F90E01816190614F481E0AE
:1008D00090E0882339F0289844E6409353064091ED
:1008E000F1004083222339F02091F200211103C04E
:1008F0002BE62093E8003FBF08958FEF9FEF089508
:100900004091150450911604209113043091140461
:1009100042175307B4F49091E8009570E1F3909179
:10092000E80092FD19C08093F10080911504909128
:10093000160401968F739927892B19F48EEF8093F3
:10094000E800809115049091160401969093160486
:100950008093150481E0089580E00895EF92FF925E
:100960000F931F93CF93DF93F82E192FE62E042FAA
:1009700081E0860F880F0E94800483E00E9480043B
:10098000CF2DD12FEC0EFD2EF11CCE15DF05B9F0C9
:1009900007FF13C0FE0184910E948004182F80E09D
:1009A0000E948004812321968111EFCFDF91CF91A6
:1009B0001F910F91FF90EF9008958881EDCF81E016
:1009C000F5CFDF92EF92FF920F931F93CF93DF93B8
:1009D000D82E8A01EB017B01E40EF51ECE15DF0552
:1009E00059F0D7FE12C0FE0184910E948004219626
:1009F0008111F4CF0FEF1FEFC801DF91CF911F914D
:100A00000F91FF90EF90DF9008958881EECF2FB780
:100A1000F89487708093E9009091E800892F8072A4
:100A200095FF04C09091F20080E4891B2FBF0895C8
:100A3000615030F02091F100FC0120830196F8CF45
:100A4000289884E6809353060895DC01ED91FC918B
:100A50000190F081E02D0994EF92FF920F931F9384
:100A6000CF93DF938C017B01D0E0C0E0F701EC0F66
:100A7000FD1F6491662361F0D801ED91FC91019016
:100A8000F081E02DC8010995892B11F02196EECF58
:100A9000CE01DF91CF911F910F91FF90EF900895BC
:100AA000AF92BF92CF92DF92EF92FF920F931F937C
:100AB000CF93DF936C017B018B01040F151FEB01BA
:100AC0005E01AE18BF08C017D10759F06991D60171
:100AD000ED91FC910190F081E02DC6010995892BE3
:100AE00079F7C501DF91CF911F910F91FF90EF90A2
:100AF000DF90CF90BF90AF90089580910B0481114B
:100B00000DC082E08093070484E080930804109273
:100B10000A041092090481E080930B0487E094E0BA
:100B200008950F931F93CF93DF931F92CDB7DEB736
:100B300082E0898342E450E067ED70E080E80E9443
:100B4000E1040E947D05DC0112960D911C910115B6
:100B5000110589F0D801ED91FC910280F381E02D1F
:100B6000BE016F5F7F4FC801099597FD04C0F80172
:100B700000851185ECCF89810F90DF91CF911F9176
:100B80000F910895CF93DF93FC01DB0181811496CF
:100B90003C911497682F630F7727771F6830710592
:100BA0009CF5C281D381209739F5B383A2839081CC
:100BB00012969C93129713968C93139715968C917B
:100BC0001597890F808390E080E0831708F52181D5
:100BD000C22FD0E0BE01665F7E4F16964D915C91AC
:100BE0001797480F591FEA014881EB0148832F5F8F
:100BF00021830196EACFEA014885598541155105BF
:100C0000D1F7B987A887D3CF80E0DF91CF9108953E
:100C100081E0FBCFFC01538D448D252F30E0842FE4
:100C200090E0821B930B541710F0CF960895019714
:100C30000895FC01918D828D981761F0A28DAE0F01
:100C4000BF2FB11D5D968C91928D9F5F9F73928F88
:100C500090E008958FEF9FEF0895FC01918D828DB4
:100C6000981731F0828DE80FF11D858D90E0089581
:100C70008FEF9FEF0895FC01918D228D892F90E0D9
:100C8000805C9F4F821B91098F739927089589E596
:100C900096E00E943B0621E0892B09F420E0822F98
:100CA000089580E090E0892B29F00E944706811189
:100CB0000C9400000895FC01A48DA80FB92FB11D5C
:100CC000A35ABF4F2C91848D90E001968F73992782
:100CD000848FA689B7892C93A089B1898C9182745D
:100CE0008C93938D848D981306C00288F389E02D30
:100CF00080818F7D80830895EF92FF920F931F93E1
:100D0000CF93DF93EC0181E0888F9B8D8C8D9813BE
:100D100019C0E889F989808185FF14C09FB7F894CC
:100D2000EE89FF896083E889F989808182748083F4
:100D30009FBF81E090E0DF91CF911F910F91FF90D5
:100D4000EF900895F62E0B8D10E00F5F1F4F0F737D
:100D50001127E02E8C8D8E110CC00FB607FCFACF38
:100D6000E889F989808185FFF5CFCE010E945B0675
:100D7000F1CFEB8DEC0FFD2FF11DE35AFF4FF08209
:100D80009FB7F8940B8FEA89FB8980818062CFCF6F
:100D9000CF93DF93EC01888D8823B9F0AA89BB89B2
:100DA000E889F9898C9185FD03C0808186FD0DC09D
:100DB0000FB607FCF7CF8C9185FFF2CF808185FFBE
:100DC000EDCFCE010E945B06E9CFDF91CF91089570
:100DD000CF93DF931F92CDB7DEB76983DC01ED912E
:100DE000FC910280F381E02D41E050E0BE016F5F95
:100DF0007F4F09950F90DF91CF91089583E0809305
:100E0000E9008091F200882319F08AE38093E800DA
:100E1000089583E00E94070590E00895CF93DF9343
:100E20001F92CDB7DEB7FC018485958597FD08C07C
:100E30002FEF3FEF358724870F90DF91CF910895F3
:100E4000CE0101960E945604019719F4898190E021
:100E5000F3CF8FEF9FEFF0CF2FB7F8948091550627
:100E600090915606A0915706B09158062FBF8093D7
:100E7000FE069093FF06A0930007B093010786EF4C
:100E800096E00E940E0797FF26C02FB7F894809136
:100E9000550690915606A0915706B09158062FBF5F
:100EA0004091FE065091FF06609100077091010786
:100EB000841B950BA60BB70B4091FA065091FB06CD
:100EC0006091FC067091FD0684179507A607B70789
:100ED000B0F28FEF9FEF08950F931F93CF93DF939F
:100EE0001F92CDB7DEB78C01FC018485958597FFF5
:100EF0000BC0CE0101960E945604019771F48981BE
:100F000090E0F80195878487F801848595850F9096
:100F1000DF91CF911F910F9108958FEF9FEFF1CF48
:100F2000FC018485958597FD0BC09FB7F89482E0FE
:100F30008093E9008091F2009FBF90E001960895B0
:100F40009FB7F89482E08093E9008091F2009FBF00
:100F500090E00895282F30E0F901E854FF4F949174
:100F6000F901E45DF84F8491235F384FF901249132
:100F7000222309F430C09923E9F091509F30D0F436
:100F8000E92FF0E0EA53F84F0C94AB22F407F8078E
:100F9000D507EC07F007DA07DA07DA07FB070108DD
:100FA000050809080F08DA071308909180009F7759
:100FB00090938000E22FF0E0EE0FFF1FEF50F94F0B
:100FC000A591B4919FB7F894EC91611132C08095CE
:100FD0008E238C939FBF0895909180009F7DE8CFD2
:100FE00090918000977FE4CF94B59F7794BDE2CF36
:100FF00094B59F7DFBCF909190009F779093900048
:10100000D9CF909190009F7DF9CF90919000977FDC
:10101000F5CF9091C0009F779093C000CBCF909177
:10102000C0009F7DF9CF9091C200977F9093C2003E
:10103000C1CF8E2BCECF3FB7F8948091030490910F
:101040000404A0910504B091060426B5A89B05C030
:101050002F3F19F00196A11DB11D3FBFBA2FA92F37
:10106000982F8827BC01CD01620F711D811D911D34
:1010700043E0660F771F881F991F4A95D1F708959F
:101080008F929F92AF92BF92CF92DF92EF92FF9298
:101090004B015C010E941B086B017C010E941B0834
:1010A0006C197D098E099F09683E73408105910581
:1010B000A8F321E0821A9108A108B10888EEC80EB1
:1010C00083E0D81EE11CF11C81149104A104B10439
:1010D00029F7FF90EF90DF90CF90BF90AF909F9057
:1010E0008F900895FF920F931F93CF93DF938C01FE
:1010F000F62ED0E0C0E001501109CE3FD10580F5B9
:1011000080919C0890919D08DC01ED91FC910084F8
:10111000F185E02D0995892BC9F080919C0890916B
:101120009D08DC01ED91FC910284F385E02D099589
:101130008D3031F38A3021F4209711F3FF2081F0B4
:10114000FE01EC57F84F86872196DACF011511057D
:1011500039F061E070E080E090E00E944008CBCF81
:10116000FE01EC57F84F16868C2FDF91CF911F911F
:101170000F91FF9008957F928F929F92AF92BF92AE
:10118000CF92DF92EF92FF920F931F93CF93DF9353
:10119000C82E8B017A0180915406811110C08FEF07
:1011A0009FEFDF91CF911F910F91FF90EF90DF9014
:1011B000CF90BF90AF909F908F907F900895809137
:1011C000190480FF05C08091E00082608093E000F8
:1011D000CE2DDF2DD12C8AEFB82E8C2D8770982E36
:1011E0008C2D8072882E8C2D8074782E9AE3A92EF7
:1011F000209719F4DD2009F452C08C2D0E940705B8
:1012000081110AC0BA94BB2051F261E070E080E025
:1012100090E00E944008ECCF8C171D0611F00CF0F6
:101220008C2F9FB7F8949092E9002091E80025FD5B
:1012300002C09FBFDDCF282F30E0C21BD30B882018
:1012400029F08150A0F01092F100FBCFF801C7FC0B
:101250000AC0815050F041914093F100FACF44917F
:101260004093F10031968150D0F7020F131FDD201B
:1012700021F0A092E800D12CDCCF8091E80085FD20
:1012800007C0A092E800DD24D394209791F2F3CF19
:10129000209779F6772069F2A092E800CACF5D988E
:1012A00084E680931804C7017CCFEF92FF921F93CE
:1012B000CF93DF931F92CDB7DEB77C0180915707A4
:1012C00081112CC011E010934A0710934B0780E561
:1012D00097E090934D0780934C0710924F07109220
:1012E0004E078CE891E09093470780934607109251
:1012F00052071092510710925407109253071093FF
:1013000055071093560781EC809350070E947D0586
:1013100066E477E00E94C2051093570782E0898354
:1013200041E050E0BE016F5F7F4F809149070E940E
:10133000BB0897FD08C08091490748E050E0B7011D
:1013400080640E94BB080F90DF91CF911F91FF90A6
:10135000EF900895EDE6F7E0168217821086118669
:1013600012861386148281E797E00C945509CF9377
:10137000DF93EC0180911C01882331F083E00E940F
:10138000BB081816190634F081E090E09B838A832D
:1013900080E090E0DF91CF9108950895DC01FB019A
:1013A00012962C911297848195812817190641F481
:1013B00091818081813A31F49D7F81E0913009F003
:1013C00080E008958132E1F79B3029F482811F96F5
:1013D0008C9381E008959A3099F7828150968C938E
:1013E000F8CFDC01FB0188E4808389E4818384E415
:1013F00082831D969C911D979F709F5B93831D9682
:101400008D919C9124E0969587952A95E1F78F70B0
:101410008F5B848385E00895EF92FF920F931F9373
:10142000CF93DF93FB012081213871F52381223294
:1014300059F5DC0112964C9124813581421713062F
:1014400019F5EC010B851C85F12CE12C011511051A
:1014500089F0F801448155816281738180E80E949E
:10146000E1048F3F980749F0E80EF91ED8010D916D
:101470001C91ECCF81E08F87C701DF91CF911F9145
:101480000F91FF90EF90089590E080E0F6CFCF931A
:10149000DF93CDB7DEB769970FB6F894DEBF0FBE06
:1014A000CDBFFC01DB018C918F5F8C939E012D5F82
:1014B0003F4F8DE0D9011D928A95E9F729E02983F4
:1014C00084E08A8391E09D8383E08E832A8721E2F2
:1014D0002B879C879D879F8722E2288B27E02B8B79
:1014E00025E02C8B8E8B20E430E0388F2F8B998F6A
:1014F00082818B8395858685998B8A8B8381806891
:101500008D8B49E150E0BE016F5F7F4F80E00E940C
:10151000E10469960FB6F894DEBF0FBECDBFDF9130
:10152000CF910895CF92DF92EF92FF920F931F9386
:10153000CF93DF936C01EB017B01E40EF51E10E00D
:1015400000E0CE15DF0581F069916D30D1F3D60151
:10155000ED91FC910190F081E02DC6010995892B58
:1015600019F00F5F1F4FEDCFC801DF91CF911F9191
:101570000F91FF90EF90DF90CF900895DC016838D5
:1015800088F1685816968C911697861721F1179650
:101590008C9117978617F9F018968C9118978617E3
:1015A000D1F019968C9119978617A9F01A968C91FB
:1015B0001A97861781F01B968C911B97861759F006
:1015C000FD01369690E080E02191211139C08A0F0B
:1015D0009B1FFC016683CD0104960E94550981E0A2
:1015E00090E00895E62FF0E067FF11C0E058F109A0
:1015F00021E030E001C0220FEA95EAF714968C91C1
:101600001497822B14968C93149760E0BBCFE75A03
:10161000F84F6491611109C081E090E013969C93AA
:101620008E93129790E080E0089567FFABCF1496F9
:101630008C911497826014968C9314976F77A2CF35
:1016400001968630910509F0BFCFE6CF60EB8DE6BD
:1016500097E00E94BE0A62E370E080E090E00E94A2
:101660004008EDE6F7E083E797E02681283209F4A9
:10167000168231968E179F07C1F781E797E00C9489
:101680005509EF92FF920F931F93CF938C01C62FB2
:101690000E94BE0A7C01C838C8F0C858F80186E02C
:1016A000CC2321F09681C91301C016828150319656
:1016B0008111F6CFC80104960E945509C7019927E8
:1016C000CF911F910F91FF90EF900895EC2FF0E0D4
:1016D000C7FF0FC0E058F10981E090E001C0880F1A
:1016E000EA95EAF78095F801948189238483C0E024
:1016F000D5CFE75AF84FC491CC2301F3C7FFCECF23
:10170000F80184818D7F8483CF77C8CF80E00895EE
:10171000FC01DB018C918038A1F411968C9111971A
:10172000863079F413968C911397833051F4169682
:101730008D919C918F3F910539F482858360806201
:10174000828790E080E0089582858860F9CF90E0FC
:1017500080E00895FC0182818F5BFB01808381E042
:101760000895885E9E4FDC018D919C91DC01ED9186
:10177000FC910680F781E02D0994885E9E4FDC0184
:101780008D919C91DC01ED91FC910484F585E02D17
:101790000994885E9E4FDC018D919C91DC01ED9156
:1017A000FC910284F385E02D0994885E9E4FDC0154
:1017B0008D919C91DC01ED91FC910190F081E02DE7
:1017C0000994885E9E4FDC018D919C91DC01ED9126
:1017D000FC910084F185E02D0994CF93DF9390E094
:1017E00080E0EC0121968897A8F484E897E00E94B5
:1017F000E10B892B39F084E897E00E94C90BD0E017
:10180000C0E0F3CF61E070E080E090E00E9440082B
:10181000CE01E7CFDF91CF910895089590E080E069
:101820000895FB0101900020E9F73197AF01461BB5
:10183000570BDC01ED91FC910280F381E02D0994BE
:101840008F929F92AF92BF92EF92FF920F931F934E
:10185000CF93DF93CDB7DEB7A1970FB6F894DEBF75
:101860000FBECDBF7C01FA01CB0119A2223008F4D2
:101870002AE08E010F5D1F4F822E912CB12CA12CDE
:10188000BF01A50194010E948922F901CA016A30B1
:101890000CF5605DD8016E938D01232B242B252B35
:1018A00079F790E080E0109721F0BD01C7010E9418
:1018B000110CA1960FB6F894DEBF0FBECDBFDF911D
:1018C000CF911F910F91FF90EF90BF90AF909F909D
:1018D0008F900895695CDECF6EEF73E00C94110C6D
:1018E000CF92DF92EF92FF92CF93DF936C01990F2B
:1018F000EE08FF08F7FE21C06DE286EF96E00E9439
:101900002505EC0144275527BA014C195D096E09DC
:101910007F092AE086EF96E00E94200CC80FD91FAD
:1019200086EF96E00E946C0C8C0F9D1FDF91CF918B
:10193000FF90EF90DF90CF9008952AE0B701A601C5
:1019400086EF96E00E94200CEC01EACF0F931F93E4
:10195000CF93DF93EC01462F50E070E060E02AE087
:101960000E94200C8C01CE010E946C0C800F911FF4
:10197000DF91CF911F910F9108950F931F93CF93F4
:10198000DF938C01D0E0C0E06115710519F00E9471
:10199000110CEC01C8010E946C0C8C0F9D1FDF9193
:1019A000CF911F910F910895EF92FF920F931F9384
:1019B000CF93DF938C01EB017A010E94ED0B6AEE6D
:1019C00076E086EF96E00E942C05B80186EF96E05F
:1019D0000E942C0562E286EF96E00E942505BE017A
:1019E00086EF96E00E942C0562E286EF96E00E9468
:1019F000250586EF96E00E946C0CB80180919C084A
:101A000090919D080E942C0562E280919C08909123
:101A10009D080E942505BE0180919C0890919D081B
:101A20000E942C05C0919C08D0919D0862E2CE01D5
:101A30000E942505CE010E946C0C60E080E197E2D7
:101A40000E94720863EE76E086EF96E00E942C0515
:101A500062E977E086EF96E00E94BD0CB70182E96B
:101A600097E00E94E82121E0892B09F020E0822FF5
:101A7000DF91CF911F910F91FF90EF900895CF9339
:101A8000DF93EC010E94ED0B60E076E086EF96E0DC
:101A90000E942C05BE0186EF96E00E94BD0CBE019F
:101AA00080919C0890919D080E94BD0C60E084EF9D
:101AB00091E00E947208C82F69EF75E086EF96E00A
:101AC0000E942C0562E977E086EF96E00E94BD0C4B
:101AD0008C2FDF91CF9108950F931F93CF93DF93B6
:101AE000EC010E942C058C01CE010E946C0C800F31
:101AF000911FDF91CF911F910F9108950F931F9325
:101B0000CF93DF93EC018B010E94ED0B62E577E050
:101B100086EF96E00E942C05BE0186EF96E00E94BB
:101B20006C0DBE0180919C0890919D080E946C0DE7
:101B300060E0C8010E947208C82F6BE477E086EF6E
:101B400096E00E942C0562E977E086EF96E00E941D
:101B5000BD0C8C2FDF91CF911F910F910895CF93E2
:101B6000DF93EB01BA010E947E0D882341F0BE0194
:101B700082E997E00E94E82121E0892B09F020E02A
:101B8000822FDF91CF9108950C94110CCF93DF93A6
:101B900040E25EE460ED76E088ED96E00E94AF0DF5
:101BA00060919A0870919B0840E157E285EC96E0BD
:101BB0000E94AF0D882309F406C160919A087091C4
:101BC0009B0840E157E287EA96E00E94AF0D882328
:101BD00009F4F9C06091910870919208611571053E
:101BE000C9F460919A0870919B0840E355E782E43C
:101BF00096E00E94AF0D882309F4E5C060919A0831
:101C000070919B0840E157E289E396E0DF91CF9124
:101C10000C94AF0D40919A0850919B0883E996E08F
:101C20000E94D40C882309F4CEC00E94ED0B69E811
:101C300076E080919C0890919D080E942C0560910F
:101C400091087091920880919C0890919D080E9443
:101C50002C058091930890919408892B91F06EEB5C
:101C600071E080919C0890919D080E94C40D609144
:101C700093087091940880919C0890919D080E940F
:101C80002C058091950890919608892B91F06EEB28
:101C900071E080919C0890919D080E94C40D609114
:101CA00095087091960880919C0890919D080E94DB
:101CB0002C0569EB72E080919C0890919D080E9430
:101CC000BD0C62E876E086EF96E00E942C0568E79E
:101CD00076E086EF96E00E942C0560919108709165
:101CE000920886EF96E00E942C05809193089091CF
:101CF0009408892B71F06EEB71E086EF96E00E94FC
:101D0000C40D609193087091940886EF96E00E944C
:101D10002C058091950890919608892B71F06EEBB7
:101D200071E086EF96E00E94C40D60919508709175
:101D3000960886EF96E00E942C0569EB72E086EF2C
:101D400096E00E94BD0CC0919A08D0919B0860E07B
:101D500080E197E20E94720862E376E086EF96E007
:101D60000E942C0562E977E086EF96E00E94BD0CA8
:101D7000BE0182E997E00E94E821892B21F560915C
:101D80009308709194086115710599F46091950814
:101D9000709196086115710509F423CF40919A0856
:101DA00050919B088FE496E00E94D40C811119CFCA
:101DB0000AC040919A0850919B0883E696E00E94E1
:101DC000D40C8111E3CF80E0DF91CF910895811190
:101DD0000C94C60D40E25EE46FE176E087E296E0A7
:101DE0000E94AF0D8823B1F060919A0870919B0812
:101DF00040E157E282E196E00E94AF0D882351F066
:101E000060919A0870919B0840E157E287E096E064
:101E10000C94AF0D80E00895DF92EF92FF920F9344
:101E20001F93CF93DF938C017B01D42EBC0182E9F9
:101E300097E00E94FA21EC01892BF9F0C8010E9479
:101E4000F1218C0F9D1FC0E0CD1549F06CE270E0D0
:101E50000E947723009789F00196CF5FF5CF0E940B
:101E6000CA21F7019183808381E0DF91CF911F9197
:101E70000F91FF90EF90DF90089580E0F6CFFF92F2
:101E80000F931F93CF93DF93EB018A01F22E64EF40
:101E900071E00E947E0D4F2DB801CE010E940C0F03
:101EA000C82F882329F060E084EF91E00E94720837
:101EB0008C2FDF91CF911F910F91FF9008950F9379
:101EC0001F93CF93DF934115510559F061157105AB
:101ED00041F0FC01048115810115110539F4FB0164
:101EE0001082DF91CF911F910F91089541505109B8
:101EF0004017510708F48A01EB01FC0160817181F0
:101F0000A801CE010E94A023C00FD11F1882E9CFE3
:101F1000CF92DF92EF92FF920F931F93CF93DF93B5
:101F2000CDB7DEB76E970FB6F894DEBF0FBECDBF4C
:101F30006C017B0160919A0870919B0844EF51E01D
:101F40008FEE95E00E94AF0D811102C020E083C0AA
:101F50008AE0E3E2F1E08E010F5F1F4FD8010190AC
:101F60000D928A95E1F7FE013B9684E1DF011D9217
:101F70008A95E9F743E150E0B601CE010A960E9446
:101F8000A023F80101900020E9F7319782E28083D5
:101F9000C8010E943F0D8823C9F26CEE75E082E90A
:101FA00097E00E94E821892B89F669EE75E086EFBB
:101FB00096E00E942C05B70186EF96E00E94BD0CCA
:101FC000B70180919C0890919D080E94BD0C809162
:101FD0009C0890919D080E946C0C80919C089091A7
:101FE0009D08DC01ED91FC910190F081E02D6AE10A
:101FF000099562EC71E086EF96E00E94BD0C80913D
:1020000091078450823050F460E088EC90E00E94A8
:10201000720860E088EC90E00E94720860E080E165
:1020200097E20E94720865EC71E082E997E00E94F5
:10203000AF23892B09F48ACF60E088EE93E00E94F9
:1020400072086BEC71E082E997E00E94822321E044
:10205000892B09F07BCF822F6E960FB6F894DEBFE6
:102060000FBECDBFDF91CF911F910F91FF90EF90E9
:10207000DF90CF900895FC0180819181009711F04D
:102080000C94412108950F931F93CF93DF93EC019C
:1020900088819981009759F02A813B81261737075B
:1020A00030F081E0DF91CF911F910F9108958B0166
:1020B0006F5F7F4F0E94B122009759F09983888308
:1020C0001B830A832C813D81232B59F7FC0110824D
:1020D000E8CF80E0E7CFCF93DF93EC0170E060E0E2
:1020E0000E9443102881398181110FC021153105CB
:1020F00019F0C9010E944121198218821D821C8297
:102100001B821A82DF91CF9108951D821C8260E0AC
:1021100074E0C901DF91CF910C948B23CF92DF92B1
:10212000EF92FF920F931F93CF93DF9300D0CDB721
:10213000DEB78C01C62EFC0111821082138212823E
:10214000158214820E946B100E942C070C2C000C2C
:10215000DD0897FD23C08C159D0501F189831A8246
:10216000F801E480F580FFEFEF1AFF0AB701C8011C
:102170000E944310882379F0F80120813181848105
:102180009581BE016F5F7F4F820F931F0E948B234B
:10219000F801F582E4820E942C07DBCFC8010F9082
:1021A0000F90DF91CF911F910F91FF90EF90DF90F3
:1021B000CF9008951F920F920FB60F9211248F9314
:1021C0009F938091E1009091E100937F9093E100D3
:1021D00083FF0FC01092E90091E09093EB00109202
:1021E000EC0092E39093ED001092540698E09093E7
:1021F000F00082FF22C093E09093E9009091F200FA
:10220000992319F09AE39093E80090911804992388
:1022100041F090911804915090931804911101C0CD
:102220005D9A90915306992341F0909153069150F5
:1022300090935306911101C0289A84FF18C0809191
:10224000E2008E7E81608093E2008091E1008F7ECB
:102250008093E100809119048E7E8061809319043F
:102260009F918F910F900FBE0F901F90189580FF38
:10227000F7CF8091E2008E7E80618093E2008091B2
:10228000E1008E7E8093E100809119048E7E816052
:10229000E5CF1F920F920FB60F921124CF92DF92CB
:1022A000EF92FF920F931F932F933F934F935F9360
:1022B0006F937F938F939F93AF93BF93EF93FF930E
:1022C000CF93DF93CDB7DEB76C97DEBFCDBF109253
:1022D000E9008091E80083FF25C068E0CE014596C3
:1022E0000E94180582EF8093E8008D8987FF39C02E
:1022F0009091E80090FFFCCF982F907609F034C1C0
:102300009E894F89588D2F89F88C911131C0803862
:1023100061F580911A048093F1001092F1008EEF24
:102320008093E8006C960FB6F894DEBF0FBECDBF69
:10233000DF91CF91FF91EF91BF91AF919F918F91DD
:102340007F916F915F914F913F912F911F910F91CD
:10235000FF90EF90DF90CF900F900FBE0F901F90E7
:1023600018959EEF9093E800C7CF1092F100D5CF5B
:10237000913059F48111D3CF4130510581F68091CC
:102380001A048D7F80931A04CACF933049F48111C7
:10239000C6CF4130510519F680911A048260F2CF00
:1023A000953041F48091E80080FFFCCF20682093B5
:1023B000E300B5CF963009F0A9C00B8D1C8D22E04B
:1023C0001092E9001092160410921504F2122EC019
:1023D00010921404109213040E9491051F8299E038
:1023E0009983FA8291E09E8390EA98879AEF998781
:1023F0002091150430911604275F3F4F3C832B83B7
:102400008D831092E9001092160410921504109317
:1024100014040093130449E050E0BE016F5F7F4F46
:1024200080E00E94E1040E94910579CF109314048A
:10243000009313040E947D05DC0112960D911C91FE
:102440000115110509F451C1D801ED91FC910480E9
:10245000F581E02DBE016B5E7F4FC80109950097A5
:1024600009F03EC1F80100851185EACFF3E0FF12C3
:102470000EC08F89882309F440C0823061F440E89F
:102480006BE088E391E00E94AE04811148CF81E2C5
:102490008093EB0047CF813029F440E868E08FE279
:1024A00091E0F1CF833099F70E947D05DC0112960F
:1024B000ED90FC908E010F5F1F4F6801E114F10455
:1024C00079F0D701ED91FC910680F781E02DB801FC
:1024D000C7010995080F111DF701E084F184EECFC3
:1024E000D8011C92F60101900020E9F73197BF0155
:1024F0006C197D0940E0C601C6CF69E171E0FB01BE
:10250000449150E080E80E94E10409CF973009F43B
:10251000BECF983021F481E08093F10000CF993054
:1025200009F0FDCE837009F0B2CFEBE0F1E081E07D
:1025300031E096E32191222371F08093E9003093FA
:10254000EB00DF0111972C912093EC009093ED00AC
:102550008F5F873079F78EE78093EA001092EA0068
:102560008F8980935406DBCE8B8D9C8D1092E90071
:10257000109216041092150490931404809313047F
:10258000898D811192C08E899D89913A49F4813259
:1025900009F07DCF47E050E065E171E080E0B3CF26
:1025A000913209F074CF833269F48F89988DB0E04D
:1025B000A0E08093110190931201A0931301B093B6
:1025C0001401ADCE803269F48091E80082FFFCCF27
:1025D00067E085E191E00E9418058BEF8093E800A9
:1025E0009ECE823209F09BCE8F8980931C01EEEF44
:1025F000FFE7859194918B3F9C4D51F1E0E0F8E02D
:102600008091150190911601A0911701B0911801C8
:10261000803B9440A105B105F1F480911C0180FD3F
:102620001AC0EE3F8AE0F80789F587E797E79183BC
:102630008083809160008093170488E19BE00FB64F
:10264000F894A895809360000FBE9093600067CEC9
:10265000EEEFFAE0D5CF808191818737974709F077
:102660005ECEA89580916000886180936000809123
:10267000170480936000EE3F2AE0F20789F0809112
:10268000FE0A9091FF0A9183808349CE80819181D7
:102690008737980751F29093FF0A8093FE0AC5CFBF
:1026A0001092FF0A1092FE0A3ACE0E947D05DC01CC
:1026B00012960D911C910115110509F4E8CED8016F
:1026C000ED91FC910190F081E02DBE016B5E7F4F9A
:1026D000C8010995811123CEF80100851185EBCF42
:1026E000181619060CF41BCED2CEF1E0FF12BECEA6
:1026F0006DE171E004CF1F920F920FB60F9211247B
:102700002F933F934F935F936F937F938F939F93F9
:10271000AF93BF93EF93FF9389E596E00E945B062A
:10272000FF91EF91BF91AF919F918F917F916F91A9
:102730005F914F913F912F910F900FBE0F901F907F
:1027400018951F920F920FB60F9211242F938F930B
:102750009F93EF93FF93E0916906F0916A06808161
:10276000E0916F06F091700682FD1BC09081809110
:1027700072068F5F8F7320917306821741F0E0918C
:102780007206F0E0E75AF94F958F80937206FF9139
:10279000EF919F918F912F910F900FBE0F901F90EF
:1027A00018958081F4CF1F920F920FB60F921124CB
:1027B0002F933F938F939F93AF93BF938091550631
:1027C00090915606A0915706B09158063091020498
:1027D00026E0230F2D3758F50296A11DB11D209339
:1027E00002048093550690935606A0935706B09323
:1027F00058068091030490910404A0910504B091BF
:1028000006040196A11DB11D809303049093040456
:10281000A0930504B0930604BF91AF919F918F914F
:102820003F912F910F900FBE0F901F90189529E8A0
:10283000230F0396A11DB11DD2CF1F920F920FB689
:102840000F9211242F933F934F935F936F937F9336
:102850008F939F93AF93BF93EF93FF93E091080102
:10286000F09109010995FF91EF91BF91AF919F916F
:102870008F917F916F915F914F913F912F910F9029
:102880000FBE0F901F9018951F920F920FB60F92C8
:1028900011242F933F934F935F936F937F938F9365
:1028A0009F93AF93BF93EF93FF93E0910601F09155
:1028B00007010995FF91EF91BF91AF919F918F9182
:1028C0007F916F915F914F913F912F910F900FBE2C
:1028D0000F901F9018951F920F920FB60F92112410
:1028E0002F933F934F935F936F937F938F939F9318
:1028F000AF93BF93EF93FF93E0910401F091050133
:102900000995FF91EF91BF91AF919F918F917F9129
:102910006F915F914F913F912F910F900FBE0F904C
:102920001F9018951F920F920FB60F9211242F939C
:102930003F934F935F936F937F938F939F93AF9347
:10294000BF93EF93FF93E0910201F091030109958A
:10295000FF91EF91BF91AF919F918F917F916F9177
:102960005F914F913F912F910F900FBE0F901F904D
:1029700018951F920F920FB60F9211242F933F9329
:102980004F935F936F937F938F939F93AF93BF9377
:10299000EF93FF93E0910001F09101010995FF9100
:1029A000EF91BF91AF919F918F917F916F915F91C7
:1029B0004F913F912F910F900FBE0F901F90189540
:1029C000EF92FF920F931F93CF93DF93EC017B0164
:1029D000FB0101900020E9F731978F01061B170BCF
:1029E000B8010E94431028813981811113C021153B
:1029F000310519F0C9010E944121198218821D82F6
:102A00001C821B821A82DF91CF911F910F91FF9040
:102A1000EF9008951D830C83B701C901DF91CF9119
:102A20001F910F91FF90EF900C948B23CF931092F6
:102A30005C0610925B0688EE93E0A0E0B0E0809325
:102A40005D0690935E06A0935F06B093600628E64D
:102A500031E030935A06209359062DEC30E0309344
:102A60006606209365062CEC30E0309368062093D0
:102A7000670628EC30E030936A062093690629EC5B
:102A800030E030936C0620936B062AEC30E03093F4
:102A90006E0620936D062EEC30E030937006209386
:102AA0006F061092720610927306109274061092BE
:102AB00075061092F9061092F8068093FA06909324
:102AC000FB06A093FC06B093FD068AE791E0909385
:102AD000F7068093F6068FEF9FEF9093030780939E
:102AE00002071092700710926F0788E991E09093A7
:102AF0006E0780936D0780916507811113C0109256
:102B0000600710925F0789ED97E0909362078093CA
:102B100061078FE290E0909364078093630781E000
:102B2000809365078091570781112CC0C1E0C09345
:102B30004A07C0934B0780E597E090934D07809339
:102B40004C0710924F0710924E078CE891E090933B
:102B50004707809346071092520710925107109230
:102B6000540710925307C0935507C093560781EC42
:102B7000809350070E947D0566E477E00E94C205BD
:102B8000C0935707E0915107F0915207309709F031
:102B90006CC08FE597E09093520780935107809126
:102BA0005307909154072091630730916407820F77
:102BB000931F909354078093530710927D071092B0
:102BC0007E0783E897E09093800780937F071092B9
:102BD00082071092810784EA91E090937A078093AC
:102BE0007907109283070E947D0569E777E00E94CC
:102BF000C205109287071092860788EE93E0A0E046
:102C0000B0E08093880790938907A0938A07B093D8
:102C10008B0780EB91E0909385078093840784E095
:102C20008093900780E198E09093920880939108B8
:102C3000109294081092930810929608109295089A
:102C400010929D0810929C08109297088BE098E0D3
:102C5000909399088093980888E098E090939B0857
:102C600080939A08CF910895FC018081918100970B
:102C7000D9F78FE597E09183808391CFCF93DF934E
:102C8000CDB7DEB7CC55D1090FB6F894DEBF0FBE75
:102C9000CDBF789484B5826084BD84B5816084BDE5
:102CA00085B5826085BD85B5816085BD80916E00EA
:102CB000816080936E00109281008091810082601B
:102CC0008093810080918100816080938100809158
:102CD0008000816080938000809191008260809369
:102CE000910080919100816080939100809190008B
:102CF0008160809390008091C10084608093C100C6
:102D00008091C10082608093C1008091C100816088
:102D10008093C1008091C30081608093C300809143
:102D2000C00082608093C0008091C2008160809367
:102D3000C20080917A00846080937A0080917A004A
:102D4000826080937A0080917A008E7F80937A00EF
:102D500080917A00806880937A00109254061092D5
:102D60001A04109219048091D70081608093D700D3
:102D700080EA8093D80089B58F7E89BD89B582604D
:102D800089BD09B400FEFDCF61E070E080E090E015
:102D90000E9440088091D8008F7C80618093D80089
:102DA0008091E000807F8093E0008091E1008E7E42
:102DB0008093E1008DE08093E200559A209A0E9472
:102DC000370460E08DE00E94AA0762E370E080E0D3
:102DD00090E00E94400861E08DE00E94AA0782E036
:102DE0000E94370461E082E00E94AA0768EE73E067
:102DF00080E090E00E94400860E082E00E94AA0724
:102E00008FEF9FEF9093030780930207E09169068D
:102E1000F0916A0682E08083E0916506F091660693
:102E20001082E0916706F09168068FEC8083109223
:102E30007106E0916D06F0916E0686E08083E09168
:102E40006B06F0916C06808180618083E0916B0657
:102E5000F0916C06808188608083E0916B06F09130
:102E60006C06808180688083E0916B06F0916C062F
:102E700080818F7D808389E596E090939D08809383
:102E80009C08809190070E94370461E08091900730
:102E90000E94AA076AE070E080E090E00E9440088B
:102EA00060E0809190070E94AA0764E670E080E0ED
:102EB00090E00E94400861E0809190070E94AA077C
:102EC00068E172E086EF96E00E946C0D0EE010E083
:102ED00080919C0890919D08DC01ED91FC9100840B
:102EE000F185E02D0995892B61F080919C089091E6
:102EF0009D08DC01ED91FC910284F385E02D09959C
:102F0000E7CF60919A0870919B0844EF51E085E10A
:102F100092E00E94AF0D811163C080919C08909156
:102F20009D08DC01ED91FC910084F185E02D09956F
:102F3000892B61F080919C0890919D08DC01ED91B6
:102F4000FC910284F385E02D0995E7CF44EF51E031
:102F50006FE072E082E192E00E94AF0D811140C00B
:102F600064EF71E080E090E00E9440080150110998
:102F700009F0AECF6DED71E086EF96E00E946C0D2A
:102F800060919A0870919B0844EF51E08AED91E0BE
:102F90000E94AF0D64E670E080E090E00E9440087F
:102FA00060919A0870919B0844EF51E087ED91E0A1
:102FB0000E94AF0D64E670E080E090E00E9440085F
:102FC00060919A0870919B0844EF51E084ED91E084
:102FD0000E94AF0D64E670E080E090E00E9440083F
:102FE00060919A0870919B0844EF51E08FEC91E05A
:102FF0000E94AF0D64E670E080E090E00E9440081F
:1030000060919A0870919B0844EF51E08AEC91E03E
:103010000E94AF0D811107C069ED72E086EF96E066
:103020000E946C0DFFCF60919A0870919B0844EF4D
:1030300051E080EC91E00E94AF0D64E670E080E02A
:1030400090E00E9440080E94ED0B69EB71E086EF72
:1030500096E00E942C056EEC71E086EF96E00E94EF
:10306000BD0C6EEC71E080919C0890919D080E94CF
:10307000BD0C61E084EF91E00E94720862EB71E0A8
:1030800086EF96E00E942C0562E977E086EF96E0F5
:103090000E94BD0C67EA71E082E997E00E94FA2184
:1030A000892B09F485C083E0809391078091910773
:1030B000813081F56AE671E086EF96E00E942C058A
:1030C00062ED71E086EF96E00E94BD0C62ED71E06A
:1030D00080919C0890919D080E94BD0C61E084EF56
:1030E00091E00E94720863E671E086EF96E00E942C
:1030F0002C0562E977E086EF96E00E94BD0C6BE557
:1031000071E082E997E00E94FA21892B19F086E0AC
:103110008093910760919A0870919B0844EF51E069
:1031200084E491E00E94AF0D68EB7BE080E090E0EA
:103130000E94400869ED71E089E596E00E94C40DA7
:1031400064EF71E080E090E00E94400883EC92E040
:10315000909392088093910810929408109293088B
:10316000109296081092950860919A0870919B08A9
:1031700044EF51E088E692E00E94AF0D811141C01A
:103180000FEF002E000C110B63EB72E086EF96E060
:103190000E942C05C8010E94700C0F3F100709F017
:1031A00057C064EF71E080E090E00E944008DCCFFF
:1031B0006CE971E082E997E00E94FA21892B11F015
:1031C00082E072CF61E971E082E997E00E94FA2122
:1031D000892B11F081E068CF61E871E082E997E026
:1031E0000E94FA21892B11F084E05ECF61E771E043
:1031F00082E997E00E94FA21892B09F457CF85E0F4
:1032000053CF20E0AE014F5F5F4F69E572E08FE57D
:1032100092E00E943F0F882311F00981B2CF20E095
:10322000AE014F5F5F4F6AE472E080E592E00E947A
:103230003F0F8111F2CF20E0AE014F5F5F4F69E396
:1032400072E081E492E00E943F0F8111E6CF98CFB7
:1032500061EA72E086EF96E00E946C0D64EF71E027
:1032600080E090E00E94400844E650E069E872E0A7
:103270008CE892E00E94AF0D811103C0012B09F090
:1032800090CF67EE71E089E596E00E94C40D62E799
:1032900072E086EF96E00E946C0D6E01EBE5CE0EBB
:1032A000D11C8E010F5F1F4F2E01F5E04F0E511CF8
:1032B00033E1632E36E0732E43EFA42E41E0B42EAB
:1032C0005BE1252E54E0352E68EB7BE080E090E05A
:1032D0000E94400884E897E00E94E10B892B09F4E2
:1032E0000AC7D6011D921C9223E1E22E26E0F22E9F
:1032F00084E897E00E94C90BF70181934F01682F82
:1033000086EF96E00E94E80661E070E080E090E0E1
:103310000E944008D7018C918A3061F084E897E0E0
:103320000E94E10B892B31F0B2E58B16B6E09B06CB
:1033300009F098C0F7011182DF92CF92BF92AF924D
:103340007F926F920E94C9230F900F900F900F9061
:103350000F900F90019709F0CEC662EE75E086EFF0
:1033600096E00E942C05D6018D919C910E94700CD4
:10337000F601F08060919A0870919B0844EF51E04B
:1033800080E693E00E94AF0D882309F46FC060913E
:103390009A0870919B0844EF51E086E593E00E9403
:1033A000AF0D882309F462C06DE473E086EF96E008
:1033B0000E942C056F2D86EF96E00E94A60C64E417
:1033C00073E080919C0890919D080E942C056F2DC0
:1033D00080919C0890919D080E94A60C60E088EE68
:1033E00093E00E94720862E977E086EF96E00E941F
:1033F000BD0C6DE373E082E997E00E94FA2100972B
:1034000099F16CE270E006960E947723009761F1D3
:10341000DC01119640E050E0242F30E0FD010190E6
:103420000020E9F7CF0101978A1B9B0B281739076A
:1034300008F083C62A0F3B1FF90180818C3209F402
:103440007CC6823249F023E330E02C0F3D1F250F6C
:10345000311DF90180835F5F4F5F5F31E8F20E94A9
:10346000ED0B0AC0740144CF0E94ED0B61EC75E0D6
:1034700086EF96E00E946C0DD601FC9060919A0850
:1034800070919B0844EF51E083E393E00E94AF0DFD
:10349000882309F465C160919A0870919B0844EFF4
:1034A00051E089E293E00E94AF0D882309F458C1EE
:1034B0001A82198260E273E086EF96E00E942C0582
:1034C0006F2D86EF96E00E94A60C67E173E0809175
:1034D0009C0890919D080E942C056F2D80919C085E
:1034E00090919D080E94A60C60E088EE93E00E94F7
:1034F000720862E977E086EF96E00E94BD0C4BE02F
:10350000B80180E193E00E940C0F882309F428C1E0
:1035100089809A80F12CE12C8E149F0421F1BEEF5A
:10352000EB16F10401F180919C0890919D08DC015B
:10353000ED91FC910084F185E02D0995892B61F3D3
:1035400080919C0890919D08DC01ED91FC91028492
:10355000F385E02D0995F701EC57F84F8687BFEF0B
:10356000EB1AFB0AD9CFF701EC57F84F16860E94E9
:10357000ED0BE2E9F7E001900020E9F7CF01835974
:1035800097407C0197E9E916F10418F096E9E92ED5
:10359000F12CA70162E977E08DE795E00E94A02376
:1035A000F701E358FA4F108262E977E086EF96E080
:1035B0000E94BD0C4AE050E062E072E08DE795E0C9
:1035C0000E949223892B09F05DC064EF71E080E0D6
:1035D00090E00E94400863E88DE697E00E94BE0AF2
:1035E00062E370E080E090E00E94400862E78DE6D0
:1035F00097E00E94BE0A0E94AA0968EE73E080E08C
:1036000090E00E9440086DE072E08DE697E00E9435
:10361000C40D68EE73E080E090E00E9440080E94D4
:10362000260B68EE73E080E090E00E94400862E6BE
:1036300075E08DE697E00E942C056CE271E080E079
:1036400090E00E94400867E875E08DE697E00E94F0
:10365000C40D6CE271E080E090E00E94400862EDF1
:1036600074E08DE697E00E942C0568EE73E080E040
:1036700090E00E9440080E94260B68EE73E080E014
:1036800090E06CC04AE050E068E172E08DE795E0C0
:103690000E949223892B09F0A4C064EF71E080E0BE
:1036A00090E00E94400860E88DE697E00E94BE0A24
:1036B00062E370E080E090E00E94400862E88DE6FE
:1036C00097E00E94BE0A62E370E080E090E00E9412
:1036D000400864E78DE697E00E94BE0A62E370E06E
:1036E00080E090E00E9440080E94AA0968EE73E022
:1036F00080E090E00E9440080E94260B60EB74E09E
:1037000080E090E00E94400861E874E08DE697E078
:103710000E942C056CE271E080E090E00E9440087D
:1037200067E875E08DE697E00E94C40D6CE271E0F9
:1037300080E090E00E94400869E774E08DE697E041
:103740000E942C056CED75E080E090E00E9440083E
:103750000E94260B6CED75E080E090E00E9440082E
:103760006AE3CE018D5A9F4F0E948E1080917B0597
:1037700090917C05019789F469968EAD9FAD69970C
:10378000892B59F06BE673E065968EAD9FAD65971A
:103790000E948223892B09F4E0C3809179059091DE
:1037A0007A05892B09F090C469968EAD9FAD699713
:1037B000892B09F489C46BE673E065968EAD9FADE5
:1037C00065970E948223892B09F07EC46AE0C801B4
:1037D0000E948E1069817A81CE01C3960E94880F63
:1037E00070C44AE050E063E272E08DE795E00E9429
:1037F0009223892B09F071C064EF71E080E090E0C2
:103800000E94400863E88DE697E00E94BE0A62E3EA
:1038100070E080E090E00E94400860E28DE697E072
:103820000E94BE0A0E94AA0968EE73E080E090E060
:103830000E9440086EE272E08DE697E00E94C40D9F
:1038400068EE73E080E090E00E9440080E94260B42
:1038500068EE73E080E090E00E9440086DE374E061
:103860008DE697E00E942C056CE271E080E090E02C
:103870000E94400867E875E08DE697E00E94C40D5D
:103880006CE271E080E090E00E94400863E274E046
:103890008DE697E00E942C0568EE73E080E090E0F2
:1038A0000E9440080E94260B68EE73E080E090E0E2
:1038B0000E94400863E88DE697E00E94BE0A62E33A
:1038C00070E080E090E00E94400861E78DE697E0BC
:1038D0000E94BE0A0E94AA0943CF49E050E06BE370
:1038E00072E08DE795E00E949223892B09F06BC06E
:1038F00064EF71E080E090E00E9440080E94C60DF5
:10390000811106C06CE074E086EF96E00E946C0DB9
:1039100065E472E089E596E00E94BD0C68EE73E014
:1039200080E090E00E94400863E672E089E596E05E
:103930000E94BD0C60ED77E080E090E00E944008BE
:103940006EE872E089E596E00E94BD0C68EE73E0D7
:1039500080E090E00E94400865EA72E089E596E028
:103960000E94BD0C68EE73E080E090E00E94400889
:103970006BEB72E089E596E00E94BD0C60ED77E0AC
:1039800080E090E00E94400868EC72E089E596E0F3
:103990000E94BD0C64EF71E080E090E00E9440085E
:1039A00065ED72E0CE01C3960E94880F81E090E041
:1039B00090937C0580937B0588EE92E090937A0546
:1039C00080937905CDCE4CE050E06EEE72E08DE74D
:1039D00095E00E949223892BF1F580E00E94E70E8A
:1039E000811106C064EF73E086EF96E00E946C0DD3
:1039F00064EF71E080E090E00E9440086BEF72E0BD
:103A000089E596E00E94BD0C68EE73E080E090E0EE
:103A10000E94400866E073E089E596E00E94BD0CD4
:103A200068EE73E080E090E00E94400863E173E09C
:103A300089E596E00E94BD0C10927A0510927905F6
:103A400010927C0510927B056EE173E0CE01C39667
:103A50000E94880F85CE44E050E068E072E08DE778
:103A600095E00E949223892B29F564EF71E080E0B4
:103A700090E00E94400863E88DE697E00E94BE0A4D
:103A800062E370E080E090E00E94400862E78DE62B
:103A900097E00E94BE0A0E94AA0968EE73E080E0E7
:103AA00090E00E94400861E875E08DE697E00E9492
:103AB000C40DDBCD44E050E06EE172E08DE795E0AF
:103AC0000E949223892B09F048C064EF71E080E0E6
:103AD00090E00E94400860E88DE697E00E94BE0AF0
:103AE00062E370E080E090E00E94400862E88DE6CA
:103AF00097E00E94BE0A62E370E080E090E00E94DE
:103B0000400864E78DE697E00E94BE0A62E370E039
:103B100080E090E00E9440080E94AA0968EE73E0ED
:103B200080E090E00E9440080E94260B6CED75E05A
:103B300080E090E00E94400868ED73E08DE697E039
:103B40000E94C40D61E875E08DE697E00E94C40D07
:103B50006CED75E080E090E08CCD44E050E069E2EF
:103B600072E08DE795E00E949223892B09F041C015
:103B700064EF71E080E090E00E94400863E88DE629
:103B800097E00E94BE0A62E370E080E090E00E944D
:103B9000400860E28DE697E00E94BE0A0E94AA09F2
:103BA00068EE73E080E090E00E9440086EE272E010
:103BB0008DE697E00E94C40D68EE73E080E090E02F
:103BC0000E9440080E94260B68EE73E080E090E0BF
:103BD0000E94400861E875E08DE697E00E94C40D00
:103BE00068EE73E080E090E00E9440080E94260B9F
:103BF000B7CD44E050E060E373E08DE795E00E94CC
:103C00009223892B09F059C068EE73E080E090E0C0
:103C10000E94400884E0E1E4F1E0D80101900D92B7
:103C20008A95E1F78FE1D2011D928A95E9F741E883
:103C300055E0FA0101900020E9F7AF0142585540E4
:103C40004F31510510F04EE150E061E875E0CE01D2
:103C500004960E94A023F80101900020E9F7319713
:103C6000E01BF10BFF27D801AE0FBF1F8BE38C9336
:103C700082E090E08C0F9D1FE80FF91F1082E0900A
:103C80009A08F0909B08C8010E943F0D882339F0E4
:103C9000B70182E997E00E94E821892B39F068EEAC
:103CA00073E086EF96E00E946C0D5ACD61EC73E0F4
:103CB00086EF96E00E946C0DE0CC4CE050E065E3AE
:103CC00073E08DE795E00E949223892B09F07BC079
:103CD0000E94C60D811106C06AEA73E086EF96E085
:103CE0000E946C0D6CED75E080E090E00E94400851
:103CF00060E177E28FEF92E00E947E0D40E0BE012E
:103D00006D5A7F4F82EF92E00E940C0F8823F1F1F1
:103D100040EA57E0DA010D900020E9F7AD01415A81
:103D200057404233510510F041E350E04F5F5F4F81
:103D300060EA77E0C8010E94A02360E084EF91E090
:103D40000E94720865968EAD9FAD6597892B29F507
:103D5000B80186EF96E00E94BD0C6CED75E080E046
:103D600090E00E94400880E00E94E70E811106C0AA
:103D70006EE773E086EF96E00E946C0D6CED75E0E7
:103D800080E090E00E944008B80160CE62EA73E0F3
:103D900086EF96E00E946C0DD5CF66E973E086EF62
:103DA00096E00E942C0565964EAD5FAD659770E07C
:103DB00060E02AE086EF96E00E94200C86EF96E015
:103DC0000E946C0CCACF47E050E062E473E08DE7DC
:103DD00095E00E949223892B09F051C08DB69EB6C2
:103DE00064EF71E080E090E00E9440081A8219823E
:103DF0001C821B821E821D82C8010E946B10809152
:103E00008307982F9A726DE573E09A3261F0982FCC
:103E1000997067E573E0913031F06AE473E085FDF5
:103E200002C061E573E0C8010E94E0144D815E812B
:103E30004F5F5F4FEDB7FEB7E41BF50B0FB6F8947D
:103E4000FEBF0FBEEDBF8DB79EB701967C01BC01D2
:103E5000C8010E945F0F68EC70E080E090E00E9473
:103E60004008B701CE01C3960E94880FC8010E9486
:103E70003B100FB6F8949EBE0FBE8DBE71CC45E0D0
:103E800050E065E673E08DE795E00E949223892B70
:103E900009F059C08DB69EB664EF71E080E090E005
:103EA0000E94400821E0AE01475A5F4F64EE72E085
:103EB0008BEE92E00E943F0F6A968FAD6A976596EF
:103EC0001FAE1EAE659767961FAE1EAE67976996CA
:103ED0001FAE1EAE69974AE0B80190E00E941C2216
:103EE000B801CE018D5A9F4F0E94E01469964EADE5
:103EF0005FAD69974F5F5F4FADB7BEB7A41BB50B02
:103F00000FB6F894BEBF0FBEADBFEDB7FEB731968A
:103F10007F01BF01CE018D5A9F4F0E945F0FB701F5
:103F2000CE01C3960E94880F64E773E086EF96E0A7
:103F30000E942C05B70186EF96E00E94BD0CCE01D1
:103F40008D5A9F4F94CF8091790590917A05019772
:103F500009F406CC6AE673E0A4CE1A8219821C82A8
:103F60001B821E821D82C8010E946B100E942C07BA
:103F7000ED80FE8097FD1DC06A968FAF6A976B96A5
:103F80001FAE6B97FFEFEF1AFF0AB701C8010E943F
:103F90004310882359F329813A818D819E81BE0186
:103FA000675A7F4F820F931F0E948B23FE82ED8200
:103FB000DDCFE114F10409F0ABC010921B0464EFF3
:103FC00071E080E090E00E944008F1010190002043
:103FD000E9F7DF01AC51B4407D0168EE73E080E0A9
:103FE00090E00E9440086FE673E089E596E00E9449
:103FF000BD0C68EE73E080E090E00E9440086BE743
:1040000073E089E596E00E94BD0C60ED77E080E00A
:1040100090E00E9440086FE873E089E596E00E9416
:10402000BD0C60ED77E080E090E00E9440086AEB14
:1040300073E089E596E00E94C40DA70170E060E09E
:104040002AE089E596E00E94200C67EC73E089E5A0
:1040500096E00E94BD0C64EF71E080E090E00E9469
:10406000400861ED73E086EF96E00E94C40D4D813B
:104070005E8169817A8186EF96E00E94B70986EFBA
:1040800096E00E946C0C6DEC73E086EF96E00E9467
:10409000C40D6BE174E086EF96E00E94BD0C6BE10D
:1040A00074E089E596E00E94BD0C64EF71E080E069
:1040B00090E00E9440086AED73E089E596E00E9476
:1040C000BD0CC8010E943B1064EF71E080E090E0FD
:1040D0000E9440086CED75E080E090E00E9440088E
:1040E0006CEE73E089E596E00E94C40DCE018D5A16
:1040F0009F4F0E943B1080E090E0892B09F4E4C8B8
:104100000E944706882309F4D3C80E940000CCC847
:104110008DE5E81681E0F80620F08DE5E82EFF2415
:10412000F39469817A81A7018BE194E00E94A02336
:10413000F701E55EFB4F108242CFE3E3F0E0EC0FC6
:10414000FD1FE50FF11D10828AC90F931F93CF93B6
:10415000DF938230910510F482E090E0E091A008B6
:10416000F091A10830E020E0B0E0A0E0309799F4B1
:104170002115310509F44AC0281B390B24303105BB
:10418000D8F58A819B816115710589F1FB019383C3
:104190008283FE0111C04081518102811381481741
:1041A0005907E0F04817590799F4109761F01296F3
:1041B0000C93129713961C933296CF01DF91CF91F7
:1041C0001F910F9108950093A0081093A108F4CFB8
:1041D0002115310551F04217530738F0A901DB01D1
:1041E0009A01BD01DF01F801C1CFEF01F9CF909332
:1041F000A1088093A008CDCFFE01E20FF31F8193A9
:1042000091932250310939832883D7CF20919E087A
:1042100030919F08232B41F420911F013091200100
:1042200030939F0820939E0820911D0130911E011C
:104230002115310541F42DB73EB740912101509130
:104240002201241B350BE0919E08F0919F08E21794
:10425000F307A0F42E1B3F0B2817390778F0AC01A9
:104260004E5F5F4F2417350748F04E0F5F1F509386
:104270009F0840939E08819391939FCFF0E0E0E0E8
:104280009CCFCF93DF930097E9F0FC013297138224
:104290001282A091A008B091A108ED0130E020E0C9
:1042A0001097A1F420813181820F931F20919E08E5
:1042B00030919F082817390709F061C0F0939F08D3
:1042C000E0939E08DF91CF910895EA01CE17DF07B2
:1042D000E8F54A815B819E0141155105B1F7E9017D
:1042E000FB83EA8349915991C40FD51FEC17FD0751
:1042F00061F4808191810296840F951FE901998371
:104300008883828193819B838A83F0E0E0E0129628
:104310008D919C9113970097B9F52D913C91119730
:10432000CD010296820F931F20919E0830919F0825
:104330002817390739F6309751F51092A1081092D5
:10434000A008B0939F08A0939E08BCCFD383C283DC
:1043500040815181840F951FC817D90761F44E5FC2
:104360005F4F88819981480F591F518340838A810B
:104370009B81938382832115310509F0B0CFF0939F
:10438000A108E093A0089ECFFD01DC01C0CF1382FD
:104390001282D7CFFC0188279927E89421912032F7
:1043A000E9F3293010F02E30C8F32B3241F02D32D2
:1043B00039F4689404C00E941422820F911D219147
:1043C00020532A30C0F31EF4909581959F4F089595
:1043D000FB01DC018D91059080190110D9F3990B37
:1043E0000895FC0105900020E9F7809590958E0FC7
:1043F0009F1F0895FB0155915523A9F0BF01DC01D2
:104400004D9145174111E1F759F4CD010590002078
:1044100049F04D9140154111C9F3FB014111EFCF16
:1044200081E090E0019708957AE0979F902D879F13
:10443000802D910D11240895BB27FB015527AA2734
:10444000880F991FAA1FA41710F0A41B8395505121
:10445000B9F7A05DAA3308F0A95DA193009779F799
:10446000B111B1931192CB010C943F2291110C9494
:104470004F22803219F089508550C8F70895DC0129
:10448000FC01672F71917723E1F7329704C07C918B
:104490006D9370836291AE17BF07C8F30895992793
:1044A000882708952F923F924F925F926F927F924A
:1044B0008F929F92AF92BF92CF92DF92EF92FF9234
:1044C0000F931F93CF93DF93CDB7DEB7CA1BDB0BE0
:1044D0000FB6F894DEBF0FBECDBF09942A88398885
:1044E00048885F846E847D848C849B84AA84B9848C
:1044F000C884DF80EE80FD800C811B81AA81B98198
:10450000CE0FD11D0FB6F894DEBF0FBECDBFED01AB
:104510000895A1E21A2EAA1BBB1BFD010DC0AA1F04
:10452000BB1FEE1FFF1FA217B307E407F50720F01C
:10453000A21BB30BE40BF50B661F771F881F991F97
:104540001A9469F760957095809590959B01AC01E0
:10455000BD01CF010895EE0FFF1F0590F491E02DEE
:104560000994B0E0A0E0E7EBF2E20C9454228C0155
:10457000009751F4CB010E94A5208C01C801CDB752
:10458000DEB7E0E10C947022FC01E60FF71F9C01FE
:1045900022503109E217F30708F49DC0D901CD91EB
:1045A000DC911197C617D70798F0C530D10530F3C5
:1045B000CE0104978617970708F3C61BD70B2297DF
:1045C000C193D1936D937C93CF010E944121D6CFAB
:1045D0005B01AC1ABD0A4C018C0E9D1EA091A00877
:1045E000B091A108512C412CF12CE12C109731F500
:1045F00080919E0890919F088815990509F05CC0EC
:104600004616570608F058C080911D0190911E0172
:10461000009741F48DB79EB740912101509122013E
:10462000841B950BE817F90708F055C0F0939F0815
:10463000E0939E08F90171836083A0CF8D919C91D6
:10464000119712966C90129713967C901397A81559
:10465000B90559F56C0142E0C40ED11CCA14DB0443
:1046600020F1AC014A195B09DA011296159780F026
:104670006282738251834083D9016D937C93E114EC
:10468000F10471F0D7011396FC93EE93129776CF55
:1046900022968C0F9D1FF90191838083F301EFCF48
:1046A000F093A108E093A00869CF4816590608F4D2
:1046B0002C017D01D3019ACFCB010E94A5207C0162
:1046C000009749F0AE01B8010E946E23C8010E9414
:1046D0004121870153CF10E000E050CFFB01DC0106
:1046E00002C001900D9241505040D8F70895FC014E
:1046F0008191861721F08823D9F79927089531975A
:10470000CF010895FB01DC018D910190801901100A
:10471000D9F3990B0895FB01DC0101900D92002063
:10472000E1F70895FB01DC014150504030F08D91DC
:104730000190801919F40020B9F7881B990B08958E
:10474000FB01DC014150504048F001900D920020E7
:10475000C9F701C01D9241505040E0F70895FB0198
:1047600051915523A9F0BF01DC014D91451741112D
:10477000E1F759F4CD010190002049F04D91401529
:104780004111C9F3FB014111EFCF81E090E00197A6
:104790000895AEE0B0E0EFECF3E20C94622285E025
:1047A0008C838B899C899A838983AE01495E5F4F94
:1047B0006D897E89CE0101960E946D252E96E2E0DC
:1047C0000C947E2220FD09C0FC0123FD05C022FFC0
:1047D00002C07383628351834083089544FD17C0F0
:1047E00046FD1DC0DB01FC01AA0FBB1FEE1FFF1F12
:1047F0001094D1F76A0F7B1F8E1F9F1F660F771FC4
:10480000881F991F620F711D811D911D089533E04E
:10481000660F771F881F991F3150D1F7F3CF34E00F
:10482000F7CF0F931F93CF93DF938C01C8010E94A2
:104830007D26EC0197FD08C00E943622892BB1F736
:10484000B801CE010E94B926CE01DF91CF911F9110
:104850000F9108958F929F92AF92BF92EF92FF9225
:104860000F931F93CF93DF938C01D62F7A01B22E33
:104870000E947D269C0133272B32310529F02D32F1
:104880003105A9F46894B7F8D15061F480E0DF9164
:10489000CF911F910F91FF90EF90BF90AF909F909D
:1048A0008F900895C8010E947D2697FDEFCFCB2DF4
:1048B000CD7F2B2D2073F9F48033E9F4AA24AA9438
:1048C000AD0E89F0C8010E947D2697FD0CC0282FEF
:1048D0002F7D283561F4C264D25029F0C8010E94AE
:1048E0007D2697FF08C0812C912C54011BC0B6FE79
:1048F0002BC0C260DA2D812C912C540120ED280FA1
:10490000283028F1C4FD09C02A3008F1C6FF05C0CF
:104910002F7D3FEE320F3630C8F0B8010E94B92625
:10492000C1FFB4CFC7FF08C0B094A0949094809406
:10493000811C911CA11CB11C2C2FB501A401C70125
:104940000E94E22381E0A3CFC261D4CF27504C2F35
:10495000C501B4010E94EE234B015C01C260D1503D
:1049600009F3C8010E947D2697FFC8CFD9CFA0E2E6
:10497000B0E0EDEBF4E20C9457225C01962E7A0144
:10498000CE0101966C0180E2F60111928A95E9F759
:10499000F501B381890130E020E0712C812CA0E089
:1049A00041E050E0F801B3FD8591B3FF8191982F6C
:1049B0008F01811107C010E000E0C801A096EDE072
:1049C0000C9473228E3519F42115310541F1A2178B
:1049D00013064CF48D3549F18D3229F4811006C04F
:1049E000882483941DC0882009F464C0E92FE695CB
:1049F000E695E695EC0DFD2DF11D892F8770BA0126
:104A000001C0660F8A95EAF78081682B608379166A
:104A100051F0971510F49F5FE9CF9150E7CFA1E0D7
:104A20002F5F3F4FBFCF812CFBCF882019F08E81A5
:104A300080628E83AA2359F0F6019E012F5D3F4FBD
:104A40008081809580833196E217F307C9F7882427
:104A50008394C5010E947D2697FD16C0E82FE69538
:104A6000E695E695EC0DFD2DF11D208130E0AC01C1
:104A70004770552702C0359527954A95E2F720FDE6
:104A800006C0B5010E94B926882069F094CFE114D0
:104A9000F10429F0F7018083C70101967C019A9403
:104AA000812C9110D6CFE114F10409F486CFF701DF
:104AB000108283CFE82FE695E695E695EC0DFD2D67
:104AC000F11D982F9770BA0101C0660F9A95EAF709
:104AD0009081692B6083782EA3CFB0E0A0E0E3E75C
:104AE000F5E20C9455226C01EB015A01FC0117828E
:104AF0001682512CF601E380FE01E3FC8591E3FE72
:104B00008191182FEF018823E9F090E00E9436226E
:104B1000892B21F0C6010E941124ECCF153241F4FB
:104B2000FE01E3FC1591E3FE1191EF01153269F4EA
:104B3000C6010E947D2697FD8EC01817D9F2B601D6
:104B40000E94B926852D90E08AC000E01A3231F427
:104B5000E3FC1591E3FE1191EF0101E0F12C20ED52
:104B6000210F2A3048F101FF37C0FF2059F31836D2
:104B7000B1F11C3609F43DC0112321F3612F70E01F
:104B80008CEA90E00E947226892BE1F2912C812C14
:104B900000FD06C0F50180809180C50102965C0190
:104BA0001E3679F5F6014681578170E060E0202FCE
:104BB000C4010E94E2239ECF02606F2D70E090E05E
:104BC00080E040E20E94EE23F62EFE01E3FC159108
:104BD000E3FE1191EF01C3CFFF24FA94C8CFFE0189
:104BE000E3FC1591E3FE1191EF01183609F0C4CFF3
:104BF00008600460FE01E3FC1591E3FE1191EF01F2
:104C0000BBCF1336C1F401FD02C0FF24F394C601EB
:104C10000E947D2697FD1FC08114910429F0F401A4
:104C20008083C40101964C01FA94F110F0CF00FD8D
:104C300061CF53945FCF1B35B9F49E01A4016F2D52
:104C4000C6010E94B724EC01892B89F7F601838104
:104C5000807309F477CF8FEF9FEF511073CFCDB7EB
:104C6000DEB7EFE00C947122C6010E94112497FD7B
:104C7000F2CF1F36A9F130F4143641F0193639F06D
:104C8000006405C01337B9F01537D1F70062202F43
:104C9000A4016F2DC6010E942A248111C8CFD6CF4E
:104CA0008114910429F0F4016082C40101964C0141
:104CB000FA94FF2071F0C6010E947D263C0197FD09
:104CC00008C00E943622892B59F3B601C3010E9405
:104CD000B9268114910409F4AACFF4011082A7CF58
:104CE0000061D5CFFC010590061621F00020D9F710
:104CF000C00108953197CF010895CF93DF93EC0160
:104D00002B8120FF1AC026FF0CC02F7B2B838E81A6
:104D10009F8101969F838E838A8190E0DF91CF915E
:104D2000089522FF18C0E881F9818081082E000CC7
:104D3000990B009729F420622B838FEF9FEFEECF22
:104D40003196F983E8832E813F812F5F3F4F3F8368
:104D50002E839927E3CFEA85FB85099597FFF3CF4B
:104D60002B81019621F080E2822B8B83E6CF80E1BC
:104D7000FBCFFB01238120FF11C026FD0FC08F3F19
:104D8000980771F082832F7D2064238326813781E9
:104D90002150310937832683992708958FEF9FEF9C
:104DA0000895F894FFCFCD09CD09CD09CD09CD09DE
:104DB00000C18081000000FFFFFFFF00E100000054
:104DC0000000000000A208800041542B434D4753CF
:104DD0003D22000000000000000000000000000074
:104DE00000000000000000415444000000000000EA
:104DF00000000000000000000000000000000000B3
:104E000000000000000000000000000000007C0620
:104E100050050A06C8063B0619062D0600000000CC
:104E2000E806B7090907FE0690070E076C070000A1
:104E30000000CE09470A0C0AF10900000000410BEE
:104E4000920A0E0C0D0C00000000860BA70B880BBD
:104E5000AA0B00000000D50B50050E0CB10BE10BA6
:104E6000C90BBD0B222C22005E5A002B434D475329
:104E7000004F4B004154490041542B474D4D0041D8
:104E8000542B434E4D493D322C310D0A0041542BD9
:104E9000434C49523D310D0A002B434D54493A20B1
:104EA00022534D222C256400616972676170776915
:104EB0006E3A00706F7765727368656C6C0061693B
:104EC000726761706E69783A006169726761706FCC
:104ED00073783A007465726D696E616C2E617070E2
:104EE0000068796272696443323A0041542B53413D
:104EF0005042523D332C312C22434F4E5459504591
:104F0000222C2247505253220041542B53415042ED
:104F1000523D332C312C2241504E222C2270696E8E
:104F20007465726E65742E696E7465726B6F6D2E2A
:104F30006465220041542B53415042523D332C3181
:104F40002C2255534552222C22220041542B5341EE
:104F50005042523D332C312C22505744222C2222D5
:104F60000041542B53415042523D312C31004154A9
:104F70002B53415042523D322C31004879627269C4
:104F800064433220616374697661746564007061A2
:104F90007573650068796272696443326F66663A58
:104FA0000041542B434950534855540041542B530E
:104FB000415042523D302C310041542B4347415423
:104FC000543D3000487962726964433220646973E9
:104FD00061626C6564007370793A006765746C6F28
:104FE000636174696F6E3A00656E756D6F733A0038
:104FF000756E73757265004D61634F53004C696E39
:1050000075780057696E646F777300626174743AE3
:10501000004241470041542B48545450494E495492
:105020000041542B48545450504152413D22434971
:1050300044222C310041542B485454505041524189
:105040003D2255524C222C22687474703A2F2F68DE
:1050500074747062696E2E6F72672F6765742200B8
:1050600041542B48545450444154413D002C353058
:10507000303000677072734169726761703A200066
:1050800041542B48545450414354494F4E203D20E5
:10509000310041542B434D4744413D2244454C206F
:0850A000414C4C220D0A0000F6
:1070000055C000006EC000006CC000006AC00000E7
:1070100068C0000066C0000064C0000062C00000DC
:1070200060C000005EC00000FCC400005AC0000048
:1070300058C0000056C0000054C0000052C00000FC
:1070400050C000005DC000004CC000004AC00000FD
:1070500048C0000046C0000044C0000042C000001C
:1070600040C000003EC000003CC000003AC000002C
:1070700038C0000036C0000034C0000032C000003C
:1070800030C000002EC000002CC000002AC000004C
:1070900028C0000026C0000024C0000022C000005C
:1070A00020C000001EC000001CC0000011241FBE34
:1070B000CFEFDAE0DEBFCDBF11E0A0E0B1E0E2E467
:1070C000FFE702C005900D92A83BB107D9F711E088
:1070D000A8EBB1E001C01D92A13DB107E1F74FD38C
:1070E0002EC78ECFF89410926F001092810081E02D
:1070F00085BF15BE47985D9A289A0C9400000895A4
:107100001F920F920FB60F9211242F938F939F937C
:10711000EF93FF9310928500109284008091B80144
:107120009091B901009741F001979093B901809334
:10713000B801892B09F45D9A8091BA019091BB0145
:10714000009741F001979093BB018093BA01892B7E
:1071500009F4289A8091BE019091BF010196909305
:10716000BF018093BE01E0E0F0E0859194918F5FD4
:107170009F4F49F08091BC019091BD010196909381
:10718000BD018093BC01FF91EF919F918F912F9151
:107190000F900FBE0F901F90189584E08093E90028
:1071A0000DC08091E8008B778093E80003C08EB318
:1071B000882351F08091E80082FFF9CF8091E800A8
:1071C00085FFEFCF8091F1000895982F83E08093A1
:1071D000E9008091E80085FD0DC08091E8008E7780
:1071E0008093E80003C08EB3882369F08091E800A3
:1071F00080FFF9CF9093F1005D9884E690E0909342
:10720000B9018093B80108954F925F926F927F9277
:107210008F929F92AF92BF92CF92DF92EF92FF92A6
:107220000F931F93CF93DF9384E08093E9008091C5
:10723000E80082FF57C2289884E690E09093BB0153
:107240008093BA01AADF182F853481F48CEA9DE07F
:107250009093BD018093BC0107B600FCFDCFF99966
:10726000FECF81E180935700E89503C0843519F47F
:1072700094DF8DE00DC28C34E1F38035D1F3843797
:1072800021F484E4A2DF80E003C2813611F489E5B1
:10729000FFC18134B1F481DF182F7FDF90E0880FC8
:1072A000991FAA2797FDA095BA2F312F330F20E001
:1072B000442737FD4095542F822B932BA42BB52BBD
:1072C000B8C1803711F483E5E3C1833549F4C0E0E8
:1072D000D1E089917ADF21E0C730D207D1F7D9C157
:1072E000863521F481E371DF80E3D2C1833731F445
:1072F00087E86BDF85E969DF8EE1CAC18536B9F4BD
:10730000E0E0F0E093E085E090935700E89507B661
:1073100000FCFDCF80935700E89507B600FCFDCF39
:10732000E058FF4FA0E7E030FA0771F7A2CF8237AD
:1073300039F4E1E0F0E089E0809357008491A8C13E
:10734000863439F4E0E0F0E089E0809357008491DE
:107350009FC18E3439F4E3E0F0E089E08093570078
:10736000849196C1813539F4E2E0F0E089E08093C0
:10737000570084918DC1823631F489E526DF80E0A3
:1073800024DF80E885C1823419F0873609F0E5C032
:107390001092BD011092BC0100DF082FFEDEF82E16
:1073A000FCDE682E8554823008F071C1902F80E099
:1073B000CF2DD0E0C82BD92B10926F00173609F0D3
:1073C0004BC081E180935700E895DD24CC24C39421
:1073D0003FC0E090C101F090C2010091C301109143
:1073E000C401B6E46B16D9F4ED2DF0E0EE29FF29C7
:1073F000E4918E2FEADEDD2081F082E090E0A0E0D3
:10740000B0E0E80EF91E0A1F1B1FE092C101F092C6
:10741000C2010093C3011093C401DC2418C0D80139
:10742000C701B695A7959795879573D5CEDE82E06F
:1074300090E0A0E0B0E0E80EF91E0A1F1B1FE092EA
:10744000C101F092C2010093C3011093C4012197BE
:10745000209709F0BECF7DC08090C1019090C201FD
:10746000A090C301B090C40196E4691609F05DC014
:1074700083E0F40180935700E89507B600FCFDCF48
:1074800054C0F6E46F1661F5772031F1E090C10148
:10749000F090C2010091C3011091C4017EDED82E8C
:1074A000CC24852D90E08C299D29F7010C01409278
:1074B0005700E895112482E090E0A0E0B0E0E80EEB
:1074C000F91E0A1F1B1FE092C101F092C201009336
:1074D000C3011093C40102C060DE582E742423C07F
:1074E000E090C101F090C2010091C3011091C4016C
:1074F00016950795F794E79450DE682FC70111D5CC
:107500008091C1019091C201A091C301B091C401C9
:107510000296A11DB11D8093C1019093C201A09359
:10752000C301B093C401219704C055247724442497
:107530004394209709F0A5CF96E4691641F485E0BD
:10754000F40180935700E89507B600FCFDCF8DE06D
:107550003CDE82E080936F009CC0833471F4009124
:10756000C1011091C20119DE90E021E0F8010C0187
:1075700020935700E89511247CCE833619F5E090CE
:10758000C101F090C2010091C3011091C40105DE58
:10759000F701E16090E021E00C0120935700E895AD
:1075A000112482E090E0A0E0B0E0E80EF91E0A1F8E
:1075B0001B1FE092C101F092C2010093C30110931E
:1075C000C40157CE8D3661F4E091C101F091C20142
:1075D00085E080935700E89507B600FCFDCF49CEC3
:1075E000823551F4E091C101F091C20105911491ED
:1075F000812FEBDD802F4CC0843421F5E090C10158
:10760000F090C2010091C3011091C4011695079535
:10761000F794E794C2DD682FC70183D48091C1013C
:107620009091C201A091C301B091C4010296A11D25
:10763000B11D8093C1019093C201A093C301B09387
:10764000C40117CE843609F5E090C101F090C20163
:107650000091C3011091C401D801C701B695A79547
:107660009795879556D4B1DD82E090E0A0E0B0E038
:10767000E80EF91E0A1F1B1FE092C101F092C20121
:107680000093C3011093C40104C08B3111F08FE348
:107690009CDD83E08093E9009091E8008091E80010
:1076A0008E778093E80095FF04C010C08EB38823C6
:1076B000C9F08091E80080FFF9CF8091E8008E77D3
:1076C0008093E80003C08EB3882361F08091E800C6
:1076D00080FFF9CF84E08093E9008091E8008B7708
:1076E0008093E800DF91CF911F910F91FF90EF9071
:1076F000DF90CF90BF90AF909F908F907F906F90D2
:107700005F904F9008959091C901892F8F778132B2
:1077100049F58091CA018032A1F0813219F5913A80
:1077200009F58091E800877F8093E8008CE091E084
:1077300067E070E025D28091E8008B778093E800C5
:107740000895913279F48091E800877F8093E80072
:107750008CE091E067E070E077D28091E8008E776E
:107760008093E800089582E061EC42E0D1D083E0AC
:1077700061E842E1CDD084E060E842E1C9C01F93F6
:10778000209100081092000844B714BE88E10FB69B
:10779000F89480936000109260000FBE80E8E0E0F3
:1077A000F0E00FB6F89480936100E09361000FBEA3
:1077B00031E035BF92E095BF3F9A209A559A809369
:1077C00061001092610047985D9A289A1092890092
:1077D0008AEF8093880090936F0083E0809381000C
:1077E000859194918F5F9F4F11F03093C001942F3A
:1077F00041FF19C0809109012817A9F08093000862
:10780000789480911301882339F08091BE01909182
:10781000BF0188579140C8F310920008F89481E0A6
:10782000809313010CC090FF04C08091C001882395
:1078300051F493FF09C080910901281729F0809124
:10784000C001882309F04EDCD4D078941092BD0199
:107850001092BC011EEF20C0D7DC49D38091BC013F
:107860009091BD01815A9F4010F0109213018091B8
:10787000C5019091C60101969093C6018093C50100
:10788000292F97FF03C0512F591B252F220F28178F
:1078900010F4479801C0479A809113018823E1F6BC
:1078A0008091E00081608093E0001CDC80E090E04B
:1078B0001F910895FA01923049F0933061F09130B0
:1078C000F9F484E191E022E130E01EC086E291E02B
:1078D0002EE330E019C0882329F484E691E024E007
:1078E00030E012C0813029F488E691E022E230E0F5
:1078F0000BC0823029F48CE891E02AE230E004C029
:1079000080E090E020E030E091838083C901089519
:107910008093E9008091EB0081608093EB001092EE
:10792000ED006093EC004093ED008091EE00881F25
:107930008827881F08958091C90188238CF403C08B
:107940008EB38823B1F08091E80082FFF9CF809157
:10795000E8008B778093E80008958EB3882349F080
:107960008091E80080FFF9CF8091E8008E778093C6
:10797000E8000895EF92FF920F931F9345D04CD0EB
:1079800008ED10E0F80180818F7780838081806826
:10799000808380818F7D808319BC1EBA1092C701BD
:1079A00080EEE82EF12CF70180818B7F8083F80137
:1079B00080818160808380E060E042E0A9DFE1EEC9
:1079C000F0E080818E7F8083E2EEF0E08081816054
:1079D0008083808188608083F70180818E7F8083AF
:1079E000F8018081806180831F910F91FF90EF905B
:1079F0000895E7EDF0E08081816080838AE482BFB2
:107A000081E08093C801B6CFE8EDF0E080818E7F01
:107A100080831092E20008951092DA001092E10043
:107A200008951F920F920FB60F9211242F933F9338
