:020000040000FA
:100000000C9488050C944E1F0C94271F0C94001F11
:100010000C94D91E0C94B0050C94B0050C94B21E2F
:100020000C94B0050C94B0050C94141B0C94831B19
:100030000C94B0050C94B0050C94B0050C94B0056C
:100040000C94B0050C94B0050C94B0050C94B0055C
:100050000C94B0050C94B0050C94B0050C94681E7B
:100060000C94B0050C94361E0C94101E0C94B00524
:100070000C94B0050C94B0050C94B0050C94B0052C
:100080000C94B51D0C94B0050C94B0050C94B005FF
:100090000C94B0050C94B0050C94B0050C94B0050C
:1000A0000C94B0050C94B0050C94B0056364696EB3
:1000B0006F70737578585B00002000200020613A53
:1000C000200020733A200063683A20005061796C68
:1000D0006F616420697320656D7074792E204B65A3
:1000E0006570207363616E6E696E672E00466F7572
:1000F0006E64207061636B6574202F772076616C6D
:100100006964206372632E2E2E200046726565207E
:1001100052414D3A20005363616E6E696E672E2E18
:100120002E004C6F676974656368004D532D456EF2
:1001300063004D53000A0B0C0D0E0F00000002006F
:10014000090F0000030401000C0000000000000083
:1001500000000000000000000000080B0002020286
:100160000000090400000102020000052400100143
:1001700005240101010424020605240600010705E7
:10018000810310004009040100020A000000070575
:100190000202400000070583024000000403090436
:1001A00012010002EF0201404F1B08920001010200
:1001B0000301537061726B46756E004C696C795027
:1001C0006164205553420041542B43504D533D220E
:1001D000534D222C22534D222C22534D22005349A1
:1001E0004D3830304800093C2D2D2D2000092D2D93
:1001F0002D3E200053494D434F4D5F53494D3533FC
:100200003230450053494D434F4D5F53494D3533CF
:100210003230410053494D38303020523133005391
:10022000494D383038205231330053494D38303839
:100230002052313400093C2D2D2D2000092D2D2D6B
:100240003E200041542B435648553D300041544513
:1002500030004154453000415400415400415400A5
:1002600054696D656F75743A204E6F2072657370B6
:100270006F6E736520746F2041542E2E2E206C619A
:10028000737420646974636820617474656D70743C
:100290002E00415400415400415400417474656D76
:1002A0007074696E6720746F206F70656E20636F65
:1002B0006D6D2077697468204154730022534D5F3F
:1002C00050222C0041542B43504D533F0022534D9C
:1002D000222C0041542B43504D533F0022534D22BA
:1002E0002C0041542B43504D533F0041542B434D60
:1002F00047463D31005748494420456C69746520A4
:10030000312E332E31206973204F4B004F4B00416B
:10031000542B434D4744413D2244454C20414C4CD5
:10032000220D0A000A0D44656C6574696E672053DE
:100330004D532E2E2E004E756D626572206F662015
:10034000534D533A200070696E7465726E65742E59
:10035000696E7465726B6F6D2E6465004E4F20532D
:10036000494D383030210041542B434D47463D31F3
:10037000002B4342433A200041542B434243002B7D
:1003800043495047534D4C4F433A200041542B436F
:10039000495047534D4C4F433D312C3100093C2DC2
:1003A0002D2D200041542B43494943520041542BE9
:1003B00053415042523D312C310041542B53415056
:1003C00042523D332C312C22505744222C004154B0
:1003D0002B53415042523D332C312C225553455220
:1003E000222C0041542B435354543D2200092D2DFF
:1003F0002D3E200041542B435354543D2200415480
:100400002B53415042523D332C312C2241504E222D
:100410002C0041542B53415042523D332C312C225D
:10042000434F4E54595045222C22475052532200DC
:1004300041542B43474154543D31005348555420B7
:100440004F4B0041542B434950534855540041549D
:100450002B43474154543D300041542B53415042AB
:10046000523D302C310053485554204F4B004154DD
:100470002B43495053485554002B434D47523A00A3
:1004800041542B434D47523D0041542B434D47525D
:100490003D0041542B435344483D310041542B43CC
:1004A0004D47463D31002B434D47523A0041542BB6
:1004B000434D47523D0041542B434D47523D00416F
:1004C000542B435344483D310041542B434D474640
:1004D0003D310041542B434D47443D3F0D0A0043FD
:1004E0006F756C646E27742064656C657465205349
:1004F0004D5320696E20736C6F743A2000534D5336
:100500002072656D6F7665642066726F6D20574846
:10051000494420456C69746521004E6F20726570F6
:100520006C792100426174742025203D20004661D1
:10053000696C656420746F207475726E206F6666D6
:100540002047505253004661696C20636F646520F8
:1005500023004661696C656421004661696C6564CD
:1005600020746F207475726E206F6E204750525346
:1005700000534D532053656E742100534D53204654
:1005800061696C656421005B2B5D205061636B6564
:1005900074205265636569766564212053656E64D5
:1005A000696E6720534D5321004D696C6C6973650A
:1005B000636F6E6473206F6620536E696666696E42
:1005C000673A20004D696C6C697365636F6E647384
:1005D000206F66204A616D6D696E673A20004D6933
:1005E0006C6C697365636F6E6473206F66204A611B
:1005F0006D6D696E673A20002D2D2D2D2D2D2D2D21
:100600002D2D2D2D2D2D2D2D2D2D2D2D2D2D2D2D1A
:100610002D2D2D2D2D2D2D2D2D2D2D2D2D2D2D2D0A
:100620002D2D2D2D2D2D2D2D2D2D2D2D2D2D2D2DFA
:100630002D2D2D2D2D2D2D2D2D2D2D2D2D2D2D2DEA
:100640002D2D2D2D2D2D2D2D2D2D2D2D2D2D2D2DDA
:100650002D2D2D2D2D2D2D2D2D2D2D2D2D005B4FA7
:100660005D205061636B6574732053656E74210067
:1006700053656E64696E673A20005B4F5D20424FA0
:100680004F4F4D21005B4F5D2053656E64696E676F
:10069000206261636B20746865207061636B6574B0
:1006A00020736E696666656420696E20312073650B
:1006B000636F6E642E2E2E005B4F5D2053656E645B
:1006C000696E67206261636B207468652070616386
:1006D0006B657420736E696666656420696E20328E
:1006E000207365636F6E64732E2E2E005B4F5D204A
:1006F00053656E64696E67206261636B2074686520
:10070000207061636B657420736E69666665642032
:10071000696E2033207365636F6E64732E2E2E0016
:100720004D696C6C697365636F6E6473206F6620CE
:10073000536E696666696E673A200023232320534F
:1007400054415254494E472041434F555354494315
:10075000205355525645494C4C414E434520232386
:10076000230043616C6C204661696C65640029203C
:100770003E202F6465762F63752E7573626D6F64EE
:10078000656D4849442A3B00736C656570202E35C1
:100790003B73747479202D66202F6465762F637502
:1007A0002E7573626D6F64656D4849442A20343834
:1007B00030303B6563686F202D6520224241473A07
:1007C000222428002929203E20246C3B6578697466
:1007D0000020736C656570202E353B6C3D24286CC1
:1007E00073202F6465762F73657269616C2F62794F
:1007F0002D69642F2A4C696C795061642A293B73F6
:10080000747479202D4620246C20343830303B65B8
:1008100063686F204241473A24286563686F20244B
:1008200028003B24703D6E65772D4F626A656374C6
:100830002053797374656D2E494F2E506F72747307
:100840002E53657269616C506F72742024632C346E
:100850003830302C4E6F6E652C382C6F6E653B2413
:10086000702E6F70656E28293B24702E5772697444
:10087000654C696E6528224241473A247222293B21
:1008800024702E436C6F736528293B436C6561723D
:100890002D486973746F7279202D436F6D6D616E91
:1008A000644C696E6520222A242A223B657869748B
:1008B0003B0024633D2867776D692057696E3332AA
:1008C0005F53657269616C506F72747C57686572B2
:1008D000652D4F626A6563747B245F2E504E5044D1
:1008E00065766963654944202D6D617463682022D3
:1008F00049445F31423446265049445F39323038EA
:10090000227D292E44657669636549443B24723D06
:10091000004469646E27742066696E6420534D53E9
:10092000206D65737361676520696E20736C6F74E9
:100930002100736C6F743A2000093C2D2D2D20008E
:10094000092D2D2D3E2000033E20003E2000415465
:100950002B434D47463D3100093C2D2D2D200009EC
:100960002D2D2D3E2000093C2D2D2D2000092D2D53
:100970002D3E200000000000000000002A2B28006F
:100980000000000000000000000000000000000067
:10099000000000002C9EB4A0A1A2A434A6A7A5AE7E
:1009A000362D3738271E1F20212223242526B33336
:1009B000B62EB7B89F8485868788898A8B8C8D8E62
:1009C0008F909192939495969798999A9B9C9D2F2E
:1009D0003130A3AD350405060708090A0B0C0D0ECE
:1009E0000F101112131415161718191A1B1C1DAF0E
:1009F000B1B0B50000000000250028002B002E003B
:100A0000310000000000240027002A002D003000E3
:100A100004040404040304050202020204030202A3
:100A20000202060606060606040402020204040484
:100A300008020110408040102040804080080204DD
:100A40000180402010020110801020404020000151
:100A50000203040511121314151605010902A10160
:100A60000901A100850105091901290315002501C6
:100A70009503750181029501750581030501093012
:100A8000093109381581257F750895038106C0C095
:100A900005010906A1018502050719E029E71500EE
:100AA0002501750195088102950175088103950658
:100AB0007508150025730507190029738100C04FBB
:100AC0004B00464F4E4100464F4E416E6574005EEE
:100AD00001011F01030301008A02010A0102020150
:100AE0000064001E47040B0906007C010106010397
:100AF000030100F401060E0102020100C201170108
:100B000001020201019600023E0106060100AA212F
:100B100011241FBECFEFDAE0DEBFCDBF13E0A0E0AF
:100B2000B1E0E6E1FDE602C005900D92AA39B107F9
:100B3000D9F728E0AAE9B3E001C01D92AC31B207B1
:100B4000E1F715E0C8E8D5E004C02197FE010E9456
:100B50002432C738D107C9F70E944A230C9489363A
:100B60000C94000090E0FC01E15DF54F2491805F62
:100B7000954FFC018491882399F090E0880F991F8C
:100B8000FC01EE5FF54FA591B491FC01EC50F64FDE
:100B9000859194918FB7F894EC91E22BEC938FBFF1
:100BA0000895E0910908F0910A08EF3FFE0781F1EE
:100BB0001092D1061092D2061092D3061092D4064B
:100BC00010929605109295052E2FE53008F5FF2717
:100BD000EE0FFF1FEB5EFE4F8FE99FE09183808356
:100BE0002230F9F050F42130A1F0809169008C7F1F
:100BF000816080936900E89A08952330D1F0243011
:100C0000A1F780916A008F7C806180936A00EE9AE0
:100C1000089580916900837F846080936900E99AD8
:100C20000895809169008F7C806180936900EA9AC1
:100C30000895809169008F73806480936900EB9AB6
:100C40000895FC0180917E05882311F13FB7F89447
:100C500082E08093E9002091F200822F90E0181644
:100C6000190614F481E090E0882339F0289844E6CE
:100C700040937D054091F1004083222339F020917B
:100C8000F200211103C02BE62093E8003FBF089536
:100C90008FEF9FEF089540919E0450919F04209103
:100CA0009C0430919D0442175307B4F49091E800DE
:100CB0009570E1F39091E80092FD19C08093F100E6
:100CC00080919E0490919F0401968F739927892BA0
:100CD00019F48EEF8093E80080919E0490919F0418
:100CE000019690939F0480939E0481E0089580E094
:100CF0000895EF92FF920F931F93CF93DF93F82EF7
:100D0000192FE62E042F81E0860F880F0E944B06D4
:100D100083E00E944B06CF2DD12FEC0EFD2EF11C4F
:100D2000CE15DF05B9F007FF13C0FE0184910E94C4
:100D30004B06182F80E00E944B06812321968111DB
:100D4000EFCFDF91CF911F910F91FF90EF9008951A
:100D50008881EDCF81E0F5CFDF92EF92FF920F9384
:100D60001F93CF93DF93D82E8A01EB017B01E40E12
:100D7000F51ECE15DF0559F0D7FE12C0FE01849195
:100D80000E944B0621968111F4CF0FEF1FEFC8018F
:100D9000DF91CF911F910F91FF90EF90DF90089519
:100DA0008881EECF2FB7F89487708093E9009091F7
:100DB000E800892F807295FF04C09091F20080E4D2
:100DC000891B2FBF0895615030F02091F100FC0184
:100DD00020830196F8CF289884E680937D050895B6
:100DE000DC01ED91FC910190F081E02D0994EF92EE
:100DF000FF920F931F93CF93DF938C017B01D0E081
:100E0000C0E0F701EC0FFD1F6491662361F0D8018B
:100E1000ED91FC910190F081E02DC8010995892B9D
:100E200011F02196EECFCE01DF91CF911F910F915E
:100E3000FF90EF900895AF92BF92CF92DF92EF9222
:100E4000FF920F931F93CF93DF936C017B018B0174
:100E5000040F151FEB015E01AE18BF08C017D107C4
:100E600059F06991D601ED91FC910190F081E02D4E
:100E7000C6010995892B79F7C501DF91CF911F91A3
:100E80000F91FF90EF90DF90CF90BF90AF900895BB
:100E90008091940481110DC082E08093900484E0DD
:100EA00080939104109293041092920481E08093B5
:100EB000940480E994E008950F931F93CF93DF93F8
:100EC0001F92CDB7DEB782E0898342E450E06AE545
:100ED00071E080E80E94AC060E944807DC0112968F
:100EE0000D911C910115110589F0D801ED91FC912E
:100EF0000280F381E02DBE016F5F7F4FC80109952D
:100F000097FD04C0F80100851185ECCF89810F9011
:100F1000DF91CF911F910F910895CF93DF93FC0143
:100F2000DB01818114963C911497682F630F77271A
:100F3000771F683071059CF5C281D381209739F500
:100F4000B383A283908112969C93129713968C93ED
:100F5000139715968C911597890F808390E080E008
:100F6000831708F52181C22FD0E0BE016F5F7E4F4D
:100F700016964D915C911797480F591FEA014881C9
:100F8000EB0148832F5F21830196EACFEA01488570
:100F9000598541155105D1F7B987A887D3CF80E08E
:100FA000DF91CF91089581E0FBCFE3E9F6E081E0A6
:100FB000848385832DE936E0378326831186108666
:100FC00027EE31E03183208314861386168615863A
:100FD0008787808B81EC82870E94480763E976E0EF
:100FE0000C948D07FC01538D448D252F30E0842F08
:100FF00090E0821B930B541710F0CF960895019741
:101000000895FC01918D828D981761F0A28DAE0F2D
:10101000BF2FB11D5D968C91928D9F5F9F73928FB4
:1010200090E008958FEF9FEF0895FC01918D828DE0
:10103000981731F0828DE80FF11D858D90E00895AD
:101040008FEF9FEF0895FC01918D228D892F90E005
:10105000805C9F4F821B91098F739927089587E9C0
:1010600095E00E94230821E0892B09F420E0822FDB
:10107000089580E090E0892B29F00E942F088111CB
:101080000C9400000895FC01A48DA80FB92FB11D88
:10109000A35ABF4F2C91848D90E001968F739927AE
:1010A000848FA689B7892C93A089B1898C91827489
:1010B0008C93938D848D981306C00288F389E02D5C
:1010C00080818F7D80830895EF92FF920F931F930D
:1010D000CF93DF93EC0181E0888F9B8D8C8D9813EB
:1010E00019C0E889F989808185FF14C09FB7F894F9
:1010F000EE89FF896083E889F98980818274808321
:101100009FBF81E090E0DF91CF911F910F91FF9001
:10111000EF900895F62E0B8D10E00F5F1F4F0F73A9
:101120001127E02E8C8D8E110CC00FB607FCFACF64
:10113000E889F989808185FFF5CFCE010E944308B7
:10114000F1CFEB8DEC0FFD2FF11DE35AFF4FF08235
:101150009FB7F8940B8FEA89FB8980818062CFCF9B
:10116000CF93DF93EC01888D8823B9F0AA89BB89DE
:10117000E889F9898C9185FD03C0808186FD0DC0C9
:101180000FB607FCF7CF8C9185FFF2CF808185FFEA
:10119000EDCFCE010E944308E9CFDF91CF910895B2
:1011A000CF93DF931F92CDB7DEB76983DC01ED915A
:1011B000FC910280F381E02D41E050E0BE016F5FC1
:1011C0007F4F09950F90DF91CF91089583E0809331
:1011D000E9008091F200882319F08AE38093E80007
:1011E000089583E00E94D20690E00895CF93DF93A4
:1011F0001F92CDB7DEB7FC018485958597FD08C0A9
:101200002FEF3FEF358724870F90DF91CF9108951F
:10121000CE0101960E942106019719F4898190E080
:10122000F3CF8FEF9FEFF0CF0F931F93CF93DF9309
:101230001F92CDB7DEB78C01FC018485958597FFA1
:101240000BC0CE0101960E942106019771F489819D
:1012500090E0F80195878487F801848595850F9043
:10126000DF91CF911F910F9108958FEF9FEFF1CFF5
:10127000FC018485958597FD0BC09FB7F89482E0AB
:101280008093E9008091F2009FBF90E0019608955D
:101290009FB7F89482E08093E9008091F2009FBFAD
:1012A00090E00895282F30E0F901E55CFE4F94911D
:1012B000F901E15DF54F8491205F354FF9012491EB
:1012C000222309F430C09923E9F091509F30D0F4E3
:1012D000E92FF0E0E259F64F0C9424329C09A00962
:1012E0007D0994099809820982098209A309A9093B
:1012F000AD09B109B7098209BB09909180009F77B8
:1013000090938000E22FF0E0EE0FFF1FEC50F64FBD
:10131000A591B4919FB7F894EC91611132C080957A
:101320008E238C939FBF0895909180009F7DE8CF7E
:1013300090918000977FE4CF94B59F7794BDE2CFE2
:1013400094B59F7DFBCF909190009F7790939000F4
:10135000D9CF909190009F7DF9CF90919000977F89
:10136000F5CF9091C0009F779093C000CBCF909124
:10137000C0009F7DF9CF9091C200977F9093C200EB
:10138000C1CF8E2BCECF2091D5063091D60640917D
:10139000D7065091D8062417350721F0682F822FE1
:1013A0000C94520908958330910528F0880F991FF5
:1013B00004970197F1F70895CF93DF93C5EDD6E039
:1013C000682F8A810E9452098E899F89DF91CF916F
:1013D0000C94D30981E00C94DC091F93CF93DF9325
:1013E000182FD92F8091170860E0C1E0811102C049
:1013F00061E0C0E080910B080E94520980910F08C3
:10140000909110089C01129FC001139F900D112410
:101410000E94D3096C2F80910B080E945209809181
:101420000F08909110089C01D29FC001D39F900D8E
:101430001124DF91CF911F910C94D3093FB7F894F9
:1014400080918C0490918D04A0918E04B0918F04B2
:1014500026B5A89B05C02F3F19F00196A11DB11D0F
:101460003FBFBA2FA92F982F8827BC01CD01620F4B
:10147000711D811D911D43E0660F771F881F991F05
:101480004A95D1F708958F929F92AF92BF92CF92D3
:10149000DF92EF92FF926B017C010E941E0A4B01CA
:1014A0005C01C114D104E104F104B9F00E941E0AE8
:1014B000681979098A099B09683E7340810591057D
:1014C00080F321E0C21AD108E108F10888EE880E05
:1014D00083E0981EA11CB11CE4CFFF90EF90DF9039
:1014E000CF90BF90AF909F908F900895FF920F93F1
:1014F0001F93CF93DF938C01F62ED0E0C0E0015014
:101500001109CE3FD10580F5809107089091080818
:10151000DC01ED91FC910084F185E02D0995892B8A
:10152000C9F08091070890910808DC01ED91FC91C9
:101530000284F385E02D09958D3031F38A3021F452
:10154000209711F3FF2081F0FE01E151F94F8687CA
:101550002196DACF0115110539F061E070E080E0E5
:1015600090E00E94430ACBCFFE01E151F94F16866D
:101570008C2FDF91CF911F910F91FF9008957F9253
:101580008F929F92AF92BF92CF92DF92EF92FF9293
:101590000F931F93CF93DF93C82E8B017A01809115
:1015A0007E05811110C08FEF9FEFDF91CF911F91CA
:1015B0000F91FF90EF90DF90CF90BF90AF909F90F2
:1015C0008F907F9008958091A20480FF05C0809144
:1015D000E00082608093E000CE2DDF2DD12C8AEFD9
:1015E000B82E8C2D8770982E8C2D8072882E8C2D85
:1015F0008074782E9AE3A92E209719F4DD2009F43F
:1016000052C08C2D0E94D20681110AC0BA94BB2010
:1016100051F261E070E080E090E00E94430AECCF7C
:101620008C171D0611F00CF08C2F9FB7F894909238
:10163000E9002091E80025FD02C09FBFDDCF282FE3
:1016400030E0C21BD30B882029F08150A0F010920B
:10165000F100FBCFF801C7FC0AC0815050F0419166
:101660004093F100FACF44914093F10031968150BC
:10167000D0F7020F131FDD2021F0A092E800D12C3B
:10168000DCCF8091E80085FD07C0A092E800DD2452
:10169000D394209791F2F3CF209779F6772069F2CF
:1016A000A092E800CACF5D9884E68093A104C701A8
:1016B0007CCF0F931F93CF93DF931F92CDB7DEB7ED
:1016C0008C018091A406811105C00E94D50781E09C
:1016D0008093A40682E0898341E050E0BE016F5F01
:1016E0007F4F809196060E94BF0A97FD08C08091A7
:1016F000960648E050E0B80180640E94BF0A0F904F
:10170000DF91CF911F910F910895EAEBF6E01682D9
:101710001782108611861286138614828EEB96E04D
:101720000C94590BCF93DF93EC0180911301882324
:1017300031F083E00E94BF0A1816190634F081E0E8
:1017400090E09B838A8380E090E0DF91CF910895C1
:101750002FB7F894609188047091890480918A046D
:1017600090918B042FBF08950F931F930E94A80B95
:1017700060933C0670933D0680933E0690933F062F
:1017800084E396E00E94F60897FF1DC00E94A80B14
:1017900000913C0610913D0620913E0630913F0697
:1017A000601B710B820B930B009138061091390668
:1017B00020913A0630913B06601771078207930724
:1017C000F8F28FEF9FEF1F910F910895E82FF0E04F
:1017D0008230C1F068F4882389F0813089F0EE0FFF
:1017E000FF1FEB5EFE4F84E99CE0918380830895A8
:1017F000833051F0843099F7EE98F1CFE898EFCF2D
:10180000E998EDCFEA98EBCFEB98E9CF4F925F9252
:101810006F927F928F929F92AF92BF92CF92DF9200
:10182000EF92FF920F931F93CF93DF932B013C0115
:101830006A01C0910908D0910A08CF3FDC0759F02E
:101840008C2FC53010F40E94E60B8FEF9FEF909322
:101850000A0880930908F12CE12C812C912C540169
:10186000839480910D0890910E08E816F9066CF5A6
:1018700086010150110917FD1EC0D501C401002EBB
:1018800004C0880F991FAA1FBB1F0A94D2F7842196
:101890009521A621B721892B8A2B8B2B39F080919A
:1018A0001508909116080E94ED09E3CF8091130866
:1018B00090911408F8CF80911108909112080E941D
:1018C000ED098FEFE81AF80ACCCF60E080910B08A1
:1018D0000E945209CF3FDC07B1F0D0930A08C093B1
:1018E0000908DF91CF911F910F91FF90EF90DF904A
:1018F000CF90BF90AF909F908F907F906F905F90B0
:101900004F900C94D105DF91CF911F910F91FF90D3
:10191000EF90DF90CF90BF90AF909F908F907F908F
:101920006F905F904F9008950895DC01FB0112962F
:101930002C911297848195812817190641F4918181
:101940008081813A31F49D7F81E0913009F080E01F
:1019500008958132E1F79B3029F482811F968C93A0
:1019600081E008959A3099F7828150968C93F8CF50
:10197000DC01FB0188E4808389E4818384E4828341
:101980001D969C911D979F709F5B93831D968D91D3
:101990009C9124E0969587952A95E1F78F708F5B4F
:1019A000848385E00895EF92FF920F931F93CF9366
:1019B000DF93FB012081213871F52381223259F513
:1019C000DC0112964C91248135814217130619F5DA
:1019D000EC010B851C85F12CE12C0115110589F01A
:1019E000F801448155816281738180E80E94AC06D0
:1019F0008F3F980749F0E80EF91ED8010D911C9110
:101A0000ECCF81E08F87C701DF91CF911F910F91BC
:101A1000FF90EF90089590E080E0F6CFCF93DF93B2
:101A2000CDB7DEB769970FB6F894DEBF0FBECDBF56
:101A3000FC01DB018C918F5F8C939E012D5F3F4FEA
:101A40008DE0D9011D928A95E9F729E0298384E088
:101A50008A8391E09D8383E08E832A8721E22B870E
:101A60009C879D879F8722E2288B27E02B8B25E090
:101A70002C8B8E8B20E430E0388F2F8B998F8281D6
:101A80008B8395858685998B8A8B838180688D8BE6
:101A900049E150E0BE016F5F7F4F80E00E94AC06DD
:101AA00069960FB6F894DEBF0FBECDBFDF91CF9120
:101AB0000895CF92DF92EF92FF920F931F93CF93EF
:101AC000DF936C01EB017B01E40EF51E10E000E0FA
:101AD000CE15DF0581F069916D30D1F3D601ED911E
:101AE000FC910190F081E02DC6010995892B19F038
:101AF0000F5F1F4FEDCFC801DF91CF911F910F9165
:101B0000FF90EF90DF90CF900895DC01683888F166
:101B1000685816968C911697861721F117968C9116
:101B200017978617F9F018968C9118978617D1F0A9
:101B300019968C9119978617A9F01A968C911A9775
:101B4000861781F01B968C911B97861759F0FD0123
:101B5000369690E080E02191211139C08A0F9B1FB9
:101B6000FC016683CD0104960E94590B81E090E050
:101B70000895E62FF0E067FF11C0E058F10921E079
:101B800030E001C0220FEA95EAF714968C91149781
:101B9000822B14968C93149760E0BBCFEC58F64FD1
:101BA0006491611109C081E090E013969C938E933B
:101BB000129790E080E0089567FFABCF14968C9168
:101BC0001497826014968C9314976F77A2CF019626
:101BD0008630910509F0BFCFE6CF60EB8AEB96E047
:101BE0000E94850D62E370E080E090E00E94430A6D
:101BF000EAEBF6E080EC96E02681283209F41682C2
:101C000031968E179F07C1F78EEB96E00C94590B17
:101C1000EF92FF920F931F93CF938C01C62F0E94D8
:101C2000850D7C01C838C8F0C858F80186E0CC237F
:101C300021F09681C91301C016828150319681111D
:101C4000F6CFC80104960E94590BC7019927CF917E
:101C50001F910F91FF90EF900895EC2FF0E0C7FFD8
:101C60000FC0E058F10981E090E001C0880FEA95CB
:101C7000EAF78095F801948189238483C0E0D5CF69
:101C8000EC58F64FC491CC2301F3C7FFCECFF80137
:101C900084818D7F8483CF77C8CF80E00895FC0155
:101CA000DB018C918038A1F411968C9111978630CC
:101CB00079F413968C911397833051F416968D9185
:101CC0009C918F3F910539F4828583608062828781
:101CD00090E080E0089582858860F9CF90E080E010
:101CE0000895FC0182818F5BFB01808381E0089570
:101CF000885E9E4FDC018D919C91DC01ED91FC9101
:101D00000680F781E02D0994885E9E4FDC018D915D
:101D10009C91DC01ED91FC910484F585E02D099402
:101D2000885E9E4FDC018D919C91DC01ED91FC91D0
:101D30000284F385E02D0994885E9E4FDC018D912D
:101D40009C91DC01ED91FC910190F081E02D0994D2
:101D5000885E9E4FDC018D919C91DC01ED91FC91A0
:101D60000084F185E02D0994CF93DF9390E080E02B
:101D7000EC0121968897A8F48FEE96E00E94A80EB9
:101D8000892B39F08FEE96E00E94900ED0E0C0E0F3
:101D9000F3CF61E070E080E090E00E94430ACE0162
:101DA000E7CFDF91CF910895089590E080E0089506
:101DB0008091F3038150990BE3EDF3E02FEFAF0136
:101DC000435D5340481759071CF43191231BF7CF4B
:101DD0008D529C4F2F5FFC01208308952091F303C7
:101DE0002150330BF901ED52FC4F1082A3EDB3E00B
:101DF0008081AD01435D53404217530724F49D9108
:101E000089278083F5CF8095808308955F926F92B4
:101E10007F928F929F92AF92BF92CF92DF92EF927A
:101E2000FF920F931F93CF93DF93E090F303F12C76
:101E30005090C8036090C9037090CA038090CB0390
:101E40009090CC03C090CD03D090CE031091CF03DF
:101E5000E3EDF3E0C4E0D0E095E0A92EB12CCE157F
:101E6000DF05ECF4CF01835D9340B5010E94EE31B4
:101E7000DC0183E0AA0FBB1F8A95E1F7252D362DE3
:101E8000472D582D692D7C2D8D2D912F0A2F0E94C5
:101E9000453284812827248321963196E0CFDF9133
:101EA000CF911F910F91FF90EF90DF90CF90BF9057
:101EB000AF909F908F907F906F905F9008950F9359
:101EC0001F931092BF03EFE9F3E050E040E08B0175
:101ED0009C01042E04C036952795179507950A9402
:101EE000D2F720E300FD21E3278F4F5F5F4F31974B
:101EF0004032510561F78FE993E01F910F910895EA
:101F00008EBD00000DB407FEFDCF8EB50895CF93B2
:101F1000DF93C82FD62F60E086E00E9452098C2FF5
:101F200080620E94800FC82F8D2F0E94800F61E079
:101F300086E00E9452098C2FDF91CF9108952F9255
:101F40003F924F925F926F927F928F929F92AF9249
:101F5000BF92CF92DF92EF92FF920F931F93CF9396
:101F6000DF93CDB7DEB765970FB6F894DEBF0FBE2F
:101F7000CDBF0E941E0A6B017C0180918304909169
:101F800084042601481A590A2DEC421620E1520613
:101F900008F4DEC08091FD039091FE03A201481B6E
:101FA000590BCA0157FF03C0919581959109883C4F
:101FB00091050CF0C9C08091FB039091FC03019640
:101FC0009093FC038093FB03029709F0BDC09FEC44
:101FD000692E9AE0792E01E010E02090F90330900C
:101FE000FA033B862A8649E050E0B301CE01019610
:101FF0000E940A318B816C81681708F4682F70E0A9
:102000008091FD039091FE030E94DA319B01409183
:102010001F0150912001649FC001659F900D749F26
:10202000900D112464E670E00E94DA318985A1E008
:10203000B0E0882311F0A2E0B0E08D81829FA00182
:10204000839F500D11245D874C878E81829F1001E4
:10205000839F300C11243F862E868F81829FA001A2
:10206000839F500D1124598B488B8885829F1001C6
:10207000839F300C11243B8A2A8AFD01EE0FFF1F3B
:10208000E350FC4F812C912C54014A855B854150D3
:1020900051095D8B4C8B8C899D89A817B90708F075
:1020A00040C0880C991CAA1CBB1C80819181AC018A
:1020B0002C843D844219530957FF03C05195419523
:1020C00051094617570770F4428153812E843F848B
:1020D0004219530957FF03C05195419551094617BD
:1020E0005707E0F048895989841B950B97FF03C077
:1020F00091958195910986179707C8F482819381FC
:102100002A883B888219930997FF03C0919581958E
:1021100091098617970758F4689480F812963496B8
:10212000BACF4A855B854830510508F053C00F5F30
:102130001F4F59E0650E711C0830110509F04DCF95
:102140001092FC031092FB031092FA031092F90311
:102150008091F9039091FA038334910540F0109235
:10216000FA031092F9031092FC031092FB03809182
:10217000F9039091FA039C012F5F3F4F3093FA03CC
:102180002093F903880F991FFC01E350FC4F518203
:102190004082C0928304D0928404E0928504F0923D
:1021A000860465960FB6F894DEBF0FBECDBFDF91F3
:1021B000CF911F910F91FF90EF90DF90CF90BF9044
:1021C000AF909F908F907F906F905F904F903F90D7
:1021D0002F9008958092D1069092D206A092D306B5
:1021E000B092D4062C883D88369427943092960578
:1021F000209295053093F8032093F7031093F6038C
:102200000093F5039DCF0F931F930091D906109172
:10221000DA062091DB063091DC0640E059E06DE300
:1022200070E080E0041715072607370740F476951D
:102230006795579547958F5F8630A1F787E0982F70
:10224000906A9695809581709CBD8DBD80E01F91B0
:102250000F910C94DC09CF93DF93C82FD62F0E94E7
:1022600003118C2F8F7180620E94800FC82F8D2FD9
:102270000E94800F0E94EA098C2FDF91CF91089570
:102280008D3708F08DE7682F85E00C942B11CF93E4
:102290000E94031181EE0E94800FC82F0E94EA095C
:1022A0008C2FCF910895CF93C82F0E9403118C2FAC
:1022B0000E94800F8FEF0E94800FC82F0E94EA09B2
:1022C0008C2FCF91089580E00E94531181FD0BC0A7
:1022D000682F626080E00E942B1165E070E080E072
:1022E00090E00C94430A0895CF93DF93C82FD0E079
:1022F000FE01EC5AF54F84916091DE060E942B118D
:1023000082E00E945311FE01E25BF54FE49161E02F
:1023100070E001C0660FEA95EAF7682B82E0DF9172
:10232000CF910C942B110F931F93CF938C0186E0C8
:102330000E945311C82FC77D02301105E1F4C0621D
:102340008BE990E0A0E0B0E08093E7069093E80688
:10235000A093E906B093EA066C2F86E00E942B1149
:1023600086E00E94531191E0C81390E0892FCF912D
:102370001F910F91089585E590E0A0E0B0E0013055
:10238000110511F7C86081E490E0A0E0B0E0DCCF77
:10239000EF92FF920F931F93CF93DF93C82F7B0190
:1023A000142F0E9403118C2F8F7180620E94800F66
:1023B000082FE701115020F089910E94800FFACF79
:1023C0000E94EA09802FDF91CF911F910F91FF901A
:1023D000EF900895CF931092A6041092F4031092F8
:1023E000F303E3EDF3E0119283E0E33FF807D9F75D
:1023F0008091D5069091D6062091D7063091D806C7
:102400008217930711F00E94B2058091D706909130
:10241000D8062091D5063091D6062817390711F035
:102420000E94B205CFB7F8948091D203811124C0E5
:10243000E1E2FAE08491E0E4FAE09491E82FF0E040
:10244000EE0FFF1FEE5FF54FA591B491EC91E923DC
:1024500021F461E081E10E94520981E10E94B2050C
:102460008CB580618CBD8CB580648CBD8FE00E9482
:10247000B20580E10E94B2058091D2038F5F809304
:10248000D203CFBF80E00E94C30981E00E94DC0933
:1024900065E070E080E090E00E94430A6CE080E03C
:1024A0000E942B116FE584E00E942B1182E090E0E6
:1024B0000E949311882319F081E08093DD0686E065
:1024C0000E94531190E080E00E9493110E9403113A
:1024D00080E50E94800F83E70E94800F0E94EA0936
:1024E00060E08DE10E942B1160E08CE10E942B11D5
:1024F0001092DF0660E787E00E942B118CE40E94B7
:1025000040110E94031182EE0E94800F0E94EA098E
:102510000E9447110E94631180E00E945311682FAE
:102520006E7F80E0CF910C942B11FB010190002075
:10253000E9F73197AF01461B570BDC01ED91FC9198
:102540000280F381E02D09948F929F92AF92BF9207
:10255000EF92FF920F931F93CF93DF93CDB7DEB728
:10256000A1970FB6F894DEBF0FBECDBF7C01FA0174
:10257000CB0119A2223008F42AE08E010F5D1F4F13
:10258000822E912CB12CA12CBF01A50194010E9497
:102590000232F901CA016A300CF5605DD8016E9310
:1025A0008D01232B242B252B79F790E080E01097C9
:1025B00021F0BD01C7010E949512A1960FB6F894B3
:1025C000DEBF0FBECDBFDF91CF911F910F91FF9066
:1025D000EF90BF90AF909F908F900895695CDECF91
:1025E0006BE873E00C949512CF92DF92EF92FF921A
:1025F000CF93DF936C01990FEE08FF08F7FE21C01F
:102600006DE284E396E00E94F006EC014427552732
:10261000BA014C195D096E097F092AE084E396E04E
:102620000E94A412C80FD91F84E396E00E94F01202
:102630008C0F9D1FDF91CF91FF90EF90DF90CF9097
:1026400008952AE0B701A60184E396E00E94A4124F
:10265000EC01EACF0F931F93CF93DF93EC01462F4A
:1026600050E070E060E02AE00E94A4128C01CE01EC
:102670000E94F012800F911FDF91CF911F910F9157
:1026800008950F931F93CF93DF938C01D0E0C0E0A8
:102690006115710519F00E949512EC01C8010E94A4
:1026A000F0128C0F9D1FDF91CF911F910F91089514
:1026B000EF92FF920F931F93CF93DF93EC018B0167
:1026C0007A010E94B40E6FE579E084E396E00E94FF
:1026D000F706BE0184E396E00E944113BE0180919B
:1026E0000708909108080E94411360E0C7010E940A
:1026F000760AC82F68E579E084E396E00E94F70641
:102700006DEF76E084E396E00E944113CC2341F024
:10271000B8018DEF96E00E94133121E0892B09F07A
:1027200020E0822FDF91CF911F910F91FF90EF90CA
:1027300008950F931F93CF93DF93EC010E94F70648
:102740008C01CE010E94F012800F911FDF91CF917A
:102750001F910F9108950F931F93CF93DF93EC0177
:102760008B010E94B40E6DE679E084E396E00E944E
:10277000F706BE0184E396E00E949913BE018091A2
:102780000708909108080E94991360E0C8010E9410
:10279000760AC82F66E679E084E396E00E94F706A1
:1027A0006DEF76E084E396E00E9441138C2FDF9179
:1027B000CF911F910F910895CF93DF93EB01BA0151
:1027C0000E94AB13882341F0BE018DEF96E00E947A
:1027D000133121E0892B09F020E0822FDF91CF9186
:1027E00008959091F3038091D3039331F1F48830ED
:1027F00071F48091D9038034C1F562E371E084E320
:1028000096E00E94991381E08093A60408958A308F
:10281000A1F56BE271E084E396E00E94991381E0F8
:102820008093A6048093F403089581111EC09A300A
:1028300079F48091D403823C11F08F3491F482E0DA
:102840008093A60462E271E084E396E00C9499130D
:10285000963161F48091D403833D19F482E0809332
:10286000A6048091A604823069F308959530C9F7D3
:102870008091D4038034A9F7F1CF8111F6CFF1CF45
:102880000C9495120F93CF93DF9367EC70E084E381
:1028900096E00E94F7064091000150E070E060E091
:1028A0002AE084E396E00E94A41262EC70E084E3E4
:1028B00096E00E94F7064091F30350E070E060E07C
:1028C0002AE084E396E00E94A4126DEB70E084E3BA
:1028D00096E00E94F706D0E0C0E02091C803309156
:1028E000C9034091CA035091CB036091CC0370910E
:1028F000CD038091CE039091CF030C2F0E944532DF
:10290000422F50E070E060E020E184E396E00E9416
:10291000A4126BEB70E084E396E00E94F706289621
:10292000C832D105D1F66DE372E084E396E00E94EF
:102930004014C3EDD3E02091F303CE01835D9340B7
:102940002817190689F084F0499150E070E060E0A2
:1029500020E184E396E00E94A41269EB70E084E336
:1029600096E00E94F706E7CF68EB70E084E396E01C
:10297000DF91CF910F910C949913CF92DF92EF9248
:10298000FF920F931F93CF93DF930E944214C09145
:10299000DE06D091F303CD1708F4DC2F8091DF061B
:1029A000CD1B8111C0E00E94031180EA0E94800FBC
:1029B00003ED13E0D15030F0F80181918F010E94B6
:1029C000800FF8CFC15020F080E00E94800FFACF36
:1029D0000E94EA0981E00E94C3090E94A80B6B01D2
:1029E0007C010E9403118FEF0E94800FC82F0E946C
:1029F000EA09C073C1F40E94A80B6C197D098E0905
:102A00009F09603671058105910558F381E0809337
:102A1000E60681E0DF91CF911F910F91FF90EF903B
:102A2000DF90CF90089580E00E94C30960E787E0BF
:102A30000E942B1184FFEDCF0E944711EACF9AE04C
:102A40009093F303E3EDF3E09F01235D33402A30DD
:102A5000310514F41192F8CF91EC9093D403809344
:102A6000D503DB01E3EDF3E050E0CF01835D93405C
:102A70008417950724F48D9183833196F6CF0E94B5
:102A8000D80E0E94BD1465E070E080E090E00E94E6
:102A9000430A1092D5031092D6031092D7031092D6
:102AA000D8031092D9031092DA031092DB030E942C
:102AB000D80E0E94BD1465E070E080E090E00C94B8
:102AC000430AFF920F931F93CF93DF93F82ED62FD5
:102AD000C091F403C1110E94060F8091F30390E0AE
:102AE00007ED13E0F8019F01235D334028173907F4
:102AF00014F41192F8CF9091D0038091D103909368
:102B0000D7038093D80383E48093D903F092DA0348
:102B1000D093DC030E94EE0EC1110E94060F0E94AA
:102B2000BD1465E070E080E090E00E94430AC0912F
:102B3000D003D091D1032196D093D103C093D00379
:102B4000F090F403F1100E94060F8091F30390E0DF
:102B50009801235D33402817390724F4F8011192B6
:102B60008F01F6CFC093D703D093D80383E480932B
:102B7000D9030E94EE0EF1100E94060F0E94BD14B0
:102B800065E070E080E090E00E94430A8091D0030D
:102B90009091D10301969093D1038093D003DF915C
:102BA000CF911F910F91FF9008958F929F92AF92B6
:102BB000BF92CF92DF92EF92FF920F931F93CF932A
:102BC000DF93CDB7DEB766970FB6F894DEBF0FBEC2
:102BD000CDBF1091A604112309F417C180E00E9413
:102BE000C3098091E7069091E8060E94D3098DE120
:102BF0000E94531181FF08C08091E7069091E8067A
:102C00000E94D3090E94471180E00E945311682F4F
:102C10006E7F80E00E942B1182E00E945311EEE44F
:102C2000FAE0E49161E070E001C0660FEA95EAF72E
:102C3000682B82E00E942B119090C803A090C903DA
:102C4000B090CA03C090CB03D090CC03E090CD03EA
:102C5000F090CE030091CF039982AA82BB82CC82EE
:102C6000DD82EE82FF8208874091E506BE016F5F3C
:102C70007F4F8AE00E94C8114091E506BE016F5F58
:102C80007F4F80E10E94C8116091DE0681E10E94C1
:102C90002B119986AA86BB86CC86DD86EE86FF86BA
:102CA000088BE6E3F1E084914091E506BE01675FA1
:102CB0007F4F0E94C81181E00E9474116FE381E090
:102CC0000E942B1186E00E945311682F676086E0F6
:102CD0000E942B1181E090E00E94931180E280938A
:102CE000DE068DE10E945311682F64608DE10E9421
:102CF0002B118CE10E945311682F6F638CE10E94AD
:102D00002B1181E08093DF0663E083E00E94870F50
:102D10006FE584E00E942B11809100010E94401118
:102D20001092D1031092D003113049F406E010E064
:102D300060E080E00E94611501501109C9F788E642
:102D4000A82E81E0B82E10E0D12CC12C7E0181E1AB
:102D5000E80EF11CF5018080918002818091A6042B
:102D6000823091F5882079F0112329F0412FB701A5
:102D700080E00E941F15998A41E0B701882D0E94CA
:102D80001F1510E021C0992009F46CC0F70120E064
:102D9000812F90E0AF014E195F09481759072CF4B5
:102DA00031919312F7CF21E0F5CF222309F440C0EF
:102DB000412FB70180E00E941F15998A11E0F9E2C6
:102DC000CF16D10409F448C08091A604813091F453
:102DD000992021F0692D882D0E946115002351F062
:102DE000E0E10E9FB0011124072E000C880B990B17
:102DF0000E94430AFFEFCF1ADF0A83E0A80EB11C3E
:102E0000EAE2CE16D10409F0A5CF66960FB6F89483
:102E1000DEBF0FBECDBFDF91CF911F910F91FF900D
:102E2000EF90DF90CF90BF90AF909F908F900895DC
:102E3000153029F49E8A46E0B70180E0A0CF8E0DC0
:102E40009F1DFC0190821F5F89E2C816D10409F022
:102E5000BBCF112309F4B8CF412FB70180E00E9406
:102E60001F15B2CF002381F3112329F0412FB701A1
:102E700080E00E941F15F0E10F9FB0011124072E82
:102E8000000C880B990B0E94430A7BCFDF92EF92D4
:102E9000FF920F931F93CF93DF938C017B01D42E6E
:102EA000BC018DEF96E00E942531EC01892BF9F0F1
:102EB000C8010E941C318C0F9D1FC0E0CD1549F048
:102EC0006CE270E00E942F33009789F00196CF5F8B
:102ED000F5CF0E94EC30F7019183808381E0DF9190
:102EE000CF911F910F91FF90EF90DF90089580E0B8
:102EF000F6CFFF920F931F93CF93DF93EB018A01DD
:102F0000F22E64EF71E00E94AB134F2DB801CE0199
:102F10000E944617C82F882329F060E084EF91E0D3
:102F20000E94760A8C2FDF91CF911F910F91FF9015
:102F30000895CF92DF92EF92FF920F931F93CF935A
:102F4000DF93CDB7DEB76E970FB6F894DEBF0FBE36
:102F5000CDBF6C017B01609105087091060844EFBC
:102F600051E08EE499E00E94DC13811102C020E060
:102F70007FC08AE0E7E2F1E08E010F5F1F4FD801CA
:102F800001900D928A95E1F7FE013B9684E1DF0105
:102F90001D928A95E9F743E150E0B601CE010A9609
:102FA0000E945833F80101900020E9F7319782E23E
:102FB000808344EF51E06BE479E0C8010E9458132C
:102FC0008823A9F268E479E084E396E00E94F7069A
:102FD000B70184E396E00E944113B701809107088E
:102FE000909108080E944113809107089091080869
:102FF0000E94F0128091070890910808DC01ED9181
:10300000FC910190F081E02D6AE1099562E472E0A3
:1030100084E396E00E9441138091FC068450823044
:1030200050F460E088EC90E00E94760A60E088EC62
:1030300090E00E94760A60E080E197E20E94760AC2
:1030400065E472E08DEF96E00E946733892B09F406
:103050008ECF60E088EE93E00E94760A6BE472E027
:103060008DEF96E00E943A3321E0892B09F07FCF63
:10307000822F6E960FB6F894DEBF0FBECDBFDF91E4
:10308000CF911F910F91FF90EF90DF90CF90089517
:10309000FC0180819181009711F00C9463300895B8
:1030A0000F931F93CF93DF93EC0188819981009751
:1030B00059F02A813B812617370730F081E0DF91F4
:1030C000CF911F910F9108958B016F5F7F4F0E94E9
:1030D0006932009759F0998388831B830A832C8176
:1030E0003D81232B59F7FC011082E8CF80E0E7CF28
:1030F000EF92FF920F931F93CF93DF93EC017B012D
:103100008A01BA010E94501828813981811114C0A6
:103110002115310519F0C9010E9463301982188206
:103120001D821C821B821A82CE01DF91CF911F91DA
:103130000F91FF90EF9008951D830C83B701C90193
:103140000E944333F1CFCF92DF92EF92FF920F9321
:103150001F93CF93DF9300D0CDB7DEB78C01C62E7F
:10316000FC0111821082138212821582148250E0B7
:1031700040E06DE873E00E9478180E94B40B0C2CBC
:10318000000CDD0897FD23C08C159D0501F1898396
:103190001A82F801E480F580FFEFEF1AFF0AB70109
:1031A000C8010E945018882379F0F80120813181EC
:1031B00084819581BE016F5F7F4F820F931F0E94B4
:1031C0004333F801F582E4820E94B40BDBCFC801DF
:1031D0000F900F90DF91CF911F910F91FF90EF9083
:1031E000DF90CF9008955F926F927F928F929F921F
:1031F000AF92BF92CF92DF92EF92FF920F931F9305
:10320000CF93DF93CDB7DEB7AF970FB6F894DEBF9D
:103210000FBECDBF66E171E084E396E00E94991392
:1032200060E081E00E942B116FE086E00E94870F32
:1032300080E28093DE06809100010E94401160E0F0
:1032400082E00E94870F60E083E00E94870F8AEA95
:103250008EA31FA218A619A61AA61BA61CA61DA6F9
:103260004091E50650E0BE016A5D7F4F80EE96E03A
:103270000E942633E5E3F1E084914091E506BE012A
:103280006A5D7F4F0E94C81180E00E94741180E047
:103290000E945311682F677F80E00E942B110E94CB
:1032A000631180E00E945311682F616080E00E94EA
:1032B0002B1160E787E00E942B1181E00E94C30977
:1032C0008091E006882309F492C04091E50660EE03
:1032D00076E08AE00E94C8118DE10E94531181FDC1
:1032E0000E9447111092C4031092C5031092C603A6
:1032F0001092C7038091C4039091C503A091C603A7
:10330000B091C703883823E19207A105B1050CF0FD
:1033100052C10196A11DB11D8093C4039093C503B2
:10332000A093C603B093C703809100018F5F809381
:1033300000018535C0F06BE071E084E396E00E9407
:10334000F706CE018E9620911808309119082115A4
:10335000310511F42CE138E0821B930B0E94F4122A
:1033600082E080930001809100010E9440110E9440
:10337000A80B6093C0037093C1038093C203909322
:10338000C3030E94A80B0091C0031091C1032091B8
:10339000C2033091C303601B710B820B930B643625
:1033A00071058105910508F0A5CF87E10E945311B1
:1033B00080FDE7CF1091DE0605E2153208F4012FFB
:1033C0008091DF06101B811110E00E94031181E63D
:1033D0000E94800FCE0101963C017C010150D0F08B
:1033E0008FEF0E94800FD7018D937D01F7CF82E090
:1033F0000E945311EEE4FAE0E49121E030E001C0D4
:10340000220FEA95EAF72095622F682382E00E9456
:103410002B1162CF115020F08FEF0E94800FFACF56
:103420000E94EA0960E787E00E942B1110E000E0AB
:103430008E80912C9594879495948794582C97E13D
:10344000981508F4D4C0E7E0F0E0EC0FFD1FE80D9C
:10345000F91D2081E8E0F0E0EC0FFD1FE80DF91DFB
:10346000808190E0880F991F422F50E0542F44270D
:10347000550F842B952B982789279827E9E0F0E0B2
:10348000EC0FFD1FE80DF91D308137FD9160F30150
:103490004FEF5FEFB4016B5F7F4FDF01A619B709F4
:1034A0006A177B07ACF03191532739E03150A9F30B
:1034B000DA01440F551FB7FFF9CFA1E24A27A0E177
:1034C0005A27F4CF898190E0959587958983A5C087
:1034D000207830E0322F222724273527A901440FF6
:1034E000551F37FF04C0B1E24B27B0E15B275427DB
:1034F000452754278417950709F079C06DEE70E0D1
:1035000084E396E00E94F706552009F46AC0F301AF
:103510003496A12CB12CC12CD12CE12CF12C00E043
:1035200010E0D3012D913D0130E040E050E060E03B
:1035300070E080E090E00E94603208E00E942A3251
:1035400059016A017B018C01EA17FB0751F72D81B4
:1035500030E040E050E060E070E080E090E00E9409
:1035600060322093C8033093C9034093CA03509339
:10357000CB036093CC037093CD038093CE039093E1
:10358000CF03DE011796E3EDF3E022E0820E911CFB
:10359000CF01835D9340881699064CF08D919C91E4
:1035A000991F9927991F880F892B8193F1CF5092EA
:1035B000F3030E944214AF960FB6F894DEBF0FBE1D
:1035C000CDBFDF91CF911F910F91FF90EF90DF90D2
:1035D000CF90BF90AF909F908F907F906F905F90B3
:1035E00008956CEC70E084E396E00E94991301303A
:1035F000110509F4C6CEF3012FE130E001E010E03F
:103600002115310509F45ECF868DB0E88B9FA001AE
:103610001124878D8695842B878F2150310931970E
:103620002F3F320769F704CF1F920F920FB60F9208
:1036300011248F939F938091E1009091E100937FFB
:103640009093E10083FF0FC01092E90091E0909306
:10365000EB001092EC0092E39093ED0010927E0547
:1036600098E09093F00082FF22C093E09093E900ED
:103670009091F200992319F09AE39093E8009091C9
:10368000A104992341F09091A10491509093A10439
:10369000911101C05D9A90917D05992341F090911F
:1036A0007D05915090937D05911101C0289A84FF6A
:1036B00018C08091E2008E7E81608093E20080914C
:1036C000E1008F7E8093E1008091A2048E7E806174
:1036D0008093A2049F918F910F900FBE0F901F9027
:1036E000189580FFF7CF8091E2008E7E80618093F5
:1036F000E2008091E1008E7E8093E1008091A2043F
:103700008E7E8160E5CF1F920F920FB60F9211242B
:10371000CF92DF92EF92FF920F931F932F933F93DD
:103720004F935F936F937F938F939F93AF93BF93C9
:10373000EF93FF93CF93DF93CDB7DEB76C97DEBFE8
:10374000CDBF1092E9008091E80083FF25C068E0BA
:10375000CE0145960E94E30682EF8093E8008D89B2
:1037600087FF39C09091E80090FFFCCF982F9076AA
:1037700009F034C19E894F89588D2F89F88C911199
:1037800031C0803861F58091A3048093F1001092DC
:10379000F1008EEF8093E8006C960FB6F894DEBFD0
:1037A0000FBECDBFDF91CF91FF91EF91BF91AF9150
:1037B0009F918F917F916F915F914F913F912F9149
:1037C0001F910F91FF90EF90DF90CF900F900FBE61
:1037D0000F901F9018959EEF9093E800C7CF10921E
:1037E000F100D5CF913059F48111D3CF413051053B
:1037F00081F68091A3048D7F8093A304CACF933078
:1038000049F48111C6CF4130510519F68091A304C6
:103810008260F2CF953041F48091E80080FFFCCFC8
:1038200020682093E300B5CF963009F0A9C00B8D36
:103830001C8D22E01092E90010929F0410929E04C9
:10384000F2122EC010929D0410929C040E945C07FC
:103850001F8299E09983FA8291E09E8390EA98878B
:103860009AEF998720919E0430919F04275F3F4FE4
:103870003C832B838D831092E90010929F04109259
:103880009E0410939D0400939C0449E050E0BE0107
:103890006F5F7F4F80E00E94AC060E945C0779CF8B
:1038A00010939D0400939C040E944807DC0112962B
:1038B0000D911C910115110509F451C1D801ED912B
:1038C000FC910480F581E02DBE016B5E7F4FC80145
:1038D0000995009709F03EC1F80100851185EACFEE
:1038E000F3E0FF120EC08F89882309F440C08230B4
:1038F00061F440E86BE08BEB91E00E947906811166
:1039000048CF81E28093EB0047CF813029F440E833
:1039100068E082EB91E0F1CF833099F70E9448078D
:10392000DC011296ED90FC908E010F5F1F4F680135
:10393000E114F10479F0D701ED91FC910680F78153
:10394000E02DB801C7010995080F111DF701E084AA
:10395000F184EECFD8011C92F60101900020E9F726
:103960003197BF016C197D0940E0C601C6CF6CE9F3
:1039700071E0FB01449150E080E80E94AC0609CF61
:10398000973009F4BECF983021F481E08093F100A4
:1039900000CF993009F0FDCE837009F0B2CFE2E09C
:1039A000F1E081E031E096E32191222371F08093F0
:1039B000E9003093EB00DF0111972C912093EC008C
:1039C0009093ED008F5F873079F78EE78093EA0060
:1039D0001092EA008F8980937E05DBCE8B8D9C8DC3
:1039E0001092E90010929F0410929E0490939D04FF
:1039F00080939C04898D811192C08E899D89913A12
:103A000049F4813209F07DCF47E050E06CE071E08D
:103A100080E0B3CF913209F074CF833269F48F899B
:103A2000988DB0E0A0E08093080190930901A093E5
:103A30000A01B0930B01ADCE803269F48091E800A9
:103A400082FFFCCF67E08CE091E00E94E3068BEF01
:103A50008093E8009ECE823209F09BCE8F898093BE
:103A60001301EEEFFFE7859194918B3F9C4D51F14F
:103A7000E0E0F8E080910C0190910D01A0910E0121
:103A8000B0910F01803B9440A105B105F1F4809104
:103A9000130180FD1AC0EE3F8AE0F80789F587E739
:103AA00097E791838083809160008093A00488E1F0
:103AB0009BE00FB6F894A895809360000FBE90939A
:103AC000600067CEEEEFFAE0D5CF80819181873735
:103AD000974709F05ECEA895809160008861809339
:103AE00060008091A00480936000EE3F2AE0F2071E
:103AF00089F08091FE0A9091FF0A9183808349CEDC
:103B0000808191818737980751F29093FF0A8093C3
:103B1000FE0AC5CF1092FF0A1092FE0A3ACE0E940A
:103B20004807DC0112960D911C910115110509F44D
:103B3000E8CED801ED91FC910190F081E02DBE011D
:103B40006B5E7F4FC8010995811123CEF801008576
:103B50001185EBCF181619060CF41BCED2CEF1E06E
:103B6000FF12BECE60EA71E004CF1F920F920FB633
:103B70000F9211248F939F93AF93BF93EF93FF9373
:103B80008091890590918A05A0918B05B0918C0553
:103B9000892B8A2B8B2BA1F190918005E0918105D7
:103BA000F091820580818927808380918905909199
:103BB0008A05A0918B05B0918C05181619061A0676
:103BC0001B069CF48091890590918A05A0918B0534
:103BD000B0918C050197A109B10980938905909353
:103BE0008A05A0938B05B0938C05FF91EF91BF914F
:103BF000AF919F918F910F900FBE0F901F901895CE
:103C0000809171008D7F8093710080918005E0919B
:103C10008105F09182059081809589238083E5CF8D
:103C20001F920F920FB60F9211242F933F934F9331
:103C30005F936F937F938F939F93AF93BF93EF9314
:103C4000FF9387E995E00E944308FF91EF91BF91B0
:103C5000AF919F918F917F916F915F914F913F9124
:103C60002F910F900FBE0F901F9018951F920F92DB
:103C70000FB60F9211242F938F939F93EF93FF937F
:103C8000E091A705F091A8058081E091AD05F09144
:103C9000AE0582FD1BC090818091B0058F5F8F7350
:103CA0002091B105821741F0E091B005F0E0E956AE
:103CB000FA4F958F8093B005FF91EF919F918F916F
:103CC0002F910F900FBE0F901F9018958081F4CF09
:103CD0001F920F920FB60F9211242F933F938F9341
:103CE0009F93AF93BF938091880490918904A09192
:103CF0008A04B0918B043091870426E0230F2D377E
:103D000058F50296A11DB11D209387048093880465
:103D100090938904A0938A04B0938B0480918C04BF
:103D200090918D04A0918E04B0918F040196A11DF5
:103D3000B11D80938C0490938D04A0938E04B09356
:103D40008F04BF91AF919F918F913F912F910F90D1
:103D50000FBE0F901F90189529E8230F0396A11D01
:103D6000B11DD2CF1F920F920FB60F9211242F9335
:103D70003F934F935F936F937F938F939F93AF93F3
:103D8000BF93EF93FF93E0911D01F0911E01099500
:103D9000FF91EF91BF91AF919F918F917F916F9123
:103DA0005F914F913F912F910F900FBE0F901F90F9
:103DB00018951F920F920FB60F9211242F933F93D5
:103DC0004F935F936F937F938F939F93AF93BF9323
:103DD000EF93FF93E0911B01F0911C010995FF9176
:103DE000EF91BF91AF919F918F917F916F915F9173
:103DF0004F913F912F910F900FBE0F901F901895EC
:103E00001F920F920FB60F9211242F933F934F934F
:103E10005F936F937F938F939F93AF93BF93EF9332
:103E2000FF93E0911901F0911A010995FF91EF912B
:103E3000BF91AF919F918F917F916F915F914F91C2
:103E40003F912F910F900FBE0F901F9018951F92CA
:103E50000F920FB60F9211242F933F934F935F93BE
:103E60006F937F938F939F93AF93BF93EF93FF9342
:103E7000E0911701F09118010995FF91EF91BF9121
:103E8000AF919F918F917F916F915F914F913F91F2
:103E90002F910F900FBE0F901F9018951F920F92A9
:103EA0000FB60F9211242F933F934F935F936F930D
:103EB0007F938F939F93AF93BF93EF93FF93E09183
:103EC0001501F09116010995FF91EF91BF91AF9106
:103ED0009F918F917F916F915F914F913F912F9122
:103EE0000F900FBE0F901F901895CF92DF92EF9218
:103EF000FF921F93CF93DF936A017B01909114018E
:103F0000891751F09F3FD9F0DF91CF911F91FF901A
:103F1000EF90DF90CF900895E7E4F9E0C491C7FDFA
:103F2000F3CF0E94B205CC2309F4A5C0C23009F03A
:103F3000B3C0C114D104E104F10431F3AAC08093E9
:103F40001401E7E4F9E0C491CF3FF1F2C13049F147
:103F500058F0C33009F447C0C43009F46AC0C7FD43
:103F6000D3CF0E94B205E2CF14BC15BC94B59260C9
:103F700094BD95B5916095BD282F30E0F901E05FC3
:103F8000F54FE491F0E0EE0FFF1FEC50F64F459136
:103F90005491F901E15DF54FE491E0938405C0E0AF
:103FA000C0CF1092800010928100909181009860A3
:103FB0009093810090918100916090938100282FCF
:103FC00030E0F901E05FF54FE491F0E0EE0FFF1F04
:103FD000EC50F64F45915491F901E15DF54FE491B4
:103FE000E09383059ECF10929000109291009091E3
:103FF00091009860909391009091910091609093BE
:104000009100282F30E0F901E05FF54FE491F0E0F6
:10401000EE0FFF1FEC50F64F4591549150938205DF
:1040200040938105F901E15DF54FE491E09380054E
:1040300078CF1092C0001092C1009091C10098609A
:104040009093C1009091C10091609093C100282F7E
:1040500030E0F901E05FF54FE491F0E0EE0FFF1F73
:10406000EC50F64F45915491F901E15DF54FE49123
:10407000E0937F0556CF85B5887F826085BD2FEFA1
:104080003FEFA901D0E2C114D104E104F10409F425
:104090007BC0D0E210E067C0C130A1F48091810004
:1040A000887F8160809381002FEF3FEFA901D9E0E5
:1040B00011E0C114D104E104F10409F47BC0D9E09A
:1040C00011E051C0C33021F580919100887F81605B
:1040D000809391002FEF3FEFA901D9E011E0C114C7
:1040E000D104E104F10459F78D2F912F9093990099
:1040F000809398002093890530938A0540938B051F
:1041000050938C0580917100826080937100FCCE89
:10411000C430F9F48091C100887F81608093C10030
:104120002FEF3FEFA901D9E0C114D104E104F1045C
:1041300031F6D093CF0020938505309386054093C8
:104140008705509388058091720080648093720087
:10415000DBCED9E011E02FEF3FEFA901C114D1046C
:10416000E104F10461F0A0E3B5E7A70196010E9424
:104170007D3128EE33E040E050E00E940232C13051
:10418000C9F08CF4C111C0CED7BD209391053093F6
:104190009205409393055093940580916E00826040
:1041A00080936E00B1CEC33009F49ECFC43009F4C1
:1041B000C0CFAACE8D2F912F909389008093880035
:1041C00020938D0530938E0540938F055093900575
:1041D00080916F00826080936F0096CE9C01FC01FD
:1041E00060E070E0CB01DF01A21BB30B51915523BE
:1041F00041F0660F771F881F991F5033A1F361604C
:10420000F2CF20910B0830910C082F3F3F4F19F04F
:10421000AD010C94060C0895EF92FF920F931F933B
:10422000CF93DF938C01EB017A010E94B40E60E41E
:1042300079E084E396E00E94F706B80184E396E013
:104240000E94F70662E284E396E00E94F006BE0157
:1042500084E396E00E94F70662E284E396E00E941F
:10426000F00684E396E00E94F012B80180910708FE
:10427000909108080E94F70662E2809107089091E9
:1042800008080E94F006BE01809107089091080876
:104290000E94F706C0910708D091080862E2CE019B
:1042A0000E94F006CE010E94F01260E080E197E2E9
:1042B0000E94760A69E379E084E396E00E94F706BB
:1042C0006DEF76E084E396E00E944113B7018DEF35
:1042D00096E00E94133121E0892B09F020E0822F23
:1042E000DF91CF911F910F91FF90EF9008950F9361
:1042F0001F93CF93DF934115510559F06115710557
:1043000041F0FC01048115810115110539F4FB010F
:104310001082DF91CF911F910F9108954150510963
:104320004017510708F48A01EB01FC01608171819B
:10433000A801CE010E945833C00FD11F1882E9CFC7
:10434000FB0101900020E9F73197AF01461B570BA5
:104350000C947818CF93DF9310929A0510929905D8
:1043600088EE93E0A0E0B0E080939B0590939C05DD
:10437000A0939D05B0939E0523EF31E030939805FF
:10438000209397052DEC30E03093A4052093A305EE
:104390002CEC30E03093A6052093A50528EC30E006
:1043A0003093A8052093A70529EC30E03093AA05A7
:1043B0002093A9052AEC30E03093AC052093AB059F
:1043C0002EEC30E03093AE052093AD051092B00591
:1043D0001092B1051092B2051092B30510923706F3
:1043E000109236068093380690933906A0933A06C9
:1043F000B0933B0685E092E09093350680933406B7
:104400008FEF9FEF909341068093400610929206A3
:1044100080918A06811113C010928506109284063D
:104420008AE59AE0909387068093860686E390E07B
:10443000909389068093880681E080938A06809114
:10444000A406811105C00E94D50781E08093A406CF
:10445000E0919E06F0919F06309709F008C184E82C
:1044600096E090939F0680939E068091A00690917F
:10447000A1062091880630918906820F931F9093A0
:10448000A1068093A0061092BD061092BC0687E19B
:1044900092E09093BB068093BA068091B206811198
:1044A00013C01092AD061092AC0680E99AE090938A
:1044B000AF068093AE068FE290E09093B1068093B2
:1044C000B00681E08093B2068091A406811105C0F8
:1044D0000E94D50781E08093A406E0919E06F091AA
:1044E0009F06309709F0CDC08CEA96E090939F0626
:1044F00080939E068091A0069091A1062091B0061F
:104500003091B106820F931F9093A1068093A0066D
:104510001092CA061092CB0680ED96E09093CD06DD
:104520008093CC061092CF061092CE0683E292E0E2
:104530009093C7068093C6061092D0060E94480743
:1045400066EC76E00E948D07CFEFDFEFD0930C088A
:10455000C0930B088AE090E090930E0880930D08BA
:1045600049E050E06FEC7AE08FE098E00E940A3179
:10457000D0930A08C09309088CE390E0909320013F
:1045800080931F011092D1061092D2061092D3068A
:104590001092D4061092F2061092F10688EE93E083
:1045A000A0E0B0E08093F3069093F406A093F506A4
:1045B000B093F6068FE292E09093F0068093EF06B8
:1045C00084E08093FB0687EC9AE09093FD0780934C
:1045D000FC071092FF071092FE071092010810923C
:1045E000000810920808109207081092020882EC46
:1045F0009AE090930408809303088FEB9AE09093DD
:1046000006088093050885E090E09093D606809395
:10461000D50686E090E09093D8068093D70680E890
:1046200096E9A8E9B0E08093D9069093DA06A093C2
:10463000DB06B093DC061092DD0680E28093DE0696
:104640001092DF0685E08093E50685E090E0A0E02B
:10465000B0E08093EB069093EC06A093ED06B09348
:10466000EE061092E006DF91CF910895FC01808163
:1046700091810097D9F784E896E091838083F5CE05
:10468000FC01808191810097D9F78CEA96E09183B3
:10469000808330CFCF93DF93CDB7DEB7C256D10939
:1046A0000FB6F894DEBF0FBECDBF789484B582609C
:1046B00084BD84B5816084BD85B5826085BD85B5C6
:1046C000816085BD80916E00816080936E00109244
:1046D00081008091810082608093810080918100BF
:1046E0008160809381008091800081608093800050
:1046F000809191008260809391008091910081600F
:1047000080939100809190008160809390008091CF
:10471000C10084608093C1008091C1008260809359
:10472000C1008091C10081608093C1008091C3006D
:1047300081608093C3008091C00082608093C0003C
:104740008091C20081608093C20080917A00846071
:1047500080937A0080917A00826080937A008091C1
:104760007A008E7F80937A0080917A0080688093AF
:104770007A0010927E051092A3041092A2048091F8
:10478000D70081608093D70080EA8093D80089B5F4
:104790008F7E89BD89B5826089BD09B400FEFDCFD9
:1047A00061E070E080E090E00E94430A8091D800D0
:1047B0008F7C80618093D8008091E000807F80931F
:1047C000E0008091E1008E7E8093E1008DE0809397
:1047D000E200559A209A0E94B20560E08DE00E94A6
:1047E000520962E370E080E090E00E94430A61E0D9
:1047F0008DE00E94520982E00E94B20561E082E0F1
:104800000E94520968EE73E080E090E00E94430A43
:1048100060E082E00E9452098FEF9FEF9093410683
:1048200080934006E091A705F091A80582E080837F
:10483000E091A305F091A4051082E091A505F09107
:10484000A6058FEC80831092AF05E091AB05F09147
:10485000AC0586E08083E091A905F091AA058081EE
:1048600080618083E091A905F091AA05808188602C
:104870008083E091A905F091AA05808180688083FA
:10488000E091A905F091AA0580818F7D808387E959
:1048900095E090930808809307088091FB060E949A
:1048A000B20561E08091FB060E9452096AE070E067
:1048B00080E090E00E94430A60E08091FB060E9445
:1048C000520964E670E080E090E00E94430A61E0F3
:1048D0008091FB060E9452096BE972E084E396E046
:1048E0000E9499130EE010E080910708909108084B
:1048F000DC01ED91FC910084F185E02D0995892B77
:1049000061F08091070890910808DC01ED91FC911D
:104910000284F385E02D0995E7CF60910508709139
:10492000060844EF51E088E992E00E94DC1381110F
:1049300063C08091070890910808DC01ED91FC911B
:104940000084F185E02D0995892B61F0809107089D
:1049500090910808DC01ED91FC910284F385E02D33
:104960000995E7CF44EF51E062E972E085E992E012
:104970000E94DC13811140C064EF71E080E090E0A0
:104980000E94430A0150110909F0AECF60E672E0BF
:1049900084E396E00E9499136091050870910608DF
:1049A00044EF51E08DE592E00E94DC1364E670E094
:1049B00080E090E00E94430A60910508709106082B
:1049C00044EF51E08AE592E00E94DC1364E670E077
:1049D00080E090E00E94430A60910508709106080B
:1049E00044EF51E087E592E00E94DC1364E670E05A
:1049F00080E090E00E94430A6091050870910608EB
:104A000044EF51E082E592E00E94DC1364E670E03E
:104A100080E090E00E94430A6091050870910608CA
:104A200044EF51E08DE492E00E94DC13811107C055
:104A30006CE573E084E396E00E949913FFCF6091E8
:104A400005087091060844EF51E083E492E00E946B
:104A5000DC1364E670E080E090E00E94430A0E946C
:104A6000B40E6CE372E084E396E00E94F7066EE415
:104A700072E084E396E00E9441136EE472E080915C
:104A80000708909108080E94411361E084EF91E0CB
:104A90000E94760A65E372E084E396E00E94F706DE
:104AA0006DEF76E084E396E00E9441136AE272E0E3
:104AB0008DEF96E00E942531892B09F485C083E0B3
:104AC0008093FC068091FC06813081F56DEE71E0EB
:104AD00084E396E00E94F70662E572E084E396E0E4
:104AE0000E94411362E572E08091070890910808E6
:104AF0000E94411361E084EF91E00E94760A66EE25
:104B000071E084E396E00E94F7066DEF76E084E3BF
:104B100096E00E9441136EED71E08DEF96E00E94E9
:104B20002531892B19F086E08093FC0660910508F9
:104B30007091060844EF51E087EC91E00E94DC138D
:104B400068EE73E080E090E00E94430A69E572E05D
:104B500087E995E00E94401464EF71E080E090E006
:104B60000E94430A86E493E09093FD078093FC073C
:104B70001092FF071092FE07109201081092000891
:104B8000609105087091060844EF51E08BEE92E0C9
:104B90000E94DC13811141C00FEF002E000C110B9D
:104BA00066E373E084E396E00E94F706C8010E9482
:104BB000F4120F3F100709F057C064EF71E080E076
:104BC00090E00E94430ADCCF6FE172E08DEF96E047
:104BD0000E942531892B11F082E072CF64E172E0EE
:104BE0008DEF96E00E942531892B11F081E068CF8E
:104BF00064E072E08DEF96E00E942531892B11F080
:104C000084E05ECF64EF71E08DEF96E00E94253185
:104C1000892B09F457CF85E053CF20E0AE014F5FD9
:104C20005F4F6CED72E082EE92E00E94791788236C
:104C300011F00981B2CF20E0AE014F5F5F4F6DEC04
:104C400072E083ED92E00E9479178111F2CF20E0AB
:104C5000AE014F5F5F4F6CEB72E084EC92E00E941C
:104C600079178111E6CF98CF64E273E084E396E090
:104C70000E94991364EF71E080E090E00E94430A83
:104C800044E650E06CE073E08FE093E00E94DC13B8
:104C9000811103C0012B09F090CF67E672E087E92C
:104CA00095E00E94401465EF72E084E396E00E9474
:104CB00099137E01EBE5EE0EF11C8E010F5F1F4F85
:104CC0008EEA94E09C01990F440B550BA3962CAFF0
:104CD0003DAF4EAF5FAFA39733E7232E32E0332EC5
:104CE000AE014B5F5F4F6F965FAF4EAF6F9768EB54
:104CF0007BE080E090E00E94430A8FEE96E00E9405
:104D0000A80E892B09F4AAC2D7011D921C922DE38B
:104D1000C22E25E0D22E8FEE96E00E94900EF60174
:104D200081935F01682F84E396E00E94D00861E0E0
:104D300070E080E090E00E94430AD6018C918A30B6
:104D400061F08FEE96E00E94A80E892B31F0BCE74F
:104D5000AB16B5E0BB0609F09CC0F6011182FF92CC
:104D6000EF923F922F922DE335E03F932F930E94D5
:104D700081330F900F900F900F900F900F9001972D
:104D800009F06CC262E379E084E396E00E94F706E2
:104D9000D7018D919C910E94F412F701D08060910F
:104DA00005087091060844EF51E089EC94E00E94F8
:104DB000DC13882309F471C060910508709106081E
:104DC00044EF51E08FEB94E00E94DC13882309F458
:104DD00064C066EB74E084E396E00E94F7066D2DF4
:104DE00084E396E00E942A136DEA74E0809107083C
:104DF000909108080E94F7066D2D80910708909108
:104E000008080E942A1360E088EE93E00E94760A68
:104E10006DEF76E084E396E00E94411366EA74E069
:104E20008DEF96E00E9425310097A9F16CE270E0C9
:104E300006960E942F33009771F1DC01119640E035
:104E400050E0242F30E0FD0101900020E9F7CF0170
:104E500001978A1B9B0B2817390710F00C94BE2F63
:104E60002A0F3B1FF90180818C3211F40C94BE2F64
:104E7000823249F023E330E02C0F3D1F250F311D16
:104E8000F90180835F5F4F5F5F31D8F20E94B40EFB
:104E90000AC0650140CF0E94B40E61E179E084E36D
:104EA00096E00E949913D701DC90609105087091FB
:104EB000060844EF51E08CE994E00E94DC1388235B
:104EC00009F45BC1609105087091060844EF51E058
:104ED00082E994E00E94DC13882309F44EC11A820F
:104EE000198269E874E084E396E00E94F7066D2D6C
:104EF00084E396E00E942A1360E874E0809107083A
:104F0000909108080E94F7066D2D809107089091F6
:104F100008080E942A1360E088EE93E00E94760A57
:104F20006DEF76E084E396E00E9441134BE0B80118
:104F300089E794E00E944617882309F41EC1A980DE
:104F4000BA80D12CC12CAC14BD0421F1BEEFCB161C
:104F5000D10401F18091070890910808DC01ED91DE
:104F6000FC910084F185E02D0995892B61F38091F6
:104F7000070890910808DC01ED91FC910284F3850B
:104F8000E02D0995F601E151F94F8687BFEFCB1A65
:104F9000DB0AD9CFF601E151F94F16860E94B40E13
:104FA000EDEFF6E001900020E9F79F012E5F36401B
:104FB000690137E9C316D10418F096E9C92ED12C3E
:104FC000A6016DEF76E087EA94E00E945833F6017F
:104FD000E955FB4F10826DEF76E084E396E00E9486
:104FE00041134AE050E062E872E087EA94E00E94F0
:104FF0004A33892B09F05DC064EF71E080E090E0F6
:105000000E94430A63E88AEB96E00E94850D62E302
:1050100070E080E090E00E94430A62E78AEB96E04D
:105020000E94850D0E94850B68EE73E080E090E0A1
:105030000E94430A6DE872E08AEB96E00E944014F9
:1050400068EE73E080E090E00E94430A0E94ED0D5C
:1050500068EE73E080E090E00E94430A62EB78E043
:105060008AEB96E00E94F7066CE271E080E090E047
:105070000E94430A61EB74E08AEB96E00E944014C0
:105080006CE271E080E090E00E94430A62E278E026
:105090008AEB96E00E94F70668EE73E080E090E00D
:1050A0000E94430A0E94ED0D68EE73E080E090E0FC
:1050B00062C04AE050E068E972E087EA94E00E944A
:1050C0004A33892B09F0D7C064EF71E080E090E0AB
:1050D0000E94430A63E88AEB96E00E94850D62E332
:1050E00070E080E090E00E94430A0E94850B68EE29
:1050F00073E080E090E00E94430A63EA72E08AEB8A
:1051000096E00E9440146CED75E080E090E00E9413
:10511000430A0E94ED0D60EB74E080E090E00E9495
:10512000430A61ED77E08AEB96E00E94F7066CE2B5
:1051300071E080E090E00E94430A61EB74E08AEB4A
:1051400096E00E9440146CE271E080E090E00E94E2
:10515000430A64EC77E08AEB96E00E94F7066CED78
:1051600075E080E090E00E94430A0E94ED0D6CED36
:1051700075E080E090E00E94430A6AE3CE018D5A18
:105180009F4F0E94A31869968EAD9FAD6997892B9A
:10519000B9F065E773E065968EAD9FAD65970E94A7
:1051A0003A33892B69F46AE0C8010E94A318698127
:1051B0007A81CE01C3960E949917C8010E944818AF
:1051C00064EF71E080E090E00E94430A6CED75E0CE
:1051D00080E090E00E94430A69E773E087E995E088
:1051E0000E944014D701DC90609105087091060878
:1051F00044EF51E087E693E00E94DC13882309F432
:10520000ABC68CE0EEE8F3E0D80101900D928A95F0
:10521000E1F78D2D64E60E94CE31805D8987892F6C
:105220006AE00E94CE31805D8A87905D9B876091A5
:1052300005087091060840ED57E0C8010E94581318
:10524000882309F489C66DEF74E084E396E00E9438
:105250009913CE018D5A9F4F0E94481880E090E02C
:10526000892B09F444CD0E942F08882309F434CDFA
:105270000E94000031CD4AE050E068EA72E087EA1F
:1052800094E00E944A33892B09F071C064EF71E009
:1052900080E090E00E94430A63E88AEB96E00E9477
:1052A000850D62E370E080E090E00E94430A60E2D6
:1052B0008AEB96E00E94850D0E94850B68EE73E0F4
:1052C00080E090E00E94430A63EB72E08AEB96E094
:1052D0000E94401468EE73E080E090E00E94430A70
:1052E0000E94ED0D68EE73E080E090E00E94430ABA
:1052F00068E877E08AEB96E00E94F7066CE271E0DE
:1053000080E090E00E94430A61EB74E08AEB96E053
:105310000E9440146CE271E080E090E00E94430A39
:105320006EE677E08AEB96E00E94F70668EE73E09F
:1053300080E090E00E94430A0E94ED0D68EE73E069
:1053400080E090E00E94430A63E88AEB96E00E94C6
:10535000850D62E370E080E090E00E94430A61E71F
:105360008AEB96E00E94850D0E94850B06CF44E0F3
:1053700050E068E872E087EA94E00E944A33892BA3
:1053800029F564EF71E080E090E00E94430A63E851
:105390008AEB96E00E94850D62E370E080E090E089
:1053A0000E94430A62E78AEB96E00E94850D0E9404
:1053B000850B68EE73E080E090E00E94430A6BEAA0
:1053C00074E08AEB96E00E94401466CE44E050E020
:1053D0006EE972E087EA94E00E944A33892B09F073
:1053E00054C064EF71E080E090E00E94430A60E8FE
:1053F0008AEB96E00E94850D62E370E080E090E029
:105400000E94430A62E88AEB96E00E94850D62E3FF
:1054100070E080E090E00E94430A64E78AEB96E047
:105420000E94850D62E370E080E090E00E94430AF4
:105430000E94850B68EE73E080E090E00E94430AD2
:105440006CED75E080E090E00E94430A0E94ED0D53
:105450006CED75E080E090E00E94430A60EC72E041
:105460008AEB96E00E9440146BEA74E08AEB96E0C7
:105470000E94401469EC72E08AEB96E00E944014AE
:105480006CED75E080E090E00BCE44E050E06EEA19
:1054900072E087EA94E00E944A33892B09F041C008
:1054A00064EF71E080E090E00E94430A63E88AEBD9
:1054B00096E00E94850D62E370E080E090E00E943B
:1054C000430A60E28AEB96E00E94850D0E94850BFC
:1054D00068EE73E080E090E00E94430A63EB72E0C4
:1054E0008AEB96E00E94401468EE73E080E090E062
:1054F0000E94430A0E94ED0D68EE73E080E090E0A8
:105500000E94430A6BEA74E08AEB96E00E94401422
:1055100068EE73E080E090E00E94430A0E94ED0D87
:105520002CCE44E050E06FEC72E087EA94E00E94F9
:105530004A33892B09F053C068EE73E080E090E0B5
:105540000E94430A84E0E5E4F1E0D80101900D9265
:105550008A95E1F78FE16F96AEADBFAD6F971D9263
:105560008A95E9F74BEA54E0FA0101900020E9F747
:10557000AF014C5A54404F31510510F04EE150E00C
:105580006BEA74E0CE0104960E945833F801019052
:105590000020E9F73197E01BF10BFF27D801AE0F90
:1055A000BF1F8BE38C9322E030E02C0F3D1FE20FF6
:1055B000F31F1082609105087091060844EF51E0D6
:1055C000C8010E94581362E677E0882309F4BFC43B
:1055D0006BE377E084E396E00E94991365CD4AE09F
:1055E00050E064ED72E087EA94E00E944A33892B30
:1055F00089F40E94EA110E94F3180E94F1130E949C
:10560000D5150E94EA110E94F3180E94F1130E941E
:10561000D515B3CD4AE050E06FED72E087EA94E033
:105620000E944A33892BB1F40E94EA110E94F318B8
:105630000E94F1138091A6046AEE72E0813029F095
:1056400064EF72E0823009F098CDCE01C3960E94DB
:10565000991793CD49E050E06DEF72E087EA94E04E
:105660000E944A33892BF9F468EE73E080E090E001
:105670000E94430A8BE090E090930C0880930B0803
:105680000E94B20582E390E090930E0880930D088B
:1056900080EB94E00E94EE208FEF9FEF90930C0838
:1056A00080930B0801CD48E050E067E073E087EAA3
:1056B00094E00E944A33892B49F468EE73E080E05D
:1056C00090E00E94430A87E090E0D6CF4BE050E0A4
:1056D00060E173E087EA94E00E944A33892B09F085
:1056E000D8C060E277E084E396E00E94F70662EBC0
:1056F00074E084E396E00E94411310920A0810922D
:1057000009080E94D1058BE090E090930C088093EB
:105710000B080E94B20582E390E090930E088093FC
:105720000D0868EE73E080E090E00E94430A0E945A
:10573000A80B2B013C010E94A80B6419750986096E
:105740009709603375478105910508F08FC08090F7
:10575000D1069090D206A090D306B090D4068114C2
:105760009104A104B10439F36CEE76E084E396E091
:105770000E94991368EE73E080E090E00E94430A73
:1057800068EB76E084E396E00E94991368EE73E09C
:1057900080E090E00E94430A65E876E084E396E0CA
:1057A0000E94991368EE73E080E090E00E94430A43
:1057B0006AE776E084E396E00E949913C501B4019C
:1057C0000E945F0FBC01CE01C3960E9499178AE028
:1057D000C82ED12CC501B4010E945F0FBC01CE01BF
:1057E000C3960E9499176CED75E080E090E00E94EE
:1057F000430A80910B0890910C08019631F048E122
:1058000050E0C501B4010E94060C60E776E084E335
:1058100096E00E94F7062AE0B501A40184E396E031
:105820000E94A41284E396E00E94F01251E0C51A8F
:10583000D1088FEF881A980AA80AB80AC114D104AF
:1058400049F66EE576E084E396E00E94991368EFEE
:1058500075E084E396E00E9499131092D1061092AD
:10586000D2061092D3061092D40665CF8FEF9FEF29
:1058700090930C0880930B0880910908853010F4F0
:105880000E94E60B8FEF9FEF90930A088093090820
:1058900074CC48E050E06CE173E087EA94E00E9449
:1058A0004A33892BB9F468EE73E080E090E00E94FF
:1058B000430A83E090E090930C0880930B080E94C9
:1058C000B20582E390E090930E0880930D088FEA72
:1058D00094E0E0CE47E050E065E273E087EA94E0D0
:1058E0000E944A33892BE1F468EE73E080E090E097
:1058F0000E94430A6EED75E084E396E00E94F7068D
:105900006EEA74E084E396E00E944113A3964CADE6
:105910005DAD6EAD7FADA3978BE00E94751FC4CBCC
:1059200046E050E06DE273E087EA94E00E944A337B
:10593000892BC1F468EE73E080E090E00E94430A96
:1059400064EC75E084E396E00E94F7066DEA74E08B
:1059500084E396E00E94411340E157E260E070E08A
:1059600087E0DBCF46E050E064E373E087EA94E051
:105970000E944A33892B09F057C069EA75E084E335
:1059800096E00E94F7066DEA74E084E396E00E94D8
:10599000411310920A08109209080E94D10568EE7E
:1059A00073E080E090E00E94430A0E94A80B2B0164
:1059B0003C010E94A80B6419750986099709603398
:1059C00075478105910508F057CF8090D1069090DA
:1059D000D206A090D306B090D40681149104A104FD
:1059E000B104C9F067E875E084E396E00E9499137A
:1059F000C501B4010E945F0FBC01CE01C3960E9495
:105A000099176BE775E0882311F061E775E084E38F
:105A100096E00E9499131092D1061092D20610922D
:105A2000D3061092D406C5CF4CE050E06BE373E090
:105A300087EA94E00E944A33892B09F0B6C140E21C
:105A40005EE46BE374E083E494E00E94DC13609115
:105A500005087091060840E157E280E394E00E9457
:105A6000DC13811161C06AE575E084E396E00E9471
:105A700099136CED75E080E090E00E94430A60E1CC
:105A800077E28CE893E00E94AB1340E0BE016D5AD0
:105A90007F4F8FE793E00E944617882309F44EC199
:105AA0004BE057E0FA0101900020E9F7AF014C50BC
:105AB00057404233510510F041E350E04F5F5F4FD4
:105AC0006BE077E0C8010E94583360E084EF91E01A
:105AD0000E94760A65968EAD9FAD6597892B09F079
