:020000040000FA
:100000000C947F050C94451F0C941E1F0C94F71E36
:100010000C94D01E0C94A7050C94A7050C94A91E53
:100020000C94A7050C94A7050C940B1B0C947A1B3D
:100030000C94A7050C94A7050C94A7050C94A70590
:100040000C94A7050C94A7050C94A7050C94A70580
:100050000C94A7050C94A7050C94A7050C945F1E9F
:100060000C94A7050C942D1E0C94071E0C94A70548
:100070000C94A7050C94A7050C94A7050C94A70550
:100080000C94AC1D0C94A7050C94A7050C94A70523
:100090000C94A7050C94A7050C94A7050C94A70530
:1000A0000C94A7050C94A7050C94A7056364696ECE
:1000B0006F70737578585B00002000200020613A53
:1000C000200020733A200063683A20005061796C68
:1000D0006F616420697320656D7074792E204B65A3
:1000E0006570207363616E6E696E672E00466F7572
:1000F0006E64207061636B6574202F772076616C6D
:100100006964206372632E2E2E200046726565207E
:1001100052414D3A20005363616E6E696E672E2E18
:100120002E004C6F676974656368004D532D456EF2
:1001300063004D53000A0B0C0D0E0F00000002006F
:10014000090F0000030401000C0000000000000083
:1001500000000000000000000000080B0002020286
:100160000000090400000102020000052400100143
:1001700005240101010424020605240600010705E7
:10018000810310004009040100020A000000070575
:100190000202400000070583024000000403090436
:1001A00012010002EF0201404F1B08920001010200
:1001B0000301537061726B46756E004C696C795027
:1001C0006164205553420041542B43504D533D220E
:1001D000534D222C22534D222C22534D22005349A1
:1001E0004D3830304800093C2D2D2D2000092D2D93
:1001F0002D3E200053494D434F4D5F53494D3533FC
:100200003230450053494D434F4D5F53494D3533CF
:100210003230410053494D38303020523133005391
:10022000494D383038205231330053494D38303839
:100230002052313400093C2D2D2D2000092D2D2D6B
:100240003E200041542B435648553D300041544513
:1002500030004154453000415400415400415400A5
:1002600054696D656F75743A204E6F2072657370B6
:100270006F6E736520746F2041542E2E2E206C619A
:10028000737420646974636820617474656D70743C
:100290002E00415400415400415400417474656D76
:1002A0007074696E6720746F206F70656E20636F65
:1002B0006D6D2077697468204154730022534D5F3F
:1002C00050222C0041542B43504D533F0022534D9C
:1002D000222C0041542B43504D533F0022534D22BA
:1002E0002C0041542B43504D533F0041542B434D60
:1002F00047463D31005748494420456C69746520A4
:10030000312E332E31206973204F4B004F4B00416B
:10031000542B434D4744413D2244454C20414C4CD5
:10032000220D0A000A0D44656C6574696E672053DE
:100330004D532E2E2E004E756D626572206F662015
:10034000534D533A2000544D004E4F2053494D38E1
:100350003030210041542B434D47463D31002B4363
:1003600042433A200041542B434243002B4349501F
:1003700047534D4C4F433A200041542B434950477B
:10038000534D4C4F433D312C3100093C2D2D2D2038
:100390000041542B43494943520041542B5341508F
:1003A00042523D312C310041542B53415042523D79
:1003B000332C312C22505744222C0041542B5341D2
:1003C0005042523D332C312C2255534552222C00A1
:1003D00041542B435354543D2200092D2D2D3E20D2
:1003E0000041542B435354543D220041542B53415C
:1003F0005042523D332C312C2241504E222C004190
:10040000542B53415042523D332C312C22434F4EFA
:1004100054595045222C2247505253220041542B0C
:1004200043474154543D310053485554204F4B00ED
:1004300041542B434950534855540041542B434792
:100440004154543D300041542B53415042523D30B1
:100450002C310053485554204F4B0041542B4349F5
:100460005053485554002B434D47523A0041542BAA
:10047000434D47523D0041542B434D47523D0041AF
:10048000542B435344483D310041542B434D474680
:100490003D31002B434D47523A0041542B434D47C9
:1004A000523D0041542B434D47523D0041542B4394
:1004B0005344483D310041542B434D47463D3100A4
:1004C00041542B434D47443D3F0D0A00436F756C2B
:1004D000646E27742064656C65746520534D5320E9
:1004E000696E20736C6F743A2000534D532072650F
:1004F0006D6F7665642066726F6D205748494420A1
:10050000456C69746521004E6F207265706C7921AD
:1005100000426174742025203D20004661696C65AD
:100520006420746F207475726E206F666620475069
:100530005253004661696C20636F64652023004656
:1005400061696C656421004661696C656420746F43
:10055000207475726E206F6E204750525300534DB9
:10056000532053656E742100534D53204661696CCE
:10057000656421005B2B5D205061636B65742052C4
:1005800065636569766564212053656E64696E678D
:1005900020534D5321004D696C6C697365636F6E18
:1005A0006473206F6620536E696666696E673A20D1
:1005B000004D696C6C697365636F6E6473206F6660
:1005C000204A616D6D696E673A20004D696C6C69F7
:1005D0007365636F6E6473206F66204A616D6D6929
:1005E0006E673A20002D2D2D2D2D2D2D2D2D2D2DED
:1005F0002D2D2D2D2D2D2D2D2D2D2D2D2D2D2D2D2B
:100600002D2D2D2D2D2D2D2D2D2D2D2D2D2D2D2D1A
:100610002D2D2D2D2D2D2D2D2D2D2D2D2D2D2D2D0A
:100620002D2D2D2D2D2D2D2D2D2D2D2D2D2D2D2DFA
:100630002D2D2D2D2D2D2D2D2D2D2D2D2D2D2D2DEA
:100640002D2D2D2D2D2D2D2D2D2D005B4F5D205071
:1006500061636B6574732053656E74210053656E1E
:1006600064696E673A20005B4F5D20424F4F4F4DEB
:1006700021005B4F5D2053656E64696E6720626187
:10068000636B20746865207061636B657420736EA2
:10069000696666656420696E2031207365636F6EDC
:1006A000642E2E2E005B4F5D2053656E64696E676D
:1006B000206261636B20746865207061636B657490
:1006C00020736E696666656420696E2032207365EA
:1006D000636F6E64732E2E2E005B4F5D2053656E2C
:1006E00064696E67206261636B2074686520706165
:1006F000636B657420736E696666656420696E203D
:1007000033207365636F6E64732E2E2E004D696CFB
:100710006C697365636F6E6473206F6620536E69D6
:100720006666696E673A20002323232053544152A2
:1007300054494E472041434F555354494320535544
:10074000525645494C4C414E4345202323230043F8
:10075000616C6C204661696C65640029203E202F25
:100760006465762F63752E7573626D6F64656D4871
:1007700049442A3B00736C656570202E353B7374C9
:100780007479202D66202F6465762F63752E75731E
:10079000626D6F64656D4849442A20343830303BBF
:1007A0006563686F202D6520224241473A22242844
:1007B000002929203E20246C3B6578697400207351
:1007C0006C656570202E353B6C3D24286C73202FA2
:1007D0006465762F73657269616C2F62792D696427
:1007E0002F2A4C696C795061642A293B737474799F
:1007F000202D4620246C20343830303B6563686FF0
:10080000204241473A24286563686F202428003B32
:1008100024703D6E65772D4F626A6563742053794D
:100820007374656D2E494F2E506F7274732E53651D
:100830007269616C506F72742024632C34383030CC
:100840002C4E6F6E652C382C6F6E653B24702E6FAE
:1008500070656E28293B24702E57726974654C6947
:100860006E6528224241473A247222293B24702E89
:10087000436C6F736528293B436C6561722D486931
:1008800073746F7279202D436F6D6D616E644C6966
:100890006E6520222A242A223B657869743B002455
:1008A000633D2867776D692057696E33325F536502
:1008B0007269616C506F72747C57686572652D4FF8
:1008C000626A6563747B245F2E504E50446576697E
:1008D00063654944202D6D61746368202249445F3B
:1008E00031423446265049445F39323038227D291E
:1008F0002E44657669636549443B24723D00446932
:10090000646E27742066696E6420534D53206D65B4
:10091000737361676520696E20736C6F7421007357
:100920006C6F743A2000093C2D2D2D2000092D2DCF
:100930002D3E2000033E20003E200041542B434D1D
:1009400047463D3100093C2D2D2D2000092D2D2D30
:100950003E2000093C2D2D2D2000092D2D2D3E205F
:100960000000000000000000002A2B28000000000A
:100970000000000000000000000000000000000077
:10098000002C9EB4A0A1A2A434A6A7A5AE362D37F4
:1009900038271E1F20212223242526B333B62EB745
:1009A000B89F8485868788898A8B8C8D8E8F90915D
:1009B00092939495969798999A9B9C9D2F3130A3EA
:1009C000AD350405060708090A0B0C0D0E0F1011B2
:1009D00012131415161718191A1B1C1DAFB1B0B538
:1009E0000000000000250028002B002E0031000030
:1009F000000000240027002A002D00300004040419
:100A000004040304050202020204030202020206B5
:100A10000606060606040402020204040408020193
:100A20001040804010204080408008020401804037
:100A30002010020110801020404020000102030419
:100A40000511121314151605010902A1010901A1CE
:100A50000085010509190129031500250195037574
:100A600001810295017505810305010930093109EC
:100A7000381581257F750895038106C0C0050109D9
:100A800006A1018502050719E029E7150025017572
:100A90000195088102950175088103950675081571
:100AA0000025730507190029738100C04F4B0046CC
:100AB0004F4E4100464F4E416E6574005E01011F6E
:100AC00001030301008A02010A010202010064001D
:100AD0001E47040B0906007C010106010303010007
:100AE000F401060E0102020100C201170101020217
:100AF00001019600023E010606010000A121112419
:100B00001FBECFEFDAE0DEBFCDBF13E0A0E0B1E063
:100B1000E4E0FDE602C005900D92AA39B107D9F7CD
:100B200028E0AAE9B3E001C01D92AC31B207E1F7B9
:100B300015E0CFE7D5E004C02197FE010E941B32EB
:100B4000CE37D107C9F70E9441230C9480360C940C
:100B5000000090E0FC01E45EF54F24918350964F35
:100B6000FC018491882399F090E0880F991FFC0183
:100B7000E151F64FA591B491FC01EF51F64F8591EB
:100B800094918FB7F894EC91E22BEC938FBF08957A
:100B9000E0910908F0910A08EF3FFE0781F11092F9
:100BA000D1061092D2061092D3061092D40610925B
:100BB0009605109295052E2FE53008F5FF27EE0FCC
:100BC000FF1FEB5EFE4F86E99FE09183808322301A
:100BD000F9F050F42130A1F0809169008C7F8160A0
:100BE00080936900E89A08952330D1F02430A1F76A
:100BF00080916A008F7C806180936A00EE9A0895EC
:100C000080916900837F846080936900E99A0895E8
:100C1000809169008F7C806180936900EA9A0895D1
:100C2000809169008F73806480936900EB9A0895C6
:100C3000FC0180917E05882311F13FB7F89482E092
:100C40008093E9002091F200822F90E01816190697
:100C500014F481E090E0882339F0289844E640932A
:100C60007D054091F1004083222339F02091F2006C
:100C7000211103C02BE62093E8003FBF08958FEFBA
:100C80009FEF089540919E0450919F0420919C04F1
:100C900030919D0442175307B4F49091E800957089
:100CA000E1F39091E80092FD19C08093F1008091EA
:100CB0009E0490919F0401968F739927892B19F4B4
:100CC0008EEF8093E80080919E0490919F0401969E
:100CD00090939F0480939E0481E0089580E008959E
:100CE000EF92FF920F931F93CF93DF93F82E192F5C
:100CF000E62E042F81E0860F880F0E94420683E0D3
:100D00000E944206CF2DD12FEC0EFD2EF11CCE15E8
:100D1000DF05B9F007FF13C0FE0184910E9442066F
:100D2000182F80E00E944206812321968111EFCF87
:100D3000DF91CF911F910F91FF90EF9008958881DF
:100D4000EDCF81E0F5CFDF92EF92FF920F931F93EB
:100D5000CF93DF93D82E8A01EB017B01E40EF51EC1
:100D6000CE15DF0559F0D7FE12C0FE0184910E9416
:100D7000420621968111F4CF0FEF1FEFC801DF91DA
:100D8000CF911F910F91FF90EF90DF900895888190
:100D9000EECF2FB7F89487708093E9009091E80028
:100DA000892F807295FF04C09091F20080E4891B26
:100DB0002FBF0895615030F02091F100FC01208395
:100DC0000196F8CF289884E680937D050895DC018C
:100DD000ED91FC910190F081E02D0994EF92FF924A
:100DE0000F931F93CF93DF938C017B01D0E0C0E082
:100DF000F701EC0FFD1F6491662361F0D801ED91BE
:100E0000FC910190F081E02DC8010995892B11F02A
:100E10002196EECFCE01DF91CF911F910F91FF90E0
:100E2000EF900895AF92BF92CF92DF92EF92FF9230
:100E30000F931F93CF93DF936C017B018B01040F02
:100E4000151FEB015E01AE18BF08C017D10759F09E
:100E50006991D601ED91FC910190F081E02DC601E0
:100E60000995892B79F7C501DF91CF911F910F91DA
:100E7000FF90EF90DF90CF90BF90AF90089580915A
:100E8000940481110DC082E08093900484E08093EB
:100E90009104109293041092920481E08093940440
:100EA00080E994E008950F931F93CF93DF931F92EF
:100EB000CDB7DEB782E0898342E450E06AE571E0B5
:100EC00080E80E94A3060E943F07DC0112960D9164
:100ED0001C910115110589F0D801ED91FC9102805A
:100EE000F381E02DBE016F5F7F4FC801099597FD2B
:100EF00004C0F80100851185ECCF89810F90DF9146
:100F0000CF911F910F910895CF93DF93FC01DB01E7
:100F1000818114963C911497682F630F7727771F70
:100F2000683071059CF5C281D381209739F5B38370
:100F3000A283908112969C93129713968C93139789
:100F400015968C911597890F808390E080E0831728
:100F500008F52181C22FD0E0BE016F5F7E4F16964B
:100F60004D915C911797480F591FEA014881EB0199
:100F700048832F5F21830196EACFEA01488559858E
:100F800041155105D1F7B987A887D3CF80E0DF910C
:100F9000CF91089581E0FBCFE3E9F6E081E084831F
:100FA00085832DE936E0378326831186108627EE68
:100FB00031E0318320831486138616861586878751
:100FC000808B81EC82870E943F0763E976E00C9476
:100FD0008407FC01538D448D252F30E0842F90E051
:100FE000821B930B541710F0CF9608950197089524
:100FF000FC01918D828D981761F0A28DAE0FBF2FED
:10100000B11D5D968C91928D9F5F9F73928F90E042
:1010100008958FEF9FEF0895FC01918D828D9817B1
:1010200031F0828DE80FF11D858D90E008958FEFEE
:101030009FEF0895FC01918D228D892F90E0805CB7
:101040009F4F821B91098F739927089587E995E037
:101050000E941A0821E0892B09F420E0822F0895CC
:1010600080E090E0892B29F00E94260881110C94E1
:1010700000000895FC01A48DA80FB92FB11DA35A3B
:10108000BF4F2C91848D90E001968F739927848FA8
:10109000A689B7892C93A089B1898C9182748C938D
:1010A000938D848D981306C00288F389E02D80818A
:1010B0008F7D80830895EF92FF920F931F93CF93BC
:1010C000DF93EC0181E0888F9B8D8C8D981319C084
:1010D000E889F989808185FF14C09FB7F894EE896B
:1010E000FF896083E889F9898081827480839FBF4A
:1010F00081E090E0DF91CF911F910F91FF90EF90F1
:101100000895F62E0B8D10E00F5F1F4F0F73112700
:10111000E02E8C8D8E110CC00FB607FCFACFE8893B
:10112000F989808185FFF5CFCE010E943A08F1CF81
:10113000EB8DEC0FFD2FF11DE35AFF4FF0829FB7AF
:10114000F8940B8FEA89FB8980818062CFCFCF939F
:10115000DF93EC01888D8823B9F0AA89BB89E889DF
:10116000F9898C9185FD03C0808186FD0DC00FB685
:1011700007FCF7CF8C9185FFF2CF808185FFEDCF03
:10118000CE010E943A08E9CFDF91CF910895CF9325
:10119000DF931F92CDB7DEB76983DC01ED91FC913F
:1011A0000280F381E02D41E050E0BE016F5F7F4F90
:1011B00009950F90DF91CF91089583E08093E90026
:1011C0008091F200882319F08AE38093E800089563
:1011D00083E00E94C90690E00895CF93DF931F92A9
:1011E000CDB7DEB7FC018485958597FD08C02FEF4C
:1011F0003FEF358724870F90DF91CF910895CE017F
:1012000001960E941806019719F4898190E0F3CFA6
:101210008FEF9FEFF0CF0F931F93CF93DF931F922A
:10122000CDB7DEB78C01FC018485958597FF0BC097
:10123000CE0101960E941806019771F4898190E011
:10124000F80195878487F801848595850F90DF9153
:10125000CF911F910F9108958FEF9FEFF1CFFC0178
:101260008485958597FD0BC09FB7F89482E08093A5
:10127000E9008091F2009FBF90E0019608959FB72A
:10128000F89482E08093E9008091F2009FBF90E0A3
:101290000895282F30E0F901E55CFE4F9491F901A3
:1012A000E45EF54F84912350364FF90124912223B7
:1012B00009F430C09923E9F091509F30D0F4E92F20
:1012C000F0E0EB59F64F0C941B329309970974091F
:1012D0008B098F097909790979099A09A009A40963
:1012E000A809AE097909B209909180009F7790937F
:1012F0008000E22FF0E0EE0FFF1FEF51F64FA591B7
:10130000B4919FB7F894EC91611132C080958E230F
:101310008C939FBF0895909180009F7DE8CF90911E
:101320008000977FE4CF94B59F7794BDE2CF94B5CA
:101330009F7DFBCF909190009F7790939000D9CFA5
:10134000909190009F7DF9CF90919000977FF5CF7D
:101350009091C0009F779093C000CBCF9091C00038
:101360009F7DF9CF9091C200977F9093C200C1CF2B
:101370008E2BCECF2091D5063091D6064091D70640
:101380005091D8062417350721F0682F822F0C942E
:10139000490908958330910528F0880F991F049713
:1013A0000197F1F70895CF93DF93C5EDD6E0682F4D
:1013B0008A810E9449098E899F89DF91CF910C947F
:1013C000CA0981E00C94D3091F93CF93DF93182FA0
:1013D000D92F8091170860E0C1E0811102C061E05F
:1013E000C0E080910B080E94490980910F089091FC
:1013F00010089C01129FC001139F900D11240E94A0
:10140000CA096C2F80910B080E94490980910F082E
:10141000909110089C01D29FC001D39F900D112480
:10142000DF91CF911F910C94CA093FB7F894809136
:101430008C0490918D04A0918E04B0918F0426B5F8
:10144000A89B05C02F3F19F00196A11DB11D3FBFFC
:10145000BA2FA92F982F8827BC01CD01620F711DCB
:10146000811D911D43E0660F771F881F991F4A95C4
:10147000D1F708958F929F92AF92BF92CF92DF9251
:10148000EF92FF926B017C010E94150A4B015C01F7
:10149000C114D104E104F104B9F00E94150A6819DD
:1014A00079098A099B09683E73408105910580F39B
:1014B00021E0C21AD108E108F10888EE880E83E025
:1014C000981EA11CB11CE4CFFF90EF90DF90CF904D
:1014D000BF90AF909F908F900895FF920F931F93AE
:1014E000CF93DF938C01F62ED0E0C0E001501109BC
:1014F000CE3FD10580F58091070890910808DC0166
:10150000ED91FC910084F185E02D0995892BC9F0BE
:101510008091070890910808DC01ED91FC9102840C
:10152000F385E02D09958D3031F38A3021F4209731
:1015300011F3FF2081F0FE01E151F94F86872196DA
:10154000DACF0115110539F061E070E080E090E03C
:101550000E943A0ACBCFFE01E151F94F16868C2F3B
:10156000DF91CF911F910F91FF9008957F928F92FD
:101570009F92AF92BF92CF92DF92EF92FF920F9322
:101580001F93CF93DF93C82E8B017A0180917E0544
:10159000811110C08FEF9FEFDF91CF911F910F91BD
:1015A000FF90EF90DF90CF90BF90AF909F908F9083
:1015B0007F9008958091A20480FF05C08091E00093
:1015C00082608093E000CE2DDF2DD12C8AEFB82EE3
:1015D0008C2D8770982E8C2D8072882E8C2D807487
:1015E000782E9AE3A92E209719F4DD2009F452C031
:1015F0008C2D0E94C90681110AC0BA94BB2051F2F9
:1016000061E070E080E090E00E943A0AECCF8C1735
:101610001D0611F00CF08C2F9FB7F8949092E90002
:101620002091E80025FD02C09FBFDDCF282F30E0CC
:10163000C21BD30B882029F08150A0F01092F1003A
:10164000FBCFF801C7FC0AC0815050F04191409394
:10165000F100FACF44914093F10031968150D0F7D8
:10166000020F131FDD2021F0A092E800D12CDCCF67
:101670008091E80085FD07C0A092E800DD24D394A6
:10168000209791F2F3CF209779F6772069F2A09214
:10169000E800CACF5D9884E68093A104C7017CCF9F
:1016A0000F931F93CF93DF931F92CDB7DEB78C01BB
:1016B0008091A406811105C00E94CC0781E080932F
:1016C000A40682E0898341E050E0BE016F5F7F4F56
:1016D000809196060E94B60A97FD08C080919606F2
:1016E00048E050E0B80180640E94B60A0F90DF9194
:1016F000CF911F910F910895EAEBF6E016821782C1
:10170000108611861286138614828EEB96E00C9456
:10171000500BCF93DF93EC0180911301882331F0BC
:1017200083E00E94B60A1816190634F081E090E0B2
:101730009B838A8380E090E0DF91CF9108952FB75B
:10174000F894609188047091890480918A04909142
:101750008B042FBF08950F931F930E949F0B6093DC
:101760003C0670933D0680933E0690933F0684E3CB
:1017700096E00E94ED0897FF1DC00E949F0B00910C
:101780003C0610913D0620913E0630913F06601BBD
:10179000710B820B930B0091380610913906209142
:1017A0003A0630913B066017710782079307F8F2FB
:1017B0008FEF9FEF1F910F910895E82FF0E0823097
:1017C000C1F068F4882389F0813089F0EE0FFF1FA3
:1017D000EB5EFE4F8BE89CE091838083089583301D
:1017E00051F0843099F7EE98F1CFE898EFCFE9986F
:1017F000EDCFEA98EBCFEB98E9CF4F925F926F92E3
:101800007F928F929F92AF92BF92CF92DF92EF9290
:10181000FF920F931F93CF93DF932B013C016A013B
:10182000C0910908D0910A08CF3FDC0759F08C2FEE
:10183000C53010F40E94DD0B8FEF9FEF90930A08E4
:1018400080930908F12CE12C812C912C5401839474
:1018500080910D0890910E08E816F9066CF5860146
:101860000150110917FD1EC0D501C401002E04C08E
:10187000880F991FAA1FBB1F0A94D2F784219521B4
:10188000A621B721892B8A2B8B2B39F08091150843
:10189000909116080E94E409E3CF8091130890917B
:1018A0001408F8CF80911108909112080E94E40961
:1018B0008FEFE81AF80ACCCF60E080910B080E9405
:1018C0004909CF3FDC07B1F0D0930A08C09309085B
:1018D000DF91CF911F910F91FF90EF90DF90CF900C
:1018E000BF90AF909F908F907F906F905F904F9040
:1018F0000C94C805DF91CF911F910F91FF90EF904D
:10190000DF90CF90BF90AF909F908F907F906F901F
:101910005F904F9008950895DC01FB0112962C9181
:101920001297848195812817190641F4918180814D
:10193000813A31F49D7F81E0913009F080E0089593
:101940008132E1F79B3029F482811F968C9381E0EC
:1019500008959A3099F7828150968C93F8CFDC01E4
:10196000FB0188E4808389E4818384E482831D967B
:101970009C911D979F709F5B93831D968D919C9169
:1019800024E0969587952A95E1F78F708F5B848385
:1019900085E00895EF92FF920F931F93CF93DF930B
:1019A000FB012081213871F52381223259F5DC01B8
:1019B00012964C91248135814217130619F5EC01DA
:1019C0000B851C85F12CE12C0115110589F0F8011E
:1019D000448155816281738180E80E94A3068F3F14
:1019E000980749F0E80EF91ED8010D911C91ECCF33
:1019F00081E08F87C701DF91CF911F910F91FF90F9
:101A0000EF90089590E080E0F6CFCF93DF93CDB7CD
:101A1000DEB769970FB6F894DEBF0FBECDBFFC01ED
:101A2000DB018C918F5F8C939E012D5F3F4F8DE08A
:101A3000D9011D928A95E9F729E0298384E08A83F8
:101A400091E09D8383E08E832A8721E22B879C8708
:101A50009D879F8722E2288B27E02B8B25E02C8B0C
:101A60008E8B20E430E0388F2F8B998F82818B838F
:101A700095858685998B8A8B838180688D8B49E1DA
:101A800050E0BE016F5F7F4F80E00E94A306699621
:101A90000FB6F894DEBF0FBECDBFDF91CF91089592
:101AA000CF92DF92EF92FF920F931F93CF93DF932A
:101AB0006C01EB017B01E40EF51E10E000E0CE1599
:101AC000DF0581F069916D30D1F3D601ED91FC9184
:101AD0000190F081E02DC6010995892B19F00F5F67
:101AE0001F4FEDCFC801DF91CF911F910F91FF9054
:101AF000EF90DF90CF900895DC01683888F1685846
:101B000016968C911697861721F117968C91179738
:101B10008617F9F018968C9118978617D1F01996B8
:101B20008C9119978617A9F01A968C911A97861797
:101B300081F01B968C911B97861759F0FD01369604
:101B400090E080E02191211139C08A0F9B1FFC0198
:101B50006683CD0104960E94500B81E090E00895C9
:101B6000E62FF0E067FF11C0E058F10921E030E016
:101B700001C0220FEA95EAF714968C911497822BF4
:101B800014968C93149760E0BBCFEF59F64F649195
:101B9000611109C081E090E013969C938E93129797
:101BA00090E080E0089567FFABCF14968C91149776
:101BB000826014968C9314976F77A2CF019686302B
:101BC000910509F0BFCFE6CF60EB8AEB96E00E946B
:101BD0007C0D62E370E080E090E00E943A0AEAEB5C
:101BE000F6E080EC96E02681283209F416823196E0
:101BF0008E179F07C1F78EEB96E00C94500BEF9277
:101C0000FF920F931F93CF938C01C62F0E947C0DE0
:101C10007C01C838C8F0C858F80186E0CC2321F010
:101C20009681C91301C01682815031968111F6CF79
:101C3000C80104960E94500BC7019927CF911F91AC
:101C40000F91FF90EF900895EC2FF0E0C7FF0FC0C9
:101C5000E058F10981E090E001C0880FEA95EAF7C9
:101C60008095F801948189238483C0E0D5CFEF5912
:101C7000F64FC491CC2301F3C7FFCECFF801848186
:101C80008D7F8483CF77C8CF80E00895FC01DB018E
:101C90008C918038A1F411968C911197863079F44B
:101CA00013968C911397833051F416968D919C91D5
:101CB0008F3F910539F4828583608062828790E04E
:101CC00080E0089582858860F9CF90E080E00895F3
:101CD000FC0182818F5BFB01808381E00895885E37
:101CE0009E4FDC018D919C91DC01ED91FC91068071
:101CF000F781E02D0994885E9E4FDC018D919C91C7
:101D0000DC01ED91FC910484F585E02D0994885E59
:101D10009E4FDC018D919C91DC01ED91FC91028440
:101D2000F385E02D0994885E9E4FDC018D919C9196
:101D3000DC01ED91FC910190F081E02D0994885E29
:101D40009E4FDC018D919C91DC01ED91FC91008412
:101D5000F185E02D0994CF93DF9390E080E0EC01D2
:101D600021968897A8F48FEE96E00E949F0E892B0B
:101D700039F08FEE96E00E94870ED0E0C0E0F3CFFE
:101D800061E070E080E090E00E943A0ACE01E7CF87
:101D9000DF91CF910895089590E080E008958091BB
:101DA000F3038150990BE3EDF3E02FEFAF01435DB7
:101DB0005340481759071CF43191231BF7CF8D521C
:101DC0009C4F2F5FFC01208308952091F303215045
:101DD000330BF901ED52FC4F1082A3EDB3E080818B
:101DE000AD01435D53404217530724F49D91892769
:101DF0008083F5CF8095808308955F926F927F9264
:101E00008F929F92AF92BF92CF92DF92EF92FF920A
:101E10000F931F93CF93DF93E090F303F12C509037
:101E2000C8036090C9037090CA038090CB03909060
:101E3000CC03C090CD03D090CE031091CF03E3ED3F
:101E4000F3E0C4E0D0E095E0A92EB12CCE15DF057B
:101E5000ECF4CF01835D9340B5010E94E531DC01D4
:101E600083E0AA0FBB1F8A95E1F7252D362D472D5C
:101E7000582D692D7C2D8D2D912F0A2F0E943C32DB
:101E800084812827248321963196E0CFDF91CF915A
:101E90001F910F91FF90EF90DF90CF90BF90AF9088
:101EA0009F908F907F906F905F9008950F931F93F6
:101EB0001092BF03EFE9F3E050E040E08B019C019A
:101EC000042E04C036952795179507950A94D2F7E6
:101ED00020E300FD21E3278F4F5F5F4F31974032B2
:101EE000510561F78FE993E01F910F9108958EBD21
:101EF00000000DB407FEFDCF8EB50895CF93DF939C
:101F0000C82FD62F60E086E00E9449098C2F80629E
:101F10000E94770FC82F8D2F0E94770F61E086E017
:101F20000E9449098C2FDF91CF9108952F923F9203
:101F30004F925F926F927F928F929F92AF92BF92D9
:101F4000CF92DF92EF92FF920F931F93CF93DF9385
:101F5000CDB7DEB765970FB6F894DEBF0FBECDBF25
:101F60000E94150A6B017C01809183049091840486
:101F70002601481A590A2DEC421620E1520608F4AF
:101F8000DEC08091FD039091FE03A201481B590B16
:101F9000CA0157FF03C0919581959109883C91052D
:101FA0000CF0C9C08091FB039091FC0301969093C3
:101FB000FC038093FB03029709F0BDC09CEB692EE4
:101FC0009AE0792E01E010E02090F9033090FA03B6
:101FD0003B862A8649E050E0B301CE0101960E947B
:101FE00001318B816C81681708F4682F70E0809153
:101FF000FD039091FE030E94D1319B0140911F018E
:1020000050912001649FC001659F900D749F900DB9
:10201000112464E670E00E94D1318985A1E0B0E02E
:10202000882311F0A2E0B0E08D81829FA001839F00
:10203000500D11245D874C878E81829F1001839FF4
:10204000300C11243F862E868F81829FA001839FB2
:10205000500D1124598B488B8885829F1001839FD6
:10206000300C11243B8A2A8AFD01EE0FFF1FE3503A
:10207000FC4F812C912C54014A855B8541505109BC
:102080005D8B4C8B8C899D89A817B90708F040C0DF
:10209000880C991CAA1CBB1C80819181AC012C84EA
:1020A0003D844219530957FF03C051954195510989
:1020B0004617570770F4428153812E843F8442199A
:1020C000530957FF03C051954195510946175707CA
:1020D000E0F048895989841B950B97FF03C09195BF
:1020E0008195910986179707C8F4828193812A8880
:1020F0003B888219930997FF03C0919581959109B7
:102100008617970758F4689480F812963496BACFD9
:102110004A855B854830510508F053C00F5F1F4F5B
:1021200059E0650E711C0830110509F04DCF109271
:10213000FC031092FB031092FA031092F9038091B2
:10214000F9039091FA038334910540F01092FA0359
:102150001092F9031092FC031092FB038091F90393
:102160009091FA039C012F5F3F4F3093FA03209325
:10217000F903880F991FFC01E350FC4F5182408204
:10218000C0928304D0928404E0928504F092860485
:1021900065960FB6F894DEBF0FBECDBFDF91CF912D
:1021A0001F910F91FF90EF90DF90CF90BF90AF9075
:1021B0009F908F907F906F905F904F903F902F9067
:1021C00008958092D1069092D206A092D306B09242
:1021D000D4062C883D883694279430929605209218
:1021E00095053093F8032093F7031093F6030093BB
:1021F000F5039DCF0F931F930091D9061091DA0636
:102200002091DB063091DC0640E059E06DE370E0A0
:1022100080E0041715072607370740F47695679581
:10222000579547958F5F8630A1F787E0982F906A82
:102230009695809581709CBD8DBD80E01F910F911A
:102240000C94D309CF93DF93C82FD62F0E94FA1096
:102250008C2F8F7180620E94770FC82F8D2F0E9464
:10226000770F0E94E1098C2FDF91CF9108958D3770
:1022700008F08DE7682F85E00C942211CF930E941F
:10228000FA1081EE0E94770FC82F0E94E1098C2F6F
:10229000CF910895CF93C82F0E94FA108C2F0E94DF
:1022A000770F8FEF0E94770FC82F0E94E1098C2FC4
:1022B000CF91089580E00E944A1181FD0BC0682FE4
:1022C000626080E00E94221165E070E080E090E0B2
:1022D0000C943A0A0895CF93DF93C82FD0E0FE0103
:1022E000EF5BF54F84916091DE060E94221182E03F
:1022F0000E944A11FE01E55CF54FE49161E070E057
:1023000001C0660FEA95EAF7682B82E0DF91CF9172
:102310000C9422110F931F93CF938C0186E00E949F
:102320004A11C82FC77D02301105E1F4C0628BE964
:1023300090E0A0E0B0E08093E7069093E806A093D9
:10234000E906B093EA066C2F86E00E94221186E02F
:102350000E944A1191E0C81390E0892FCF911F91FC
:102360000F91089585E590E0A0E0B0E001301105FF
:1023700011F7C86081E490E0A0E0B0E0DCCFEF921C
:10238000FF920F931F93CF93DF93C82F7B01142FDE
:102390000E94FA108C2F8F7180620E94770F082F95
:1023A000E701115020F089910E94770FFACF0E9427
:1023B000E109802FDF91CF911F910F91FF90EF9056
:1023C0000895CF931092A6041092F4031092F30391
:1023D000E3EDF3E0119283E0E33FF807D9F7809152
:1023E000D5069091D6062091D7063091D80682174F
:1023F000930711F00E94A9058091D7069091D80605
:102400002091D5063091D6062817390711F00E9481
:10241000A905CFB7F8948091D203811124C0EEE0D2
:10242000FAE08491EDE2FAE09491E82FF0E0EE0F0B
:10243000FF1FE151F64FA591B491EC91E92321F4EE
:1024400061E081E10E94490981E10E94A9058CB502
:1024500080618CBD8CB580648CBD8FE00E94A90525
:1024600080E10E94A9058091D2038F5F8093D203FF
:10247000CFBF80E00E94BA0981E00E94D30965E0E5
:1024800070E080E090E00E943A0A6CE080E00E94F8
:1024900022116FE584E00E94221182E090E00E9408
:1024A0008A11882319F081E08093DD0686E00E947E
:1024B0004A1190E080E00E948A110E94FA1080E5A3
:1024C0000E94770F83E70E94770F0E94E10960E086
:1024D0008DE10E94221160E08CE10E942211109295
:1024E000DF0660E787E00E9422118CE40E9437112A
:1024F0000E94FA1082EE0E94770F0E94E1090E946A
:102500003E110E945A1180E00E944A11682F6E7F8E
:1025100080E0CF910C942211FB0101900020E9F79B
:102520003197AF01461B570BDC01ED91FC91028006
:10253000F381E02D09948F929F92AF92BF92EF9218
:10254000FF920F931F93CF93DF93CDB7DEB7A19781
:102550000FB6F894DEBF0FBECDBF7C01FA01CB01F0
:1025600019A2223008F42AE08E010F5D1F4F822E3F
:10257000912CB12CA12CBF01A50194010E94F9312D
:10258000F901CA016A300CF5605DD8016E938D01C6
:10259000232B242B252B79F790E080E0109721F056
:1025A000BD01C7010E948C12A1960FB6F894DEBF40
:1025B0000FBECDBFDF91CF911F910F91FF90EF9094
:1025C000BF90AF909F908F900895695CDECF6BE8CD
:1025D00073E00C948C12CF92DF92EF92FF92CF9324
:1025E000DF936C01990FEE08FF08F7FE21C06DE242
:1025F00084E396E00E94E706EC0144275527BA01E0
:102600004C195D096E097F092AE084E396E00E9477
:102610009B12C80FD91F84E396E00E94E7128C0F2B
:102620009D1FDF91CF91FF90EF90DF90CF900895A5
:102630002AE0B701A60184E396E00E949B12EC0118
:10264000EACF0F931F93CF93DF93EC01462F50E017
:1026500070E060E02AE00E949B128C01CE010E9493
:10266000E712800F911FDF91CF911F910F91089575
:102670000F931F93CF93DF938C01D0E0C0E06115DF
:10268000710519F00E948C12EC01C8010E94E7123A
:102690008C0F9D1FDF91CF911F910F910895EF92A5
:1026A000FF920F931F93CF93DF93EC018B017A017D
:1026B0000E94AB0E6CE479E084E396E00E94EE06A3
:1026C000BE0184E396E00E943813BE0180910708A2
:1026D000909108080E94381360E0C7010E946D0ABB
:1026E000C82F65E479E084E396E00E94EE066DEF82
:1026F00076E084E396E00E943813CC2341F0B801E1
:102700008DEF96E00E940A3121E0892B09F020E04C
:10271000822FDF91CF911F910F91FF90EF9008953D
:102720000F931F93CF93DF93EC010E94EE068C0171
:10273000CE010E94E712800F911FDF91CF911F9170
:102740000F9108950F931F93CF93DF93EC018B01AB
:102750000E94AB0E6AE579E084E396E00E94EE0603
:10276000BE0184E396E00E949013BE0180910708A9
:10277000909108080E94901360E0C8010E946D0AC1
:10278000C82F63E579E084E396E00E94EE066DEFE2
:1027900076E084E396E00E9438138C2FDF91CF918E
:1027A0001F910F910895CF93DF93EB01BA010E941F
:1027B000A213882341F0BE018DEF96E00E940A31FA
:1027C00021E0892B09F020E0822FDF91CF9108953D
:1027D0009091F3038091D3039331F1F4883071F435
:1027E0008091D9038034C1F562E371E084E396E01F
:1027F0000E94901381E08093A60408958A30A1F589
:102800006BE271E084E396E00E94901381E0809394
:10281000A6048093F403089581111EC09A3079F4C0
:102820008091D403823C11F08F3491F482E0809344
:10283000A60462E271E084E396E00C949013963172
:1028400061F48091D403833D19F482E08093A6045F
:102850008091A604823069F308959530C9F780917C
:10286000D4038034A9F7F1CF8111F6CFF1CF0C94C6
:102870008C120F93CF93DF9367EC70E084E396E0C4
:102880000E94EE064091000150E070E060E02AE016
:1028900084E396E00E949B1262EC70E084E396E091
:1028A0000E94EE064091F30350E070E060E02AE001
:1028B00084E396E00E949B126DEB70E084E396E067
:1028C0000E94EE06D0E0C0E02091C8033091C90319
:1028D0004091CA035091CB036091CC037091CD031A
:1028E0008091CE039091CF030C2F0E943C32422F57
:1028F00050E070E060E020E184E396E00E949B12EB
:102900006BEB70E084E396E00E94EE062896C832F6
:10291000D105D1F66DE372E084E396E00E943714AE
:10292000C3EDD3E02091F303CE01835D93402817DC
:10293000190689F084F0499150E070E060E020E1F0
:1029400084E396E00E949B1269EB70E084E396E0DA
:102950000E94EE06E7CF68EB70E084E396E0DF913B
:10296000CF910F910C949013CF92DF92EF92FF9240
:102970000F931F93CF93DF930E943914C091DE060B
:10298000D091F303CD1708F4DC2F8091DF06CD1B27
:102990008111C0E00E94FA1080EA0E94770F03EDD7
:1029A00013E0D15030F0F80181918F010E94770F30
:1029B000F8CFC15020F080E00E94770FFACF0E943C
:1029C000E10981E00E94BA090E949F0B6B017C0122
:1029D0000E94FA108FEF0E94770FC82F0E94E10922
:1029E000C073C1F40E949F0B6C197D098E099F0969
:1029F000603671058105910558F381E08093E60604
:102A000081E0DF91CF911F910F91FF90EF90DF90C8
:102A1000CF90089580E00E94BA0960E787E00E94A5
:102A2000221184FFEDCF0E943E11EACF9AE09093ED
:102A3000F303E3EDF3E09F01235D33402A303105DA
:102A400014F41192F8CF91EC9093D4038093D503B2
:102A5000DB01E3EDF3E050E0CF01835D93408417A9
:102A6000950724F48D9183833196F6CF0E94CF0E83
:102A70000E94B41465E070E080E090E00E943A0AA1
:102A80001092D5031092D6031092D7031092D80358
:102A90001092D9031092DA031092DB030E94CF0E3A
:102AA0000E94B41465E070E080E090E00C943A0A73
:102AB000FF920F931F93CF93DF93F82ED62FC091E1
:102AC000F403C1110E94FD0E8091F30390E007ED25
:102AD00013E0F8019F01235D33402817390714F4F0
:102AE0001192F8CF9091D0038091D1039093D703A6
:102AF0008093D80383E48093D903F092DA03D093D0
:102B0000DC030E94E50EC1110E94FD0E0E94B41468
:102B100065E070E080E090E00E943A0AC091D00346
:102B2000D091D1032196D093D103C093D003F090DC
:102B3000F403F1100E94FD0E8091F30390E09801E0
:102B4000235D33402817390724F4F80111928F01CF
:102B5000F6CFC093D703D093D80383E48093D903EF
:102B60000E94E50EF1100E94FD0E0E94B41465E073
:102B700070E080E090E00E943A0A8091D00390914A
:102B8000D10301969093D1038093D003DF91CF912D
:102B90001F910F91FF9008958F929F92AF92BF92D5
:102BA000CF92DF92EF92FF920F931F93CF93DF9319
:102BB000CDB7DEB766970FB6F894DEBF0FBECDBFB8
:102BC0001091A604112309F417C180E00E94BA09EC
:102BD0008091E7069091E8060E94CA098DE10E9463
:102BE0004A1181FF08C08091E7069091E8060E9493
:102BF000CA090E943E1180E00E944A11682F6E7F30
:102C000080E00E94221182E00E944A11EBE3FAE088
:102C1000E49161E070E001C0660FEA95EAF7682B85
:102C200082E00E9422119090C803A090C903B09046
:102C3000CA03C090CB03D090CC03E090CD03F090BA
:102C4000CE030091CF039982AA82BB82CC82DD821F
:102C5000EE82FF8208874091E506BE016F5F7F4FDD
:102C60008AE00E94BF114091E506BE016F5F7F4F71
:102C700080E10E94BF116091DE0681E10E94221175
:102C80009986AA86BB86CC86DD86EE86FF86088B73
:102C9000E6E3F1E084914091E506BE01675F7F4F76
:102CA0000E94BF1181E00E946B116FE381E00E94DE
:102CB000221186E00E944A11682F676086E00E9418
:102CC000221181E090E00E948A1180E28093DE066A
:102CD0008DE10E944A11682F64608DE10E942211EB
:102CE0008CE10E944A11682F6F638CE10E942211CF
:102CF00081E08093DF0663E083E00E947E0F6FE552
:102D000084E00E942211809100010E9437111092EC
:102D1000D1031092D003113049F406E010E060E0D6
:102D200080E00E94581501501109C9F788E6A82EC5
:102D300081E0B82E10E0D12CC12C7E0181E1E80E9B
:102D4000F11CF5018080918002818091A60482307F
:102D500091F5882079F0112329F0412FB70180E007
:102D60000E941615998A41E0B701882D0E94161518
:102D700010E021C0992009F46CC0F70120E0812FF8
:102D800090E0AF014E195F09481759072CF43191B3
:102D90009312F7CF21E0F5CF222309F440C0412F51
:102DA000B70180E00E941615998A11E0F9E2CF166A
:102DB000D10409F448C08091A604813091F499208F
:102DC00021F0692D882D0E945815002351F0E0E173
:102DD0000E9FB0011124072E000C880B990B0E9446
:102DE0003A0AFFEFCF1ADF0A83E0A80EB11CEAE22D
:102DF000CE16D10409F0A5CF66960FB6F894DEBFC3
:102E00000FBECDBFDF91CF911F910F91FF90EF903B
:102E1000DF90CF90BF90AF909F908F900895153026
:102E200029F49E8A46E0B70180E0A0CF8E0D9F1D59
:102E3000FC0190821F5F89E2C816D10409F0BBCF64
:102E4000112309F4B8CF412FB70180E00E94161575
:102E5000B2CF002381F3112329F0412FB70180E085
:102E60000E941615F0E10F9FB0011124072E000CEF
:102E7000880B990B0E943A0A7BCFDF92EF92FF9268
:102E80000F931F93CF93DF938C017B01D42EBC0152
:102E90008DEF96E00E941C31EC01892BF9F0C801FE
:102EA0000E9413318C0F9D1FC0E0CD1549F06CE2DC
:102EB00070E00E942633009789F00196CF5FF5CF2E
:102EC0000E94E330F7019183808381E0DF91CF910D
:102ED0001F910F91FF90EF90DF90089580E0F6CF63
:102EE000FF920F931F93CF93DF93EB018A01F22E92
:102EF00064EF71E00E94A2134F2DB801CE010E9431
:102F00003D17C82F882329F060E084EF91E00E94EC
:102F10006D0A8C2FDF91CF911F910F91FF90089533
:102F2000CF92DF92EF92FF920F931F93CF93DF9395
:102F3000CDB7DEB76E970FB6F894DEBF0FBECDBF2C
:102F40006C017B01609105087091060844EF51E027
:102F50008BE399E00E94D313811102C020E07FC06F
:102F60008AE0E7E2F1E08E010F5F1F4FD801019088
:102F70000D928A95E1F7FE013B9684E1DF011D92F7
:102F80008A95E9F743E150E0B601CE010A960E9426
:102F90004F33F80101900020E9F7319782E28083F6
:102FA00044EF51E068E379E0C8010E944F138823A1
:102FB000A9F265E379E084E396E00E94EE06B701AA
:102FC00084E396E00E943813B7018091070890913E
:102FD00008080E94381380910708909108080E9401
:102FE000E7128091070890910808DC01ED91FC91AF
:102FF0000190F081E02D6AE1099562E472E084E3DA
:1030000096E00E9438138091FC068450823050F480
:1030100060E088EC90E00E946D0A60E088EC90E04F
:103020000E946D0A60E080E197E20E946D0A65E40B
:1030300072E08DEF96E00E945E33892B09F48ECF0B
:1030400060E088EE93E00E946D0A6BE472E08DEF21
:1030500096E00E94313321E0892B09F07FCF822F47
:103060006E960FB6F894DEBF0FBECDBFDF91CF9145
:103070001F910F91FF90EF90DF90CF900895FC018A
:1030800080819181009711F00C945A3008950F932C
:103090001F93CF93DF93EC0188819981009759F0BA
:1030A0002A813B812617370730F081E0DF91CF91ED
:1030B0001F910F9108958B016F5F7F4F0E946032C7
:1030C000009759F0998388831B830A832C813D8163
:1030D000232B59F7FC011082E8CF80E0E7CFEF9275
:1030E000FF920F931F93CF93DF93EC017B018A0133
:1030F000BA010E94471828813981811114C0211515
:10310000310519F0C9010E945A30198218821D82B6
:103110001C821B821A82CE01DF91CF911F910F91E9
:10312000FF90EF9008951D830C83B701C9010E94A1
:103130003A33F1CFCF92DF92EF92FF920F931F932A
:10314000CF93DF9300D0CDB7DEB78C01C62EFC0144
:1031500011821082138212821582148250E040E0A4
:103160006DE873E00E946F180E94AB0B0C2C000CF2
:10317000DD0897FD23C08C159D0501F189831A8216
:10318000F801E480F580FFEFEF1AFF0AB701C801EC
:103190000E944718882379F0F801208131818481C9
:1031A0009581BE016F5F7F4F820F931F0E943A335C
:1031B000F801F582E4820E94AB0BDBCFC8010F90CF
:1031C0000F90DF91CF911F910F91FF90EF90DF90C3
:1031D000CF9008955F926F927F928F929F92AF925D
:1031E000BF92CF92DF92EF92FF920F931F93CF93F4
:1031F000DF93CDB7DEB7AF970FB6F894DEBF0FBE43
:10320000CDBF66E171E084E396E00E94901360E038
:1032100081E00E9422116FE086E00E947E0F80E232
:103220008093DE06809100010E94371160E082E009
:103230000E947E0F60E083E00E947E0F8AEA8EA3E8
:103240001FA218A619A61AA61BA61CA61DA6409169
:10325000E50650E0BE016A5D7F4F80EE96E00E9479
:103260001D33E5E3F1E084914091E506BE016A5D1E
:103270007F4F0E94BF1180E00E946B1180E00E948E
:103280004A11682F677F80E00E9422110E945A1124
:1032900080E00E944A11682F616080E00E94221144
:1032A00060E787E00E94221181E00E94BA098091C4
:1032B000E006882309F492C04091E50660EE76E0CE
:1032C0008AE00E94BF118DE10E944A1181FD0E9497
:1032D0003E111092C4031092C5031092C6031092BF
:1032E000C7038091C4039091C503A091C603B09118
:1032F000C703883823E19207A105B1050CF052C13C
:103300000196A11DB11D8093C4039093C503A093A2
:10331000C603B093C703809100018F5F80930001C3
:103320008535C0F06BE071E084E396E00E94EE0624
:10333000CE018E962091180830911908211531057B
:1033400011F42CE138E0821B930B0E94EB1282E017
:1033500080930001809100010E9437110E949F0B11
:103360006093C0037093C1038093C2039093C3031F
:103370000E949F0B0091C0031091C1032091C203D2
:103380003091C303601B710B820B930B6436710584
:103390008105910508F0A5CF87E10E944A1180FDC3
:1033A000E7CF1091DE0605E2153208F4012F809177
:1033B000DF06101B811110E00E94FA1081E60E94C6
:1033C000770FCE0101963C017C010150D0F08FEFC8
:1033D0000E94770FD7018D937D01F7CF82E00E9485
:1033E0004A11EBE3FAE0E49121E030E001C0220F62
:1033F000EA95EAF72095622F682382E00E94221165
:1034000062CF115020F08FEF0E94770FFACF0E9409
:10341000E10960E787E00E94221110E000E08E8061
:10342000912C9594879495948794582C97E19815AE
:1034300008F4D4C0E7E0F0E0EC0FFD1FE80DF91D43
:103440002081E8E0F0E0EC0FFD1FE80DF91D808120
:1034500090E0880F991F422F50E0542F4427550FBA
:10346000842B952B982789279827E9E0F0E0EC0F2B
:10347000FD1FE80DF91D308137FD9160F3014FEF1D
:103480005FEFB4016B5F7F4FDF01A619B7096A17C1
:103490007B07ACF03191532739E03150A9F3DA01C1
:1034A000440F551FB7FFF9CFA1E24A27A0E15A27E1
:1034B000F4CF898190E0959587958983A5C0207880
:1034C00030E0322F222724273527A901440F551F2A
:1034D00037FF04C0B1E24B27B0E15B2754274527F3
:1034E00054278417950709F079C06DEE70E084E3E6
:1034F00096E00E94EE06552009F46AC0F301349666
:10350000A12CB12CC12CD12CE12CF12C00E010E02D
:10351000D3012D913D0130E040E050E060E070E0EB
:1035200080E090E00E94573208E00E942132590169
:103530006A017B018C01EA17FB0751F72D8130E00E
:1035400040E050E060E070E080E090E00E945732A0
:103550002093C8033093C9034093CA035093CB030D
:103560006093CC037093CD038093CE039093CF03ED
:10357000DE011796E3EDF3E022E0820E911CCF010D
:10358000835D9340881699064CF08D919C91991F0C
:103590009927991F880F892B8193F1CF5092F303BC
:1035A0000E943914AF960FB6F894DEBF0FBECDBFA0
:1035B000DF91CF911F910F91FF90EF90DF90CF900F
:1035C000BF90AF909F908F907F906F905F90089585
:1035D0006CEC70E084E396E00E94901301301105DA
:1035E00009F4C6CEF3012FE130E001E010E021152F
:1035F000310509F45ECF868DB0E88B9FA0011124C0
:10360000878D8695842B878F2150310931972F3FE5
:10361000320769F704CF1F920F920FB60F92112451
:103620008F939F938091E1009091E100937F90931D
:10363000E10083FF0FC01092E90091E09093EB004E
:103640001092EC0092E39093ED0010927E0598E0CA
:103650009093F00082FF22C093E09093E900909154
:10366000F200992319F09AE39093E8009091A10455
:10367000992341F09091A10491509093A10491114C
:1036800001C05D9A90917D05992341F090917D054F
:10369000915090937D05911101C0289A84FF18C024
:1036A0008091E2008E7E81608093E2008091E10053
:1036B0008F7E8093E1008091A2048E7E8061809352
:1036C000A2049F918F910F900FBE0F901F9018959D
:1036D00080FFF7CF8091E2008E7E80618093E200D0
:1036E0008091E1008E7E8093E1008091A2048E7E25
:1036F0008160E5CF1F920F920FB60F921124CF92E7
:10370000DF92EF92FF920F931F932F933F934F936C
:103710005F936F937F938F939F93AF93BF93EF9339
:10372000FF93CF93DF93CDB7DEB76C97DEBFCDBFEE
:103730001092E9008091E80083FF25C068E0CE0187
:1037400045960E94DA0682EF8093E8008D8987FF14
:1037500039C09091E80090FFFCCF982F907609F047
:1037600034C19E894F89588D2F89F88C911131C0B1
:10377000803861F58091A3048093F1001092F100EC
:103780008EEF8093E8006C960FB6F894DEBF0FBE04
:10379000CDBFDF91CF91FF91EF91BF91AF919F91FD
:1037A0008F917F916F915F914F913F912F911F91D9
:1037B0000F91FF90EF90DF90CF900F900FBE0F9082
:1037C0001F9018959EEF9093E800C7CF1092F100DC
:1037D000D5CF913059F48111D3CF4130510581F6C5
:1037E0008091A3048D7F8093A304CACF933049F4C2
:1037F0008111C6CF4130510519F68091A304826032
:10380000F2CF953041F48091E80080FFFCCF206832
:103810002093E300B5CF963009F0A9C00B8D1C8D25
:1038200022E01092E90010929F0410929E04F2127E
:103830002EC010929D0410929C040E9453071F8278
:1038400099E09983FA8291E09E8390EA98879AEFB3
:10385000998720919E0430919F04275F3F4F3C83BE
:103860002B838D831092E90010929F0410929E0486
:1038700010939D0400939C0449E050E0BE016F5FEB
:103880007F4F80E00E94A3060E94530779CF1093D8
:103890009D0400939C040E943F07DC0112960D9149
:1038A0001C910115110509F451C1D801ED91FC914C
:1038B0000480F581E02DBE016B5E7F4FC801099544
:1038C000009709F03EC1F80100851185EACFF3E0C9
:1038D000FF120EC08F89882309F440C0823061F442
:1038E00040E86BE08BEB91E00E947006811148CFBD
:1038F00081E28093EB0047CF813029F440E868E013
:1039000082EB91E0F1CF833099F70E943F07DC0111
:103910001296ED90FC908E010F5F1F4F6801E1142D
:10392000F10479F0D701ED91FC910680F781E02D4B
:10393000B801C7010995080F111DF701E084F18452
:10394000EECFD8011C92F60101900020E9F73197E3
:10395000BF016C197D0940E0C601C6CF6CE971E07A
:10396000FB01449150E080E80E94A30609CF973004
:1039700009F4BECF983021F481E08093F10000CFAC
:10398000993009F0FDCE837009F0B2CFE2E0F1E0AA
:1039900081E031E096E32191222371F08093E900E8
:1039A0003093EB00DF0111972C912093EC00909362
:1039B000ED008F5F873079F78EE78093EA001092F1
:1039C000EA008F8980937E05DBCE8B8D9C8D1092D3
:1039D000E90010929F0410929E0490939D0480939E
:1039E0009C04898D811192C08E899D89913A49F4F8
:1039F000813209F07DCF47E050E06CE071E080E07B
:103A0000B3CF913209F074CF833269F48F89988DE6
:103A1000B0E0A0E08093080190930901A0930A010F
:103A2000B0930B01ADCE803269F48091E80082FF43
:103A3000FCCF67E08CE091E00E94DA068BEF809388
:103A4000E8009ECE823209F09BCE8F8980931301CD
:103A5000EEEFFFE7859194918B3F9C4D51F1E0E0B3
:103A6000F8E080910C0190910D01A0910E01B091B0
:103A70000F01803B9440A105B105F1F48091130141
:103A800080FD1AC0EE3F8AE0F80789F587E797E7DF
:103A900091838083809160008093A00488E19BE003
:103AA0000FB6F894A895809360000FBE90936000C5
:103AB00067CEEEEFFAE0D5CF8081918187379747C7
:103AC00009F05ECEA89580916000886180936000C7
:103AD0008091A00480936000EE3F2AE0F20789F015
:103AE0008091FE0A9091FF0A9183808349CE808164
:103AF00091818737980751F29093FF0A8093FE0ACD
:103B0000C5CF1092FF0A1092FE0A3ACE0E943F07DC
:103B1000DC0112960D911C910115110509F4E8CEF6
:103B2000D801ED91FC910190F081E02DBE016B5E1A
:103B30007F4FC8010995811123CEF80100851185B9
:103B4000EBCF181619060CF41BCED2CEF1E0FF1203
:103B5000BECE60EA71E004CF1F920F920FB60F92B3
:103B600011248F939F93AF93BF93EF93FF93809113
:103B7000890590918A05A0918B05B0918C05892BC0
:103B80008A2B8B2BA1F190918005E0918105F0911A
:103B900082058081892780838091890590918A059B
:103BA000A0918B05B0918C05181619061A061B06F4
:103BB0009CF48091890590918A05A0918B05B09124
:103BC0008C050197A109B1098093890590938A0515
:103BD000A0938B05B0938C05FF91EF91BF91AF91AE
:103BE0009F918F910F900FBE0F901F90189580910D
:103BF00071008D7F8093710080918005E091810537
:103C0000F09182059081809589238083E5CF1F9272
:103C10000F920FB60F9211242F933F934F935F9300
:103C20006F937F938F939F93AF93BF93EF93FF9384
:103C300087E995E00E943A08FF91EF91BF91AF911B
:103C40009F918F917F916F915F914F913F912F91B4
:103C50000F900FBE0F901F9018951F920F920FB6E6
:103C60000F9211242F938F939F93EF93FF93E091E3
:103C7000A705F091A8058081E091AD05F091AE0512
:103C800082FD1BC090818091B0058F5F8F73209162
:103C9000B105821741F0E091B005F0E0E956FA4F26
:103CA000958F8093B005FF91EF919F918F912F9108
:103CB0000F900FBE0F901F9018958081F4CF1F9228
:103CC0000F920FB60F9211242F933F938F939F93D0
:103CD000AF93BF938091880490918904A0918A0446
:103CE000B0918B043091870426E0230F2D3758F5CF
:103CF0000296A11DB11D20938704809388049093A0
:103D00008904A0938A04B0938B0480918C049091D1
:103D10008D04A0918E04B0918F040196A11DB11D58
:103D200080938C0490938D04A0938E04B0938F04A1
:103D3000BF91AF919F918F913F912F910F900FBEA7
:103D40000F901F90189529E8230F0396A11DB11D10
:103D5000D2CF1F920F920FB60F9211242F933F9341
:103D60004F935F936F937F938F939F93AF93BF9383
:103D7000EF93FF93E0911D01F0911E010995FF91D2
:103D8000EF91BF91AF919F918F917F916F915F91D3
:103D90004F913F912F910F900FBE0F901F9018954C
:103DA0001F920F920FB60F9211242F933F934F93B0
:103DB0005F936F937F938F939F93AF93BF93EF9393
:103DC000FF93E0911B01F0911C010995FF91EF9188
:103DD000BF91AF919F918F917F916F915F914F9123
:103DE0003F912F910F900FBE0F901F9018951F922B
:103DF0000F920FB60F9211242F933F934F935F931F
:103E00006F937F938F939F93AF93BF93EF93FF93A2
:103E1000E0911901F0911A010995FF91EF91BF917D
:103E2000AF919F918F917F916F915F914F913F9152
:103E30002F910F900FBE0F901F9018951F920F9209
:103E40000FB60F9211242F933F934F935F936F936D
:103E50007F938F939F93AF93BF93EF93FF93E091E3
:103E60001701F09118010995FF91EF91BF91AF9162
:103E70009F918F917F916F915F914F913F912F9182
:103E80000F900FBE0F901F9018951F920F920FB6B4
:103E90000F9211242F933F934F935F936F937F93D0
:103EA0008F939F93AF93BF93EF93FF93E09115018F
:103EB000F09116010995FF91EF91BF91AF919F91FC
:103EC0008F917F916F915F914F913F912F910F90C3
:103ED0000FBE0F901F901895CF92DF92EF92FF9236
:103EE0001F93CF93DF936A017B019091140189178F
:103EF00051F09F3FD9F0DF91CF911F91FF90EF904C
:103F0000DF90CF900895E4E3F9E0C491C7FDF3CFCB
:103F10000E94A905CC2309F4A5C0C23009F0B3C0A2
:103F2000C114D104E104F10431F3AAC08093140157
:103F3000E4E3F9E0C491CF3FF1F2C13049F158F028
:103F4000C33009F447C0C43009F46AC0C7FDD3CFF9
:103F50000E94A905E2CF14BC15BC94B5926094BD33
:103F600095B5916095BD282F30E0F901E350F64FEB
:103F7000E491F0E0EE0FFF1FEF51F64F45915491A1
:103F8000F901E45EF54FE491E0938405C0E0C0CF11
:103F9000109280001092810090918100986090931F
:103FA000810090918100916090938100282F30E0F2
:103FB000F901E350F64FE491F0E0EE0FFF1FEF51EF
:103FC000F64F45915491F901E45EF54FE491E09389
:103FD00083059ECF109290001092910090919100D5
:103FE00098609093910090919100916090939100CE
:103FF000282F30E0F901E350F64FE491F0E0EE0FA6
:10400000FF1FEF51F64F4591549150938205409315
:104010008105F901E45EF54FE491E093800578CFE6
:104020001092C0001092C1009091C10098609093CE
:10403000C1009091C10091609093C100282F30E0A1
:10404000F901E350F64FE491F0E0EE0FFF1FEF515E
:10405000F64F45915491F901E45EF54FE491E093F8
:104060007F0556CF85B5887F826085BD2FEF3FEFF6
:10407000A901D0E2C114D104E104F10409F47BC028
:10408000D0E210E067C0C130A1F480918100887F48
:104090008160809381002FEF3FEFA901D9E011E00B
:1040A000C114D104E104F10409F47BC0D9E011E0AA
:1040B00051C0C33021F580919100887F8160809349
:1040C00091002FEF3FEFA901D9E011E0C114D10415
:1040D000E104F10459F78D2F912F9093990080936B
:1040E00098002093890530938A0540938B0550935F
:1040F0008C0580917100826080937100FCCEC43089
:10410000F9F48091C100887F81608093C1002FEF16
:104110003FEFA901D9E0C114D104E104F10431F663
:10412000D093CF0020938505309386054093870573
:104130005093880580917200806480937200DBCE7A
:10414000D9E011E02FEF3FEFA901C114D104E10440
:10415000F10461F0A0E3B5E7A70196010E94743174
:1041600028EE33E040E050E00E94F931C130C9F060
:104170008CF4C111C0CED7BD209391053093920528
:10418000409393055093940580916E0082608093D4
:104190006E00B1CEC33009F49ECFC43009F4C0CF55
:1041A000AACE8D2F912F9093890080938800209321
:1041B0008D0530938E0540938F0550939005809127
:1041C0006F00826080936F0096CE9C01FC0160E0DE
:1041D00070E0CB01DF01A21BB30B5191552341F0DD
:1041E000660F771F881F991F5033A1F36160F2CFCC
:1041F00020910B0830910C082F3F3F4F19F0AD0173
:104200000C94FD0B0895EF92FF920F931F93CF93A1
:10421000DF938C01EB017A010E94AB0E6DE279E035
:1042200084E396E00E94EE06B80184E396E00E94E3
:10423000EE0662E284E396E00E94E706BE0184E3B4
:1042400096E00E94EE0662E284E396E00E94E706B2
:1042500084E396E00E94E712B801809107089091EC
:1042600008080E94EE0662E2809107089091080813
:104270000E94E706BE0180910708909108080E94FD
:10428000EE06C0910708D091080862E2CE010E94B4
:10429000E706CE010E94E71260E080E197E20E940B
:1042A0006D0A66E279E084E396E00E94EE066DEF27
:1042B00076E084E396E00E943813B7018DEF96E034
:1042C0000E940A3121E0892B09F020E0822FDF9142
:1042D000CF911F910F91FF90EF9008950F931F932F
:1042E000CF93DF934115510559F06115710541F0E8
:1042F000FC01048115810115110539F4FB011082BF
:10430000DF91CF911F910F910895415051094017AE
:10431000510708F48A01EB01FC0160817181A80159
:10432000CE010E944F33C00FD11F1882E9CFFB018D
:1043300001900020E9F73197AF01461B570B0C9411
:104340006F18CF93DF9310929A051092990588EE1B
:1043500093E0A0E0B0E080939B0590939C05A09330
:104360009D05B0939E0523EF31E03093980520938F
:1043700097052DEC30E03093A4052093A3052CEC99
:1043800030E03093A6052093A50528EC30E030936B
:10439000A8052093A70529EC30E03093AA052093C7
:1043A000A9052AEC30E03093AC052093AB052EEC48
:1043B00030E03093AE052093AD051092B005109219
:1043C000B1051092B2051092B30510923706109203
:1043D00036068093380690933906A0933A06B09338
:1043E0003B0685E092E090933506809334068FEF8C
:1043F0009FEF909341068093400610929206809121
:104400008A06811113C0109285061092840687E4F3
:104410009AE0909387068093860686E390E09093D7
:1044200089068093880681E080938A068091A4069D
:10443000811105C00E94CC0781E08093A406E09121
:104440009E06F0919F06309709F008C184E896E037
:1044500090939F0680939E068091A0069091A1065E
:104460002091880630918906820F931F9093A106B0
:104470008093A0061092BD061092BC0687E192E0E0
:104480009093BB068093BA068091B206811113C047
:104490001092AD061092AC068DE79AE09093AF06AD
:1044A0008093AE068FE290E09093B1068093B006C1
:1044B00081E08093B2068091A406811105C00E941C
:1044C000CC0781E08093A406E0919E06F0919F06C0
:1044D000309709F0CDC08CEA96E090939F068093C8
:1044E0009E068091A0069091A1062091B006309181
:1044F000B106820F931F9093A1068093A00610929D
:10450000CA061092CB0680ED96E09093CD0680937C
:10451000CC061092CF061092CE0683E292E09093E2
:10452000C7068093C6061092D0060E943F0766EC2D
:1045300076E00E948407CFEFDFEFD0930C08C093A2
:104540000B088AE090E090930E0880930D0849E0F4
:1045500050E06CEB7AE08FE098E00E940131D0935C
:104560000A08C09309088CE390E09093200180939F
:104570001F011092D1061092D2061092D30610920B
:10458000D4061092F2061092F10688EE93E0A0E0B5
:10459000B0E08093F3069093F406A093F506B093F1
:1045A000F6068FE292E09093F0068093EF0684E0A7
:1045B0008093FB0684EB9AE09093FD078093FC07C1
:1045C0001092FF071092FE07109201081092000847
:1045D0001092080810920708109202088FEA9AE0D9
:1045E00090930408809303088CEA9AE0909306085D
:1045F0008093050885E090E09093D6068093D506D9
:1046000086E090E09093D8068093D70680E896E9FC
:10461000A8E9B0E08093D9069093DA06A093DB0670
:10462000B093DC061092DD0680E28093DE061092E5
:10463000DF0685E08093E50685E090E0A0E0B0E04D
:104640008093EB069093EC06A093ED06B093EE06F4
:104650001092E006DF91CF910895FC018081918155
:104660000097D9F784E896E091838083F5CEFC012A
:10467000808191810097D9F78CEA96E091838083BD
:1046800030CFCF93DF93CDB7DEB7C256D1090FB687
:10469000F894DEBF0FBECDBF789484B5826084BD30
:1046A00084B5816084BD85B5826085BD85B5816036
:1046B00085BD80916E00816080936E0010928100B4
:1046C000809181008260809381008091810081606F
:1046D0008093810080918000816080938000809130
:1046E000910082608093910080919100816080931D
:1046F0009100809190008160809390008091C10032
:1047000084608093C1008091C10082608093C10069
:104710008091C10081608093C1008091C30081605D
:104720008093C3008091C00082608093C00080911C
:10473000C20081608093C20080917A00846080937F
:104740007A0080917A00826080937A0080917A006A
:104750008E7F80937A0080917A00806880937A00BF
:1047600010927E051092A3041092A2048091D700AB
:1047700081608093D70080EA8093D80089B58F7ECE
:1047800089BD89B5826089BD09B400FEFDCF61E0B5
:1047900070E080E090E00E943A0A8091D8008F7C1F
:1047A00080618093D8008091E000807F8093E0005A
:1047B0008091E1008E7E8093E1008DE08093E200A5
:1047C000559A209A0E94A90560E08DE00E9449094F
:1047D00062E370E080E090E00E943A0A61E08DE0E0
:1047E0000E94490982E00E94A90561E082E00E94DE
:1047F000490968EE73E080E090E00E943A0A60E0C8
:1048000082E00E9449098FEF9FEF909341068093C9
:104810004006E091A705F091A80582E08083E09131
:10482000A305F091A4051082E091A505F091A605DD
:104830008FEC80831092AF05E091AB05F091AC0551
:1048400086E08083E091A905F091AA0580818061CE
:104850008083E091A905F091AA058081886080831A
:10486000E091A905F091AA05808180688083E0919C
:10487000A905F091AA0580818F7D808387E995E065
:1048800090930808809307088091FB060E94A90571
:1048900061E08091FB060E9449096AE070E080E0D7
:1048A00090E00E943A0A60E08091FB060E9449096C
:1048B00064E670E080E090E00E943A0A61E0809156
:1048C000FB060E9449096BE972E084E396E00E94CE
:1048D00090130EE010E08091070890910808DC0129
:1048E000ED91FC910084F185E02D0995892B61F013
:1048F0008091070890910808DC01ED91FC910284F9
:10490000F385E02D0995E7CF6091050870910608C1
:1049100044EF51E088E992E00E94D313811163C013
:104920008091070890910808DC01ED91FC910084CA
:10493000F185E02D0995892B61F080910708909110
:104940000808DC01ED91FC910284F385E02D0995C6
:10495000E7CF44EF51E062E972E085E992E00E941E
:10496000D313811140C064EF71E080E090E00E94B9
:104970003A0A0150110909F0AECF60E672E084E313
:1049800096E00E949013609105087091060844EF2C
:1049900051E08DE592E00E94D31364E670E080E080
:1049A00090E00E943A0A609105087091060844EF71
:1049B00051E08AE592E00E94D31364E670E080E063
:1049C00090E00E943A0A609105087091060844EF51
:1049D00051E087E592E00E94D31364E670E080E046
:1049E00090E00E943A0A609105087091060844EF31
:1049F00051E082E592E00E94D31364E670E080E02B
:104A000090E00E943A0A609105087091060844EF10
:104A100051E08DE492E00E94D313811107C069E454
:104A200073E084E396E00E949013FFCF6091050845
:104A30007091060844EF51E083E492E00E94D313A2
:104A400064E670E080E090E00E943A0A0E94AB0EBB
:104A50006CE372E084E396E00E94EE066EE472E09E
:104A600084E396E00E9438136EE472E080910708B8
:104A7000909108080E94381361E084EF91E00E9451
:104A80006D0A65E372E084E396E00E94EE066DEF46
:104A900076E084E396E00E9438136AE272E08DEFDC
:104AA00096E00E941C31892B09F485C083E0809335
:104AB000FC068091FC06813081F56DEE71E084E3A7
:104AC00096E00E94EE0662E572E084E396E00E94C2
:104AD000381362E572E080910708909108080E94FF
:104AE000381361E084EF91E00E946D0A66EE71E098
:104AF00084E396E00E94EE066DEF76E084E396E0B4
:104B00000E9438136EED71E08DEF96E00E941C312B
:104B1000892B19F086E08093FC066091050870915E
:104B2000060844EF51E087EC91E00E94D31368EE51
:104B300073E080E090E00E943A0A69E572E087E95C
:104B400095E00E94371464EF71E080E090E00E94ED
:104B50003A0A86E493E09093FD078093FC07109255
:104B6000FF071092FE071092010810920008609152
:104B700005087091060844EF51E08BEE92E00E9428
:104B8000D313811141C00FEF002E000C110B66E30F
:104B900073E084E396E00E94EE06C8010E94EB12E7
:104BA0000F3F100709F057C064EF71E080E090E01C
:104BB0000E943A0ADCCF6FE172E08DEF96E00E942E
:104BC0001C31892B11F082E072CF64E172E08DEF2D
:104BD00096E00E941C31892B11F081E068CF64E0DF
:104BE00072E08DEF96E00E941C31892B11F084E079
:104BF0005ECF64EF71E08DEF96E00E941C31892B4F
:104C000009F457CF85E053CF20E0AE014F5F5F4FEF
:104C10006CED72E082EE92E00E947017882311F032
:104C20000981B2CF20E0AE014F5F5F4F6DEC72E0C3
:104C300083ED92E00E9470178111F2CF20E0AE0167
:104C40004F5F5F4F6CEB72E084EC92E00E94701754
:104C50008111E6CF98CF64E273E084E396E00E948E
:104C6000901364EF71E080E090E00E943A0A44E61D
:104C700050E06CE073E08FE093E00E94D313811169
:104C800003C0012B09F090CF67E672E087E995E059
:104C90000E94371465EF72E084E396E00E9490135F
:104CA0007E01EBE5EE0EF11C8E010F5F1F4F8EEAC9
:104CB00094E09C01990F440B550BA3962CAF3DAF8C
:104CC0004EAF5FAFA39733E7232E32E0332EAE0112
:104CD0004B5F5F4F6F965FAF4EAF6F9768EB7BE0B8
:104CE00080E090E00E943A0A8FEE96E00E949F0ECC
:104CF000892B09F4AAC2D7011D921C922DE3C22E62
:104D000025E0D22E8FEE96E00E94870EF601819369
:104D10005F01682F84E396E00E94C70861E070E0BD
:104D200080E090E00E943A0AD6018C918A3061F0CE
:104D30008FEE96E00E949F0E892B31F0BCE7AB16F8
:104D4000B5E0BB0609F09CC0F6011182FF92EF921C
:104D50003F922F922DE335E03F932F930E947833BB
:104D60000F900F900F900F900F900F90019709F0F8
:104D70006CC26FE179E084E396E00E94EE06D70111
:104D80008D919C910E94EB12F701D08060910508F3
:104D90007091060844EF51E086EB94E00E94D31333
:104DA000882309F471C0609105087091060844EFEA
:104DB00051E08CEA94E00E94D313882309F464C084
:104DC00063EA74E084E396E00E94EE066D2D84E3CE
:104DD00096E00E9421136AE974E08091070890919F
:104DE00008080E94EE066D2D809107089091080832
:104DF0000E94211360E088EE93E00E946D0A6DEF3F
:104E000076E084E396E00E94381363E974E08DEF66
:104E100096E00E941C310097A9F16CE270E00696C2
:104E20000E942633009771F1DC01119640E050E0BA
:104E3000242F30E0FD0101900020E9F7CF01019718
:104E40008A1B9B0B2817390710F00C94B52F2A0FDB
:104E50003B1FF90180818C3211F40C94B52F823202
:104E600049F023E330E02C0F3D1F250F311DF901E0
:104E700080835F5F4F5F5F31D8F20E94AB0E0AC044
:104E8000650140CF0E94AB0E6EEF78E084E396E0C0
:104E90000E949013D701DC9060910508709106087C
:104EA00044EF51E089E894E00E94D313882309F489
:104EB0005BC1609105087091060844EF51E08FE7EF
:104EC00094E00E94D313882309F44EC11A821982F8
:104ED00066E774E084E396E00E94EE066D2D84E3BD
:104EE00096E00E9421136DE674E08091070890918E
:104EF00008080E94EE066D2D809107089091080821
:104F00000E94211360E088EE93E00E946D0A6DEF2D
:104F100076E084E396E00E9438134BE0B80186E621
:104F200094E00E943D17882309F41EC1A980BA802D
:104F3000D12CC12CAC14BD0421F1BEEFCB16D10491
:104F400001F18091070890910808DC01ED91FC9136
:104F50000084F185E02D0995892B61F38091070884
:104F600090910808DC01ED91FC910284F385E02D1D
:104F70000995F601E151F94F8687BFEFCB1ADB0A9D
:104F8000D9CFF601E151F94F16860E94AB0EEDEF35
:104F9000F6E001900020E9F79F012E5F364069019D
:104FA00037E9C316D10418F096E9C92ED12CA60111
:104FB0006DEF76E087EA94E00E944F33F601E95501
:104FC000FB4F10826DEF76E084E396E00E94381389
:104FD0004AE050E062E872E087EA94E00E944133E0
:104FE000892B09F05DC064EF71E080E090E00E94E1
:104FF0003A0A63E88AEB96E00E947C0D62E370E077
:1050000080E090E00E943A0A62E78AEB96E00E9414
:105010007C0D0E947C0B68EE73E080E090E00E94C3
:105020003A0A6DE872E08AEB96E00E94371468EE67
:1050300073E080E090E00E943A0A0E94E40D68EE7E
:1050400073E080E090E00E943A0A6FE978E08AEB32
:1050500096E00E94EE066CE271E080E090E00E9433
:105060003A0A61EB74E08AEB96E00E9437146CE236
:1050700071E080E090E00E943A0A6FE078E08AEB0D
:1050800096E00E94EE0668EE73E080E090E00E94F9
:105090003A0A0E94E40D68EE73E080E090E062C09E
:1050A0004AE050E068E972E087EA94E00E94413308
:1050B000892B09F0D7C064EF71E080E090E00E9496
:1050C0003A0A63E88AEB96E00E947C0D62E370E0A6
:1050D00080E090E00E943A0A0E947C0B68EE73E048
:1050E00080E090E00E943A0A63EA72E08AEB96E080
:1050F0000E9437146CED75E080E090E00E943A0A5F
:105100000E94E40D60EB74E080E090E00E943A0AB7
:105110006EEB77E08AEB96E00E94EE066CE271E0BF
:1051200080E090E00E943A0A61EB74E08AEB96E03E
:105130000E9437146CE271E080E090E00E943A0A2D
:1051400061EB77E08AEB96E00E94EE066CED75E08D
:1051500080E090E00E943A0A0E94E40D6CED75E058
:1051600080E090E00E943A0A6AE3CE018D5A9F4F98
:105170000E949A1869968EAD9FAD6997892BB9F0F8
:1051800065E773E065968EAD9FAD65970E943133FC
:10519000892B69F46AE0C8010E949A1869817A81B2
:1051A000CE01C3960E949017C8010E943F1864EF79
:1051B00071E080E090E00E943A0A6CED75E080E0DA
:1051C00090E00E943A0A69E773E087E995E00E945F
:1051D0003714D701DC90609105087091060844EF00
:1051E00051E084E593E00E94D313882309F4ABC611
:1051F0008CE0EEE8F3E0D80101900D928A95E1F79A
:105200008D2D64E60E94C531805D8987892F6AE013
:105210000E94C531805D8A87905D9B8760910508FB
:105220007091060840ED57E0C8010E944F13882393
:1052300009F489C66AEE74E084E396E00E94901354
:10524000CE018D5A9F4F0E943F1880E090E0892B3D
:1052500009F444CD0E942608882309F434CD0E9425
:10526000000031CD4AE050E068EA72E087EA94E05D
:105270000E944133892B09F071C064EF71E080E036
:1052800090E00E943A0A63E88AEB96E00E947C0D67
:1052900062E370E080E090E00E943A0A60E28AEB0C
:1052A00096E00E947C0D0E947C0B68EE73E080E02B
:1052B00090E00E943A0A63EB72E08AEB96E00E946B
:1052C000371468EE73E080E090E00E943A0A0E9492
:1052D000E40D68EE73E080E090E00E943A0A65E732
:1052E00077E08AEB96E00E94EE066CE271E080E0E7
:1052F00090E00E943A0A61EB74E08AEB96E00E942B
:1053000037146CE271E080E090E00E943A0A6BE5AD
:1053100077E08AEB96E00E94EE0668EE73E080E0AC
:1053200090E00E943A0A0E94E40D68EE73E080E08B
:1053300090E00E943A0A63E88AEB96E00E947C0DB6
:1053400062E370E080E090E00E943A0A61E78AEB55
:1053500096E00E947C0D0E947C0B06CF44E050E05A
:1053600068E872E087EA94E00E944133892B29F5CE
:1053700064EF71E080E090E00E943A0A63E88AEB13
:1053800096E00E947C0D62E370E080E090E00E9475
:105390003A0A62E78AEB96E00E947C0D0E947C0B41
:1053A00068EE73E080E090E00E943A0A6BEA74E0F5
:1053B0008AEB96E00E94371466CE44E050E06EE936
:1053C00072E087EA94E00E944133892B09F054C0CF
:1053D00064EF71E080E090E00E943A0A60E88AEBB6
:1053E00096E00E947C0D62E370E080E090E00E9415
:1053F0003A0A62E88AEB96E00E947C0D62E370E074
:1054000080E090E00E943A0A64E78AEB96E00E940E
:105410007C0D62E370E080E090E00E943A0A0E9416
:105420007C0B68EE73E080E090E00E943A0A6CED3D
:1054300075E080E090E00E943A0A0E94E40D6CED75
:1054400075E080E090E00E943A0A60EC72E08AEB3E
:1054500096E00E9437146BEA74E08AEB96E00E94B3
:10546000371469EC72E08AEB96E00E9437146CED19
:1054700075E080E090E00BCE44E050E06EEA72E030
:1054800087EA94E00E944133892B09F041C064EF20
:1054900071E080E090E00E943A0A63E88AEB96E0CF
:1054A0000E947C0D62E370E080E090E00E943A0A86
:1054B00060E28AEB96E00E947C0D0E947C0B68EE15
:1054C00073E080E090E00E943A0A63EB72E08AEBBE
:1054D00096E00E94371468EE73E080E090E00E944E
:1054E0003A0A0E94E40D68EE73E080E090E00E94CA
:1054F0003A0A6BEA74E08AEB96E00E94371468EE91
:1055000073E080E090E00E943A0A0E94E40D2CCE05
:1055100044E050E06FEC72E087EA94E00E9441338F
:10552000892B09F053C068EE73E080E090E00E94A0
:105530003A0A84E0E5E4F1E0D80101900D928A9501
:10554000E1F78FE16F96AEADBFAD6F971D928A9573
:10555000E9F74BEA54E0FA0101900020E9F7AF01C6
:105560004C5A54404F31510510F04EE150E06BEA77
:1055700074E0CE0104960E944F33F80101900020A0
:10558000E9F73197E01BF10BFF27D801AE0FBF1FE2
:105590008BE38C9322E030E02C0F3D1FE20FF31FD2
:1055A0001082609105087091060844EF51E0C8012F
:1055B0000E944F136FE477E0882309F4BFC468E2C8
:1055C00077E084E396E00E94901365CD4AE050E0D6
:1055D00064ED72E087EA94E00E944133892B89F4FC
:1055E0000E94E1110E94EA180E94E8130E94CC1563
:1055F0000E94E1110E94EA180E94E8130E94CC1553
:10560000B3CD4AE050E06FED72E087EA94E00E948B
:105610004133892BB1F40E94E1110E94EA180E94E3
:10562000E8138091A6046AEE72E0813029F064EFFD
:1056300072E0823009F098CDCE01C3960E94901797
:1056400093CD49E050E06DEF72E087EA94E00E946C
:105650004133892BF9F468EE73E080E090E00E941A
:105660003A0A8BE090E090930C0880930B080E941C
:10567000A90582E390E090930E0880930D0880EBDB
:1056800094E00E94E5208FEF9FEF90930C088093A9
:105690000B0801CD48E050E067E073E087EA94E052
:1056A0000E944133892B49F468EE73E080E090E07A
:1056B0000E943A0A87E090E0D6CF4BE050E060E1EC
:1056C00073E087EA94E00E944133892B09F0D8C047
:1056D0006DE077E084E396E00E94EE0662EB74E012
:1056E00084E396E00E94381310920A081092090889
:1056F0000E94C8058BE090E090930C0880930B0803
:105700000E94A90582E390E090930E0880930D0813
:1057100068EE73E080E090E00E943A0A0E949F0BDE
:105720002B013C010E949F0B64197509860997099A
:10573000603375478105910508F08FC08090D106D0
:105740009090D206A090D306B090D4068114910414
:10575000A104B10439F369ED76E084E396E00E9498
:10576000901368EE73E080E090E00E943A0A65EAE8
:1057700076E084E396E00E94901368EE73E080E0A8
:1057800090E00E943A0A62E776E084E396E00E94A5
:10579000901368EE73E080E090E00E943A0A67E6BA
:1057A00076E084E396E00E949013C501B4010E9464
:1057B000560FBC01CE01C3960E9490178AE0C82EF6
:1057C000D12CC501B4010E94560FBC01CE01C39675
:1057D0000E9490176CED75E080E090E00E943A0A1C
:1057E00080910B0890910C08019631F048E150E04F
:1057F000C501B4010E94FD0B6DE576E084E396E0FF
:105800000E94EE062AE0B501A40184E396E00E941E
:105810009B1284E396E00E94E71251E0C51AD1087A
:105820008FEF881A980AA80AB80AC114D10449F659
:105830006BE476E084E396E00E94901365EE75E0F9
:1058400084E396E00E9490131092D1061092D20643
:105850001092D3061092D40665CF8FEF9FEF9093EE
:105860000C0880930B0880910908853010F40E9481
:10587000DD0B8FEF9FEF90930A088093090874CC9B
:1058800048E050E06CE173E087EA94E00E94413325
:10589000892BB9F468EE73E080E090E00E943A0A48
:1058A00083E090E090930C0880930B080E94A90578
:1058B00082E390E090930E0880930D088FEA94E0C5
:1058C000E0CE47E050E065E273E087EA94E00E94B2
:1058D0004133892BE1F468EE73E080E090E00E94B0
:1058E0003A0A6BEC75E084E396E00E94EE066EEAFD
:1058F00074E084E396E00E943813A3964CAD5DAD4E
:105900006EAD7FADA3978BE00E946C1FC4CB46E0C9
:1059100050E06DE273E087EA94E00E944133892B06
:10592000C1F468EE73E080E090E00E943A0A61EB17
:1059300075E084E396E00E94EE066DEA74E084E38D
:1059400096E00E94381340E157E260E070E087E0A3
:10595000DBCF46E050E064E373E087EA94E00E9426
:105960004133892B09F057C066E975E084E396E07E
:105970000E94EE066DEA74E084E396E00E9438131C
:1059800010920A08109209080E94C80568EE73E098
:1059900080E090E00E943A0A0E949F0B2B013C019C
:1059A0000E949F0B64197509860997096033754732
:1059B0008105910508F057CF8090D1069090D206CE
:1059C000A090D306B090D40681149104A104B10430
:1059D000C9F064E775E084E396E00E949013C50186
:1059E000B4010E94560FBC01CE01C3960E949017CD
:1059F00068E675E0882311F06EE575E084E396E0D3
:105A00000E9490131092D1061092D2061092D306E3
:105A10001092D406C5CF4CE050E06BE373E087EA08
:105A200094E00E944133892B09F0B6C140E25EE464
:105A300068E274E080E394E00E94D313609105086B
:105A40007091060840E157E28DE194E00E94D31383
:105A5000811161C067E475E084E396E00E949013D1
:105A60006CED75E080E090E00E943A0A60E177E238
:105A700089E793E00E94A21340E0BE016D5A7F4F78
:105A80008CE693E00E943D17882309F44EC14BE059
:105A900057E0FA0101900020E9F7AF014C50574060
:105AA0004233510510F041E350E04F5F5F4F6BE030
:105AB00077E0C8010E944F3360E084EF91E00E94DC
:105AC0006D0A65968EAD9FAD6597892B09F034C13F
:105AD000B80184E396E00E9438136CED75E080E035
