:020000040000FA
:100000000C94DE000C9406010C9406010C9406017D
:100010000C9406010C9406010C9406010C94060144
:100020000C9406010C9406010C9419080C94880891
:100030000C9406010C9406010C9406010C94060124
:100040000C9406010C9406010C9406010C94060114
:100050000C9406010C9406010C9406010C94BA0A47
:100060000C9406010C9406010C9406010C940601F4
:100070000C9406010C9406010C9406010C940601E4
:100080000C9406010C9406010C9406010C940601D4
:100090000C9406010C9406010C9406010C940601C4
:1000A0000C9406010C9406010C9406010000000259
:1000B00000090F0000030401000C00000000000014
:1000C0000000000000000000000000080B00020219
:1000D00002000009040000010202000005240010D3
:1000E000010524010101042402060524060001077C
:1000F00005810310004009040100020A0000000706
:1001000005020240000007058302400000040309C5
:100110000412010002EF0201404F1B08920001018E
:10012000020301537061726B46756E004C696C7905
:100130005061642055534200467265652052414D1E
:100140003A2000467265652052414D3A20000A0B64
:100150000C0D0E0F00000000250028002B002E00C3
:10016000310000000000240027002A002D0030008C
:10017000040404040403040502020202040302024C
:10018000020206060606060604040202020404042D
:100190000802011040804010204080408008020486
:1001A00001804020100201108010204040200001FA
:1001B00002030405111213141516040B11241FBE9B
:1001C000CFEFDAE0DEBFCDBF12E0A0E0B1E0E2E0C9
:1001D000F2E202C005900D92A23BB107D9F723E0ED
:1001E000A2EBB2E001C01D92A137B207E1F710E027
:1001F000CEEDD0E004C02197FE010E949D10CD3DC0
:10020000D107C9F70E943A0B0C94FF100C94000020
:1002100090E0FC01E157FE4F249180599E4FFC0174
:100220008491882399F090E0880F991FFC01EE5982
:10023000FE4FA591B491FC01EC5AFE4F859194912B
:100240008FB7F894EC91E22BEC938FBF0895FC01EB
:1002500080910203882311F13FB7F89482E08093E4
:10026000E9002091F200822F90E01816190614F48C
:1002700081E090E0882339F0289844E64093010318
:100280004091F1004083222339F02091F2002111A6
:1002900003C02BE62093E8003FBF08958FEF9FEF48
:1002A00008952FB7F89483E08093E9009091E800D7
:1002B000892F807295FF04C09091F20080E4891B21
:1002C0002FBF08958091F90281110DC082E08093C3
:1002D000F50284E08093F6021092F8021092F70281
:1002E00081E08093F90285EF92E008954091B90290
:1002F0005091BA022091B7023091B80242175307C9
:10030000B4F49091E8009570E1F39091E80092FDCB
:1003100019C08093F1008091B9029091BA020196C0
:100320008F739927892B19F48EEF8093E8008091C1
:10033000B9029091BA0201969093BA028093B902E1
:1003400081E0089580E00895EF92FF920F931F934C
:10035000CF93DF93F82E192FE62E042F81E0860F1E
:10036000880F0E94760183E00E947601CF2DD12F65
:10037000EC0EFD2EF11CCE15DF05B9F007FF13C002
:10038000FE0184910E947601182F80E00E94760180
:10039000812321968111EFCFDF91CF911F910F9192
:1003A000FF90EF9008958881EDCF81E0F5CFDF9247
:1003B000EF92FF920F931F93CF93DF93D82E8A0172
:1003C000EB017B01E40EF51ECE15DF0559F0D7FEDB
:1003D00012C0FE0184910E94760121968111F4CF12
:1003E0000FEF1FEFC801DF91CF911F910F91FF9089
:1003F000EF90DF9008958881EECF0F931F93CF93F6
:10040000DF931F92CDB7DEB782E0898342E450E0EC
:100410006BEC70E080E80E94D7010E946201DC0171
:1004200012960D911C910115110589F0D801ED91DD
:10043000FC910280F381E02DBE016F5F7F4FC80108
:10044000099597FD04C0F80100851185ECCF8981DD
:100450000F90DF91CF911F910F910895615030F06F
:100460002091F100FC0120830196F8CF289884E6C2
:10047000809301030895CF93DF931F92CDB7DEB72A
:100480006983DC01ED91FC910280F381E02D41E074
:1004900050E0BE016F5F7F4F09950F90DF91CF91C4
:1004A00008950F931F93CF93DF938C01D0E0C0E0AA
:1004B000F801EC0FFD1F6491662341F083E093E0A7
:1004C0000E943B02892B11F02196F2CFCE01DF91E1
:1004D000CF911F910F91089583E08093E90080915F
:1004E000F200882319F08AE38093E80008950E94BF
:1004F000510190E00895CF93DF931F92CDB7DEB7FF
:10050000FC018485958597FD08C02FEF3FEF358767
:1005100024870F90DF91CF910895CE0101960E941C
:100520002701019719F4898190E0F3CF8FEF9FEFB6
:10053000F0CF0F931F93CF93DF931F92CDB7DEB70A
:100540008C01FC018485958597FF0BC0CE01019637
:100550000E942701019771F4898190E0F801958745
:100560008487F801848595850F90DF91CF911F9145
:100570000F9108958FEF9FEFF1CFFC018485958552
:1005800097FD0BC09FB7F89482E08093E9008091BB
:10059000F2009FBF90E0019608959FB7F89482E023
:1005A0008093E9008091F2009FBF90E00895282F8A
:1005B00030E0F901E455FF4F9491F901E157FE4F06
:1005C000849120593E4FF9012491222309F430C02F
:1005D0009923E9F091509F30D0F4E92FF0E0ED50ED
:1005E000FD4F0C949D1021032503020319031D03E5
:1005F00007030703070328032E03320336033C03D4
:1006000007034003909180009F7790938000E22F32
:10061000F0E0EE0FFF1FEC5AFE4FA591B4919FB78B
:10062000F894EC91611132C080958E238C939FBF1A
:100630000895909180009F7DE8CF90918000977FF2
:10064000E4CF94B59F7794BDE2CF94B59F7DFBCF67
:10065000909190009F7790939000D9CF90919000C7
:100660009F7DF9CF90919000977FF5CF9091C0003A
:100670009F779093C000CBCF9091C0009F7DF9CF22
:100680009091C200977F9093C200C1CF8E2BCECFA6
:1006900020915303309154034091550350915603D8
:1006A0002417350721F0682F822F0C94D702089564
:1006B0008330910528F0880F991F04970197F1F76F
:1006C0000895CF93DF93C3E5D3E0682F8A810E941A
:1006D000D7028E899F89DF91CF910C94580381E0D6
:1006E0000C9461033FB7F8948091B3029091B402E7
:1006F000A091B502B091B60226B5A89B05C02F3FC8
:1007000019F00196A11DB11D3FBFBA2FA92F982F37
:100710008827BC01CD01620F711D811D911D43E031
:10072000660F771F881F991F4A95D1F708958F92FA
:100730009F92AF92BF92CF92DF92EF92FF926B01A6
:100740007C010E9472034B015C01C114D104E104DD
:10075000F104B9F00E947203681979098A099B09AA
:10076000683E73408105910580F321E0C21AD108EB
:10077000E108F10888EE880E83E0981EA11CB11CE8
:10078000E4CFFF90EF90DF90CF90BF90AF909F901D
:100790008F9008958F929F92AF92BF92CF92DF92E7
:1007A000EF92FF920F931F93CF93DF936C017B0126
:1007B0008A0180910B01882309F45CC080910203B7
:1007C000882309F457C08091BD0280FF05C0809145
:1007D000E00082608093E000E801B12C8AEFA82E4F
:1007E00093E0892E2AE3922E209711F4BB20D9F1B1
:1007F0000E94510181110AC0AA94AA20D9F161E096
:1008000070E080E090E00E949703EECF8C171D0609
:1008100011F00CF08C2F9FB7F8948092E900209192
:10082000E80025FD02C09FBFDFCF282F30E0C21BAC
:10083000D30BF701815020F041914093F100FACFA2
:10084000E20EF31EBB2021F09092E800B12CEBCF1A
:100850008091E80085FDE7CF9092E800BB24B39437
:10086000209709F3F3CF5D9884E68093BC021016BD
:1008700011063CF081E090E0F6019383828310E062
:1008800000E0C801DF91CF911F910F91FF90EF9091
:10089000DF90CF90BF90AF909F908F900895809100
:1008A000E9028150990BE9ECF2E02FEFAF01495CCE
:1008B0005240481759071CF43191231BF7CF875337
:1008C0009D4F2F5FFC01208308952091E902215064
:1008D000330BF901E753FD4F1082A9ECB2E08081A0
:1008E000AD01495C52404217530724F49D9189277A
:1008F0008083F5CF8095808308955F926F927F9279
:100900008F929F92AF92BF92CF92DF92EF92FF921F
:100910000F931F93CF93DF93E090E902F12C509057
:10092000EA026090EB027090EC028090ED029090F1
:10093000EE02C090EF02D090F0021091F102E9ECCB
:10094000F2E0C4E0D0E095E0A92EB12CCE15DF0591
:10095000ECF4CF01895C9240B5010E946710DC0184
:1009600083E0AA0FBB1F8A95E1F7252D362D472D71
:10097000582D692D7C2D8D2D912F0A2F0E94BE1090
:1009800084812827248321963196E0CFDF91CF916F
:100990001F910F91FF90EF90DF90CF90BF90AF909D
:1009A0009F908F907F906F905F9008958EBD000014
:1009B0000DB407FEFDCF8EB50895CF93DF93C82FFA
:1009C000D62F60E086E00E94D7028C2F80620E94C2
:1009D000D604C82F8D2F0E94D60461E086E00E94C5
:1009E000D7028C2FDF91CF910895FC010190002058
:1009F000E9F73197AF01481B590BBC0183E093E045
:100A00000C94CA038F929F92AF92BF920F931F9341
:100A1000CF93DF93CDB7DEB7A1970FB6F894DEBFC3
:100A20000FBECDBF19A2423008F44AE08E010F5D1F
:100A30001F4F842E912CB12CA12CA50194010E9452
:100A40007B10E62FB901CA01EA30F4F4E05DD80169
:100A5000EE938D01232B242B252B79F790E080E05A
:100A6000109719F0CD010E94F504A1960FB6F894E5
:100A7000DEBF0FBECDBFDF91CF911F910F91BF9011
:100A8000AF909F908F900895E95CE1CFCF93DF9373
:100A90000E94F504EC0181EA91E00E94F5048C0FBC
:100AA0009D1FDF91CF9108950C94F5040F931F9330
:100AB00000915703109158032091590330915A0324
:100AC00040E059E06DE370E080E004171507260769
:100AD000370740F476956795579547958F5F863031
:100AE000A1F787E0982F906A9695809581709CBDBC
:100AF0008DBD80E01F910F910C946103CF93DF9324
:100B0000C82FD62F0E9456058C2F8F7180620E94AD
:100B1000D604C82F8D2F0E94D6040E946F038C2FFD
:100B2000DF91CF9108958D3708F08DE7682F85E02C
:100B30000C947E05CF930E94560581EE0E94D60448
:100B4000C82F0E946F038C2FCF910895CF93C82F89
:100B50000E9456058C2F0E94D6048FEF0E94D60467
:100B6000C82F0E946F038C2FCF91089580E00E94C0
:100B7000A60581FD0BC0682F626080E00E947E05A3
:100B800065E070E080E090E00C9497030895CF93C7
:100B9000DF93C82FD0E0FE01EC54FE4F84916091AA
:100BA0005C030E947E0582E00E94A605FE01E255DC
:100BB000FE4FE49161E070E001C0660FEA95EAF74C
:100BC000682B82E0DF91CF910C947E050F931F93E9
:100BD000CF938C0186E00E94A605C82FC77D023006
:100BE0001105E1F4C0628BE990E0A0E0B0E08093F1
:100BF000650390936603A0936703B09368036C2F1B
:100C000086E00E947E0586E00E94A60591E0C8135A
:100C100090E0892FCF911F910F91089585E590E085
:100C2000A0E0B0E00130110511F7C86081E490E068
:100C3000A0E0B0E0DCCFEF92FF920F931F93CF9331
:100C4000DF93C82F7B01142F0E9456058C2F8F71C4
:100C500080620E94D604082FE701115020F089918C
:100C60000E94D604FACF0E946F03802FDF91CF91AC
:100C70001F910F91FF90EF900895CF93DF93682F0E
:100C800070E090E080E04AE00E940205EC0181EA19
:100C900091E00E94F5048C0F9D1FDF91CF91089584
:100CA000CF92DF92EF92FF92CF93DF936C01990F77
:100CB000EE08FF08F7FE1FC06DE283E093E00E949C
:100CC0003B02EC0166277727CB016C197D098E0961
:100CD0009F094AE00E940205C80FD91F81EA91E0EE
:100CE0000E94F5048C0F9D1FDF91CF91FF90EF9034
:100CF000DF90CF9008954AE0C701B6010E94020537
:100D0000EC01ECCFEF92FF920F931F93CF93DF9301
:100D100084EA91E00E94540560910C0170E090E03B
:100D200080E04AE00E94020589EA91E00E945405B1
:100D3000C091E9026C2F70E090E080E04AE00E94F0
:100D400002058EEA91E00E945405F12CE12C2091DD
:100D5000EA023091EB024091EC025091ED02609179
:100D6000EE027091EF028091F0029091F1020E2D4F
:100D70000E94BE10622F70E090E080E040E10E948F
:100D800002058CEF91E00E94540588E0E80EF11C0A
:100D9000E8E2EE16F104D9F683EB91E00E945405E7
:100DA00009EC12E0D0E0C801895C92408C179D07E5
:100DB00074F4F80161918F0170E090E080E040E10F
:100DC0000E9402058CEF91E00E945405ECCF83EA6B
:100DD00091E0DF91CF911F910F91FF90EF900C94D4
:100DE0004605CF92DF92EF92FF920F931F93CF931E
:100DF000DF930E948206C0915C03D091E902CD1777
:100E000008F4DC2F80915D03CD1B8111C0E00E94AE
:100E1000560580EA0E94D60409EC12E0D15030F069
:100E2000F80181918F010E94D604F8CFC15020F0C3
:100E300080E00E94D604FACF0E946F0381E00E94F6
:100E400048038FB7F894C090C002D090C102E090E0
:100E5000C202F090C3028FBF0E9456058FEF0E941E
:100E6000D604C82F0E946F03C07309F52FB7F894FA
:100E70008091C0029091C102A091C202B091C302C0
:100E80002FBF8C199D09AE09BF0980369105A105B8
:100E9000B10510F381E08093640381E0DF91CF918D
:100EA0001F910F91FF90EF90DF90CF90089580E019
:100EB0000E94480360E787E00E947E0584FFEDCF33
:100EC0000E949A05EACF9AE09093E902E9ECF2E0F9
:100ED0009F01295C32402A30310514F41192F8CF79
:100EE00091EC9093CA028093CB02DB01E9ECF2E033
:100EF00050E0CF01895C92408417950724F48D91CE
:100F000083833196F6CF0E944F040E94F10665E07C
:100F100070E080E090E00E9497031092CB02109264
:100F2000CC021092CD021092CE021092CF021092FB
:100F3000D0021092D1020E944F040E94F10665E097
:100F400070E080E090E00C949703AF92BF92CF9254
:100F5000DF92EF92FF921F93CF93DF93C82ED62E8E
:100F60001091C80211110E947D04E090E902F12C59
:100F70008DECA82E82E0B82EF501CF01895C92405D
:100F80008E159F0514F41192F8CFC091F202D09102
:100F9000F302C093CD02D093CE0283E48093CF02BC
:100FA000C092D002D092D2020E94650411110E9418
:100FB0007D040E94F10665E070E080E090E00E9410
:100FC00097036E01FFEFCF1ADF0AD092F302C092AF
:100FD000F20211110E947D04C501895C92408E15B8
:100FE0009F0524F4F50111925F01F6CFC092CD0266
:100FF000D092CE0283E48093CF020E946504111147
:101000000E947D040E94F10665E070E080E090E0BF
:101010000E9497032296D093F302C093F202DF91CD
:10102000CF911F91FF90EF90DF90CF90BF90AF9046
:1010300008951F920F920FB60F9211248F939F93D2
:101040008091E1009091E100937F9093E10083FF14
:101050000FC01092E90091E09093EB001092EC0029
:1010600092E39093ED001092020398E09093F000C9
:1010700082FF22C093E09093E9009091F2009923BF
:1010800019F09AE39093E8009091BC02992341F003
:101090009091BC0291509093BC02911101C05D9A55
:1010A00090910103992341F0909101039150909305
:1010B0000103911101C0289A84FF18C08091E200B9
:1010C0008E7E81608093E2008091E1008F7E80932C
:1010D000E1008091BD028E7E80618093BD029F9170
:1010E0008F910F900FBE0F901F90189580FFF7CF34
:1010F0008091E2008E7E80618093E2008091E10029
:101100008E7E8093E1008091BD028E7E8160E5CF6E
:101110001F920F920FB60F921124CF92DF92EF928F
:10112000FF920F931F932F933F934F935F936F9370
:101130007F938F939F93AF93BF93EF93FF93CF933F
:10114000DF93CDB7DEB76C97DEBFCDBF1092E9005D
:101150008091E80083FF25C068E0CE0145960E949B
:101160002E0282EF8093E8008D8987FF39C090912D
:10117000E80090FFFCCF982F907609F034C19E894B
:101180004F89588D2F89F88C911131C0803861F5C5
:101190008091BE028093F1001092F1008EEF809357
:1011A000E8006C960FB6F894DEBF0FBECDBFDF919E
:1011B000CF91FF91EF91BF91AF919F918F917F91CF
:1011C0006F915F914F913F912F911F910F91FF90E0
:1011D000EF90DF90CF900F900FBE0F901F9018955B
:1011E0009EEF9093E800C7CF1092F100D5CF9130D9
:1011F00059F48111D3CF4130510581F68091BE025F
:101200008D7F8093BE02CACF933049F48111C6CF3F
:101210004130510519F68091BE028260F2CF9530BF
:1012200041F48091E80080FFFCCF20682093E30028
:10123000B5CF963009F0A9C00B8D1C8D22E010921D
:10124000E9001092BA021092B902F2122EC0109266
:10125000B8021092B7020E94FD011F8299E09983A3
:10126000FA8291E09E8390EA98879AEF998720917D
:10127000B9023091BA02275F3F4F3C832B838D83A5
:101280001092E9001092BA021092B9021093B802BB
:101290000093B70249E050E0BE016F5F7F4F80E0EE
:1012A0000E94D7010E94FD0179CF1093B8020093EC
:1012B000B7020E946201DC0112960D911C9101158A
:1012C000110509F451C1D801ED91FC910480F5811B
:1012D000E02DBE016B5E7F4FC8010995009709F0B4
:1012E0003EC1F80100851185EACFF3E0FF120EC080
:1012F0008F89882309F440C0823061F440E86BE0B4
:101300008CE291E00E94A401811148CF81E2809398
:10131000EB0047CF813029F440E868E083E291E0B8
:10132000F1CF833099F70E946201DC011296ED90B3
:10133000FC908E010F5F1F4F6801E114F10479F0FA
:10134000D701ED91FC910680F781E02DB801C7012E
:101350000995080F111DF701E084F184EECFD80143
:101360001C92F60101900020E9F73197BF016C193A
:101370007D0940E0C601C6CF6DE071E0FB014491FC
:1013800050E080E80E94D70109CF973009F4BECF22
:10139000983021F481E08093F10000CF993009F07A
:1013A000FDCE837009F0B2CFEEE0F1E081E031E0F4
:1013B00096E32191222371F08093E9003093EB00B2
:1013C000DF0111972C912093EC009093ED008F5F3B
:1013D000873079F78EE78093EA001092EA008F89D0
:1013E00080930203DBCE8B8D9C8D1092E9001092CE
:1013F000BA021092B9029093B8028093B702898D15
:10140000811192C08E899D89913A49F4813209F007
:101410007DCF47E050E064E071E080E0B3CF9132EF
:1014200009F074CF833269F48F89988DB0E0A0E021
:101430008093000190930101A0930201B0930301F6
:10144000ADCE803269F48091E80082FFFCCF67E086
:1014500084E091E00E942E028BEF8093E8009ECE04
:10146000823209F09BCE8F8980930B01EEEFFFE76C
:10147000859194918B3F9C4D51F1E0E0F8E0809193
:10148000040190910501A0910601B0910701803BF4
:101490009440A105B105F1F480910B0180FD1AC0C3
:1014A000EE3F8AE0F80789F587E797E79183808325
:1014B000809160008093BB0288E19BE00FB6F894B6
:1014C000A895809360000FBE9093600067CEEEEF0A
:1014D000FAE0D5CF808191818737974709F05ECEBA
:1014E000A895809160008861809360008091BB0224
:1014F00080936000EE3F2AE0F20789F08091FE0AB7
:101500009091FF0A9183808349CE808191818737B2
:10151000980751F29093FF0A8093FE0AC5CF10926C
:10152000FF0A1092FE0A3ACE0E946201DC01129676
:101530000D911C910115110509F4E8CED801ED912A
:10154000FC910190F081E02DBE016B5E7F4FC801E0
:101550000995811123CEF80100851185EBCF18166E
:1015600019060CF41BCED2CEF1E0FF12BECE61E123
:1015700071E004CF1F920F920FB60F9211242F9398
:101580003F938F939F93AF93BF938091C0029091AD
:10159000C102A091C202B091C3023091B20226E012
:1015A000230F2D3758F50296A11DB11D2093B202CD
:1015B0008093C0029093C102A093C202B093C30271
:1015C0008091B3029091B402A091B502B091B6029D
:1015D0000196A11DB11D8093B3029093B402A09314
:1015E000B502B093B602BF91AF919F918F913F9199
:1015F0002F910F900FBE0F901F90189529E8230F81
:101600000396A11DB11DD2CFE3E0F3E01382128255
:1016100088EE93E0A0E0B0E084839583A683B7834F
:1016200083E991E0918380838FEF9FEF9587848793
:10163000E3E5F3E085E090E09183808386E090E04D
:101640009383828380E896E9A8E9B0E08483958358
:10165000A683B783108680E28187128685E0808B1F
:1016600085E090E0A0E0B0E0868B978BA08FB18FF3
:1016700013860895CF93DF93CDB7DEB7EF970FB6FC
:10168000F894DEBF0FBECDBF789484B5826084BD70
:1016900084B5816084BD85B5826085BD85B5816076
:1016A00085BD80916E00816080936E0010928100F4
:1016B00080918100826080938100809181008160AF
:1016C0008093810080918000816080938000809170
:1016D000910082608093910080919100816080935D
:1016E0009100809190008160809390008091C10072
:1016F00084608093C1008091C10082608093C100AA
:101700008091C10081608093C1008091C30081609D
:101710008093C3008091C00082608093C00080915C
:10172000C20081608093C20080917A0084608093BF
:101730007A0080917A00826080937A0080917A00AA
:101740008E7F80937A0080917A00806880937A00FF
:10175000109202031092BE021092BD028091D70037
:1017600081608093D70080EA8093D80089B58F7E0E
:1017700089BD89B5826089BD09B400FEFDCF61E0F5
:1017800070E080E090E00E9497038091D8008F7C09
:1017900080618093D8008091E000807F8093E0009A
:1017A0008091E1008E7E8093E1008DE08093E200E5
:1017B000559A209A8FEF9FEF9093100380930F0319
:1017C0008DE00E94080160E08DE00E94D702442471
:1017D0004394512C1092F4021092C8021092E90224
:1017E00089EE92E0E9ECF2E011928E179F07E1F7A3
:1017F00080915303909154032091550330915603E7
:101800008217930711F00E9408018091550390916F
:10181000560320915303309154032817390711F0D0
:101820000E9408011FB7F8948091BF02811124C063
:10183000E1E8F1E08491E0EAF1E09491E82FF0E052
:10184000EE0FFF1FEE59FE4FA591B491EC91E923E5
:1018500021F461E081E10E94D70281E10E94080148
:101860008CB580618CBD8CB580648CBD8FE00E948E
:10187000080180E10E9408018091BF028F5F809380
:10188000BF021FBF80E00E94480381E00E94610305
:1018900065E070E080E090E00E9497036CE080E0FB
:1018A0000E947E056FE584E00E947E0582E090E064
:1018B0000E94E605882319F081E080935B0386E0AF
:1018C0000E94A60590E080E00E94E6050E94560571
:1018D00080E50E94D60483E70E94D6040E946F032D
:1018E00060E08DE10E947E0560E08CE10E947E0553
:1018F00010925D0360E787E00E947E058CE40E9401
:1019000093050E94560582EE0E94D6040E946F0342
:101910000E949A050E94B60580E00E94A605682FE5
:101920006E7F80E00E947E0588EB91E00E94460574
:1019300083E491E00E9451028E010F5F1F4F80915E
:101940006D0390916E03009711F481E793E0980185
:10195000281B390BC9010E94500660E081E00E94FB
:101960007E0569E086E00E94DD0480E280935C03EE
:1019700080910C010E94930560E082E00E94DD04EA
:1019800060E083E00E94DD048AEA8EAB1FAA18AEF5
:1019900019AE1AAE1BAE1CAE1DAE4091630350E0F3
:1019A000BE016A5C7F4F8EE593E00E94F610EEE484
:1019B000F1E0849140916303BE016A5C7F4F0E9415
:1019C0001B0680E00E94C70580E00E94A605682FE4
:1019D000677F80E00E947E050E94B60580E00E943D
:1019E000A605682F616080E00E947E0560E787E0C1
:1019F0000E947E0581E00E94480380915E03882357
:101A000009F496C0409163036EE573E08AE00E949A
:101A10001B068DE10E94A60581FD0E949A056E01BC
:101A20003EE3C30ED11CE2E0BE2E80910C018F5F1D
:101A300080930C018535E0F089EC91E00E94460529
:101A400088E391E00E94510280916D0390916E03B2
:101A5000009711F481E793E0D601A81BB90BCD01E3
:101A60000E94500661E08DE00E94D702B0920C0106
:101A7000F0900C01B4E0FB126DC060E08DE00E94BC
:101A8000D7028F2D0E9493052FB7F8948091C00242
:101A90009091C102A091C202B091C3022FBF809366
:101AA000C4029093C502A093C602B093C7022FB799
:101AB000F8948091C0029091C102A091C202B091AD
:101AC000C3022FBF4091C4025091C5026091C6026B
:101AD0007091C702841B950BA60BB70B843691053A
:101AE000A105B10508F0A1CF87E10E94A60580FD00
:101AF000DECF80915C0375E2872E853208F4882E54
:101B000090915D03982E98189111912C0E94560582
:101B100081E60E94D604380178018A942FEF82165C
:101B200011F18FEF0E94D604D7018D937D01F5CF7F
:101B300082E00E94A605EEEAF1E0E491920101C084
:101B4000220FEA95EAF72095622F682382E00E942F
:101B50007E055FCFEAE2FE1202C061E08FCFFCE2B9
:101B6000FF128FCF8ACF9A94BFEF9B1621F08FEF91
:101B70000E94D604F8CF0E946F0360E787E00E94BE
:101B80007E05F12CE12C8E80912C95948794959470
:101B90008794382C97E1981508F4B5C1E7E0F0E098
:101BA000EC0FFD1FE80DF91DA081E8E0F0E0EC0F5F
:101BB000FD1FE80DF91D808190E0880F991F2A2FE5
:101BC00030E0322F2227330F822B932B982789273F
:101BD0009827E9E0F0E0EC0FFD1FE80DF91D2081EA
:101BE00027FD9160F8012FEF3FEFA4014B5F5F4F9E
:101BF000BF01601B710B46175707ACF06191362788
:101C0000B9E0B150A9F3B901220F331F77FFF9CF23
:101C100061E2262760E13627F4CF898190E095952F
:101C20008795898387C1A0784A2F50E0542F442795
:101C300024273527A901440F551F37FF04C0A1E20F
:101C40004A27A0E15A275427452754274817590700
:101C500009F059C180EE91E00E945405332009F447
:101C60004EC18EEF91E00E945405832D0E943D06E7
:101C7000F8013496A12CB12CC12CD12CE12CF12CE3
:101C800000E010E0D3012D913D0130E040E050E054
:101C900060E070E080E090E00E94D91008E00E94CF
:101CA000A31059016A017B018C01EA17FB0751F768
:101CB0002D8130E040E050E060E070E080E090E0B6
:101CC0000E94D9103901B42EC52ED62EE72EF82E3B
:101CD000192F2093EA027092EB024093EC0250938A
:101CE000ED026093EE027093EF028093F002909306
:101CF000F102DE011796E9ECF2E022E0820E911C7F
:101D0000CF01895C9240881699064CF08D919C9188
:101D1000991F9927991F880F892B8193F1CF3092B2
:101D2000E9020E9482068091C90233E1331215C193
:101D3000883009F006C18091CF02803439F48FE2F7
:101D400092E00E94460581E08093F4028CE692E0E6
:101D50000E9446050091F402002309F45EC18CE75D
:101D600092E00E94460561E08DE00E94D70280E08B
:101D70000E94480380916503909166030E94580376
:101D80008DE10E94A60581FF08C0809165039091B6
:101D900066030E9458030E949A0580E00E94A605EF
:101DA000682F6E7F80E00E947E0582E00E94A6057B
:101DB000EEEAF1E0E491B20101C0660FEA95EAF7BC
:101DC000682B82E00E947E056EA27FA2B8A6C9A6FB
:101DD000DAA6EBA6FCA61DA740916303BE016A5DCF
:101DE0007F4F8AE00E941B0640916303BE016A5D3B
:101DF0007F4F80E10E941B0660915C0381E10E949D
:101E00007E056EA67FA6B8AAC9AADAAAEBAAFCAA82
:101E10001DABEFE4F1E0849140916303BE01625D8C
:101E20007F4F0E941B0681E00E94C7056FE381E09F
:101E30000E947E0586E00E94A605682F676086E006
:101E40000E947E0581E090E00E94E60580E280939A
:101E50005C038DE10E94A605682F64608DE10E94FD
:101E60007E058CE10E94A605682F6F638CE10E94BD
:101E70007E0581E080935D0363E083E00E94DD04E2
:101E80006FE584E00E947E0580910C010E9493051D
:101E90001092F3021092F202013059F496E0E92E0A
:101EA000F12C60E080E00E94A507B1E0EB1AF10898
:101EB000C1F784E1882E81E0982E10E0D12CC12C4E
:101EC000FE0131967F01D4016C9011967C901197A0
:101ED0001296BC90023009F0D8C0662009F468C0A0
:101EE000112329F0412FB70180E00E946307798216
:101EF00041E0B701862D0E94630710E07FC081E1B9
:101F000092E00E944605EA94EF2809F4D0CDF8014A
:101F10002FE130E0EE24E394F12C2115310509F492
:101F20007CCE868D60E8869FA0011124878D8695E2
:101F3000842B878F2150310931972F3F320769F762
:101F400022CE8A3051F48EE392E00E94460581E071
:101F50008093F4028093C802F9CE8111F7CE8AE013
:101F600038120EC08091CA02823C11F08F3491F475
:101F700082E08093F40287E592E00E944605E6CE77
:101F800096E139120DC08091CA02833D19F482E0B6
:101F90008093F4028091F402823009F0D7CEEBCF27
:101FA000A5E03A12F7CF8091CA02803499F7EFCFBB
:101FB000772009F452C087EA92E00E945405872DE9
:101FC0000E943D06F70120E0812F90E0AF014E19FD
:101FD0005F09481759072CF431917312F7CF21E0AC
:101FE000F5CF222311F1412FB70180E00E94630752
:101FF000798211E0B9E2CB16D10449F16FEFC61A2C
:10200000D60A83E0880E911C9AE2C916D10409F021
:102010005ACF60E08DE00E94D70280E090E0892BEB
:1020200009F4D8CB0E940000D5CB153029F47E826C
:1020300046E0B70180E05FCF8E0D9F1DFC017082EE
:102040001F5F29E2C216D104C9F61123B9F2412F4C
:10205000B70180E00E946307D1CFBB2091F3112329
:1020600029F0412FB70180E00E94630787E992E0E1
:102070000E944605F0E1BF9EB0011124072E000C1E
:10208000880B990B0E94970338CF013009F0B6CF27
:10209000772059F08FE992E00E945405872D0E9425
:1020A0003D06672D862D0E94A507BB2009F4A6CF0B
:1020B00087E992E00E94460530E1B39EB001112409
:1020C000072E000C880B990B0E94970397CF97FB64
:1020D000072E16F4009407D077FD09D00E94E21075
:1020E00007FC05D03EF4909581959F4F089570951B
:1020F00061957F4F0895A1E21A2EAA1BBB1BFD011B
:102100000DC0AA1FBB1FEE1FFF1FA217B307E407D6
:10211000F50720F0A21BB30BE40BF50B661F771F2E
:10212000881F991F1A9469F760957095809590950E
:102130009B01AC01BD01CF010895EE0FFF1F05907B
:10214000F491E02D0994002E083090F0982F872FFD
:10215000762F652F542F432F322F22270850F4CF8C
:10216000220F331F441F551F661F771F881F991F9B
:102170000A95B2F7002D089597FD1094002E0830AF
:1021800098F00850232F342F452F562F672F782F84
:10219000892F912DF4CF159497958795779567950D
:1021A00057954795379527950A95AAF71124002D3D
:1021B00008952A0D3B1D4C1D5D1D6E1D7F1D801F4A
:1021C000911F0895AA1BBB1B51E107C0AA1FBB1F8B
:1021D000A617B70710F0A61BB70B881F991F5A95B3
:1021E000A9F780959095BC01CD010895FB01DC0114
:1021F00002C001900D9241505040D8F70895F894D4
:10220000FFCFFFFFFFFF00E100000000000019000A
:10221000C1808100000008150000001F000C0000B4
:102220000800001B00001300000F00001200001542
:1022300000000800002C00002D00000E00002C0003
:10224000000B00001700001700001300023300000D
:102250003800003800000900000400000E000008EB
:102260000000180000130000070000040000170021
:1022700000080000370000110000080000170000EF
:102280003800001A00001100000600003800002885
:1022900000000000003B02CA0377026C02BD027B13
:1022A0000299020D0A0063683A200020733A200068
:1022B00020613A200020703A2000737461727469C2
:1022C0006E67207363616E2E2E2E007374617274BC
:1022D000696E67206368616E6E656C2073776565F3
:1022E0007000666F756E64207061636B6574202F7B
:1022F000772076616C6964206372632E2E2E200035
:102300007061796C6F6164206C656E6774682069B8
:102310007320007061796C6F616420697320656D52
:102320007074792E207363616E6E696E672E2E2E27
:1023300000666F756E64204D53206D6F7573650078
:10234000666F756E64204D5320656E63727970748C
:102350006564206D6F75736500666F756E64204CE3
:102360006F676974656368206D6F7573650073745A
:10237000617274696E672061747461636B0070616F
:10238000796C6F6164207479706520697320696E5F
:102390006A65637461626C650077616974696E6710
:1023A0000073656E64696E672068696420636F649A
:0423B000653A20006A
:1070000055C000006EC000006CC000006AC00000E7
:1070100068C0000066C0000064C0000062C00000DC
:1070200060C000005EC00000FCC400005AC0000048
:1070300058C0000056C0000054C0000052C00000FC
:1070400050C000005DC000004CC000004AC00000FD
:1070500048C0000046C0000044C0000042C000001C
:1070600040C000003EC000003CC000003AC000002C
:1070700038C0000036C0000034C0000032C000003C
:1070800030C000002EC000002CC000002AC000004C
:1070900028C0000026C0000024C0000022C000005C
:1070A00020C000001EC000001CC0000011241FBE34
:1070B000CFEFDAE0DEBFCDBF11E0A0E0B1E0E2E467
:1070C000FFE702C005900D92A83BB107D9F711E088
:1070D000A8EBB1E001C01D92A13DB107E1F74FD38C
:1070E0002EC78ECFF89410926F001092810081E02D
:1070F00085BF15BE47985D9A289A0C9400000895A4
:107100001F920F920FB60F9211242F938F939F937C
:10711000EF93FF9310928500109284008091B80144
:107120009091B901009741F001979093B901809334
:10713000B801892B09F45D9A8091BA019091BB0145
:10714000009741F001979093BB018093BA01892B7E
:1071500009F4289A8091BE019091BF010196909305
:10716000BF018093BE01E0E0F0E0859194918F5FD4
:107170009F4F49F08091BC019091BD010196909381
:10718000BD018093BC01FF91EF919F918F912F9151
:107190000F900FBE0F901F90189584E08093E90028
:1071A0000DC08091E8008B778093E80003C08EB318
:1071B000882351F08091E80082FFF9CF8091E800A8
:1071C00085FFEFCF8091F1000895982F83E08093A1
:1071D000E9008091E80085FD0DC08091E8008E7780
:1071E0008093E80003C08EB3882369F08091E800A3
:1071F00080FFF9CF9093F1005D9884E690E0909342
:10720000B9018093B80108954F925F926F927F9277
:107210008F929F92AF92BF92CF92DF92EF92FF92A6
:107220000F931F93CF93DF9384E08093E9008091C5
:10723000E80082FF57C2289884E690E09093BB0153
:107240008093BA01AADF182F853481F48CEA9DE07F
:107250009093BD018093BC0107B600FCFDCFF99966
:10726000FECF81E180935700E89503C0843519F47F
:1072700094DF8DE00DC28C34E1F38035D1F3843797
:1072800021F484E4A2DF80E003C2813611F489E5B1
:10729000FFC18134B1F481DF182F7FDF90E0880FC8
:1072A000991FAA2797FDA095BA2F312F330F20E001
:1072B000442737FD4095542F822B932BA42BB52BBD
:1072C000B8C1803711F483E5E3C1833549F4C0E0E8
:1072D000D1E089917ADF21E0C730D207D1F7D9C157
:1072E000863521F481E371DF80E3D2C1833731F445
:1072F00087E86BDF85E969DF8EE1CAC18536B9F4BD
:10730000E0E0F0E093E085E090935700E89507B661
:1073100000FCFDCF80935700E89507B600FCFDCF39
:10732000E058FF4FA0E7E030FA0771F7A2CF8237AD
:1073300039F4E1E0F0E089E0809357008491A8C13E
:10734000863439F4E0E0F0E089E0809357008491DE
:107350009FC18E3439F4E3E0F0E089E08093570078
:10736000849196C1813539F4E2E0F0E089E08093C0
:10737000570084918DC1823631F489E526DF80E0A3
:1073800024DF80E885C1823419F0873609F0E5C032
:107390001092BD011092BC0100DF082FFEDEF82E16
:1073A000FCDE682E8554823008F071C1902F80E099
:1073B000CF2DD0E0C82BD92B10926F00173609F0D3
:1073C0004BC081E180935700E895DD24CC24C39421
:1073D0003FC0E090C101F090C2010091C301109143
:1073E000C401B6E46B16D9F4ED2DF0E0EE29FF29C7
:1073F000E4918E2FEADEDD2081F082E090E0A0E0D3
:10740000B0E0E80EF91E0A1F1B1FE092C101F092C6
:10741000C2010093C3011093C401DC2418C0D80139
:10742000C701B695A7959795879573D5CEDE82E06F
:1074300090E0A0E0B0E0E80EF91E0A1F1B1FE092EA
:10744000C101F092C2010093C3011093C4012197BE
:10745000209709F0BECF7DC08090C1019090C201FD
:10746000A090C301B090C40196E4691609F05DC014
:1074700083E0F40180935700E89507B600FCFDCF48
:1074800054C0F6E46F1661F5772031F1E090C10148
:10749000F090C2010091C3011091C4017EDED82E8C
:1074A000CC24852D90E08C299D29F7010C01409278
:1074B0005700E895112482E090E0A0E0B0E0E80EEB
:1074C000F91E0A1F1B1FE092C101F092C201009336
:1074D000C3011093C40102C060DE582E742423C07F
:1074E000E090C101F090C2010091C3011091C4016C
:1074F00016950795F794E79450DE682FC70111D5CC
:107500008091C1019091C201A091C301B091C401C9
:107510000296A11DB11D8093C1019093C201A09359
:10752000C301B093C401219704C055247724442497
:107530004394209709F0A5CF96E4691641F485E0BD
:10754000F40180935700E89507B600FCFDCF8DE06D
:107550003CDE82E080936F009CC0833471F4009124
:10756000C1011091C20119DE90E021E0F8010C0187
:1075700020935700E89511247CCE833619F5E090CE
:10758000C101F090C2010091C3011091C40105DE58
:10759000F701E16090E021E00C0120935700E895AD
:1075A000112482E090E0A0E0B0E0E80EF91E0A1F8E
:1075B0001B1FE092C101F092C2010093C30110931E
:1075C000C40157CE8D3661F4E091C101F091C20142
:1075D00085E080935700E89507B600FCFDCF49CEC3
:1075E000823551F4E091C101F091C20105911491ED
:1075F000812FEBDD802F4CC0843421F5E090C10158
:10760000F090C2010091C3011091C4011695079535
:10761000F794E794C2DD682FC70183D48091C1013C
:107620009091C201A091C301B091C4010296A11D25
:10763000B11D8093C1019093C201A093C301B09387
:10764000C40117CE843609F5E090C101F090C20163
:107650000091C3011091C401D801C701B695A79547
:107660009795879556D4B1DD82E090E0A0E0B0E038
:10767000E80EF91E0A1F1B1FE092C101F092C20121
:107680000093C3011093C40104C08B3111F08FE348
:107690009CDD83E08093E9009091E8008091E80010
:1076A0008E778093E80095FF04C010C08EB38823C6
:1076B000C9F08091E80080FFF9CF8091E8008E77D3
:1076C0008093E80003C08EB3882361F08091E800C6
:1076D00080FFF9CF84E08093E9008091E8008B7708
:1076E0008093E800DF91CF911F910F91FF90EF9071
:1076F000DF90CF90BF90AF909F908F907F906F90D2
:107700005F904F9008959091C901892F8F778132B2
:1077100049F58091CA018032A1F0813219F5913A80
:1077200009F58091E800877F8093E8008CE091E084
:1077300067E070E025D28091E8008B778093E800C5
:107740000895913279F48091E800877F8093E80072
:107750008CE091E067E070E077D28091E8008E776E
:107760008093E800089582E061EC42E0D1D083E0AC
:1077700061E842E1CDD084E060E842E1C9C01F93F6
:10778000209100081092000844B714BE88E10FB69B
:10779000F89480936000109260000FBE80E8E0E0F3
:1077A000F0E00FB6F89480936100E09361000FBEA3
:1077B00031E035BF92E095BF3F9A209A559A809369
:1077C00061001092610047985D9A289A1092890092
:1077D0008AEF8093880090936F0083E0809381000C
:1077E000859194918F5F9F4F11F03093C001942F3A
:1077F00041FF19C0809109012817A9F08093000862
:10780000789480911301882339F08091BE01909182
:10781000BF0188579140C8F310920008F89481E0A6
:10782000809313010CC090FF04C08091C001882395
:1078300051F493FF09C080910901281729F0809124
:10784000C001882309F04EDCD4D078941092BD0199
:107850001092BC011EEF20C0D7DC49D38091BC013F
:107860009091BD01815A9F4010F0109213018091B8
:10787000C5019091C60101969093C6018093C50100
:10788000292F97FF03C0512F591B252F220F28178F
:1078900010F4479801C0479A809113018823E1F6BC
:1078A0008091E00081608093E0001CDC80E090E04B
:1078B0001F910895FA01923049F0933061F09130B0
:1078C000F9F484E191E022E130E01EC086E291E02B
:1078D0002EE330E019C0882329F484E691E024E007
:1078E00030E012C0813029F488E691E022E230E0F5
:1078F0000BC0823029F48CE891E02AE230E004C029
:1079000080E090E020E030E091838083C901089519
:107910008093E9008091EB0081608093EB001092EE
:10792000ED006093EC004093ED008091EE00881F25
:107930008827881F08958091C90188238CF403C08B
:107940008EB38823B1F08091E80082FFF9CF809157
:10795000E8008B778093E80008958EB3882349F080
:107960008091E80080FFF9CF8091E8008E778093C6
:10797000E8000895EF92FF920F931F9345D04CD0EB
:1079800008ED10E0F80180818F7780838081806826
:10799000808380818F7D808319BC1EBA1092C701BD
:1079A00080EEE82EF12CF70180818B7F8083F80137
:1079B00080818160808380E060E042E0A9DFE1EEC9
:1079C000F0E080818E7F8083E2EEF0E08081816054
:1079D0008083808188608083F70180818E7F8083AF
:1079E000F8018081806180831F910F91FF90EF905B
:1079F0000895E7EDF0E08081816080838AE482BFB2
:107A000081E08093C801B6CFE8EDF0E080818E7F01
:107A100080831092E20008951092DA001092E10043
:107A200008951F920F920FB60F9211242F933F9338
:107A30004F935F936F937F938F939F93AF93BF9376
:107A4000EF93FF938091DA0080FF1AC08091D800F5
:107A500080FF16C08091DA008E7F8093DA008091DB
:107A6000D90080FF0AC019BC82E089BD09B400FEBC
:107A7000FDCF81E08EBB3AD203C019BC1EBA36D20C
:107A80008091E10080FF17C08091E20080FF13C069
:107A90008091E2008E7F8093E2008091E20080611D
:107AA0008093E2008091D80080628093D80019BC56
:107AB00085E08EBB1BD28091E10084FF2BC08091BA
:107AC000E20084FF27C019BC82E089BD09B400FE32
:107AD000FDCF8091D8008F7D8093D8008091E10008
:107AE0008F7E8093E1008091E2008F7E8093E200A0
:107AF0008091E20081608093E2008091C701882339
:107B000031F48091E30087FD02C081E001C084E090
:107B10008EBBECD18091E10083FF21C08091E20017
:107B200083FF1DC08091E100877F8093E10082E0A8
:107B30008EBB1092C7018091E1008E7F8093E1009F
:107B40008091E2008E7F8093E2008091E20080616C
:107B50008093E20080E060E042E0DADEC7D1FF918E
:107B6000EF91BF91AF919F918F917F916F915F91B5
:107B70004F913F912F910F900FBE0F901F9018952E
:107B80009C014091CF015091D0014617570718F43E
:107B9000F90190E044C06115710511F0AB01F8CF17
:107BA0008091E8008E778093E80040E050E0F0CFCD
:107BB0008EB3882309F444C0853009F443C0809112
:107BC000E80083FF02C081E008958091E80082FD13
:107BD00031C08091E80080FF22C08091F300909135
:107BE000F200782F60E0292F30E0262B372B07C0DA
:107BF00081918093F100415050402F5F3F4F4115DC
:107C0000510519F02830310598F390E028303105FE
:107C100009F491E08091E8008E778093E8004115A7
:107C2000510531F6992321F605C08EB3882341F022
:107C3000853041F08091E80082FFF7CF80E0089521
:107C400082E0089583E008959C016115710529F48F
:107C50008091E8008B778093E800F90126C08EB30D
:107C6000882391F1853091F18091E80083FF02C073
:107C700081E008958091E80082FFF1CF06C08091F5
:107C8000F10081936150704059F02091F300809190
:107C9000F200322F20E090E0822B932B892B79F792
:107CA0008091E8008B778093E80061157105B9F643
:107CB00005C08EB3882341F0853041F08091E80003
:107CC00080FFF7CF80E0089582E0089583E0089573
:107CD0000F931F93DF93CF9300D0CDB7DEB7E9ECBE
:107CE000F1E08091F100819381E0E13DF807C9F76F
:107CF0000ADD8091E80083FFE4C08091C901909182
:107D0000CA01953009F46DC0963040F4913081F18C
:107D1000913070F0933009F0D4C02AC0983009F443
:107D2000A3C0993009F4B2C0963009F0CAC07CC033
:107D3000803809F4C6C0823809F0C3C08091CD01F3
:107D400087708093E9008091EB001092E900209108
:107D5000E800277F2093E80090E025E0969587953E
:107D60002A95E1F781708093F1001092F10087C0AD
:107D7000882319F0823009F0A4C08F71823009F095
:107D8000A0C08091CB01882331F52091CD012770CF
:107D900009F497C02093E9008091EB0080FF1BC09D
:107DA000933021F48091EB00806213C08091EB004E
:107DB00080618093EB0081E090E002C0880F991F02
:107DC0002A95E2F78093EA001092EA008091EB0096
:107DD00088608093EB001092E9008091E800877F33
:107DE00051C0882309F06DC01091CB011F770FB7E8
:107DF000F8948091E800877F8093E8009CDD809173
:107E0000E80080FFFCCF8091E3008078812B809395
:107E1000E30080688093E300112311F482E001C045
:107E200083E08EBB0FBF4DC08058823008F049C040
:107E30008091CB019091CC016091CD01AE014F5F5B
:107E40005F4F38DDBC01009709F43BC08091E8002A
:107E5000877F8093E80089819A8192DE8091E80093
:107E60008B778093E8002DC0803859F58091E80029
:107E7000877F8093E8008091C7018093F100809113
:107E8000E8008E778093E80056DD1BC08823C9F494
:107E90009091CB019230A8F48091E800877F809385
:107EA000E8009093C70147DD8091C701882331F432
:107EB0008091E30087FD02C081E001C084E08EBBB9
:107EC00052DC8091E80083FF0AC08091EB00806261
:107ED0008093EB008091E800877F8093E8000F900B
:107EE0000F90CF91DF911F910F91089508951F93E7
:107EF0008EB3882361F01091E9001092E90080911F
:107F0000E80083FF01C0E4DE17701093E9001F91C1
:107F10000895F999FECF92BD81BDF89A992780B551
:107F20000895262FF999FECF1FBA92BD81BD20BDBD
:107F30000FB6F894FA9AF99A0FBE01960895F8943C
:107F4000FFCF4341544552494E410077000800009D
:107F500000000000080112011001020000084F1B80
:107F6000079201000201000109023E0002010080A7
:107F7000320904000001020201000524001001047E
:107F80002402040524060001070582030800FF09F6
:107F9000040100020A0000000705040210000107A6
:107FA0000583021000010403090422034C00690048
:107FB0006C007900500061006400550053004200DD
:107FC00020002000200020002000200000002A03C4
:107FD00053007000610072006B00460075006E0077
:107FE000200045006C0065006300740072006F00A3
:0A7FF0006E006900630073000000DA
:00000001FF
