:020000040000FA
:100000000C94AD000C9467080C9440080C941908EB
:100010000C94F2070C94D5000C94D5000C94CB07EB
:100020000C94D5000C94D5000C94E0040C944F056E
:100030000C94D5000C94D5000C94D5000C94D500EC
:100040000C94D5000C94D5000C94D5000C94D500DC
:100050000C94D5000C94D5000C94D5000C94810719
:100060000C94D5000C94D5000C94D5000C94D500BC
:100070000C94D5000C94D5000C94D5000C94D500AC
:100080000C94D5000C94D5000C94D5000C94D5009C
:100090000C94D5000C94D5000C94D5000C94D5008C
:1000A0000C94D5000C94D5000C94D500080B0002DC
:1000B0000202000009040000010202000005240001
:1000C0001001052401010104240206052406000193
:1000D0000705810310004009040100020A00000026
:1000E00007050202400000070583024000000403E8
:1000F000090412010002EF0201404F1B08920001A7
:1001000001020301537061726B46756E004C696C9D
:100110007950616420555342005E01011F010303C1
:1001200001008A02010A010202010064001E470464
:100130000B0906007C0101060103030100F401061E
:100140000E0102020100C201170101020201019623
:1001500000023E01060601008E0811241FBECFEFEB
:10016000DAE0DEBFCDBF11E0A0E0B1E0E8EAF4E103
:1001700002C005900D92A035B107D9F722E0A0E5A5
:10018000B1E001C01D92A63AB207E1F710E0CDEA56
:10019000D0E004C02197FE010E944C0ACC3AD1075E
:1001A000C9F70E94CB080C94520A0C940000FC0181
:1001B00080914202882311F13FB7F89482E0809346
:1001C000E9002091F200822F90E01816190614F42D
:1001D00081E090E0882339F0289844E6409341027A
:1001E0004091F1004083222339F02091F200211147
:1001F00003C02BE62093E8003FBF08958FEF9FEFE9
:1002000008952FB7F89483E08093E9009091E80077
:10021000892F807295FF04C09091F20080E4891BC1
:100220002FBF08958091390281110DC082E0809323
:10023000350284E080933602109238021092370221
:1002400081E08093390285E392E008954091630153
:10025000509164012091610130916201421753076E
:10026000B4F49091E8009570E1F39091E80092FD6C
:1002700019C08093F100809163019091640101960F
:100280008F739927892B19F48EEF8093E800809162
:1002900063019091640101969093640180936301DE
:1002A00081E0089580E00895EF92FF920F931F93ED
:1002B000CF93DF93F82E192FE62E042F81E0860FBF
:1002C000880F0E94260183E00E942601CF2DD12FA6
:1002D000EC0EFD2EF11CCE15DF05B9F007FF13C0A3
:1002E000FE0184910E942601182F80E00E942601C1
:1002F000812321968111EFCFDF91CF911F910F9133
:10030000FF90EF9008958881EDCF81E0F5CFDF92E7
:10031000EF92FF920F931F93CF93DF93D82E8A0112
:10032000EB017B01E40EF51ECE15DF0559F0D7FE7B
:1003300012C0FE0184910E94260121968111F4CF02
:100340000FEF1FEFC801DF91CF911F910F91FF9029
:10035000EF90DF9008958881EECF0F931F93CF9396
:10036000DF931F92CDB7DEB782E0898342E450E08D
:100370006CEA70E080E80E9487010E941201DC01B3
:1003800012960D911C910115110589F0D801ED917E
:10039000FC910280F381E02DBE016F5F7F4FC801A9
:1003A000099597FD04C0F80100851185ECCF89817E
:1003B0000F90DF91CF911F910F910895615030F010
:1003C0002091F100FC0120830196F8CF289884E663
:1003D000809341020895CF93DF931F92CDB7DEB78C
:1003E0006983DC01ED91FC910280F381E02D41E015
:1003F00050E0BE016F5F7F4F09950F90DF91CF9165
:10040000089583E08093E9008091F200882319F039
:100410008AE38093E80008950E94010190E0089526
:10042000CF93DF931F92CDB7DEB7FC01848595850E
:1004300097FD08C02FEF3FEF358724870F90DF919E
:10044000CF910895CE0101960E94D700019719F42B
:10045000898190E0F3CF8FEF9FEFF0CF0F931F9341
:10046000CF93DF931F92CDB7DEB78C01FC0184855B
:10047000958597FF0BC0CE0101960E94D70001978A
:1004800071F4898190E0F80195878487F80184856B
:1004900095850F90DF91CF911F910F9108958FEF68
:1004A0009FEFF1CFFC018485958597FD0BC09FB729
:1004B000F89482E08093E9008091F2009FBF90E081
:1004C000019608959FB7F89482E08093E9008091A7
:1004D000F2009FBF90E008953FB7F89480915D01CE
:1004E00090915E01A0915F01B091600126B5A89B3B
:1004F00005C02F3F19F00196A11DB11D3FBFBA2FB6
:10050000A92F982F8827BC01CD01620F711D811D75
:10051000911D43E0660F771F881F991F4A95D1F7F9
:100520000895CF92DF92EF92FF920E946C026B01CE
:100530007C010E946C026C197D098E099F09683E3E
:10054000734081059105A8F3FF90EF90DF90CF9065
:1005500008958F929F92AF92BF92CF92DF92EF92C7
:10056000FF920F931F93CF93DF936C017B018A015E
:1005700080910B01882309F458C08091420288239E
:1005800009F453C08091670180FF05C08091E000AD
:1005900082608093E000E801B12C8AEFA82E93E0FE
:1005A000892E2AE3922E209711F4BB20B9F10E94E4
:1005B0000101811106C0AA94AA20B9F10E949102FA
:1005C000F2CF8C171D0611F00CF08C2F9FB7F8940A
:1005D0008092E9002091E80025FD02C09FBFE3CF93
:1005E000282F30E0C21BD30BF701815020F041913E
:1005F0004093F100FACFE20EF31EBB2021F090925F
:10060000E800B12CEBCF8091E80085FDE7CF909218
:10061000E800BB24B394209709F3F3CF5D9884E6F8
:1006200080936601101611063CF081E090E0F6011F
:100630009383828310E000E0C801DF91CF911F9186
:100640000F91FF90EF90DF90CF90BF90AF909F9071
:100650008F90089508952F923F924F925F926F92DC
:100660007F928F929F92AF92BF92CF92DF92EF9242
:10067000FF920F931F93CF93DF93CDB7DEB76597AC
:100680000FB6F894DEBF0FBECDBF0E946C026B01A7
:100690007C0180915401909155012601481A590A14
:1006A0002DEC421620E1520608F4DEC08091AD0127
:1006B0009091AE01A201481B590BCA0157FF03C01C
:1006C000919581959109883C91050CF0C9C0809164
:1006D00052019091530101969093530180935201DE
:1006E000029709F0BDC099E1692E91E0792E01E0F1
:1006F00010E020905001309051013B862A8649E05D
:1007000050E0B301CE0101960E940D0A8B816C81ED
:10071000681708F4682F70E08091AD019091AE01E8
:100720000E94160A9B014091160150911701649F87
:10073000C001659F900D749F900D112464E670E0D8
:100740000E94160A8985A1E0B0E0882311F0A2E09A
:10075000B0E08D81829FA001839F500D11245D87A1
:100760004C878E81829F1001839F300C11243F861D
:100770002E868F81829FA001839F500D1124598B5B
:10078000488B8885829F1001839F300C11243B8AFF
:100790002A8AFD01EE0FFF1FE355FE4F812C912C9D
:1007A00054014A855B85415051095D8B4C8B8C8986
:1007B0009D89A817B90708F040C0880C991CAA1C8D
:1007C000BB1C80819181AC012C843D84421953096A
:1007D00057FF03C05195419551094617570770F4CB
:1007E000428153812E843F844219530957FF03C02D
:1007F00051954195510946175707E0F048895989A5
:10080000841B950B97FF03C09195819591098617DD
:100810009707C8F4828193812A883B8882199309BB
:1008200097FF03C09195819591098617970758F412
:10083000689480F812963496BACF4A855B85483022
:10084000510508F053C00F5F1F4F59E0650E711C32
:100850000830110509F04DCF10925301109252014A
:1008600010925101109250018091500190915101CC
:100870008334910540F01092510110925001109272
:1008800053011092520180915001909151019C01AD
:100890002F5F3F4F3093510120935001880F991FD4
:1008A000FC01E355FE4F51824082C0925401D09228
:1008B0005501E0925601F092570165960FB6F894F3
:1008C000DEBF0FBECDBFDF91CF911F910F91FF9083
:1008D000EF90DF90CF90BF90AF909F908F907F90E0
:1008E0006F905F904F903F902F9008958092930269
:1008F00090929402A0929502B09296022C883D8824
:10090000369427943092AA012092A9013093AC0129
:100910002093AB0110933402009333029DCFFC016E
:1009200001900020E9F73197AF01481B590BBC013A
:1009300083E492E00C94A9028F929F92AF92BF92AF
:100940000F931F93CF93DF93CDB7DEB7A1970FB669
:10095000F894DEBF0FBECDBF19A2423008F44AE0C2
:100960008E010F5D1F4F842E912CB12CA12CA5015F
:1009700094010E942A0AE62FB901CA01EA30F4F470
:10098000E05DD801EE938D01232B242B252B79F7E5
:1009900090E080E0109719F0CD010E948F04A1969D
:1009A0000FB6F894DEBF0FBECDBFDF91CF911F9180
:1009B0000F91BF90AF909F908F900895E95CE1CF29
:1009C0001F920F920FB60F9211248F939F938091D5
:1009D000E1009091E100937F9093E10083FF0FC0CD
:1009E0001092E90091E09093EB001092EC0092E3FA
:1009F0009093ED001092420298E09093F00082FFF5
:100A000022C093E09093E9009091F200992319F0AD
:100A10009AE39093E80090916601992341F09091B8
:100A20006601915090936601911101C05D9A909179
:100A30004102992341F090914102915090934102DB
:100A4000911101C0289A84FF18C08091E2008E7E27
:100A500081608093E2008091E1008F7E8093E100CD
:100A6000809167018E7E8061809367019F918F9155
:100A70000F900FBE0F901F90189580FFF7CF8091B9
:100A8000E2008E7E80618093E2008091E1008E7EA4
:100A90008093E100809167018E7E8160E5CF1F9297
:100AA0000F920FB60F921124CF92DF92EF92FF9226
:100AB0000F931F932F933F934F935F936F937F9366
:100AC0008F939F93AF93BF93EF93FF93CF93DF9356
:100AD000CDB7DEB76C97DEBFCDBF1092E900809135
:100AE000E80083FF25C068E0CE0145960E94DE0144
:100AF00082EF8093E8008D8987FF39C09091E800EC
:100B000090FFFCCF982F907609F034C19E894F89D1
:100B1000588D2F89F88C911131C0803861F5809102
:100B200068018093F1001092F1008EEF8093E8004D
:100B30006C960FB6F894DEBF0FBECDBFDF91CF919C
:100B4000FF91EF91BF91AF919F918F917F916F91A5
:100B50005F914F913F912F911F910F91FF90EF90D7
:100B6000DF90CF900F900FBE0F901F9018959EEFC3
:100B70009093E800C7CF1092F100D5CF913059F48F
:100B80008111D3CF4130510581F6809168018D7F6D
:100B900080936801CACF933049F48111C6CF4130A8
:100BA000510519F6809168018260F2CF953041F4C9
:100BB0008091E80080FFFCCF20682093E300B5CF50
:100BC000963009F0A9C00B8D1C8D22E01092E9002F
:100BD0001092640110926301F2122EC01092620111
:100BE000109261010E94AD011F8299E09983FA82FF
:100BF00091E09E8390EA98879AEF9987209163010C
:100C000030916401275F3F4F3C832B838D8310928B
:100C1000E900109264011092630110936201009345
:100C2000610149E050E0BE016F5F7F4F80E00E94AC
:100C300087010E94AD0179CF109362010093610199
:100C40000E941201DC0112960D911C9101151105F3
:100C500009F451C1D801ED91FC910480F581E02D9A
:100C6000BE016B5E7F4FC8010995009709F03EC138
:100C7000F80100851185EACFF3E0FF120EC08F89DD
:100C8000882309F440C0823061F440E86BE08DE0D5
:100C900091E00E945401811148CF81E28093EB00E2
:100CA00047CF813029F440E868E084E091E0F1CF5B
:100CB000833099F70E941201DC011296ED90FC90AE
:100CC0008E010F5F1F4F6801E114F10479F0D70125
:100CD000ED91FC910680F781E02DB801C7010995DF
:100CE000080F111DF701E084F184EECFD8011C92AA
:100CF000F60101900020E9F73197BF016C197D09D9
:100D000040E0C601C6CF6EEE70E0FB01449150E0BA
:100D100080E80E94870109CF973009F4BECF983050
:100D200021F481E08093F10000CF993009F0FDCEED
:100D3000837009F0B2CFE9E1F1E081E031E096E3C0
:100D40002191222371F08093E9003093EB00DF01C1
:100D500011972C912093EC009093ED008F5F8730DA
:100D600079F78EE78093EA001092EA008F898093EA
:100D70004202DBCE8B8D9C8D1092E90010926401B3
:100D8000109263019093620180936101898D8111BA
:100D900092C08E899D89913A49F4813209F07DCFC4
:100DA00047E050E064E071E080E0B3CF913209F0B9
:100DB00074CF833269F48F89988DB0E0A0E080937E
:100DC000000190930101A0930201B0930301ADCE05
:100DD000803269F48091E80082FFFCCF67E084E014
:100DE00091E00E94DE018BEF8093E8009ECE82327C
:100DF00009F09BCE8F8980930B01EEEFFFE7859181
:100E000094918B3F9C4D51F1E0E0F8E0809104011A
:100E100090910501A0910601B0910701803B94409B
:100E2000A105B105F1F480910B0180FD1AC0EE3FE0
:100E30008AE0F80789F587E797E7918380838091B7
:100E400060008093650188E19BE00FB6F894A89557
:100E5000809360000FBE9093600067CEEEEFFAE0E3
:100E6000D5CF808191818737974709F05ECEA895CD
:100E7000809160008861809360008091650180931B
:100E80006000EE3F2AE0F20789F08091FE0A90911F
:100E9000FF0A9183808349CE8081918187379807AB
:100EA00051F29093FF0A8093FE0AC5CF1092FF0A79
:100EB0001092FE0A3ACE0E941201DC0112960D91A8
:100EC0001C910115110509F4E8CED801ED91FC91B2
:100ED0000190F081E02DBE016B5E7F4FC801099546
:100EE000811123CEF80100851185EBCF1816190664
:100EF0000CF41BCED2CEF1E0FF12BECE62EF70E05A
:100F000004CF1F920F920FB60F9211242F933F938D
:100F10008F939F93AF93BF938091590190915A0102
:100F2000A0915B01B0915C013091580126E0230F44
:100F30002D3758F50296A11DB11D209358018093BD
:100F4000590190935A01A0935B01B0935C01809189
:100F50005D0190915E01A0915F01B09160010196E9
:100F6000A11DB11D80935D0190935E01A0935F016F
:100F7000B0936001BF91AF919F918F913F912F915D
:100F80000F900FBE0F901F90189529E8230F03961E
:100F9000A11DB11DD2CF1F920F920FB60F92112437
:100FA0002F933F934F935F936F937F938F939F9371
:100FB000AF93BF93EF93FF93E0911401F09115016C
:100FC0000995FF91EF91BF91AF919F918F917F9183
:100FD0006F915F914F913F912F910F900FBE0F90A6
:100FE0001F9018951F920F920FB60F9211242F93F6
:100FF0003F934F935F936F937F938F939F93AF93A1
:10100000BF93EF93FF93E0911201F09113010995C3
:10101000FF91EF91BF91AF919F918F917F916F91D0
:101020005F914F913F912F910F900FBE0F901F90A6
:1010300018951F920F920FB60F9211242F933F9382
:101040004F935F936F937F938F939F93AF93BF93D0
:10105000EF93FF93E0911001F09111010995FF9139
:10106000EF91BF91AF919F918F917F916F915F9120
:101070004F913F912F910F900FBE0F901F90189599
:101080001F920F920FB60F9211242F933F934F93FD
:101090005F936F937F938F939F93AF93BF93EF93E0
:1010A000FF93E0910E01F0910F010995FF91EF91EF
:1010B000BF91AF919F918F917F916F915F914F9170
:1010C0003F912F910F900FBE0F901F9018951F9278
:1010D0000F920FB60F9211242F933F934F935F936C
:1010E0006F937F938F939F93AF93BF93EF93FF93F0
:1010F000E0910C01F0910D010995FF91EF91BF91E5
:10110000AF919F918F917F916F915F914F913F919F
:101110002F910F900FBE0F901F9018950F931F9354
:10112000CF93DF93E3E4F2E01382128288EE93E040
:10113000A0E0B0E084839583A683B78383E291E047
:10114000918380830FEF1FEF15870487C7E9D2E0F3
:101150001B830A838AE090E09D838C8349E050E002
:1011600069E171E08DE992E00E940D0A198308831C
:101170008CE390E0909317018093160110929302F4
:10118000109294021092950210929602DF91CF91E4
:101190001F910F910895789484B5826084BD84B5C1
:1011A000816084BD85B5826085BD85B5816085BD62
:1011B00080916E00816080936E001092810080911A
:1011C00081008260809381008091810081608093A2
:1011D00081008091800081608093800080919100E7
:1011E0008260809391008091910081608093910052
:1011F000809190008160809390008091C100846014
:101200008093C1008091C10082608093C100809171
:10121000C10081608093C1008091C3008160809390
:10122000C3008091C00082608093C0008091C200A2
:1012300081608093C20080917A00846080937A00FC
:1012400080917A00826080937A0080917A008E7F0C
:1012500080937A0080917A00806880937A0010925F
:10126000420210926801109267018091D70081605C
:101270008093D70080EA8093D80089B58F7E89BD9E
:1012800089B5826089BD09B400FEFDCF0E9491023C
:101290008091D8008F7C80618093D8008091E0009D
:1012A000807F8093E0008091E1008E7E8093E1005A
:1012B0008DE08093E200559A209A8FEF9FEF9093F4
:1012C000500280934F02109298021092970210924F
:1012D000930210929402109295021092960210922C
:1012E000AA011092A9018BE293E090930D018093E3
:1012F0000C01809169008C7F816080936900E89A7D
:1013000090E3F92E00E010E0809193029091940216
:10131000A0919502B0919602892B8A2B8B2B09F410
:1013200075C080913302909134028091AB0190910D
:10133000AC01C091A901D091AA0180909302909034
:101340009402A0909502B0909602E9E6F1E0DF01E8
:10135000B501A4019D012956314041155105610592
:10136000710561F080E340FD81E390968C93909746
:1013700076956795579547951196ECCF90E080E06C
:10138000AE01421B530B9A01C817D90781F082178F
:10139000930758F0DE01A81BB90BA759BE4F5F9603
:1013A0004C91408301963196EFCFF082FBCFFE0146
:1013B000E759FE4F108281E391E00E948F044AE0DA
:1013C000C501B4010E949C048BE391E00E948F044C
:1013D000BE0190E080E04AE00E949C048EE391E030
:1013E0000E948F0489E691E00E948F048CE491E0D2
:1013F0000E948F048CE491E00E948F04109293026B
:101400001092940210929502109296020115110505
:1014100009F47ACF0E94000077CFFB01DC0102C003
:1014200005900D9241505040D8F70895AA1BBB1B60
:1014300051E107C0AA1FBB1FA617B70710F0A61BD4
:10144000B70B881F991F5A95A9F780959095BC01F5
:10145000CD010895A1E21A2EAA1BBB1BFD010DC0F0
:10146000AA1FBB1FEE1FFF1FA217B307E407F50754
:1014700020F0A21BB30BE40BF50B661F771F881F30
:10148000991F1A9469F760957095809590959B01C6
:10149000AC01BD01CF010895EE0FFF1F0590F4913F
:1014A000E02D0994F894FFCFFFFFFFFF00E100005B
:1014B000000000002A032A032A032A032A033C000F
:1014C00000C1808100000000000000EB01A9020CB7
:1014D000020102520210022E02446563696D616CC2
:1014E0003A2000202800426974292042696E617206
:0814F000793A20000D0A00000A
:1070000055C000006EC000006CC000006AC00000E7
:1070100068C0000066C0000064C0000062C00000DC
:1070200060C000005EC00000FCC400005AC0000048
:1070300058C0000056C0000054C0000052C00000FC
:1070400050C000005DC000004CC000004AC00000FD
:1070500048C0000046C0000044C0000042C000001C
:1070600040C000003EC000003CC000003AC000002C
:1070700038C0000036C0000034C0000032C000003C
:1070800030C000002EC000002CC000002AC000004C
:1070900028C0000026C0000024C0000022C000005C
:1070A00020C000001EC000001CC0000011241FBE34
:1070B000CFEFDAE0DEBFCDBF11E0A0E0B1E0E2E467
:1070C000FFE702C005900D92A83BB107D9F711E088
:1070D000A8EBB1E001C01D92A13DB107E1F74FD38C
:1070E0002EC78ECFF89410926F001092810081E02D
:1070F00085BF15BE47985D9A289A0C9400000895A4
:107100001F920F920FB60F9211242F938F939F937C
:10711000EF93FF9310928500109284008091B80144
:107120009091B901009741F001979093B901809334
:10713000B801892B09F45D9A8091BA019091BB0145
:10714000009741F001979093BB018093BA01892B7E
:1071500009F4289A8091BE019091BF010196909305
:10716000BF018093BE01E0E0F0E0859194918F5FD4
:107170009F4F49F08091BC019091BD010196909381
:10718000BD018093BC01FF91EF919F918F912F9151
:107190000F900FBE0F901F90189584E08093E90028
:1071A0000DC08091E8008B778093E80003C08EB318
:1071B000882351F08091E80082FFF9CF8091E800A8
:1071C00085FFEFCF8091F1000895982F83E08093A1
:1071D000E9008091E80085FD0DC08091E8008E7780
:1071E0008093E80003C08EB3882369F08091E800A3
:1071F00080FFF9CF9093F1005D9884E690E0909342
:10720000B9018093B80108954F925F926F927F9277
:107210008F929F92AF92BF92CF92DF92EF92FF92A6
:107220000F931F93CF93DF9384E08093E9008091C5
:10723000E80082FF57C2289884E690E09093BB0153
:107240008093BA01AADF182F853481F48CEA9DE07F
:107250009093BD018093BC0107B600FCFDCFF99966
:10726000FECF81E180935700E89503C0843519F47F
:1072700094DF8DE00DC28C34E1F38035D1F3843797
:1072800021F484E4A2DF80E003C2813611F489E5B1
:10729000FFC18134B1F481DF182F7FDF90E0880FC8
:1072A000991FAA2797FDA095BA2F312F330F20E001
:1072B000442737FD4095542F822B932BA42BB52BBD
:1072C000B8C1803711F483E5E3C1833549F4C0E0E8
:1072D000D1E089917ADF21E0C730D207D1F7D9C157
:1072E000863521F481E371DF80E3D2C1833731F445
:1072F00087E86BDF85E969DF8EE1CAC18536B9F4BD
:10730000E0E0F0E093E085E090935700E89507B661
:1073100000FCFDCF80935700E89507B600FCFDCF39
:10732000E058FF4FA0E7E030FA0771F7A2CF8237AD
:1073300039F4E1E0F0E089E0809357008491A8C13E
:10734000863439F4E0E0F0E089E0809357008491DE
:107350009FC18E3439F4E3E0F0E089E08093570078
:10736000849196C1813539F4E2E0F0E089E08093C0
:10737000570084918DC1823631F489E526DF80E0A3
:1073800024DF80E885C1823419F0873609F0E5C032
:107390001092BD011092BC0100DF082FFEDEF82E16
:1073A000FCDE682E8554823008F071C1902F80E099
:1073B000CF2DD0E0C82BD92B10926F00173609F0D3
:1073C0004BC081E180935700E895DD24CC24C39421
:1073D0003FC0E090C101F090C2010091C301109143
:1073E000C401B6E46B16D9F4ED2DF0E0EE29FF29C7
:1073F000E4918E2FEADEDD2081F082E090E0A0E0D3
:10740000B0E0E80EF91E0A1F1B1FE092C101F092C6
:10741000C2010093C3011093C401DC2418C0D80139
:10742000C701B695A7959795879573D5CEDE82E06F
:1074300090E0A0E0B0E0E80EF91E0A1F1B1FE092EA
:10744000C101F092C2010093C3011093C4012197BE
:10745000209709F0BECF7DC08090C1019090C201FD
:10746000A090C301B090C40196E4691609F05DC014
:1074700083E0F40180935700E89507B600FCFDCF48
:1074800054C0F6E46F1661F5772031F1E090C10148
:10749000F090C2010091C3011091C4017EDED82E8C
:1074A000CC24852D90E08C299D29F7010C01409278
:1074B0005700E895112482E090E0A0E0B0E0E80EEB
:1074C000F91E0A1F1B1FE092C101F092C201009336
:1074D000C3011093C40102C060DE582E742423C07F
:1074E000E090C101F090C2010091C3011091C4016C
:1074F00016950795F794E79450DE682FC70111D5CC
:107500008091C1019091C201A091C301B091C401C9
:107510000296A11DB11D8093C1019093C201A09359
:10752000C301B093C401219704C055247724442497
:107530004394209709F0A5CF96E4691641F485E0BD
:10754000F40180935700E89507B600FCFDCF8DE06D
:107550003CDE82E080936F009CC0833471F4009124
:10756000C1011091C20119DE90E021E0F8010C0187
:1075700020935700E89511247CCE833619F5E090CE
:10758000C101F090C2010091C3011091C40105DE58
:10759000F701E16090E021E00C0120935700E895AD
:1075A000112482E090E0A0E0B0E0E80EF91E0A1F8E
:1075B0001B1FE092C101F092C2010093C30110931E
:1075C000C40157CE8D3661F4E091C101F091C20142
:1075D00085E080935700E89507B600FCFDCF49CEC3
:1075E000823551F4E091C101F091C20105911491ED
:1075F000812FEBDD802F4CC0843421F5E090C10158
:10760000F090C2010091C3011091C4011695079535
:10761000F794E794C2DD682FC70183D48091C1013C
:107620009091C201A091C301B091C4010296A11D25
:10763000B11D8093C1019093C201A093C301B09387
:10764000C40117CE843609F5E090C101F090C20163
:107650000091C3011091C401D801C701B695A79547
:107660009795879556D4B1DD82E090E0A0E0B0E038
:10767000E80EF91E0A1F1B1FE092C101F092C20121
:107680000093C3011093C40104C08B3111F08FE348
:107690009CDD83E08093E9009091E8008091E80010
:1076A0008E778093E80095FF04C010C08EB38823C6
:1076B000C9F08091E80080FFF9CF8091E8008E77D3
:1076C0008093E80003C08EB3882361F08091E800C6
:1076D00080FFF9CF84E08093E9008091E8008B7708
:1076E0008093E800DF91CF911F910F91FF90EF9071
:1076F000DF90CF90BF90AF909F908F907F906F90D2
:107700005F904F9008959091C901892F8F778132B2
:1077100049F58091CA018032A1F0813219F5913A80
:1077200009F58091E800877F8093E8008CE091E084
:1077300067E070E025D28091E8008B778093E800C5
:107740000895913279F48091E800877F8093E80072
:107750008CE091E067E070E077D28091E8008E776E
:107760008093E800089582E061EC42E0D1D083E0AC
:1077700061E842E1CDD084E060E842E1C9C01F93F6
:10778000209100081092000844B714BE88E10FB69B
:10779000F89480936000109260000FBE80E8E0E0F3
:1077A000F0E00FB6F89480936100E09361000FBEA3
:1077B00031E035BF92E095BF3F9A209A559A809369
:1077C00061001092610047985D9A289A1092890092
:1077D0008AEF8093880090936F0083E0809381000C
:1077E000859194918F5F9F4F11F03093C001942F3A
:1077F00041FF19C0809109012817A9F08093000862
:10780000789480911301882339F08091BE01909182
:10781000BF0188579140C8F310920008F89481E0A6
:10782000809313010CC090FF04C08091C001882395
:1078300051F493FF09C080910901281729F0809124
:10784000C001882309F04EDCD4D078941092BD0199
:107850001092BC011EEF20C0D7DC49D38091BC013F
:107860009091BD01815A9F4010F0109213018091B8
:10787000C5019091C60101969093C6018093C50100
:10788000292F97FF03C0512F591B252F220F28178F
:1078900010F4479801C0479A809113018823E1F6BC
:1078A0008091E00081608093E0001CDC80E090E04B
:1078B0001F910895FA01923049F0933061F09130B0
:1078C000F9F484E191E022E130E01EC086E291E02B
:1078D0002EE330E019C0882329F484E691E024E007
:1078E00030E012C0813029F488E691E022E230E0F5
:1078F0000BC0823029F48CE891E02AE230E004C029
:1079000080E090E020E030E091838083C901089519
:107910008093E9008091EB0081608093EB001092EE
:10792000ED006093EC004093ED008091EE00881F25
:107930008827881F08958091C90188238CF403C08B
:107940008EB38823B1F08091E80082FFF9CF809157
:10795000E8008B778093E80008958EB3882349F080
:107960008091E80080FFF9CF8091E8008E778093C6
:10797000E8000895EF92FF920F931F9345D04CD0EB
:1079800008ED10E0F80180818F7780838081806826
:10799000808380818F7D808319BC1EBA1092C701BD
:1079A00080EEE82EF12CF70180818B7F8083F80137
:1079B00080818160808380E060E042E0A9DFE1EEC9
:1079C000F0E080818E7F8083E2EEF0E08081816054
:1079D0008083808188608083F70180818E7F8083AF
:1079E000F8018081806180831F910F91FF90EF905B
:1079F0000895E7EDF0E08081816080838AE482BFB2
:107A000081E08093C801B6CFE8EDF0E080818E7F01
:107A100080831092E20008951092DA001092E10043
:107A200008951F920F920FB60F9211242F933F9338
:107A30004F935F936F937F938F939F93AF93BF9376
:107A4000EF93FF938091DA0080FF1AC08091D800F5
:107A500080FF16C08091DA008E7F8093DA008091DB
:107A6000D90080FF0AC019BC82E089BD09B400FEBC
:107A7000FDCF81E08EBB3AD203C019BC1EBA36D20C
:107A80008091E10080FF17C08091E20080FF13C069
:107A90008091E2008E7F8093E2008091E20080611D
:107AA0008093E2008091D80080628093D80019BC56
:107AB00085E08EBB1BD28091E10084FF2BC08091BA
:107AC000E20084FF27C019BC82E089BD09B400FE32
:107AD000FDCF8091D8008F7D8093D8008091E10008
:107AE0008F7E8093E1008091E2008F7E8093E200A0
:107AF0008091E20081608093E2008091C701882339
:107B000031F48091E30087FD02C081E001C084E090
:107B10008EBBECD18091E10083FF21C08091E20017
:107B200083FF1DC08091E100877F8093E10082E0A8
:107B30008EBB1092C7018091E1008E7F8093E1009F
:107B40008091E2008E7F8093E2008091E20080616C
:107B50008093E20080E060E042E0DADEC7D1FF918E
:107B6000EF91BF91AF919F918F917F916F915F91B5
:107B70004F913F912F910F900FBE0F901F9018952E
:107B80009C014091CF015091D0014617570718F43E
:107B9000F90190E044C06115710511F0AB01F8CF17
:107BA0008091E8008E778093E80040E050E0F0CFCD
:107BB0008EB3882309F444C0853009F443C0809112
:107BC000E80083FF02C081E008958091E80082FD13
:107BD00031C08091E80080FF22C08091F300909135
:107BE000F200782F60E0292F30E0262B372B07C0DA
:107BF00081918093F100415050402F5F3F4F4115DC
:107C0000510519F02830310598F390E028303105FE
:107C100009F491E08091E8008E778093E8004115A7
:107C2000510531F6992321F605C08EB3882341F022
:107C3000853041F08091E80082FFF7CF80E0089521
:107C400082E0089583E008959C016115710529F48F
:107C50008091E8008B778093E800F90126C08EB30D
:107C6000882391F1853091F18091E80083FF02C073
:107C700081E008958091E80082FFF1CF06C08091F5
:107C8000F10081936150704059F02091F300809190
:107C9000F200322F20E090E0822B932B892B79F792
:107CA0008091E8008B778093E80061157105B9F643
:107CB00005C08EB3882341F0853041F08091E80003
:107CC00080FFF7CF80E0089582E0089583E0089573
:107CD0000F931F93DF93CF9300D0CDB7DEB7E9ECBE
:107CE000F1E08091F100819381E0E13DF807C9F76F
:107CF0000ADD8091E80083FFE4C08091C901909182
:107D0000CA01953009F46DC0963040F4913081F18C
:107D1000913070F0933009F0D4C02AC0983009F443
:107D2000A3C0993009F4B2C0963009F0CAC07CC033
:107D3000803809F4C6C0823809F0C3C08091CD01F3
:107D400087708093E9008091EB001092E900209108
:107D5000E800277F2093E80090E025E0969587953E
:107D60002A95E1F781708093F1001092F10087C0AD
:107D7000882319F0823009F0A4C08F71823009F095
:107D8000A0C08091CB01882331F52091CD012770CF
:107D900009F497C02093E9008091EB0080FF1BC09D
:107DA000933021F48091EB00806213C08091EB004E
:107DB00080618093EB0081E090E002C0880F991F02
:107DC0002A95E2F78093EA001092EA008091EB0096
:107DD00088608093EB001092E9008091E800877F33
:107DE00051C0882309F06DC01091CB011F770FB7E8
:107DF000F8948091E800877F8093E8009CDD809173
:107E0000E80080FFFCCF8091E3008078812B809395
:107E1000E30080688093E300112311F482E001C045
:107E200083E08EBB0FBF4DC08058823008F049C040
:107E30008091CB019091CC016091CD01AE014F5F5B
:107E40005F4F38DDBC01009709F43BC08091E8002A
:107E5000877F8093E80089819A8192DE8091E80093
:107E60008B778093E8002DC0803859F58091E80029
:107E7000877F8093E8008091C7018093F100809113
:107E8000E8008E778093E80056DD1BC08823C9F494
:107E90009091CB019230A8F48091E800877F809385
:107EA000E8009093C70147DD8091C701882331F432
:107EB0008091E30087FD02C081E001C084E08EBBB9
:107EC00052DC8091E80083FF0AC08091EB00806261
:107ED0008093EB008091E800877F8093E8000F900B
:107EE0000F90CF91DF911F910F91089508951F93E7
:107EF0008EB3882361F01091E9001092E90080911F
:107F0000E80083FF01C0E4DE17701093E9001F91C1
:107F10000895F999FECF92BD81BDF89A992780B551
:107F20000895262FF999FECF1FBA92BD81BD20BDBD
:107F30000FB6F894FA9AF99A0FBE01960895F8943C
:107F4000FFCF4341544552494E410077000800009D
:107F500000000000080112011001020000084F1B80
:107F6000079201000201000109023E0002010080A7
:107F7000320904000001020201000524001001047E
:107F80002402040524060001070582030800FF09F6
:107F9000040100020A0000000705040210000107A6
:107FA0000583021000010403090422034C00690048
:107FB0006C007900500061006400550053004200DD
:107FC00020002000200020002000200000002A03C4
:107FD00053007000610072006B00460075006E0077
:107FE000200045006C0065006300740072006F00A3
:0A7FF0006E006900630073000000DA
:00000001FF
