:100000000C94AD000C9467080C9440080C941908EB
:100010000C94F2070C94D5000C94D5000C94CB07EB
:100020000C94D5000C94D5000C94E0040C944F056E
:100030000C94D5000C94D5000C94D5000C94D500EC
:100040000C94D5000C94D5000C94D5000C94D500DC
:100050000C94D5000C94D5000C94D5000C94810719
:100060000C94D5000C94D5000C94D5000C94D500BC
:100070000C94D5000C94D5000C94D5000C94D500AC
:100080000C94D5000C94D5000C94D5000C94D5009C
:100090000C94D5000C94D5000C94D5000C94D5008C
:1000A0000C94D5000C94D5000C94D500080B0002DC
:1000B0000202000009040000010202000005240001
:1000C0001001052401010104240206052406000193
:1000D0000705810310004009040100020A00000026
:1000E00007050202400000070583024000000403E8
:1000F000090412010002EF0201404F1B08920001A7
:1001000001020301537061726B46756E004C696C9D
:100110007950616420555342005E01011F010303C1
:1001200001008A02010A010202010064001E470464
:100130000B0906007C0101060103030100F401061E
:100140000E0102020100C201170101020201019623
:1001500000023E01060601008E0811241FBECFEFEB
:10016000DAE0DEBFCDBF11E0A0E0B1E0ECE4F4E105
:1001700002C005900D92AA35B107D9F722E0AAE591
:10018000B1E001C01D92A037B207E1F710E0CDEA5F
:10019000D0E004C02197FE010E941E0ACC3AD1078C
:1001A000C9F70E94CB080C94240A0C940000FC01AF
:1001B00080910C02882311F13FB7F89482E080937C
:1001C000E9002091F200822F90E01816190614F42D
:1001D00081E090E0882339F0289844E640930B02B0
:1001E0004091F1004083222339F02091F200211147
:1001F00003C02BE62093E8003FBF08958FEF9FEFE9
:1002000008952FB7F89483E08093E9009091E80077
:10021000892F807295FF04C09091F20080E4891BC1
:100220002FBF08958091030281110DC082E0809359
:10023000FF0184E0809300021092020210920102FA
:1002400081E0809303028FEF91E008954091F301E4
:100250005091F4012091F1013091F20142175307BE
:10026000B4F49091E8009570E1F39091E80092FD6C
:1002700019C08093F1008091F3019091F4010196EF
:100280008F739927892B19F48EEF8093E800809162
:10029000F3019091F40101969093F4018093F3019E
:1002A00081E0089580E00895EF92FF920F931F93ED
:1002B000CF93DF93F82E192FE62E042F81E0860FBF
:1002C000880F0E94260183E00E942601CF2DD12FA6
:1002D000EC0EFD2EF11CCE15DF05B9F007FF13C0A3
:1002E000FE0184910E942601182F80E00E942601C1
:1002F000812321968111EFCFDF91CF911F910F9133
:10030000FF90EF9008958881EDCF81E0F5CFDF92E7
:10031000EF92FF920F931F93CF93DF93D82E8A0112
:10032000EB017B01E40EF51ECE15DF0559F0D7FE7B
:1003300012C0FE0184910E94260121968111F4CF02
:100340000FEF1FEFC801DF91CF911F910F91FF9029
:10035000EF90DF9008958881EECF0F931F93CF9396
:10036000DF931F92CDB7DEB782E0898342E450E08D
:100370006CEA70E080E80E9487010E941201DC01B3
:1003800012960D911C910115110589F0D801ED917E
:10039000FC910280F381E02DBE016F5F7F4FC801A9
:1003A000099597FD04C0F80100851185ECCF89817E
:1003B0000F90DF91CF911F910F910895615030F010
:1003C0002091F100FC0120830196F8CF289884E663
:1003D00080930B020895CF93DF931F92CDB7DEB7C2
:1003E0006983DC01ED91FC910280F381E02D41E015
:1003F00050E0BE016F5F7F4F09950F90DF91CF9165
:10040000089583E08093E9008091F200882319F039
:100410008AE38093E80008950E94010190E0089526
:10042000CF93DF931F92CDB7DEB7FC01848595850E
:1004300097FD08C02FEF3FEF358724870F90DF919E
:10044000CF910895CE0101960E94D700019719F42B
:10045000898190E0F3CF8FEF9FEFF0CF0F931F9341
:10046000CF93DF931F92CDB7DEB78C01FC0184855B
:10047000958597FF0BC0CE0101960E94D70001978A
:1004800071F4898190E0F80195878487F80184856B
:1004900095850F90DF91CF911F910F9108958FEF68
:1004A0009FEFF1CFFC018485958597FD0BC09FB729
:1004B000F89482E08093E9008091F2009FBF90E081
:1004C000019608959FB7F89482E08093E9008091A7
:1004D000F2009FBF90E008953FB7F8948091ED013E
:1004E0009091EE01A091EF01B091F00126B5A89B8B
:1004F00005C02F3F19F00196A11DB11D3FBFBA2FB6
:10050000A92F982F8827BC01CD01620F711D811D75
:10051000911D43E0660F771F881F991F4A95D1F7F9
:100520000895CF92DF92EF92FF920E946C026B01CE
:100530007C010E946C026C197D098E099F09683E3E
:10054000734081059105A8F3FF90EF90DF90CF9065
:1005500008958F929F92AF92BF92CF92DF92EF92C7
:10056000FF920F931F93CF93DF936C017B018A015E
:1005700080910B01882309F458C080910C028823D4
:1005800009F453C08091F70180FF05C08091E0001D
:1005900082608093E000E801B12C8AEFA82E93E0FE
:1005A000892E2AE3922E209711F4BB20B9F10E94E4
:1005B0000101811106C0AA94AA20B9F10E949102FA
:1005C000F2CF8C171D0611F00CF08C2F9FB7F8940A
:1005D0008092E9002091E80025FD02C09FBFE3CF93
:1005E000282F30E0C21BD30BF701815020F041913E
:1005F0004093F100FACFE20EF31EBB2021F090925F
:10060000E800B12CEBCF8091E80085FDE7CF909218
:10061000E800BB24B394209709F3F3CF5D9884E6F8
:100620008093F601101611063CF081E090E0F6018F
:100630009383828310E000E0C801DF91CF911F9186
:100640000F91FF90EF90DF90CF90BF90AF909F9071
:100650008F90089508952F923F924F925F926F92DC
:100660007F928F929F92AF92BF92CF92DF92EF9242
:10067000FF920F931F93CF93DF93CDB7DEB76597AC
:100680000FB6F894DEBF0FBECDBF0E946C026B01A7
:100690007C018091E4019091E5012601481A590AF4
:1006A0002DEC421620E1520608F4DEC080915E0176
:1006B00090915F01A201481B590BCA0157FF03C06B
:1006C000919581959109883C91050CF0C9C0809164
:1006D0005C0190915D01019690935D0180935C01B6
:1006E000029709F0BDC099E1692E91E0792E01E0F1
:1006F00010E020905A0130905B013B862A8649E049
:1007000050E0B301CE0101960E94DF098B816C811C
:10071000681708F4682F70E080915E0190915F0186
:100720000E94E8099B014091160150911701649FB6
:10073000C001659F900D749F900D112464E670E0D8
:100740000E94E8098985A1E0B0E0882311F0A2E0C9
:10075000B0E08D81829FA001839F500D11245D87A1
:100760004C878E81829F1001839F300C11243F861D
:100770002E868F81829FA001839F500D1124598B5B
:10078000488B8885829F1001839F300C11243B8AFF
:100790002A8AFD01EE0FFF1FE25AFE4F812C912C99
:1007A00054014A855B85415051095D8B4C8B8C8986
:1007B0009D89A817B90708F040C0880C991CAA1C8D
:1007C000BB1C80819181AC012C843D84421953096A
:1007D00057FF03C05195419551094617570770F4CB
:1007E000428153812E843F844219530957FF03C02D
:1007F00051954195510946175707E0F048895989A5
:10080000841B950B97FF03C09195819591098617DD
:100810009707C8F4828193812A883B8882199309BB
:1008200097FF03C09195819591098617970758F412
:10083000689480F812963496BACF4A855B85483022
:10084000510508F053C00F5F1F4F59E0650E711C32
:100850000830110509F04DCF10925D0110925C0136
:1008600010925B0110925A0180915A0190915B01A4
:100870008334910540F010925B0110925A0110925E
:100880005D0110925C0180915A0190915B019C0185
:100890002F5F3F4F30935B0120935A01880F991FC0
:1008A000FC01E25AFE4F51824082C092E401D09294
:1008B000E501E092E601F092E70165960FB6F89443
:1008C000DEBF0FBECDBFDF91CF911F910F91FF9083
:1008D000EF90DF90CF90BF90AF909F908F907F90E0
:1008E0006F905F904F903F902F90089580925D029F
:1008F00090925E02A0925F02B09260022C883D88C6
:10090000369427943092FE012092FD013093FC0131
:100910002093FB011093FA010093F9019DCFFC0194
:1009200001900020E9F73197AF01481B590BBC013A
:100930008DE092E00C94A9028F929F92AF92BF92A9
:100940000F931F93CF93DF93CDB7DEB7A1970FB669
:10095000F894DEBF0FBECDBF19A2423008F44AE0C2
:100960008E010F5D1F4F842E912CB12CA12CA5015F
:1009700094010E94FC09E62FB901CA01EA30F4F49F
:10098000E05DD801EE938D01232B242B252B79F7E5
:1009900090E080E0109719F0CD010E948F04A1969D
:1009A0000FB6F894DEBF0FBECDBFDF91CF911F9180
:1009B0000F91BF90AF909F908F900895E95CE1CF29
:1009C0001F920F920FB60F9211248F939F938091D5
:1009D000E1009091E100937F9093E10083FF0FC0CD
:1009E0001092E90091E09093EB001092EC0092E3FA
:1009F0009093ED0010920C0298E09093F00082FF2B
:100A000022C093E09093E9009091F200992319F0AD
:100A10009AE39093E8009091F601992341F0909128
:100A2000F60191509093F601911101C05D9A909159
:100A30000B02992341F090910B02915090930B027D
:100A4000911101C0289A84FF18C08091E2008E7E27
:100A500081608093E2008091E1008F7E8093E100CD
:100A60008091F7018E7E80618093F7019F918F9135
:100A70000F900FBE0F901F90189580FFF7CF8091B9
:100A8000E2008E7E80618093E2008091E1008E7EA4
:100A90008093E1008091F7018E7E8160E5CF1F9207
:100AA0000F920FB60F921124CF92DF92EF92FF9226
:100AB0000F931F932F933F934F935F936F937F9366
:100AC0008F939F93AF93BF93EF93FF93CF93DF9356
:100AD000CDB7DEB76C97DEBFCDBF1092E900809135
:100AE000E80083FF25C068E0CE0145960E94DE0144
:100AF00082EF8093E8008D8987FF39C09091E800EC
:100B000090FFFCCF982F907609F034C19E894F89D1
:100B1000588D2F89F88C911131C0803861F5809102
:100B2000F8018093F1001092F1008EEF8093E800BD
:100B30006C960FB6F894DEBF0FBECDBFDF91CF919C
:100B4000FF91EF91BF91AF919F918F917F916F91A5
:100B50005F914F913F912F911F910F91FF90EF90D7
:100B6000DF90CF900F900FBE0F901F9018959EEFC3
:100B70009093E800C7CF1092F100D5CF913059F48F
:100B80008111D3CF4130510581F68091F8018D7FDD
:100B90008093F801CACF933049F48111C6CF413018
:100BA000510519F68091F8018260F2CF953041F439
:100BB0008091E80080FFFCCF20682093E300B5CF50
:100BC000963009F0A9C00B8D1C8D22E01092E9002F
:100BD0001092F4011092F301F2122EC01092F20161
:100BE0001092F1010E94AD011F8299E09983FA826F
:100BF00091E09E8390EA98879AEF99872091F3017C
:100C00003091F401275F3F4F3C832B838D831092FB
:100C1000E9001092F4011092F3011093F201009395
:100C2000F10149E050E0BE016F5F7F4F80E00E941C
:100C300087010E94AD0179CF1093F2010093F10179
:100C40000E941201DC0112960D911C9101151105F3
:100C500009F451C1D801ED91FC910480F581E02D9A
:100C6000BE016B5E7F4FC8010995009709F03EC138
:100C7000F80100851185EACFF3E0FF120EC08F89DD
:100C8000882309F440C0823061F440E86BE08DE0D5
:100C900091E00E945401811148CF81E28093EB00E2
:100CA00047CF813029F440E868E084E091E0F1CF5B
:100CB000833099F70E941201DC011296ED90FC90AE
:100CC0008E010F5F1F4F6801E114F10479F0D70125
:100CD000ED91FC910680F781E02DB801C7010995DF
:100CE000080F111DF701E084F184EECFD8011C92AA
:100CF000F60101900020E9F73197BF016C197D09D9
:100D000040E0C601C6CF6EEE70E0FB01449150E0BA
:100D100080E80E94870109CF973009F4BECF983050
:100D200021F481E08093F10000CF993009F0FDCEED
:100D3000837009F0B2CFE9E1F1E081E031E096E3C0
:100D40002191222371F08093E9003093EB00DF01C1
:100D500011972C912093EC009093ED008F5F8730DA
:100D600079F78EE78093EA001092EA008F898093EA
:100D70000C02DBCE8B8D9C8D1092E9001092F40159
:100D80001092F3019093F2018093F101898D81110A
:100D900092C08E899D89913A49F4813209F07DCFC4
:100DA00047E050E064E071E080E0B3CF913209F0B9
:100DB00074CF833269F48F89988DB0E0A0E080937E
:100DC000000190930101A0930201B0930301ADCE05
:100DD000803269F48091E80082FFFCCF67E084E014
:100DE00091E00E94DE018BEF8093E8009ECE82327C
:100DF00009F09BCE8F8980930B01EEEFFFE7859181
:100E000094918B3F9C4D51F1E0E0F8E0809104011A
:100E100090910501A0910601B0910701803B94409B
:100E2000A105B105F1F480910B0180FD1AC0EE3FE0
:100E30008AE0F80789F587E797E7918380838091B7
:100E400060008093F50188E19BE00FB6F894A895C7
:100E5000809360000FBE9093600067CEEEEFFAE0E3
:100E6000D5CF808191818737974709F05ECEA895CD
:100E7000809160008861809360008091F50180938B
:100E80006000EE3F2AE0F20789F08091FE0A90911F
:100E9000FF0A9183808349CE8081918187379807AB
:100EA00051F29093FF0A8093FE0AC5CF1092FF0A79
:100EB0001092FE0A3ACE0E941201DC0112960D91A8
:100EC0001C910115110509F4E8CED801ED91FC91B2
:100ED0000190F081E02DBE016B5E7F4FC801099546
:100EE000811123CEF80100851185EBCF1816190664
:100EF0000CF41BCED2CEF1E0FF12BECE62EF70E05A
:100F000004CF1F920F920FB60F9211242F933F938D
:100F10008F939F93AF93BF938091E9019091EA01E2
:100F2000A091EB01B091EC013091E80126E0230F94
:100F30002D3758F50296A11DB11D2093E80180932D
:100F4000E9019093EA01A093EB01B093EC01809149
:100F5000ED019091EE01A091EF01B091F0010196A9
:100F6000A11DB11D8093ED019093EE01A093EF01BF
:100F7000B093F001BF91AF919F918F913F912F91CD
:100F80000F900FBE0F901F90189529E8230F03961E
:100F9000A11DB11DD2CF1F920F920FB60F92112437
:100FA0002F933F934F935F936F937F938F939F9371
:100FB000AF93BF93EF93FF93E0911401F09115016C
:100FC0000995FF91EF91BF91AF919F918F917F9183
:100FD0006F915F914F913F912F910F900FBE0F90A6
:100FE0001F9018951F920F920FB60F9211242F93F6
:100FF0003F934F935F936F937F938F939F93AF93A1
:10100000BF93EF93FF93E0911201F09113010995C3
:10101000FF91EF91BF91AF919F918F917F916F91D0
:101020005F914F913F912F910F900FBE0F901F90A6
:1010300018951F920F920FB60F9211242F933F9382
:101040004F935F936F937F938F939F93AF93BF93D0
:10105000EF93FF93E0911001F09111010995FF9139
:10106000EF91BF91AF919F918F917F916F915F9120
:101070004F913F912F910F900FBE0F901F90189599
:101080001F920F920FB60F9211242F933F934F93FD
:101090005F936F937F938F939F93AF93BF93EF93E0
:1010A000FF93E0910E01F0910F010995FF91EF91EF
:1010B000BF91AF919F918F917F916F915F914F9170
:1010C0003F912F910F900FBE0F901F9018951F9278
:1010D0000F920FB60F9211242F933F934F935F936C
:1010E0006F937F938F939F93AF93BF93EF93FF93F0
:1010F000E0910C01F0910D010995FF91EF91BF91E5
:10110000AF919F918F917F916F915F914F913F919F
:101110002F910F900FBE0F901F9018950F931F9354
:10112000CF93DF93EDE0F2E01382128288EE93E03A
:10113000A0E0B0E084839583A683B78383E291E047
:10114000918380830FEF1FEF15870487C1E6D2E0FC
:101150001B830A838AE090E09D838C8349E050E002
:1011600069E171E087E692E00E94DF091983088354
:101170008CE390E0909317018093160110925D022A
:1011800010925E0210925F0210926002DF91CF9186
:101190001F910F910895789484B5826084BD84B5C1
:1011A000816084BD85B5826085BD85B5816085BD62
:1011B00080916E00816080936E001092810080911A
:1011C00081008260809381008091810081608093A2
:1011D00081008091800081608093800080919100E7
:1011E0008260809391008091910081608093910052
:1011F000809190008160809390008091C100846014
:101200008093C1008091C10082608093C100809171
:10121000C10081608093C1008091C3008160809390
:10122000C3008091C00082608093C0008091C200A2
:1012300081608093C20080917A00846080937A00FC
:1012400080917A00826080937A0080917A008E7F0C
:1012500080937A0080917A00806880937A0010925F
:101260000C021092F8011092F7018091D700816072
:101270008093D70080EA8093D80089B58F7E89BD9E
:1012800089B5826089BD09B400FEFDCF0E9491023C
:101290008091D8008F7C80618093D8008091E0009D
:1012A000807F8093E0008091E1008E7E8093E1005A
:1012B0008DE08093E200559A209A8FEF9FEF9093F4
:1012C0001A02809319021092620210926102109227
:1012D0005D0210925E0210925F0210926002109204
:1012E000FE011092FD018BE293E090930D0180933B
:1012F0000C01809169008C7F816080936900E89A7D
:10130000C0E0D0E080915D0290915E02A0915F020A
:10131000B0916002892B8A2B8B2B09F44AC081E3A0
:1013200091E00E948F0460915D0270915E02809155
:101330005F02909160024AE00E949C048BE391E07E
:101340000E948F046091FD017091FE0190E080E0A9
:101350004AE00E949C048FE391E00E948F0484E4A1
:1013600091E00E948F046091FB017091FC0190E07C
:1013700080E04AE00E949C048CE491E00E948F048B
:101380008FE491E00E948F046091F9017091FA015D
:1013900090E080E04AE00E949C048CE491E00E948E
:1013A0008F0410925D0210925E0210925F02109202
:1013B0006002209709F4A6CF0E940000A3CFFB0192
:1013C000DC0102C005900D9241505040D8F70895BD
:1013D000AA1BBB1B51E107C0AA1FBB1FA617B7075B
:1013E00010F0A61BB70B881F991F5A95A9F7809577
:1013F0009095BC01CD010895A1E21A2EAA1BBB1B3A
:10140000FD010DC0AA1FBB1FEE1FFF1FA217B307D0
:10141000E407F50720F0A21BB30BE40BF50B661FE6
:10142000771F881F991F1A9469F7609570958095AA
:1014300090959B01AC01BD01CF010895EE0FFF1FF8
:0C1440000590F491E02D0994F894FFCF82
:10144C00FFFFFFFF00E10000000000002A032A0359
:10145C002A032A032A033C0000C1808100000000FB
:10146C00000000EB01A9020C020102520210022E34
:10147C000252656365697665642000202F20006246
:10148C006974200044656C61793A20000D0A0050A3
:0A149C00726F746F636F6C3A2000EA
:00000001FF
