:100000000C94BB000C94E3000C94E3000C94E3000C
:100010000C94E3000C94E3000C94E3000C94E300D4
:100020000C94E3000C94E3000C9476040C94E50427
:100030000C94E3000C94E3000C94E3000C94E300B4
:100040000C94E3000C94E3000C94E3000C94E300A4
:100050000C94E3000C94E3000C94E3000C94170759
:100060000C94E3000C94E3000C94E3000C94E30084
:100070000C94E3000C94E3000C94E3000C94E30074
:100080000C9461070C94E3000C94E3000C94E300DF
:100090000C94E3000C94E3000C94E3000C94E30054
:1000A0000C94E3000C94E3000C94E300080B0002B2
:1000B0000202000009040000010202000005240001
:1000C0001001052401010104240206052406000193
:1000D0000705810310004009040100020A00000026
:1000E00007050202400000070583024000000403E8
:1000F000090412010002EF0201404F1B08920001A7
:1001000001020301537061726B46756E004C696C9D
:1001100079506164205553420000000000240027FC
:10012000002A002D00300004080201104080401019
:10013000204080408008020401804020100201100D
:1001400080102040402000000000250028002B00E7
:100150002E00310004040404040304050202020218
:100160000403020202020606060606060404020250
:1001700002040403BC0711241FBECFEFDAE0DEBF88
:10018000CDBF11E0A0E0B1E0E4E7F1E102C00590ED
:100190000D92A632B107D9F721E0A6E2B1E001C085
:1001A0001D92A03BB207E1F710E0CBEBD0E004C01A
:1001B0002197FE010E94A308CA3BD107C9F70E94FC
:1001C000D1070C94B8080C9400001F93CF93DF93D1
:1001D0009B01AC0180910C018B3031F08F3F51F0CD
:1001E000DF91CF911F910895E3E7F1E0C491C7FD3E
:1001F000F7CF47C08BE080930C01E3E7F1E0C491B7
:10020000CF3F71F3C13009F47FC018F1C33009F456
:1002100099C0C43061F71092C0001092C100809163
:10022000C10088608093C1008091C100816080938B
:10023000C100EFE5F1E0E491F0E0EE0FFF1FEA5BB3
:10024000FE4F85919491E2E3F1E0E491E0939A010D
:1002500018C014BC15BC84B5826084BD85B58160AE
:1002600085BDEFE5F1E0E491F0E0EE0FFF1FEA5B02
:10027000FE4F85919491E2E3F1E0E491E0939F01D8
:10028000C0E0E2E3F1E06491EFE5F1E084918823DE
:1002900099F090E0880F991FFC01E75EFE4FA59151
:1002A000B491FC01EA5BFE4F859194918FB7F8946D
:1002B000EC91E62BEC938FBFCC2309F465C0C230E0
:1002C00009F067C0D0E210E0A0E3B5E70E9498080B
:1002D00028EE33E040E050E00E947608C13009F497
:1002E00075C00CF09BC0C1117BCFD7BD2093AC0172
:1002F0003093AD014093AE015093AF0180916E00F9
:10030000826080936E006CCF10928000109281000A
:10031000809181008860809381008091810081605C
:1003200080938100EFE5F1E0E491F0E0EE0FFF1F34
:10033000EA5BFE4F85919491E2E3F1E0E491E09372
:100340009E019FCF10929000109291008091910099
:1003500088608093910080919100816080939100EA
:10036000EFE5F1E0E491F0E0EE0FFF1FEA5BFE4FF6
:100370008591949190939D0180939C01E2E3F1E03B
:10038000E491E0939B017DCF85B5887F826085BD38
:1003900099CFC13049F480918100887F816080933A
:1003A0008100D9E011E090CFC33039F48091910001
:1003B000887F816080939100F4CFC43091F7809161
:1003C000C100887F81608093C100EBCF8D2F912F7A
:1003D00090938900809388002093A8013093A9010D
:1003E0004093AA015093AB0180916F00826080938B
:1003F0006F00F6CE8D2F912F9093990080939800E7
:100400002093A4013093A5014093A6015093A70126
:1004100080917100826080937100E2CEC33051F30D
:10042000C43009F0DDCED093CF002093A0013093EB
:10043000A1014093A2015093A301809172008064B6
:1004400080937200CDCEFC0180919901882311F137
:100450003FB7F89482E08093E9002091F200822F68
:1004600090E01816190614F481E090E0882339F022
:10047000289844E6409398014091F100408322235C
:1004800039F02091F200211103C02BE62093E800FF
:100490003FBF08958FEF9FEF08952FB7F89483E043
:1004A0008093E9009091E800892F807295FF04C045
:1004B0009091F20080E4891B2FBF089580919001F4
:1004C00081110DC082E080938C0184E080938D01C6
:1004D00010928F0110928E0181E0809390018CE840
:1004E00091E00895CF93DF931F92CDB7DEB7698374
:1004F000DC01ED91FC910280F381E02D41E050E0C0
:10050000BE016F5F7F4F09950F90DF91CF910895E6
:1005100083E08093E9008091F200882319F08AE358
:100520008093E80008950E944D0290E00895CF93D3
:10053000DF931F92CDB7DEB7FC018485958597FDCB
:1005400008C02FEF3FEF358724870F90DF91CF91C1
:100550000895CE0101960E942302019719F4898122
:1005600090E0F3CF8FEF9FEFF0CF0F931F93CF93D8
:10057000DF931F92CDB7DEB78C01FC018485958592
:1005800097FF0BC0CE0101960E942302019771F4E0
:10059000898190E0F80195878487F80184859585A5
:1005A0000F90DF91CF911F910F9108958FEF9FEFE3
:1005B000F1CFFC018485958597FD0BC09FB7F8941A
:1005C00082E08093E9008091F2009FBF90E0019665
:1005D00008959FB7F89482E08093E9008091F2003B
:1005E0009FBF90E0089540913601509137012091CE
:1005F00034013091350142175307B4F49091E8006B
:100600009570E1F39091E80092FD19C08093F1009C
:10061000809136019091370101968F739927892B2C
:1006200019F48EEF8093E8008091360190913701A4
:100630000196909337018093360181E0089580E020
:100640000895EF92FF920F931F93CF93DF93F82EAD
:10065000192FE62E042F81E0860F880F0E94F302E7
:1006600083E00E94F302CF2DD12FEC0EFD2EF11C62
:10067000CE15DF05B9F007FF13C0FE0184910E947B
:10068000F302182F80E00E94F3028123219681114A
:10069000EFCFDF91CF911F910F91FF90EF900895D1
:1006A0008881EDCF81E0F5CFDF92EF92FF920F933B
:1006B0001F93CF93DF93D82E8A01EB017B01E40EC9
:1006C000F51ECE15DF0559F0D7FE12C0FE0184914C
:1006D0000E94F30221968111F4CF0FEF1FEFC801A2
:1006E000DF91CF911F910F91FF90EF90DF900895D0
:1006F0008881EECF0F931F93CF93DF931F92CDB7D7
:10070000DEB782E0898342E450E06CEA70E080E882
:100710000E9454030E945E02DC0112960D911C910E
:100720000115110589F0D801ED91FC910280F3814A
:10073000E02DBE016F5F7F4FC801099597FD04C092
:10074000F80100851185ECCF89810F90DF91CF9161
:100750001F910F910895615030F02091F100FC013C
:1007600020830196F8CF289884E680939801089515
:100770003FB7F8948091300190913101A0913201FE
:10078000B091330126B5A89B05C02F3F19F0019603
:10079000A11DB11D3FBFBA2FA92F982F8827BC01DB
:1007A000CD01620F711D811D911D43E0660F771F02
:1007B000881F991F4A95D1F70895CF92DF92EF9243
:1007C000FF920E94B8036B017C010E94B8036C1970
:1007D0007D098E099F09683E734081059105A8F344
:1007E000FF90EF90DF90CF9008958F929F92AF92FD
:1007F000BF92CF92DF92EF92FF920F931F93CF930E
:10080000DF936C017B018A0180910B01882309F43D
:1008100058C080919901882309F453C080913B010D
:1008200080FF05C08091E00082608093E000E801D5
:10083000B12C8AEFA82E93E0892E2AE3922E2097DE
:1008400011F4BB20B9F10E944D02811106C0AA9497
:10085000AA20B9F10E94DD03F2CF8C171D0611F01A
:100860000CF08C2F9FB7F8948092E9002091E8005B
:1008700025FD02C09FBFE3CF282F30E0C21BD30B62
:10088000F701815020F041914093F100FACFE20E40
:10089000F31EBB2021F09092E800B12CEBCF8091A9
:1008A000E80085FDE7CF9092E800BB24B394209741
:1008B00009F3F3CF5D9884E680933A011016110690
:1008C0003CF081E090E0F6019383828310E000E049
:1008D000C801DF91CF911F910F91FF90EF90DF90B2
:1008E000CF90BF90AF909F908F9008951F920F92DE
:1008F0000FB60F9211248F939F938091E1009091F6
:10090000E100937F9093E10083FF0FC01092E90014
:1009100091E09093EB001092EC0092E39093ED0045
:100920001092990198E09093F00082FF22C093E02A
:100930009093E9009091F200992319F09AE3909333
:10094000E80090913A01992341F090913A01915039
:1009500090933A01911101C05D9A90919801992369
:1009600041F090919801915090939801911101C09C
:10097000289A84FF18C08091E2008E7E8160809367
:10098000E2008091E1008F7E8093E10080913B0145
:100990008E7E806180933B019F918F910F900FBE5F
:1009A0000F901F90189580FFF7CF8091E2008E7E08
:1009B00080618093E2008091E1008E7E8093E1006F
:1009C00080913B018E7E8160E5CF1F920F920FB622
:1009D0000F921124CF92DF92EF92FF920F931F9309
:1009E0002F933F934F935F936F937F938F939F9337
:1009F000AF93BF93EF93FF93CF93DF93CDB7DEB762
:100A00006C97DEBFCDBF1092E9008091E80083FFB4
:100A100025C068E0CE0145960E94AB0382EF80932B
:100A2000E8008D8987FF39C09091E80090FFFCCFE6
:100A3000982F907609F034C19E894F89588D2F895F
:100A4000F88C911131C0803861F580913901809323
:100A5000F1001092F1008EEF8093E8006C960FB6D3
:100A6000F894DEBF0FBECDBFDF91CF91FF91EF9124
:100A7000BF91AF919F918F917F916F915F914F91B6
:100A80003F912F911F910F91FF90EF90DF90CF90AA
:100A90000F900FBE0F901F9018959EEF9093E80057
:100AA000C7CF1092F100D5CF913059F48111D3CF37
:100AB0004130510581F6809139018D7F8093390154
:100AC000CACF933049F48111C6CF4130510519F690
:100AD000809139018260F2CF953041F48091E80035
:100AE00080FFFCCF20682093E300B5CF963009F05B
:100AF000A9C00B8D1C8D22E01092E90010923701E5
:100B000010923601F2122EC010923501109234016B
:100B10000E947A031F8299E09983FA8291E09E8372
:100B200090EA98879AEF99872091360130913701A2
:100B3000275F3F4F3C832B838D831092E9001092F7
:100B4000370110923601109335010093340149E0CA
:100B500050E0BE016F5F7F4F80E00E9454030E940F
:100B60007A0379CF10933501009334010E945E021D
:100B7000DC0112960D911C910115110509F451C16A
:100B8000D801ED91FC910480F581E02DBE016B5EF2
:100B90007F4FC8010995009709F03EC1F801008513
:100BA0001185EACFF3E0FF120EC08F89882309F484
:100BB00040C0823061F440E86BE08DE091E00E943B
:100BC0002103811148CF81E28093EB0047CF813030
:100BD00029F440E868E084E091E0F1CF833099F7B0
:100BE0000E945E02DC011296ED90FC908E010F5F78
:100BF0001F4F6801E114F10479F0D701ED91FC91E8
:100C00000680F781E02DB801C7010995080F111D75
:100C1000F701E084F184EECFD8011C92F601019037
:100C20000020E9F73197BF016C197D0940E0C6014A
:100C3000C6CF6EEE70E0FB01449150E080E80E9468
:100C4000540309CF973009F4BECF983021F481E0E6
:100C50008093F10000CF993009F0FDCE837009F048
:100C6000B2CFEEE0F1E081E031E096E32191222382
:100C700071F08093E9003093EB00DF0111972C9124
:100C80002093EC009093ED008F5F873079F78EE72B
:100C90008093EA001092EA008F8980939901DBCE5D
:100CA0008B8D9C8D1092E9001092370110923601C5
:100CB0009093350180933401898D811192C08E8982
:100CC0009D89913A49F4813209F07DCF47E050E0A7
:100CD00064E071E080E0B3CF913209F074CF8332E9
:100CE00069F48F89988DB0E0A0E080930001909323
:100CF0000101A0930201B0930301ADCE803269F4EB
:100D00008091E80082FFFCCF67E084E091E00E94E0
:100D1000AB038BEF8093E8009ECE823209F09BCE2E
:100D20008F8980930B01EEEFFFE7859194918B3FC4
:100D30009C4D51F1E0E0F8E08091040190910501B3
:100D4000A0910601B0910701803B9440A105B10537
:100D5000F1F480910B0180FD1AC0EE3F8AE0F807A4
:100D600089F587E797E7918380838091600080937E
:100D7000380188E19BE00FB6F894A8958093600055
:100D80000FBE9093600067CEEEEFFAE0D5CF808182
:100D900091818737974709F05ECEA89580916000D2
:100DA0008861809360008091380180936000EE3FFD
:100DB0002AE0F20789F08091FE0A9091FF0A918360
:100DC000808349CE808191818737980751F2909333
:100DD000FF0A8093FE0AC5CF1092FF0A1092FE0A06
:100DE0003ACE0E945E02DC0112960D911C91011513
:100DF000110509F4E8CED801ED91FC910190F08144
:100E0000E02DBE016B5E7F4FC8010995811123CE95
:100E1000F80100851185EBCF181619060CF41BCECE
:100E2000D2CEF1E0FF12BECE62EF70E004CF1F928F
:100E30000F920FB60F9211242F933F938F939F938E
:100E4000AF93BF9380912C0190912D01A0912E0121
:100E5000B0912F0130912B0126E0230F2D3758F54B
:100E60000296A11DB11D20932B0180932C0190931C
:100E70002D01A0932E01B0932F018091300190910C
:100E80003101A0913201B09133010196A11DB11D34
:100E90008093300190933101A0933201B0933301DC
:100EA000BF91AF919F918F913F912F910F900FBE66
:100EB0000F901F90189529E8230F0396A11DB11DCF
:100EC000D2CF1F920F920FB60F9211248F939F9340
:100ED000AF93BF93EF93FF938091A4019091A501ED
:100EE000A091A601B091A701892B8A2B8B2BA1F190
:100EF00090919B01E0919C01F0919D018081892757
:100F000080838091A4019091A501A091A601B09148
:100F1000A701181619061A061B069CF48091A40155
:100F20009091A501A091A601B091A7010197A109F7
:100F3000B1098093A4019093A501A093A601B09359
:100F4000A701FF91EF91BF91AF919F918F910F906A
:100F50000FBE0F901F901895809171008D7F809328
:100F6000710080919B01E0919C01F0919D01908125
:100F7000809589238083E5CFECE3F1E01382128230
:100F800088EE93E0A0E0B0E084839583A683B783E6
:100F900088E191E0918380838FEF9FEF958784872D
:100FA0000895789484B5826084BD84B5816084BDE1
:100FB00085B5826085BD85B5816085BD80916E00F7
:100FC000816080936E001092810080918100826028
:100FD0008093810080918100816080938100809165
:100FE0008000816080938000809191008260809376
:100FF0009100809191008160809391008091900098
:101000008160809390008091C10084608093C100D2
:101010008091C10082608093C1008091C100816095
:101020008093C1008091C30081608093C300809150
:10103000C00082608093C0008091C2008160809374
:10104000C20080917A00846080937A0080917A0057
:10105000826080937A0080917A008E7F80937A00FC
:1010600080917A00806880937A00109299011092A2
:10107000390110923B018091D70081608093D700A5
:1010800080EA8093D80089B58F7E89BD89B582605A
:1010900089BD09B400FEFDCF0E94DD038091D80018
:1010A0008F7C80618093D8008091E000807F809366
:1010B000E0008091E1008E7E8093E1008DE08093DE
:1010C000E200559A209A68E873E180E090E00E947F
:1010D000E500C0E0D0E060E177E280E090E00E94CF
:1010E000E5002097C1F30E940000F5CFA1E21A2E7F
:1010F000AA1BBB1BFD010DC0AA1FBB1FEE1FFF1FBC
:10110000A217B307E407F50720F0A21BB30BE40B0B
:10111000F50B661F771F881F991F1A9469F7609552
:101120007095809590959B01AC01BD01CF0108950C
:101130000E94A908A59F900DB49F900DA49F800DBB
:10114000911D11240895EE0FFF1F0590F491E02DDD
:101150000994A29FB001B39FC001A39F700D811D90
:101160001124911DB29F700D811D1124911D0895B0
:04117000F894FFCF21
:10117400FFFFFFFF00E1000000000000FF00C1804E
:1011840081000000000000007202F503930288024F
:06119400D9029702B5022A
:00000001FF
