:020000040000FA
:100000000C94BB000C94E3000C94E3000C94E3000C
:100010000C94E3000C94E3000C94E3000C94E300D4
:100020000C94E3000C94E3000C9476040C94E50427
:100030000C94E3000C94E3000C94E3000C94E300B4
:100040000C94E3000C94E3000C94E3000C94E300A4
:100050000C94E3000C94E3000C94E3000C94170759
:100060000C94E3000C94E3000C94E3000C94E30084
:100070000C94E3000C94E3000C94E3000C94E30074
:100080000C9461070C94E3000C94E3000C94E300DF
:100090000C94E3000C94E3000C94E3000C94E30054
:1000A0000C94E3000C94E3000C94E300080B0002B2
:1000B0000202000009040000010202000005240001
:1000C0001001052401010104240206052406000193
:1000D0000705810310004009040100020A00000026
:1000E00007050202400000070583024000000403E8
:1000F000090412010002EF0201404F1B08920001A7
:1001000001020301537061726B46756E004C696C9D
:1001100079506164205553420000000000240027FC
:10012000002A002D00300004080201104080401019
:10013000204080408008020401804020100201100D
:1001400080102040402000000000250028002B00E7
:100150002E00310004040404040304050202020218
:100160000403020202020606060606060404020250
:1001700002040403BC0711241FBECFEFDAE0DEBF88
:10018000CDBF11E0A0E0B1E0E4E7F1E102C00590ED
:100190000D92A632B107D9F721E0A6E2B1E001C085
:1001A0001D92A03BB207E1F710E0CBEBD0E004C01A
:1001B0002197FE010E94A308CA3BD107C9F70E94FC
:1001C000D1070C94B8080C9400001F93CF93DF93D1
:1001D0009B01AC0180910C018B3031F08F3F51F0CD
:1001E000DF91CF911F910895E3E7F1E0C491C7FD3E
:1001F000F7CF47C08BE080930C01E3E7F1E0C491B7
:10020000CF3F71F3C13009F47FC018F1C33009F456
:1002100099C0C43061F71092C0001092C100809163
:10022000C10088608093C1008091C100816080938B
:10023000C100EFE5F1E0E491F0E0EE0FFF1FEA5BB3
:10024000FE4F85919491E2E3F1E0E491E0939A010D
:1002500018C014BC15BC84B5826084BD85B58160AE
:1002600085BDEFE5F1E0E491F0E0EE0FFF1FEA5B02
:10027000FE4F85919491E2E3F1E0E491E0939F01D8
:10028000C0E0E2E3F1E06491EFE5F1E084918823DE
:1002900099F090E0880F991FFC01E75EFE4FA59151
:1002A000B491FC01EA5BFE4F859194918FB7F8946D
:1002B000EC91E62BEC938FBFCC2309F465C0C230E0
:1002C00009F067C0D0E210E0A0E3B5E70E9498080B
:1002D00028EE33E040E050E00E947608C13009F497
:1002E00075C00CF09BC0C1117BCFD7BD2093AC0172
:1002F0003093AD014093AE015093AF0180916E00F9
:10030000826080936E006CCF10928000109281000A
:10031000809181008860809381008091810081605C
:1003200080938100EFE5F1E0E491F0E0EE0FFF1F34
:10033000EA5BFE4F85919491E2E3F1E0E491E09372
:100340009E019FCF10929000109291008091910099
:1003500088608093910080919100816080939100EA
:10036000EFE5F1E0E491F0E0EE0FFF1FEA5BFE4FF6
:100370008591949190939D0180939C01E2E3F1E03B
:10038000E491E0939B017DCF85B5887F826085BD38
:1003900099CFC13049F480918100887F816080933A
:1003A0008100D9E011E090CFC33039F48091910001
:1003B000887F816080939100F4CFC43091F7809161
:1003C000C100887F81608093C100EBCF8D2F912F7A
:1003D00090938900809388002093A8013093A9010D
:1003E0004093AA015093AB0180916F00826080938B
:1003F0006F00F6CE8D2F912F9093990080939800E7
:100400002093A4013093A5014093A6015093A70126
:1004100080917100826080937100E2CEC33051F30D
:10042000C43009F0DDCED093CF002093A0013093EB
:10043000A1014093A2015093A301809172008064B6
:1004400080937200CDCEFC0180919901882311F137
:100450003FB7F89482E08093E9002091F200822F68
:1004600090E01816190614F481E090E0882339F022
:10047000289844E6409398014091F100408322235C
:1004800039F02091F200211103C02BE62093E800FF
:100490003FBF08958FEF9FEF08952FB7F89483E043
:1004A0008093E9009091E800892F807295FF04C045
:1004B0009091F20080E4891B2FBF089580919001F4
:1004C00081110DC082E080938C0184E080938D01C6
:1004D00010928F0110928E0181E0809390018CE840
:1004E00091E00895CF93DF931F92CDB7DEB7698374
:1004F000DC01ED91FC910280F381E02D41E050E0C0
:10050000BE016F5F7F4F09950F90DF91CF910895E6
:1005100083E08093E9008091F200882319F08AE358
:100520008093E80008950E944D0290E00895CF93D3
:10053000DF931F92CDB7DEB7FC018485958597FDCB
:1005400008C02FEF3FEF358724870F90DF91CF91C1
:100550000895CE0101960E942302019719F4898122
:1005600090E0F3CF8FEF9FEFF0CF0F931F93CF93D8
:10057000DF931F92CDB7DEB78C01FC018485958592
:1005800097FF0BC0CE0101960E942302019771F4E0
:10059000898190E0F80195878487F80184859585A5
:1005A0000F90DF91CF911F910F9108958FEF9FEFE3
:1005B000F1CFFC018485958597FD0BC09FB7F8941A
:1005C00082E08093E9008091F2009FBF90E0019665
:1005D00008959FB7F89482E08093E9008091F2003B
:1005E0009FBF90E0089540913601509137012091CE
:1005F00034013091350142175307B4F49091E8006B
:100600009570E1F39091E80092FD19C08093F1009C
:10061000809136019091370101968F739927892B2C
:1006200019F48EEF8093E8008091360190913701A4
:100630000196909337018093360181E0089580E020
:100640000895EF92FF920F931F93CF93DF93F82EAD
:10065000192FE62E042F81E0860F880F0E94F302E7
:1006600083E00E94F302CF2DD12FEC0EFD2EF11C62
:10067000CE15DF05B9F007FF13C0FE0184910E947B
:10068000F302182F80E00E94F3028123219681114A
:10069000EFCFDF91CF911F910F91FF90EF900895D1
:1006A0008881EDCF81E0F5CFDF92EF92FF920F933B
:1006B0001F93CF93DF93D82E8A01EB017B01E40EC9
:1006C000F51ECE15DF0559F0D7FE12C0FE0184914C
:1006D0000E94F30221968111F4CF0FEF1FEFC801A2
:1006E000DF91CF911F910F91FF90EF90DF900895D0
:1006F0008881EECF0F931F93CF93DF931F92CDB7D7
:10070000DEB782E0898342E450E06CEA70E080E882
:100710000E9454030E945E02DC0112960D911C910E
:100720000115110589F0D801ED91FC910280F3814A
:10073000E02DBE016F5F7F4FC801099597FD04C092
:10074000F80100851185ECCF89810F90DF91CF9161
:100750001F910F910895615030F02091F100FC013C
:1007600020830196F8CF289884E680939801089515
:100770003FB7F8948091300190913101A0913201FE
:10078000B091330126B5A89B05C02F3F19F0019603
:10079000A11DB11D3FBFBA2FA92F982F8827BC01DB
:1007A000CD01620F711D811D911D43E0660F771F02
:1007B000881F991F4A95D1F70895CF92DF92EF9243
:1007C000FF920E94B8036B017C010E94B8036C1970
:1007D0007D098E099F09683E734081059105A8F344
:1007E000FF90EF90DF90CF9008958F929F92AF92FD
:1007F000BF92CF92DF92EF92FF920F931F93CF930E
:10080000DF936C017B018A0180910B01882309F43D
:1008100058C080919901882309F453C080913B010D
:1008200080FF05C08091E00082608093E000E801D5
:10083000B12C8AEFA82E93E0892E2AE3922E2097DE
:1008400011F4BB20B9F10E944D02811106C0AA9497
:10085000AA20B9F10E94DD03F2CF8C171D0611F01A
:100860000CF08C2F9FB7F8948092E9002091E8005B
:1008700025FD02C09FBFE3CF282F30E0C21BD30B62
:10088000F701815020F041914093F100FACFE20E40
:10089000F31EBB2021F09092E800B12CEBCF8091A9
:1008A000E80085FDE7CF9092E800BB24B394209741
:1008B00009F3F3CF5D9884E680933A011016110690
:1008C0003CF081E090E0F6019383828310E000E049
:1008D000C801DF91CF911F910F91FF90EF90DF90B2
:1008E000CF90BF90AF909F908F9008951F920F92DE
:1008F0000FB60F9211248F939F938091E1009091F6
:10090000E100937F9093E10083FF0FC01092E90014
:1009100091E09093EB001092EC0092E39093ED0045
:100920001092990198E09093F00082FF22C093E02A
:100930009093E9009091F200992319F09AE3909333
:10094000E80090913A01992341F090913A01915039
:1009500090933A01911101C05D9A90919801992369
:1009600041F090919801915090939801911101C09C
:10097000289A84FF18C08091E2008E7E8160809367
:10098000E2008091E1008F7E8093E10080913B0145
:100990008E7E806180933B019F918F910F900FBE5F
:1009A0000F901F90189580FFF7CF8091E2008E7E08
:1009B00080618093E2008091E1008E7E8093E1006F
:1009C00080913B018E7E8160E5CF1F920F920FB622
:1009D0000F921124CF92DF92EF92FF920F931F9309
:1009E0002F933F934F935F936F937F938F939F9337
:1009F000AF93BF93EF93FF93CF93DF93CDB7DEB762
:100A00006C97DEBFCDBF1092E9008091E80083FFB4
:100A100025C068E0CE0145960E94AB0382EF80932B
:100A2000E8008D8987FF39C09091E80090FFFCCFE6
:100A3000982F907609F034C19E894F89588D2F895F
:100A4000F88C911131C0803861F580913901809323
:100A5000F1001092F1008EEF8093E8006C960FB6D3
:100A6000F894DEBF0FBECDBFDF91CF91FF91EF9124
:100A7000BF91AF919F918F917F916F915F914F91B6
:100A80003F912F911F910F91FF90EF90DF90CF90AA
:100A90000F900FBE0F901F9018959EEF9093E80057
:100AA000C7CF1092F100D5CF913059F48111D3CF37
:100AB0004130510581F6809139018D7F8093390154
:100AC000CACF933049F48111C6CF4130510519F690
:100AD000809139018260F2CF953041F48091E80035
:100AE00080FFFCCF20682093E300B5CF963009F05B
:100AF000A9C00B8D1C8D22E01092E90010923701E5
:100B000010923601F2122EC010923501109234016B
:100B10000E947A031F8299E09983FA8291E09E8372
:100B200090EA98879AEF99872091360130913701A2
:100B3000275F3F4F3C832B838D831092E9001092F7
:100B4000370110923601109335010093340149E0CA
:100B500050E0BE016F5F7F4F80E00E9454030E940F
:100B60007A0379CF10933501009334010E945E021D
:100B7000DC0112960D911C910115110509F451C16A
:100B8000D801ED91FC910480F581E02DBE016B5EF2
:100B90007F4FC8010995009709F03EC1F801008513
:100BA0001185EACFF3E0FF120EC08F89882309F484
:100BB00040C0823061F440E86BE08DE091E00E943B
:100BC0002103811148CF81E28093EB0047CF813030
:100BD00029F440E868E084E091E0F1CF833099F7B0
:100BE0000E945E02DC011296ED90FC908E010F5F78
:100BF0001F4F6801E114F10479F0D701ED91FC91E8
:100C00000680F781E02DB801C7010995080F111D75
:100C1000F701E084F184EECFD8011C92F601019037
:100C20000020E9F73197BF016C197D0940E0C6014A
:100C3000C6CF6EEE70E0FB01449150E080E80E9468
:100C4000540309CF973009F4BECF983021F481E0E6
:100C50008093F10000CF993009F0FDCE837009F048
:100C6000B2CFEEE0F1E081E031E096E32191222382
:100C700071F08093E9003093EB00DF0111972C9124
:100C80002093EC009093ED008F5F873079F78EE72B
:100C90008093EA001092EA008F8980939901DBCE5D
:100CA0008B8D9C8D1092E9001092370110923601C5
:100CB0009093350180933401898D811192C08E8982
:100CC0009D89913A49F4813209F07DCF47E050E0A7
:100CD00064E071E080E0B3CF913209F074CF8332E9
:100CE00069F48F89988DB0E0A0E080930001909323
:100CF0000101A0930201B0930301ADCE803269F4EB
:100D00008091E80082FFFCCF67E084E091E00E94E0
:100D1000AB038BEF8093E8009ECE823209F09BCE2E
:100D20008F8980930B01EEEFFFE7859194918B3FC4
:100D30009C4D51F1E0E0F8E08091040190910501B3
:100D4000A0910601B0910701803B9440A105B10537
:100D5000F1F480910B0180FD1AC0EE3F8AE0F807A4
:100D600089F587E797E7918380838091600080937E
:100D7000380188E19BE00FB6F894A8958093600055
:100D80000FBE9093600067CEEEEFFAE0D5CF808182
:100D900091818737974709F05ECEA89580916000D2
:100DA0008861809360008091380180936000EE3FFD
:100DB0002AE0F20789F08091FE0A9091FF0A918360
:100DC000808349CE808191818737980751F2909333
:100DD000FF0A8093FE0AC5CF1092FF0A1092FE0A06
:100DE0003ACE0E945E02DC0112960D911C91011513
:100DF000110509F4E8CED801ED91FC910190F08144
:100E0000E02DBE016B5E7F4FC8010995811123CE95
:100E1000F80100851185EBCF181619060CF41BCECE
:100E2000D2CEF1E0FF12BECE62EF70E004CF1F928F
:100E30000F920FB60F9211242F933F938F939F938E
:100E4000AF93BF9380912C0190912D01A0912E0121
:100E5000B0912F0130912B0126E0230F2D3758F54B
:100E60000296A11DB11D20932B0180932C0190931C
:100E70002D01A0932E01B0932F018091300190910C
:100E80003101A0913201B09133010196A11DB11D34
:100E90008093300190933101A0933201B0933301DC
:100EA000BF91AF919F918F913F912F910F900FBE66
:100EB0000F901F90189529E8230F0396A11DB11DCF
:100EC000D2CF1F920F920FB60F9211248F939F9340
:100ED000AF93BF93EF93FF938091A4019091A501ED
:100EE000A091A601B091A701892B8A2B8B2BA1F190
:100EF00090919B01E0919C01F0919D018081892757
:100F000080838091A4019091A501A091A601B09148
:100F1000A701181619061A061B069CF48091A40155
:100F20009091A501A091A601B091A7010197A109F7
:100F3000B1098093A4019093A501A093A601B09359
:100F4000A701FF91EF91BF91AF919F918F910F906A
:100F50000FBE0F901F901895809171008D7F809328
:100F6000710080919B01E0919C01F0919D01908125
:100F7000809589238083E5CFECE3F1E01382128230
:100F800088EE93E0A0E0B0E084839583A683B783E6
:100F900088E191E0918380838FEF9FEF958784872D
:100FA0000895789484B5826084BD84B5816084BDE1
:100FB00085B5826085BD85B5816085BD80916E00F7
:100FC000816080936E001092810080918100826028
:100FD0008093810080918100816080938100809165
:100FE0008000816080938000809191008260809376
:100FF0009100809191008160809391008091900098
:101000008160809390008091C10084608093C100D2
:101010008091C10082608093C1008091C100816095
:101020008093C1008091C30081608093C300809150
:10103000C00082608093C0008091C2008160809374
:10104000C20080917A00846080937A0080917A0057
:10105000826080937A0080917A008E7F80937A00FC
:1010600080917A00806880937A00109299011092A2
:10107000390110923B018091D70081608093D700A5
:1010800080EA8093D80089B58F7E89BD89B582605A
:1010900089BD09B400FEFDCF0E94DD038091D80018
:1010A0008F7C80618093D8008091E000807F809366
:1010B000E0008091E1008E7E8093E1008DE08093DE
:1010C000E200559A209A68E873E180E090E00E947F
:1010D000E500C0E0D0E060E177E280E090E00E94CF
:1010E000E5002097C1F30E940000F5CFA1E21A2E7F
:1010F000AA1BBB1BFD010DC0AA1FBB1FEE1FFF1FBC
:10110000A217B307E407F50720F0A21BB30BE40B0B
:10111000F50B661F771F881F991F1A9469F7609552
:101120007095809590959B01AC01BD01CF0108950C
:101130000E94A908A59F900DB49F900DA49F800DBB
:10114000911D11240895EE0FFF1F0590F491E02DDD
:101150000994A29FB001B39FC001A39F700D811D90
:101160001124911DB29F700D811D1124911D0895B0
:10117000F894FFCFFFFFFFFF00E100000000000038
:10118000FF00C18081000000000000007202F50332
:0A11900093028802D9029702B5020B
:1070000055C000006EC000006CC000006AC00000E7
:1070100068C0000066C0000064C0000062C00000DC
:1070200060C000005EC00000FCC400005AC0000048
:1070300058C0000056C0000054C0000052C00000FC
:1070400050C000005DC000004CC000004AC00000FD
:1070500048C0000046C0000044C0000042C000001C
:1070600040C000003EC000003CC000003AC000002C
:1070700038C0000036C0000034C0000032C000003C
:1070800030C000002EC000002CC000002AC000004C
:1070900028C0000026C0000024C0000022C000005C
:1070A00020C000001EC000001CC0000011241FBE34
:1070B000CFEFDAE0DEBFCDBF11E0A0E0B1E0E2E467
:1070C000FFE702C005900D92A83BB107D9F711E088
:1070D000A8EBB1E001C01D92A13DB107E1F74FD38C
:1070E0002EC78ECFF89410926F001092810081E02D
:1070F00085BF15BE47985D9A289A0C9400000895A4
:107100001F920F920FB60F9211242F938F939F937C
:10711000EF93FF9310928500109284008091B80144
:107120009091B901009741F001979093B901809334
:10713000B801892B09F45D9A8091BA019091BB0145
:10714000009741F001979093BB018093BA01892B7E
:1071500009F4289A8091BE019091BF010196909305
:10716000BF018093BE01E0E0F0E0859194918F5FD4
:107170009F4F49F08091BC019091BD010196909381
:10718000BD018093BC01FF91EF919F918F912F9151
:107190000F900FBE0F901F90189584E08093E90028
:1071A0000DC08091E8008B778093E80003C08EB318
:1071B000882351F08091E80082FFF9CF8091E800A8
:1071C00085FFEFCF8091F1000895982F83E08093A1
:1071D000E9008091E80085FD0DC08091E8008E7780
:1071E0008093E80003C08EB3882369F08091E800A3
:1071F00080FFF9CF9093F1005D9884E690E0909342
:10720000B9018093B80108954F925F926F927F9277
:107210008F929F92AF92BF92CF92DF92EF92FF92A6
:107220000F931F93CF93DF9384E08093E9008091C5
:10723000E80082FF57C2289884E690E09093BB0153
:107240008093BA01AADF182F853481F48CEA9DE07F
:107250009093BD018093BC0107B600FCFDCFF99966
:10726000FECF81E180935700E89503C0843519F47F
:1072700094DF8DE00DC28C34E1F38035D1F3843797
:1072800021F484E4A2DF80E003C2813611F489E5B1
:10729000FFC18134B1F481DF182F7FDF90E0880FC8
:1072A000991FAA2797FDA095BA2F312F330F20E001
:1072B000442737FD4095542F822B932BA42BB52BBD
:1072C000B8C1803711F483E5E3C1833549F4C0E0E8
:1072D000D1E089917ADF21E0C730D207D1F7D9C157
:1072E000863521F481E371DF80E3D2C1833731F445
:1072F00087E86BDF85E969DF8EE1CAC18536B9F4BD
:10730000E0E0F0E093E085E090935700E89507B661
:1073100000FCFDCF80935700E89507B600FCFDCF39
:10732000E058FF4FA0E7E030FA0771F7A2CF8237AD
:1073300039F4E1E0F0E089E0809357008491A8C13E
:10734000863439F4E0E0F0E089E0809357008491DE
:107350009FC18E3439F4E3E0F0E089E08093570078
:10736000849196C1813539F4E2E0F0E089E08093C0
:10737000570084918DC1823631F489E526DF80E0A3
:1073800024DF80E885C1823419F0873609F0E5C032
:107390001092BD011092BC0100DF082FFEDEF82E16
:1073A000FCDE682E8554823008F071C1902F80E099
:1073B000CF2DD0E0C82BD92B10926F00173609F0D3
:1073C0004BC081E180935700E895DD24CC24C39421
:1073D0003FC0E090C101F090C2010091C301109143
:1073E000C401B6E46B16D9F4ED2DF0E0EE29FF29C7
:1073F000E4918E2FEADEDD2081F082E090E0A0E0D3
:10740000B0E0E80EF91E0A1F1B1FE092C101F092C6
:10741000C2010093C3011093C401DC2418C0D80139
:10742000C701B695A7959795879573D5CEDE82E06F
:1074300090E0A0E0B0E0E80EF91E0A1F1B1FE092EA
:10744000C101F092C2010093C3011093C4012197BE
:10745000209709F0BECF7DC08090C1019090C201FD
:10746000A090C301B090C40196E4691609F05DC014
:1074700083E0F40180935700E89507B600FCFDCF48
:1074800054C0F6E46F1661F5772031F1E090C10148
:10749000F090C2010091C3011091C4017EDED82E8C
:1074A000CC24852D90E08C299D29F7010C01409278
:1074B0005700E895112482E090E0A0E0B0E0E80EEB
:1074C000F91E0A1F1B1FE092C101F092C201009336
:1074D000C3011093C40102C060DE582E742423C07F
:1074E000E090C101F090C2010091C3011091C4016C
:1074F00016950795F794E79450DE682FC70111D5CC
:107500008091C1019091C201A091C301B091C401C9
:107510000296A11DB11D8093C1019093C201A09359
:10752000C301B093C401219704C055247724442497
:107530004394209709F0A5CF96E4691641F485E0BD
:10754000F40180935700E89507B600FCFDCF8DE06D
:107550003CDE82E080936F009CC0833471F4009124
:10756000C1011091C20119DE90E021E0F8010C0187
:1075700020935700E89511247CCE833619F5E090CE
:10758000C101F090C2010091C3011091C40105DE58
:10759000F701E16090E021E00C0120935700E895AD
:1075A000112482E090E0A0E0B0E0E80EF91E0A1F8E
:1075B0001B1FE092C101F092C2010093C30110931E
:1075C000C40157CE8D3661F4E091C101F091C20142
:1075D00085E080935700E89507B600FCFDCF49CEC3
:1075E000823551F4E091C101F091C20105911491ED
:1075F000812FEBDD802F4CC0843421F5E090C10158
:10760000F090C2010091C3011091C4011695079535
:10761000F794E794C2DD682FC70183D48091C1013C
:107620009091C201A091C301B091C4010296A11D25
:10763000B11D8093C1019093C201A093C301B09387
:10764000C40117CE843609F5E090C101F090C20163
:107650000091C3011091C401D801C701B695A79547
:107660009795879556D4B1DD82E090E0A0E0B0E038
:10767000E80EF91E0A1F1B1FE092C101F092C20121
:107680000093C3011093C40104C08B3111F08FE348
:107690009CDD83E08093E9009091E8008091E80010
:1076A0008E778093E80095FF04C010C08EB38823C6
:1076B000C9F08091E80080FFF9CF8091E8008E77D3
:1076C0008093E80003C08EB3882361F08091E800C6
:1076D00080FFF9CF84E08093E9008091E8008B7708
:1076E0008093E800DF91CF911F910F91FF90EF9071
:1076F000DF90CF90BF90AF909F908F907F906F90D2
:107700005F904F9008959091C901892F8F778132B2
:1077100049F58091CA018032A1F0813219F5913A80
:1077200009F58091E800877F8093E8008CE091E084
:1077300067E070E025D28091E8008B778093E800C5
:107740000895913279F48091E800877F8093E80072
:107750008CE091E067E070E077D28091E8008E776E
:107760008093E800089582E061EC42E0D1D083E0AC
:1077700061E842E1CDD084E060E842E1C9C01F93F6
:10778000209100081092000844B714BE88E10FB69B
:10779000F89480936000109260000FBE80E8E0E0F3
:1077A000F0E00FB6F89480936100E09361000FBEA3
:1077B00031E035BF92E095BF3F9A209A559A809369
:1077C00061001092610047985D9A289A1092890092
:1077D0008AEF8093880090936F0083E0809381000C
:1077E000859194918F5F9F4F11F03093C001942F3A
:1077F00041FF19C0809109012817A9F08093000862
:10780000789480911301882339F08091BE01909182
:10781000BF0188579140C8F310920008F89481E0A6
:10782000809313010CC090FF04C08091C001882395
:1078300051F493FF09C080910901281729F0809124
:10784000C001882309F04EDCD4D078941092BD0199
:107850001092BC011EEF20C0D7DC49D38091BC013F
:107860009091BD01815A9F4010F0109213018091B8
:10787000C5019091C60101969093C6018093C50100
:10788000292F97FF03C0512F591B252F220F28178F
:1078900010F4479801C0479A809113018823E1F6BC
:1078A0008091E00081608093E0001CDC80E090E04B
:1078B0001F910895FA01923049F0933061F09130B0
:1078C000F9F484E191E022E130E01EC086E291E02B
:1078D0002EE330E019C0882329F484E691E024E007
:1078E00030E012C0813029F488E691E022E230E0F5
:1078F0000BC0823029F48CE891E02AE230E004C029
:1079000080E090E020E030E091838083C901089519
:107910008093E9008091EB0081608093EB001092EE
:10792000ED006093EC004093ED008091EE00881F25
:107930008827881F08958091C90188238CF403C08B
:107940008EB38823B1F08091E80082FFF9CF809157
:10795000E8008B778093E80008958EB3882349F080
:107960008091E80080FFF9CF8091E8008E778093C6
:10797000E8000895EF92FF920F931F9345D04CD0EB
:1079800008ED10E0F80180818F7780838081806826
:10799000808380818F7D808319BC1EBA1092C701BD
:1079A00080EEE82EF12CF70180818B7F8083F80137
:1079B00080818160808380E060E042E0A9DFE1EEC9
:1079C000F0E080818E7F8083E2EEF0E08081816054
:1079D0008083808188608083F70180818E7F8083AF
:1079E000F8018081806180831F910F91FF90EF905B
:1079F0000895E7EDF0E08081816080838AE482BFB2
:107A000081E08093C801B6CFE8EDF0E080818E7F01
:107A100080831092E20008951092DA001092E10043
:107A200008951F920F920FB60F9211242F933F9338
:107A30004F935F936F937F938F939F93AF93BF9376
:107A4000EF93FF938091DA0080FF1AC08091D800F5
:107A500080FF16C08091DA008E7F8093DA008091DB
:107A6000D90080FF0AC019BC82E089BD09B400FEBC
:107A7000FDCF81E08EBB3AD203C019BC1EBA36D20C
:107A80008091E10080FF17C08091E20080FF13C069
:107A90008091E2008E7F8093E2008091E20080611D
:107AA0008093E2008091D80080628093D80019BC56
:107AB00085E08EBB1BD28091E10084FF2BC08091BA
:107AC000E20084FF27C019BC82E089BD09B400FE32
:107AD000FDCF8091D8008F7D8093D8008091E10008
:107AE0008F7E8093E1008091E2008F7E8093E200A0
:107AF0008091E20081608093E2008091C701882339
:107B000031F48091E30087FD02C081E001C084E090
:107B10008EBBECD18091E10083FF21C08091E20017
:107B200083FF1DC08091E100877F8093E10082E0A8
:107B30008EBB1092C7018091E1008E7F8093E1009F
:107B40008091E2008E7F8093E2008091E20080616C
:107B50008093E20080E060E042E0DADEC7D1FF918E
:107B6000EF91BF91AF919F918F917F916F915F91B5
:107B70004F913F912F910F900FBE0F901F9018952E
:107B80009C014091CF015091D0014617570718F43E
:107B9000F90190E044C06115710511F0AB01F8CF17
:107BA0008091E8008E778093E80040E050E0F0CFCD
:107BB0008EB3882309F444C0853009F443C0809112
:107BC000E80083FF02C081E008958091E80082FD13
:107BD00031C08091E80080FF22C08091F300909135
:107BE000F200782F60E0292F30E0262B372B07C0DA
:107BF00081918093F100415050402F5F3F4F4115DC
:107C0000510519F02830310598F390E028303105FE
:107C100009F491E08091E8008E778093E8004115A7
:107C2000510531F6992321F605C08EB3882341F022
:107C3000853041F08091E80082FFF7CF80E0089521
:107C400082E0089583E008959C016115710529F48F
:107C50008091E8008B778093E800F90126C08EB30D
:107C6000882391F1853091F18091E80083FF02C073
:107C700081E008958091E80082FFF1CF06C08091F5
:107C8000F10081936150704059F02091F300809190
:107C9000F200322F20E090E0822B932B892B79F792
:107CA0008091E8008B778093E80061157105B9F643
:107CB00005C08EB3882341F0853041F08091E80003
:107CC00080FFF7CF80E0089582E0089583E0089573
:107CD0000F931F93DF93CF9300D0CDB7DEB7E9ECBE
:107CE000F1E08091F100819381E0E13DF807C9F76F
:107CF0000ADD8091E80083FFE4C08091C901909182
:107D0000CA01953009F46DC0963040F4913081F18C
:107D1000913070F0933009F0D4C02AC0983009F443
:107D2000A3C0993009F4B2C0963009F0CAC07CC033
:107D3000803809F4C6C0823809F0C3C08091CD01F3
:107D400087708093E9008091EB001092E900209108
:107D5000E800277F2093E80090E025E0969587953E
:107D60002A95E1F781708093F1001092F10087C0AD
:107D7000882319F0823009F0A4C08F71823009F095
:107D8000A0C08091CB01882331F52091CD012770CF
:107D900009F497C02093E9008091EB0080FF1BC09D
:107DA000933021F48091EB00806213C08091EB004E
:107DB00080618093EB0081E090E002C0880F991F02
:107DC0002A95E2F78093EA001092EA008091EB0096
:107DD00088608093EB001092E9008091E800877F33
:107DE00051C0882309F06DC01091CB011F770FB7E8
:107DF000F8948091E800877F8093E8009CDD809173
:107E0000E80080FFFCCF8091E3008078812B809395
:107E1000E30080688093E300112311F482E001C045
:107E200083E08EBB0FBF4DC08058823008F049C040
:107E30008091CB019091CC016091CD01AE014F5F5B
:107E40005F4F38DDBC01009709F43BC08091E8002A
:107E5000877F8093E80089819A8192DE8091E80093
:107E60008B778093E8002DC0803859F58091E80029
:107E7000877F8093E8008091C7018093F100809113
:107E8000E8008E778093E80056DD1BC08823C9F494
:107E90009091CB019230A8F48091E800877F809385
:107EA000E8009093C70147DD8091C701882331F432
:107EB0008091E30087FD02C081E001C084E08EBBB9
:107EC00052DC8091E80083FF0AC08091EB00806261
:107ED0008093EB008091E800877F8093E8000F900B
:107EE0000F90CF91DF911F910F91089508951F93E7
:107EF0008EB3882361F01091E9001092E90080911F
:107F0000E80083FF01C0E4DE17701093E9001F91C1
:107F10000895F999FECF92BD81BDF89A992780B551
:107F20000895262FF999FECF1FBA92BD81BD20BDBD
:107F30000FB6F894FA9AF99A0FBE01960895F8943C
:107F4000FFCF4341544552494E410077000800009D
:107F500000000000080112011001020000084F1B80
:107F6000079201000201000109023E0002010080A7
:107F7000320904000001020201000524001001047E
:107F80002402040524060001070582030800FF09F6
:107F9000040100020A0000000705040210000107A6
:107FA0000583021000010403090422034C00690048
:107FB0006C007900500061006400550053004200DD
:107FC00020002000200020002000200000002A03C4
:107FD00053007000610072006B00460075006E0077
:107FE000200045006C0065006300740072006F00A3
:0A7FF0006E006900630073000000DA
:00000001FF
