:020000040000FA
:100000000C94B1010C94680A0C94410A0C941A0ADD
:100010000C94F3090C94D9010C94D9010C94CC09DB
:100020000C94D9010C94D9010C94E1060C9450075E
:100030000C94D9010C94D9010C94D9010C94D901D8
:100040000C94D9010C94D9010C94D9010C94D901C8
:100050000C94D9010C94D9010C94D9010C94820907
:100060000C94D9010C94D9010C94D9010C94D901A8
:100070000C94D9010C94D9010C94D9010C94D90198
:100080000C94D9010C94D9010C94D9010C94D90188
:100090000C94D9010C94D9010C94D9010C94D90178
:1000A0000C94D9010C94D9010C94D90100000002E0
:1000B00000090F0000030401000C00000000000014
:1000C0000000000000000000000000080B00020219
:1000D00002000009040000010202000005240010D3
:1000E000010524010101042402060524060001077C
:1000F00005810310004009040100020A0000000706
:1001000005020240000007058302400000040309C5
:100110000412010002EF0201404F1B08920001018E
:10012000020301537061726B46756E004C696C7905
:100130005061642055534200000000002500280053
:100140002B002E00310000000000240027002A00B0
:100150002D0030000404040404030405020202021A
:100160000403020202020606060606060404020250
:100170000204040408020110408040102040804026
:1001800080080204018040201002011080102040ED
:1001900040202D2D2D2D2D2D2D2D2D2D2D2D2D2D89
:1001A0002D2D2D2D2D2D2D2D2D2D2D2D2D2D2D2D7F
:1001B0002D2D2D2D2D2D2D2D2D2D2D2D2D2D2D2D6F
:1001C0002D2D2D2D2D2D2D2D2D2D2D2D2D2D2D2D5F
:1001D0002D2D2D2D2D2D2D2D2D2D2D2D2D2D2D2D4F
:1001E0002D2D2D2D2D2D2D2D2D2D2D2D2D2D2D2D3F
:1001F0002D2D2D2D2D2D2D005B4F5D205061636B1E
:100200006574732053656E74210053656E64696E66
:10021000673A20005B4F5D20424F4F4F4D21005BFE
:100220004F5D2053656E64696E67206261636B2069
:10023000746865207061636B657420736E696666AF
:10024000656420696E2031207365636F6E642E2EA5
:100250002E005B4F5D2053656E64696E672062619E
:10026000636B20746865207061636B657420736EC6
:10027000696666656420696E2032207365636F6EFF
:1002800064732E2E2E005B4F5D2053656E64696E85
:1002900067206261636B20746865207061636B65C1
:1002A0007420736E696666656420696E20332073FE
:1002B00065636F6E64732E2E2E002D2D2D2D2D2D2A
:1002C0002D2D2D2D2D2D2D2D2D2D2D2D2D2D2D2D5E
:1002D0002D2D2D2D2D2D2D2D2D2D2D2D2D2D2D2D4E
:1002E0002D2D2D2D2D20534E49464620262052459A
:1002F000504C4159202D2D2D2D2D2D2D2D2D2D2DB9
:100300002D2D2D2D2D2D2D2D2D2D2D2D2D2D2D2D1D
:100310002D2D2D2D2D2D2D2D2D2D2D2D2D2D2D2D0D
:10032000005E01011F01030301008A02010A0102AC
:1003300002010064001E47040B0906007C0101064F
:100340000103030100F401060E0102020100C201D3
:10035000170101020201019600023E01060601009A
:100360008F0A11241FBECFEFDAE0DEBFCDBF11E050
:10037000A0E0B1E0ECEAF0E202C005900D92AC3AE8
:10038000B107D9F722E0ACEAB1E001C01D92A33E6B
:10039000B207E1F711E0C1EBD1E004C02197FE0103
:1003A0000E946F0DC03BD107C9F70E94CC0A0C9484
:1003B00054100C940000FC0180917F02882311F1FD
:1003C0003FB7F89482E08093E9002091F200822FF9
:1003D00090E01816190614F481E090E0882339F0B3
:1003E000289844E640937E024091F1004083222306
:1003F00039F02091F200211103C02BE62093E80090
:100400003FBF08958FEF9FEF08952FB7F89483E0D3
:100410008093E9009091E800892F807295FF04C0D5
:100420009091F20080E4891B2FBF0895809176029D
:1004300081110DC082E08093720284E08093730288
:10044000109275021092740281E08093760282E726
:1004500092E00895089540914702509148022091FA
:1004600045023091460242175307B4F49091E800D8
:100470009570E1F39091E80092FD19C08093F1002E
:10048000809147029091480201968F739927892B9A
:1004900019F48EEF8093E800809147029091480212
:1004A0000196909348028093470281E0089580E08E
:1004B0000895EF92FF920F931F93CF93DF93F82E3F
:1004C000192FE62E042F81E0860F880F0E942B0241
:1004D00083E00E942B02CF2DD12FEC0EFD2EF11CBC
:1004E000CE15DF05B9F007FF13C0FE0184910E940D
:1004F0002B02182F80E00E942B028123219681116C
:10050000EFCFDF91CF911F910F91FF90EF90089562
:100510008881EDCF81E0F5CFDF92EF92FF920F93CC
:100520001F93CF93DF93D82E8A01EB017B01E40E5A
:10053000F51ECE15DF0559F0D7FE12C0FE018491DD
:100540000E942B0221968111F4CF0FEF1FEFC801FB
:10055000DF91CF911F910F91FF90EF90DF90089561
:100560008881EECF0F931F93CF93DF931F92CDB768
:10057000DEB782E0898342E450E06BEC70E080E813
:100580000E948C020E941602DC0112960D911C91B1
:100590000115110589F0D801ED91FC910280F381DC
:1005A000E02DBE016F5F7F4FC801099597FD04C024
:1005B000F80100851185ECCF89810F90DF91CF91F3
:1005C0001F910F910895615030F02091F100FC01CE
:1005D00020830196F8CF289884E680937E020895C0
:1005E000CF93DF931F92CDB7DEB76983DC01ED9126
:1005F000FC910280F381E02D41E050E0BE016F5F8D
:100600007F4F09950F90DF91CF9108950F931F931E
:10061000CF93DF938C01D0E0C0E0F801EC0FFD1F19
:100620006491662341F080E892E00E94F002892BF9
:1006300011F02196F2CFCE01DF91CF911F910F9152
:10064000089583E08093E9008091F200882319F0F7
:100650008AE38093E80008950E94050290E00895DF
:10066000CF93DF931F92CDB7DEB7FC0184859585CC
:1006700097FD08C02FEF3FEF358724870F90DF915C
:10068000CF910895CE0101960E94DB01019719F4E4
:10069000898190E0F3CF8FEF9FEFF0CF0F931F93FF
:1006A000CF93DF931F92CDB7DEB78C01FC01848519
:1006B000958597FF0BC0CE0101960E94DB01019743
:1006C00071F4898190E0F80195878487F801848529
:1006D00095850F90DF91CF911F910F9108958FEF26
:1006E0009FEFF1CFFC018485958597FD0BC09FB7E7
:1006F000F89482E08093E9008091F2009FBF90E03F
:10070000019608959FB7F89482E08093E900809164
:10071000F2009FBF90E00895282F30E0F901E455E2
:10072000FF4F9491F901ED58FE4F84912C5A3E4FA2
:10073000F9012491222309F430C09923E9F0915062
:100740009F30D0F4E92FF0E0E855FC4F0C946F0D8A
:10075000D603DA03B703CE03D203BC03BC03BC0346
:10076000DD03E303E703EB03F103BC03F50390911F
:1007700080009F7790938000E22FF0E0EE0FFF1F44
:10078000E85CFE4FA591B4919FB7F894EC9161118C
:1007900032C080958E238C939FBF089590918000E6
:1007A0009F7DE8CF90918000977FE4CF94B59F77AD
:1007B00094BDE2CF94B59F7DFBCF909190009F7741
:1007C00090939000D9CF909190009F7DF9CF909118
:1007D0009000977FF5CF9091C0009F779093C000D5
:1007E000CBCF9091C0009F7DF9CF9091C200977FB1
:1007F0009093C200C1CF8E2BCECF3FB7F89480919B
:10080000410290914202A0914302B091440226B568
:10081000A89B05C02F3F19F00196A11DB11D3FBF38
:10082000BA2FA92F982F8827BC01CD01620F711D07
:10083000811D911D43E0660F771F881F991F4A9500
:10084000D1F708958F929F92AF92BF92CF92DF928D
:10085000EF92FF924B015C010E94FD036B017C0152
:100860000E94FD036C197D098E099F09683E734043
:1008700081059105A8F321E0821A9108A108B10829
:1008800088EEC80E83E0D81EE11CF11C811491048F
:10089000A104B10429F7FF90EF90DF90CF90BF90B3
:1008A000AF909F908F9008958F929F92AF92BF923A
:1008B000CF92DF92EF92FF920F931F93CF93DF932C
:1008C0006C017B018A0180910B01882309F45CC0D3
:1008D00080917F02882309F457C080914B0280FFEA
:1008E00005C08091E00082608093E000E801B12CB7
:1008F0008AEFA82E93E0892E2AE3922E209711F4F6
:10090000BB20D9F10E94050281110AC0AA94AA2035
:10091000D9F161E070E080E090E00E942204EECF27
:100920008C171D0611F00CF08C2F9FB7F894809255
:10093000E9002091E80025FD02C09FBFDFCF282FEE
:1009400030E0C21BD30BF701815020F0419140935E
:10095000F100FACFE20EF31EBB2021F09092E800E6
:10096000B12CEBCF8091E80085FDE7CF9092E800B5
:10097000BB24B394209709F3F3CF5D9884E680936A
:100980004A02101611063CF081E090E0F6019383D4
:10099000828310E000E0C801DF91CF911F910F9199
:1009A000FF90EF90DF90CF90BF90AF909F908F908F
:1009B0000895DC01ED91FC91EF3FFE0781F110926B
:1009C000D0021092D1021092D2021092D302109251
:1009D000500210924F022E2FE53008F5FF27EE0F40
:1009E000FF1FE45FFE4F82E695E091838083223013
:1009F000F9F050F42130A1F0809169008C7F816082
:100A000080936900E89A08952330D1F02430A1F74B
:100A100080916A008F7C806180936A00EE9A0895CD
:100A200080916900837F846080936900E99A0895CA
:100A3000809169008F7C806180936900EA9A0895B3
:100A4000809169008F73806480936900EB9A0895A8
:100A5000FF920F931F93CF93DF93EC01F62E072F96
:100A60008E8560E011E0811102C061E010E08A81B2
:100A70000E948C032E813F81F29EC001F39E900D57
:100A800011248330910528F0880F991F049701974E
:100A9000F1F7612F8A810E948C032E813F81029F92
:100AA000C001039F900D11248330910528F0880F19
:100AB000991F04970197F1F7DF91CF911F910F9143
:100AC000FF9008952F923F924F925F926F927F9284
:100AD0008F929F92AF92BF92CF92DF92EF92FF924E
:100AE0000F931F93CF93DF93CDB7DEB765970FB604
:100AF000F894DEBF0FBECDBF0E94FD036B017C01E9
:100B000080913802909139022601481A590A2DEC39
:100B1000421620E1520608F4DEC08091B2019091A5
:100B2000B301A201481B590BCA0157FF03C091959D
:100B300081959109883C91050CF0C9C08091B00164
:100B40009091B10101969093B1018093B001029709
:100B500009F0BDC091E2692E93E0792E01E010E02A
:100B60002090AE013090AF013B862A8649E050E0EC
:100B7000B301CE0101960E94300D8B816C81681704
:100B800008F4682F70E08091B2019091B3010E9447
:100B9000390D9B014091160150911701649FC001CE
:100BA000659F900D749F900D112464E670E00E9483
:100BB000390D8985A1E0B0E0882311F0A2E0B0E012
:100BC0008D81829FA001839F500D11245D874C87EA
:100BD0008E81829F1001839F300C11243F862E86C8
:100BE0008F81829FA001839F500D1124598B488BC8
:100BF0008885829F1001839F300C11243B8A2A8AAA
:100C0000FD01EE0FFF1FEE54FE4F812C912C54017D
:100C10004A855B85415051095D8B4C8B8C899D8940
:100C2000A817B90708F040C0880C991CAA1CBB1C67
:100C300080819181AC012C843D844219530957FF76
:100C400003C05195419551094617570770F44281E9
:100C500053812E843F844219530957FF03C0519595
:100C60004195510946175707E0F048895989841B77
:100C7000950B97FF03C0919581959109861797076A
:100C8000C8F4828193812A883B888219930997FF4F
:100C900003C09195819591098617970758F4689438
:100CA00080F812963496BACF4A855B854830510554
:100CB00008F053C00F5F1F4F59E0650E711C0830DC
:100CC000110509F04DCF1092B1011092B0011092B0
:100CD000AF011092AE018091AE019091AF018334CB
:100CE000910540F01092AF011092AE011092B10147
:100CF0001092B0018091AE019091AF019C012F5FE5
:100D00003F4F3093AF012093AE01880F991FFC0134
:100D1000EE54FE4F51824082C0923802D092390286
:100D2000E0923A02F0923B0265960FB6F894DEBF6D
:100D30000FBECDBFDF91CF911F910F91FF90EF902C
:100D4000DF90CF90BF90AF909F908F907F906F90EB
:100D50005F904F903F902F9008958092D002909294
:100D6000D102A092D202B092D3022C883D88369450
:100D700027943092500220924F023093AD0120937D
:100D8000AC0110934E0200934D029DCFFC010190E7
:100D90000020E9F73197AF01481B590BBC0180E8EF
:100DA00092E00C945404CF93DF930E940603EC016D
:100DB00081E391E00E94C6068C0F9D1FDF91CF91C9
:100DC00008951F920F920FB60F9211248F939F9345
:100DD0008091E1009091E100937F9093E10083FF87
:100DE0000FC01092E90091E09093EB001092EC009C
:100DF00092E39093ED0010927F0298E09093F000C0
:100E000082FF22C093E09093E9009091F200992331
:100E100019F09AE39093E80090914A02992341F0E7
:100E200090914A02915090934A02911101C05D9AAB
:100E300090917E02992341F090917E02915090937F
:100E40007E02911101C0289A84FF18C08091E200AF
:100E50008E7E81608093E2008091E1008F7E80939E
:100E6000E10080914B028E7E806180934B029F91C6
:100E70008F910F900FBE0F901F90189580FFF7CFA6
:100E80008091E2008E7E80618093E2008091E1009B
:100E90008E7E8093E10080914B028E7E8160E5CF53
:100EA0001F920F920FB60F921124CF92DF92EF9202
:100EB000FF920F931F932F933F934F935F936F93E3
:100EC0007F938F939F93AF93BF93EF93FF93CF93B2
:100ED000DF93CDB7DEB76C97DEBFCDBF1092E900D0
:100EE0008091E80083FF25C068E0CE0145960E940E
:100EF000E30282EF8093E8008D8987FF39C09091EB
:100F0000E80090FFFCCF982F907609F034C19E89BD
:100F10004F89588D2F89F88C911131C0803861F537
:100F200080914C028093F1001092F1008EEF80933B
:100F3000E8006C960FB6F894DEBF0FBECDBFDF9110
:100F4000CF91FF91EF91BF91AF919F918F917F9141
:100F50006F915F914F913F912F911F910F91FF9052
:100F6000EF90DF90CF900F900FBE0F901F901895CD
:100F70009EEF9093E800C7CF1092F100D5CF91304B
:100F800059F48111D3CF4130510581F680914C0243
:100F90008D7F80934C02CACF933049F48111C6CF24
:100FA0004130510519F680914C028260F2CF9530A4
:100FB00041F48091E80080FFFCCF20682093E3009B
:100FC000B5CF963009F0A9C00B8D1C8D22E0109290
:100FD000E9001092480210924702F2122EC01092BD
:100FE0004602109245020E94B2021F8299E0998344
:100FF000FA8291E09E8390EA98879AEF99872091F0
:10100000470230914802275F3F4F3C832B838D83FB
:101010001092E90010924802109247021093460283
:101020000093450249E050E0BE016F5F7F4F80E0D2
:101030000E948C020E94B20279CF10934602009364
:1010400045020E941602DC0112960D911C910115B9
:10105000110509F451C1D801ED91FC910480F5818D
:10106000E02DBE016B5E7F4FC8010995009709F026
:101070003EC1F80100851185EACFF3E0FF120EC0F2
:101080008F89882309F440C0823061F440E86BE026
:101090008CE291E00E945902811148CF81E2809355
:1010A000EB0047CF813029F440E868E083E291E02B
:1010B000F1CF833099F70E941602DC011296ED9071
:1010C000FC908E010F5F1F4F6801E114F10479F06D
:1010D000D701ED91FC910680F781E02DB801C701A1
:1010E0000995080F111DF701E084F184EECFD801B6
:1010F0001C92F60101900020E9F73197BF016C19AD
:101100007D0940E0C601C6CF6DE071E0FB0144916E
:1011100050E080E80E948C0209CF973009F4BECFDE
:10112000983021F481E08093F10000CF993009F0EC
:10113000FDCE837009F0B2CFE9E1F1E081E031E06A
:1011400096E32191222371F08093E9003093EB0024
:10115000DF0111972C912093EC009093ED008F5FAD
:10116000873079F78EE78093EA001092EA008F8942
:1011700080937F02DBCE8B8D9C8D1092E9001092C4
:101180004802109247029093460280934502898D4F
:10119000811192C08E899D89913A49F4813209F07A
:1011A0007DCF47E050E064E071E080E0B3CF913262
:1011B00009F074CF833269F48F89988DB0E0A0E094
:1011C0008093000190930101A0930201B093030169
:1011D000ADCE803269F48091E80082FFFCCF67E0F9
:1011E00084E091E00E94E3028BEF8093E8009ECEC2
:1011F000823209F09BCE8F8980930B01EEEFFFE7DF
:10120000859194918B3F9C4D51F1E0E0F8E0809105
:10121000040190910501A0910601B0910701803B66
:101220009440A105B105F1F480910B0180FD1AC035
:10123000EE3F8AE0F80789F587E797E79183808397
:10124000809160008093490288E19BE00FB6F8949A
:10125000A895809360000FBE9093600067CEEEEF7C
:10126000FAE0D5CF808191818737974709F05ECE2C
:10127000A895809160008861809360008091490208
:1012800080936000EE3F2AE0F20789F08091FE0A29
:101290009091FF0A9183808349CE80819181873725
:1012A000980751F29093FF0A8093FE0AC5CF1092DF
:1012B000FF0A1092FE0A3ACE0E941602DC01129634
:1012C0000D911C910115110509F4E8CED801ED919D
:1012D000FC910190F081E02DBE016B5E7F4FC80153
:1012E0000995811123CEF80100851185EBCF1816E1
:1012F00019060CF41BCED2CEF1E0FF12BECE61E196
:1013000071E004CF1F920F920FB60F9211242F930A
:101310003F938F939F93AF93BF9380913D029091A2
:101320003E02A0913F02B091400230913C0226E083
:10133000230F2D3758F50296A11DB11D20933C02B5
:1013400080933D0290933E02A0933F02B0934002EF
:101350008091410290914202A0914302B0914402D7
:101360000196A11DB11D8093410290934202A0936A
:101370004302B0934402BF91AF919F918F913F91EF
:101380002F910F900FBE0F901F90189529E8230FF3
:101390000396A11DB11DD2CF1F920F920FB60F92CF
:1013A00011242F933F934F935F936F937F938F936A
:1013B0009F93AF93BF93EF93FF93E0911401F0914C
:1013C00015010995FF91EF91BF91AF919F918F9179
:1013D0007F916F915F914F913F912F910F900FBE31
:1013E0000F901F9018951F920F920FB60F92112415
:1013F0002F933F934F935F936F937F938F939F931D
:10140000AF93BF93EF93FF93E0911201F09113011B
:101410000995FF91EF91BF91AF919F918F917F912E
:101420006F915F914F913F912F910F900FBE0F9051
:101430001F9018951F920F920FB60F9211242F93A1
:101440003F934F935F936F937F938F939F93AF934C
:10145000BF93EF93FF93E0911001F0911101099573
:10146000FF91EF91BF91AF919F918F917F916F917C
:101470005F914F913F912F910F900FBE0F901F9052
:1014800018951F920F920FB60F9211242F933F932E
:101490004F935F936F937F938F939F93AF93BF937C
:1014A000EF93FF93E0910E01F0910F010995FF91E9
:1014B000EF91BF91AF919F918F917F916F915F91CC
:1014C0004F913F912F910F900FBE0F901F90189545
:1014D0001F920F920FB60F9211242F933F934F93A9
:1014E0005F936F937F938F939F93AF93BF93EF938C
:1014F000FF93E0910C01F0910D010995FF91EF919F
:10150000BF91AF919F918F917F916F915F914F911B
:101510003F912F910F900FBE0F901F9018950F9332
:101520001F93CF93DF93E0E8F2E01382128288EEFC
:1015300093E0A0E0B0E084839583A683B78383E241
:1015400091E0918380830FEF1FEF15870487C4ED2F
:10155000D2E01B830A838AE090E09D838C8349E07C
:1015600050E061E273E08AED92E00E94300D198351
:1015700008838CE390E090931701809316011092FA
:10158000D0021092D1021092D2021092D302DF91B7
:10159000CF911F910F910895CF93DF93CDB7DEB711
:1015A000C85AD1090FB6F894DEBF0FBECDBF7894EC
:1015B00084B5826084BD84B5816084BD85B5826058
:1015C00085BD85B5816085BD80916E008160809309
:1015D0006E00109281008091810082608093810072
:1015E0008091810081608093810080918000816082
:1015F000809380008091910082608093910080911F
:10160000910081608093910080919000816080932F
:1016100090008091C10084608093C1008091C100DE
:1016200082608093C1008091C10081608093C1007D
:101630008091C30081608093C3008091C00082606C
:101640008093C0008091C20081608093C20080912D
:101650007A00846080937A0080917A00826080931F
:101660007A0080917A008E7F80937A0080917A0050
:10167000806880937A0010927F0210924C02109240
:101680004B028091D70081608093D70080EA8093DD
:10169000D80089B58F7E89BD89B5826089BD09B4BE
:1016A00000FEFDCF61E070E080E090E00E94220447
:1016B0008091D8008F7C80618093D8008091E00079
:1016C000807F8093E0008091E1008E7E8093E10036
:1016D0008DE08093E200559A209A8FEF9FEF9093D0
:1016E0008D0280938C021092D5021092D40284ED68
:1016F00092E00E94D9048BE090E09093D70280930F
:10170000D602EEE7F1E02491EFE5F1E08491882341
:1017100099F090E0880F991FFC01EA5BFE4FA591BC
:10172000B491FC01E85CFE4F859194918FB7F894D9
:10173000EC91E22BEC938FBF82E390E09093D9027F
:101740008093D802CE0101966C0124E3222E21E081
:10175000322E8091D0029091D102A091D202B0910C
:10176000D302892B8A2B8B2B09F472C18FE0E4ED15
:10177000F2E0DE01A656BF4F01900D928A95E1F787
:101780004090D0025090D1026090D2027090D3026B
:101790008AEB92E00E94D306411451046104710463
:1017A00009F410C140914D0250914E0220914F0218
:1017B0003091500210927102E1E5F2E090E080E099
:1017C00053014201082E04C0B694A79497948794BD
:1017D0000A94D2F760E380FC61E3678F019631974A
:1017E0008032910569F75F934F933F932F937F92D8
:1017F0006F925F924F92E1E5F2E0FF93EF933F9299
:101800002F92DF92CF920E947C0D0FB6F894DEBF2C
:101810000FBECDBFC6010E94C60681E391E00E94C3
:10182000C60664EF71E080E090E00E94220486E842
:1018300092E00E94D30664EF71E080E090E00E94A5
:10184000220482E592E00E94D30664EF71E080E01A
:1018500090E00E9422048FE192E00E94D30664EFA0
:1018600071E080E090E00E94220484E192E00E9416
:10187000D306B12CA12C68EE73E080E090E00E94CA
:1018800022048AE092E00E940603C756DF4F1882C6
:10189000C959D040A301920109E710E00C0F1D1FA8
:1018A000005E1F4FCA01B9012AE030E040E050E07D
:1018B0000E944D0D605DF80162938F012115310585
:1018C0004105510579F7309719F0CF010E94C606FE
:1018D00081E391E00E94C606C456DF4F888199815A
:1018E000CC59D040019609F496C0C656DF4F088106
:1018F0001981CA59D0400F3F1007E9F0053098F41C
:10190000F801FF27023009F46CC008F061C0013013
:1019100009F465C0E898EE0FFF1FE45FFE4F8AE20E
:1019200092E091838083EFEFFFEFC656DF4FF9839C
:10193000E883CA59D040912C812CC256DF4F888150
:101940009981CE59D040881699060CF04EC087E197
:10195000E82EF12C81E090E0A0E0B0E00E2C04C075
:10196000880F991FAA1FBB1F0A94D2F784219521C3
:10197000A621B721CA55DF4F68817981C65AD04068
:10198000892B8A2B8B2B31F4CC55DF4F68817981E1
:10199000C45AD040CE0186569F4F0E942805F1E0E0
:1019A000EF1AF108B8F6CE55DF4F68817981C25A37
:1019B000D040CE0186569F4F0E9428058FEF881A8F
:1019C000980ABBCF62E871E0C6010E94750D22CF74
:1019D000033049F0043009F09DCFEE989CCFE99890
:1019E0009ACFEA9898CFEB9896CF60E0C456DF4F35
:1019F0008881CC59D0400E948C030F3F100759F0CA
:101A0000C656DF4F19830883CA59D040CE01865687
:101A10009F4F0E94D904EFEFAE1ABE0AFFEF4F1A94
:101A20005F0A6F0A7F0A2AE0A216B10409F023CFE9
:101A300088EF91E00E94D30682E991E00E94D306EC
:101A40001092D0021092D1021092D2021092D302C0
:101A500080E090E0892B09F47CCE0E94000072CED9
:101A6000FB01DC0102C005900D9241505040D8F7B7
:101A70000895AA1BBB1B51E107C0AA1FBB1FA617D5
:101A8000B70710F0A61BB70B881F991F5A95A9F727
:101A900080959095BC01CD010895A1E21A2EAA1B54
:101AA000BB1BFD010DC0AA1FBB1FEE1FFF1FA2170E
:101AB000B307E407F50720F0A21BB30BE40BF50B0B
:101AC000661F771F881F991F1A9469F76095709594
:101AD000809590959B01AC01BD01CF010895EE0F5B
:101AE000FF1F0590F491E02D0994FB01DC010190AA
:101AF0000D920020E1F70895AEE0B0E0E2E8FDE0ED
:101B00000C942B100D891E8986E08C831A8309831F
:101B10008FEF9FE79E838D83AE01475E5F4F6F8996
:101B2000788DCE0101960E949F0D2F813885020F7E
:101B3000131FF80110822E96E4E00C944710ABE0DE
:101B4000B0E0E5EAFDE00C941D107C013B018A0148
:101B5000FC0117821682838181FFC8C1CE010196E4
:101B60005C01F7019381F30193FD859193FF8191CE
:101B70003F01882309F453C1853239F493FD8591DF
:101B800093FF81913F01853229F4B70190E00E94D3
:101B90008F0FE7CF912C212C312CFFE1F31538F07A
:101BA0008B3211F190F4803209F1833229F137FC44
:101BB0003CC020ED280F2A3050F536FE20C08AE0C8
:101BC000989E200D1124922E06C08D3291F0803304
:101BD00071F7689430F8F30193FD859193FF81913B
:101BE0003F018111DACF21C0689431F8689432F84E
:101BF000F2CF689433F8EFCF689434F8ECCFEAE092
:101C00002E9E200D1124222E689435F8E4CF8E32BA
:101C100029F436FC04C1689436F8DDCF8C3619F40B
:101C2000689437F8D8CF8836B1F2982F9F7D9554B5
:101C30009330E0F08336A1F18337C1F1833509F0A9
:101C400063C02801F2E04F0E511CF801C080D18022
:101C5000692D70E036FC02C06FEF7FEFC6010E9475
:101C6000790F4C01689437F882010AC00C5F1F4F4E
:101C7000FFE3F98388248394912C6501E89437F875
:101C800033FE2DC0522C8114910471F5552009F4B6
:101C900068CFB70180E290E00E948F0F5A94F6CF90
:101CA000F801808189830E5F1F4FE4CF2801F2E0A5
:101CB0004F0E511CF801C080D180692D70E036FCB8
:101CC00002C06FEF7FEFC6010E94840F4C018201BA
:101CD000D5CFB70180E290E00E948F0F2A9428149C
:101CE000190409F0B0F7CECFF60137FC859137FE25
:101CF00081916F01B70190E00E948F0F51105A94AB
:101D0000F1E08F1A9108BFCF843619F0893609F0B7
:101D100077C0F80137FE6BC0608171818281938149
:101D20000C5F1F4FF32DFF763F2E97FF09C0909554
:101D30008095709561957F4F8F4F9F4F689437F8CE
:101D40002AE030E0A5010E94BF0FC82ECA188C2CD3
:101D5000432C36FE0CC0E89440F8C91440F434FE1D
:101D600005C032FC03C0F32DFE7E4F2E892C44FEAD
:101D700095C0FE01EC0DF11D8081803309F087C014
:101D8000242D297E422E842D8870582E43FC95C028
:101D900040FE8FC09C2C821418F42C0C922C9818A6
:101DA00044FE91C0B70180E390E00E948F0F42FE95
:101DB00009C088E790E041FE02C088E590E0B701E5
:101DC0000E948F0FC91408F48AC0CA94D12C9FEFC7
:101DD000C91AD90ACA0CDB1CF60182916F01B7013E
:101DE00090E00E948F0FAC14BD04B1F74FCF60811B
:101DF0007181072E000C880B990B0E5F1F4F92CF3D
:101E0000D32CE894D4F82AE030E0853739F1232D3B
:101E1000297FD22E8F3601F148F48835A9F0F701D9
:101E2000868197812B96E2E10C943910803749F036
:101E30008837A9F7D4FE02C06894D2F820E130E0D8
:101E40000DC06894D4F8F6CF34FE03C0822F8660AC
:101E5000D82E20E132E002C028E030E0F801D7FEC1
:101E60000FC060817181828193810C5F1F4FA5013A
:101E70000E94BF0FC82ECA183D2CE89437F867CFD0
:101E80006081718190E080E00E5F1F4FF0CF42FCD7
:101E900002C0839478CF8394839475CF842D867801
:101EA00009F471CFF6CFB70180E290E00E948F0F66
:101EB00083948214C0F3512C73CF522C581882147F
:101EC00008F46ECFF8CF842D867809F47BCF8BE2AF
:101ED00041FE80E247FC8DE2B70190E071CFB7018F
:101EE00080E390E00E948F0F9A946CCF8FEF9FEF6A
:101EF00099CFFC010590615070400110D8F7809592
:101F000090958E0F9F1F0895FC01615070400190C5
:101F10000110D8F7809590958E0F9F1F08950F930D
:101F20001F93CF93DF93182F092FEB018B8181FD36
:101F300009C01FEF0FEF812F902FDF91CF911F91DD
:101F40000F91089582FF14C02E813F818C819D8165
:101F5000281739073CF4E881F981CF01019699836C
:101F6000888310838E819F8101969F838E83E3CF28
:101F7000E885F985812F0995892BA1F3DACFFA013C
:101F8000AA27283051F1203181F1E8946F936E7FB8
:101F90006E5F7F4F8F4F9F4FAF4FB1E03ED0B4E0A9
:101FA0003CD0670F781F891F9A1FA11D680F791FEA
:101FB0008A1F911DA11D6A0F711D811D911DA11DFB
:101FC00020D009F468943F912AE0269F112430190B
:101FD000305D3193DEF6CF010895462F4770405DA6
:101FE0004193B3E00FD0C9F7F6CF462F4F70405D55
:101FF0004A3318F0495D31FD4052419302D0A9F7B0
:10200000EACFB4E0A6959795879577956795BA95A9
:10201000C9F700976105710508959B01AC010A2E6F
:1020200006945795479537952795BA95C9F7620F46
:10203000731F841F951FA01D08952F923F924F92EA
:102040005F926F927F928F929F92AF92BF92CF9248
:10205000DF92EF92FF920F931F93CF93DF93CDB751
:10206000DEB7CA1BDB0B0FB6F894DEBF0FBECDBFC9
:1020700009942A88398848885F846E847D848C849A
:102080009B84AA84B984C884DF80EE80FD800C81A3
:102090001B81AA81B981CE0FD11D0FB6F894DEBF86
:1020A0000FBECDBFED010895F894FFCFFFFFFFFFF6
:1020B00000E10000000000002A022A022A022A028F
:1020C0002A023C0000C1808100000000000000F0F6
:1020D0000254042C032103720330034E030D0A0043
:1020E0005B4F5D205B5061636B6574205265636577
:1020F000697665645D2042696E6172793A20257364
:10210000202F20446563696D616C3A2025303130A1
:102110006C75202F202530326420626974202F20B6
:1021200050726F746F636F6C203D202564005B6F8D
:102130005D205061636B65742052656365697665E7
:10214000643A20556E6B6E6F776E20656E636F64B8
:08215000696E672028302900A8
:1070000055C000006EC000006CC000006AC00000E7
:1070100068C0000066C0000064C0000062C00000DC
:1070200060C000005EC00000FCC400005AC0000048
:1070300058C0000056C0000054C0000052C00000FC
:1070400050C000005DC000004CC000004AC00000FD
:1070500048C0000046C0000044C0000042C000001C
:1070600040C000003EC000003CC000003AC000002C
:1070700038C0000036C0000034C0000032C000003C
:1070800030C000002EC000002CC000002AC000004C
:1070900028C0000026C0000024C0000022C000005C
:1070A00020C000001EC000001CC0000011241FBE34
:1070B000CFEFDAE0DEBFCDBF11E0A0E0B1E0E2E467
:1070C000FFE702C005900D92A83BB107D9F711E088
:1070D000A8EBB1E001C01D92A13DB107E1F74FD38C
:1070E0002EC78ECFF89410926F001092810081E02D
:1070F00085BF15BE47985D9A289A0C9400000895A4
:107100001F920F920FB60F9211242F938F939F937C
:10711000EF93FF9310928500109284008091B80144
:107120009091B901009741F001979093B901809334
:10713000B801892B09F45D9A8091BA019091BB0145
:10714000009741F001979093BB018093BA01892B7E
:1071500009F4289A8091BE019091BF010196909305
:10716000BF018093BE01E0E0F0E0859194918F5FD4
:107170009F4F49F08091BC019091BD010196909381
:10718000BD018093BC01FF91EF919F918F912F9151
:107190000F900FBE0F901F90189584E08093E90028
:1071A0000DC08091E8008B778093E80003C08EB318
:1071B000882351F08091E80082FFF9CF8091E800A8
:1071C00085FFEFCF8091F1000895982F83E08093A1
:1071D000E9008091E80085FD0DC08091E8008E7780
:1071E0008093E80003C08EB3882369F08091E800A3
:1071F00080FFF9CF9093F1005D9884E690E0909342
:10720000B9018093B80108954F925F926F927F9277
:107210008F929F92AF92BF92CF92DF92EF92FF92A6
:107220000F931F93CF93DF9384E08093E9008091C5
:10723000E80082FF57C2289884E690E09093BB0153
:107240008093BA01AADF182F853481F48CEA9DE07F
:107250009093BD018093BC0107B600FCFDCFF99966
:10726000FECF81E180935700E89503C0843519F47F
:1072700094DF8DE00DC28C34E1F38035D1F3843797
:1072800021F484E4A2DF80E003C2813611F489E5B1
:10729000FFC18134B1F481DF182F7FDF90E0880FC8
:1072A000991FAA2797FDA095BA2F312F330F20E001
:1072B000442737FD4095542F822B932BA42BB52BBD
:1072C000B8C1803711F483E5E3C1833549F4C0E0E8
:1072D000D1E089917ADF21E0C730D207D1F7D9C157
:1072E000863521F481E371DF80E3D2C1833731F445
:1072F00087E86BDF85E969DF8EE1CAC18536B9F4BD
:10730000E0E0F0E093E085E090935700E89507B661
:1073100000FCFDCF80935700E89507B600FCFDCF39
:10732000E058FF4FA0E7E030FA0771F7A2CF8237AD
:1073300039F4E1E0F0E089E0809357008491A8C13E
:10734000863439F4E0E0F0E089E0809357008491DE
:107350009FC18E3439F4E3E0F0E089E08093570078
:10736000849196C1813539F4E2E0F0E089E08093C0
:10737000570084918DC1823631F489E526DF80E0A3
:1073800024DF80E885C1823419F0873609F0E5C032
:107390001092BD011092BC0100DF082FFEDEF82E16
:1073A000FCDE682E8554823008F071C1902F80E099
:1073B000CF2DD0E0C82BD92B10926F00173609F0D3
:1073C0004BC081E180935700E895DD24CC24C39421
:1073D0003FC0E090C101F090C2010091C301109143
:1073E000C401B6E46B16D9F4ED2DF0E0EE29FF29C7
:1073F000E4918E2FEADEDD2081F082E090E0A0E0D3
:10740000B0E0E80EF91E0A1F1B1FE092C101F092C6
:10741000C2010093C3011093C401DC2418C0D80139
:10742000C701B695A7959795879573D5CEDE82E06F
:1074300090E0A0E0B0E0E80EF91E0A1F1B1FE092EA
:10744000C101F092C2010093C3011093C4012197BE
:10745000209709F0BECF7DC08090C1019090C201FD
:10746000A090C301B090C40196E4691609F05DC014
:1074700083E0F40180935700E89507B600FCFDCF48
:1074800054C0F6E46F1661F5772031F1E090C10148
:10749000F090C2010091C3011091C4017EDED82E8C
:1074A000CC24852D90E08C299D29F7010C01409278
:1074B0005700E895112482E090E0A0E0B0E0E80EEB
:1074C000F91E0A1F1B1FE092C101F092C201009336
:1074D000C3011093C40102C060DE582E742423C07F
:1074E000E090C101F090C2010091C3011091C4016C
:1074F00016950795F794E79450DE682FC70111D5CC
:107500008091C1019091C201A091C301B091C401C9
:107510000296A11DB11D8093C1019093C201A09359
:10752000C301B093C401219704C055247724442497
:107530004394209709F0A5CF96E4691641F485E0BD
:10754000F40180935700E89507B600FCFDCF8DE06D
:107550003CDE82E080936F009CC0833471F4009124
:10756000C1011091C20119DE90E021E0F8010C0187
:1075700020935700E89511247CCE833619F5E090CE
:10758000C101F090C2010091C3011091C40105DE58
:10759000F701E16090E021E00C0120935700E895AD
:1075A000112482E090E0A0E0B0E0E80EF91E0A1F8E
:1075B0001B1FE092C101F092C2010093C30110931E
:1075C000C40157CE8D3661F4E091C101F091C20142
:1075D00085E080935700E89507B600FCFDCF49CEC3
:1075E000823551F4E091C101F091C20105911491ED
:1075F000812FEBDD802F4CC0843421F5E090C10158
:10760000F090C2010091C3011091C4011695079535
:10761000F794E794C2DD682FC70183D48091C1013C
:107620009091C201A091C301B091C4010296A11D25
:10763000B11D8093C1019093C201A093C301B09387
:10764000C40117CE843609F5E090C101F090C20163
:107650000091C3011091C401D801C701B695A79547
:107660009795879556D4B1DD82E090E0A0E0B0E038
:10767000E80EF91E0A1F1B1FE092C101F092C20121
:107680000093C3011093C40104C08B3111F08FE348
:107690009CDD83E08093E9009091E8008091E80010
:1076A0008E778093E80095FF04C010C08EB38823C6
:1076B000C9F08091E80080FFF9CF8091E8008E77D3
:1076C0008093E80003C08EB3882361F08091E800C6
:1076D00080FFF9CF84E08093E9008091E8008B7708
:1076E0008093E800DF91CF911F910F91FF90EF9071
:1076F000DF90CF90BF90AF909F908F907F906F90D2
:107700005F904F9008959091C901892F8F778132B2
:1077100049F58091CA018032A1F0813219F5913A80
:1077200009F58091E800877F8093E8008CE091E084
:1077300067E070E025D28091E8008B778093E800C5
:107740000895913279F48091E800877F8093E80072
:107750008CE091E067E070E077D28091E8008E776E
:107760008093E800089582E061EC42E0D1D083E0AC
:1077700061E842E1CDD084E060E842E1C9C01F93F6
:10778000209100081092000844B714BE88E10FB69B
:10779000F89480936000109260000FBE80E8E0E0F3
:1077A000F0E00FB6F89480936100E09361000FBEA3
:1077B00031E035BF92E095BF3F9A209A559A809369
:1077C00061001092610047985D9A289A1092890092
:1077D0008AEF8093880090936F0083E0809381000C
:1077E000859194918F5F9F4F11F03093C001942F3A
:1077F00041FF19C0809109012817A9F08093000862
:10780000789480911301882339F08091BE01909182
:10781000BF0188579140C8F310920008F89481E0A6
:10782000809313010CC090FF04C08091C001882395
:1078300051F493FF09C080910901281729F0809124
:10784000C001882309F04EDCD4D078941092BD0199
:107850001092BC011EEF20C0D7DC49D38091BC013F
:107860009091BD01815A9F4010F0109213018091B8
:10787000C5019091C60101969093C6018093C50100
:10788000292F97FF03C0512F591B252F220F28178F
:1078900010F4479801C0479A809113018823E1F6BC
:1078A0008091E00081608093E0001CDC80E090E04B
:1078B0001F910895FA01923049F0933061F09130B0
:1078C000F9F484E191E022E130E01EC086E291E02B
:1078D0002EE330E019C0882329F484E691E024E007
:1078E00030E012C0813029F488E691E022E230E0F5
:1078F0000BC0823029F48CE891E02AE230E004C029
:1079000080E090E020E030E091838083C901089519
:107910008093E9008091EB0081608093EB001092EE
:10792000ED006093EC004093ED008091EE00881F25
:107930008827881F08958091C90188238CF403C08B
:107940008EB38823B1F08091E80082FFF9CF809157
:10795000E8008B778093E80008958EB3882349F080
:107960008091E80080FFF9CF8091E8008E778093C6
:10797000E8000895EF92FF920F931F9345D04CD0EB
:1079800008ED10E0F80180818F7780838081806826
:10799000808380818F7D808319BC1EBA1092C701BD
:1079A00080EEE82EF12CF70180818B7F8083F80137
:1079B00080818160808380E060E042E0A9DFE1EEC9
:1079C000F0E080818E7F8083E2EEF0E08081816054
:1079D0008083808188608083F70180818E7F8083AF
:1079E000F8018081806180831F910F91FF90EF905B
:1079F0000895E7EDF0E08081816080838AE482BFB2
:107A000081E08093C801B6CFE8EDF0E080818E7F01
:107A100080831092E20008951092DA001092E10043
:107A200008951F920F920FB60F9211242F933F9338
:107A30004F935F936F937F938F939F93AF93BF9376
:107A4000EF93FF938091DA0080FF1AC08091D800F5
:107A500080FF16C08091DA008E7F8093DA008091DB
:107A6000D90080FF0AC019BC82E089BD09B400FEBC
:107A7000FDCF81E08EBB3AD203C019BC1EBA36D20C
:107A80008091E10080FF17C08091E20080FF13C069
:107A90008091E2008E7F8093E2008091E20080611D
:107AA0008093E2008091D80080628093D80019BC56
:107AB00085E08EBB1BD28091E10084FF2BC08091BA
:107AC000E20084FF27C019BC82E089BD09B400FE32
:107AD000FDCF8091D8008F7D8093D8008091E10008
:107AE0008F7E8093E1008091E2008F7E8093E200A0
:107AF0008091E20081608093E2008091C701882339
:107B000031F48091E30087FD02C081E001C084E090
:107B10008EBBECD18091E10083FF21C08091E20017
:107B200083FF1DC08091E100877F8093E10082E0A8
:107B30008EBB1092C7018091E1008E7F8093E1009F
:107B40008091E2008E7F8093E2008091E20080616C
:107B50008093E20080E060E042E0DADEC7D1FF918E
:107B6000EF91BF91AF919F918F917F916F915F91B5
:107B70004F913F912F910F900FBE0F901F9018952E
:107B80009C014091CF015091D0014617570718F43E
:107B9000F90190E044C06115710511F0AB01F8CF17
:107BA0008091E8008E778093E80040E050E0F0CFCD
:107BB0008EB3882309F444C0853009F443C0809112
:107BC000E80083FF02C081E008958091E80082FD13
:107BD00031C08091E80080FF22C08091F300909135
:107BE000F200782F60E0292F30E0262B372B07C0DA
:107BF00081918093F100415050402F5F3F4F4115DC
:107C0000510519F02830310598F390E028303105FE
:107C100009F491E08091E8008E778093E8004115A7
:107C2000510531F6992321F605C08EB3882341F022
:107C3000853041F08091E80082FFF7CF80E0089521
:107C400082E0089583E008959C016115710529F48F
:107C50008091E8008B778093E800F90126C08EB30D
:107C6000882391F1853091F18091E80083FF02C073
:107C700081E008958091E80082FFF1CF06C08091F5
:107C8000F10081936150704059F02091F300809190
:107C9000F200322F20E090E0822B932B892B79F792
:107CA0008091E8008B778093E80061157105B9F643
:107CB00005C08EB3882341F0853041F08091E80003
:107CC00080FFF7CF80E0089582E0089583E0089573
:107CD0000F931F93DF93CF9300D0CDB7DEB7E9ECBE
:107CE000F1E08091F100819381E0E13DF807C9F76F
:107CF0000ADD8091E80083FFE4C08091C901909182
:107D0000CA01953009F46DC0963040F4913081F18C
:107D1000913070F0933009F0D4C02AC0983009F443
:107D2000A3C0993009F4B2C0963009F0CAC07CC033
:107D3000803809F4C6C0823809F0C3C08091CD01F3
:107D400087708093E9008091EB001092E900209108
:107D5000E800277F2093E80090E025E0969587953E
:107D60002A95E1F781708093F1001092F10087C0AD
:107D7000882319F0823009F0A4C08F71823009F095
:107D8000A0C08091CB01882331F52091CD012770CF
:107D900009F497C02093E9008091EB0080FF1BC09D
:107DA000933021F48091EB00806213C08091EB004E
:107DB00080618093EB0081E090E002C0880F991F02
:107DC0002A95E2F78093EA001092EA008091EB0096
:107DD00088608093EB001092E9008091E800877F33
:107DE00051C0882309F06DC01091CB011F770FB7E8
:107DF000F8948091E800877F8093E8009CDD809173
:107E0000E80080FFFCCF8091E3008078812B809395
:107E1000E30080688093E300112311F482E001C045
:107E200083E08EBB0FBF4DC08058823008F049C040
:107E30008091CB019091CC016091CD01AE014F5F5B
:107E40005F4F38DDBC01009709F43BC08091E8002A
:107E5000877F8093E80089819A8192DE8091E80093
:107E60008B778093E8002DC0803859F58091E80029
:107E7000877F8093E8008091C7018093F100809113
:107E8000E8008E778093E80056DD1BC08823C9F494
:107E90009091CB019230A8F48091E800877F809385
:107EA000E8009093C70147DD8091C701882331F432
:107EB0008091E30087FD02C081E001C084E08EBBB9
:107EC00052DC8091E80083FF0AC08091EB00806261
:107ED0008093EB008091E800877F8093E8000F900B
:107EE0000F90CF91DF911F910F91089508951F93E7
:107EF0008EB3882361F01091E9001092E90080911F
:107F0000E80083FF01C0E4DE17701093E9001F91C1
:107F10000895F999FECF92BD81BDF89A992780B551
:107F20000895262FF999FECF1FBA92BD81BD20BDBD
:107F30000FB6F894FA9AF99A0FBE01960895F8943C
:107F4000FFCF4341544552494E410077000800009D
:107F500000000000080112011001020000084F1B80
:107F6000079201000201000109023E0002010080A7
:107F7000320904000001020201000524001001047E
:107F80002402040524060001070582030800FF09F6
:107F9000040100020A0000000705040210000107A6
:107FA0000583021000010403090422034C00690048
:107FB0006C007900500061006400550053004200DD
:107FC00020002000200020002000200000002A03C4
:107FD00053007000610072006B00460075006E0077
:107FE000200045006C0065006300740072006F00A3
:0A7FF0006E006900630073000000DA
:00000001FF
