:100000000C94420B0C94EC2A0C94C52A0C949E2A56
:100010000C94772A0C946A0B0C946A0B0C94502A5B
:100020000C946A0B0C946A0B0C940D270C947C278F
:100030000C946A0B0C946A0B0C946A0B0C946A0B6C
:100040000C946A0B0C946A0B0C946A0B0C946A0B5C
:100050000C946A0B0C946A0B0C946A0B0C94062A91
:100060000C946A0B0C94D4290C94AE290C946A0B52
:100070000C946A0B0C946A0B0C946A0B0C946A0B2C
:100080000C946A0B0C946A0B0C946A0B0C946A0B1C
:100090000C946A0B0C946A0B0C946A0B0C946A0B0C
:1000A0000C946A0B0C946A0B0C946A0B002D2D2D8A
:1000B0002D2D2D2D2D2D2D2D2D2D2D2D2D2D2D2D70
:1000C0002D2D2D2D2D2D2D2D2D2D2D2D2D2D2D2D60
:1000D0002D2D005B535D206372656174652053654F
:1000E0007269616C207061737374687275207475C5
:1000F0006E6E656C005B455D20526177204E4D450C
:1001000041206F75742028464F4E41383038290001
:100110005B785D2047505320666978207374617462
:1001200075732028464F4E41383038207631206F85
:100130006E6C7929005B4C5D2051756572792047A2
:100140005053206C6F636174696F6E2028464F4E68
:100150004120383038202620334729005B6F5D204E
:100160005475726E20475053206F66662028464FA4
:100170004E4120383038202620334729005B4F5D20
:10018000205475726E20475053206F6E2028464FC2
:100190004E4120383038202620334729005B575DF8
:1001A00020506F737420746F207765627369746573
:1001B00020284750525329005B775D2052656164C7
:1001C0002077656270616765202847505253290087
:1001D0005B6C5D2051756572792047534D4C4F43E0
:1001E00020284750525329005B675D2044697361A2
:1001F000626C652047505253005B475D20456E613D
:10020000626C652047505253005B745D20476574F3
:10021000206E6574776F726B2074696D65005B5931
:100220005D20456E61626C65204E54502074696D8E
:10023000652073796E6320284750525320464F4EF5
:10024000412038303020262038303829005B795D55
:1002500020456E61626C65206E6574776F726B20ED
:1002600074696D652073796E632028464F4E412076
:1002700038303020262038303829005B755D205317
:10028000656E642055535344005B735D2053656E67
:100290006420534D53005B645D2044656C65746558
:1002A00020534D532023005B525D20526561642032
:1002B000416C6C20534D53005B725D20526561644C
:1002C00020534D532023005B4E5D204E756D6265BB
:1002D00072206F6620534D5373005B705D20506930
:1002E000636B2075702070686F6E65005B685D20C1
:1002F00048616E672075702070686F6E65005B41A5
:100300005D206765742063616C6C20737461747523
:1003100073005B635D206D616B652070686F6E6557
:100320002043616C6C005B715D2067657420464DF5
:100330002073746174696F6E207369676E616C20DD
:100340006C6576656C2028464F4E41383030290068
:100350005B4D5D2067657420464D20766F6C756D32
:10036000652028464F4E4138303029005B6D5D20B6
:1003700073657420464D20766F6C756D6520284638
:100380004F4E4138303029005B465D207475726EE7
:10039000206F666620464D2028464F4E413830304B
:1003A00029005B665D2074756E6520464D20726184
:1003B00064696F2028464F4E4138303029005B5029
:1003C0005D2050574D2F42757A7A6572206F757493
:1003D0002028464F4E4138303020262038303829EA
:1003E000005B545D20706C617920617564696F20D9
:1003F000546F6E65005B655D20736574204578748D
:1004000065726E616C20617564696F2028464F4E7D
:100410004138303020262038303829005B485D20B4
:10042000736574204865616470686F6E65206175DE
:1004300064696F2028464F4E4138303020262038DE
:10044000303829005B565D2067657420566F6C75E7
:100450006D65005B765D2073657420617564696FFE
:1004600020566F6C756D65005B6E5D20676574204E
:100470004E6574776F726B20737461747573005B73
:10048000695D20726561642052535349005B555D7C
:1004900020556E6C6F636B2053494D2077697468EB
:1004A0002050494E20636F6465005B435D20726598
:1004B0006164207468652053494D204343494400DA
:1004C0005B625D20726561642074686520426174BE
:1004D00074657279205620616E64202520636861FE
:1004E00072676564005B615D207265616420746899
:1004F000652041444320322E3856206D61782028F3
:10050000464F4E4138303020262038303829005BA5
:100510003F5D205072696E742074686973206D6548
:100520006E75002D2D2D2D2D2D2D2D2D2D2D2D2D9F
:100530002D2D2D2D2D2D2D2D2D2D2D2D2D2D2D2DEB
:100540002D2D2D2D2D2D2D2D005B6B5D20546573D4
:1005500074204D6F7573656A61636B2046656174C5
:10056000757265205B4E4F5420574F524B494E4792
:10057000204E4F575D005B4B5D20496E6A6563748A
:10058000204B65797374726F6B6573002D2D2D2D63
:100590002D2D2D2D2D2D2D2D2D2D2D2D2D2D2D2D8B
:1005A0002D2D2D2D2D2D2D2D2D2D2D2D2D2D2D2D7B
:1005B0002D002B434144433A20312C0041542B431E
:1005C0004144433F002B4342433A200041542B43D4
:1005D0004243002B4342433A200041542B434243C1
:1005E0000041542B43434944002B4353513A2000CC
:1005F00041542B435351002B435245473A2000416D
:10060000542B435245473F0041542B434C564C3DDD
:10061000002B434C564C3A200041542B434C564C33
:100620003F0041542B434846413D0041542B535415
:10063000544F4E453D312C0041542B464D465245BA
:10064000513D0041542B464D4F50454E3D004154C5
:100650002B464D434C4F53450041542B464D564F6E
:100660004C554D453D002B464D564F4C554D453A4A
:10067000200041542B464D564F4C554D453F002BC5
:10068000464D5349474E414C3A200041542B464D6C
:100690005349474E414C3D0041542B5350574D3D1B
:1006A000302C002B435041533A200041542B4350EF
:1006B0004153004154483000415441002B434D47C1
:1006C000523A0041542B434D47523D0041542B4375
:1006D0004D47523D0041542B435344483D31004166
:1006E000542B434D47463D310041542B434D474623
:1006F0003D31003E20003E200041542B434D4746F3
:100700003D31002B435553443A200041542B43556F
:1007100053443D310041542B434C54533D31002B45
:10072000434E54503A0041542B434E545000222C17
:10073000300041542B434E54503D220041542B4332
:100740004E54504349443D310041542B43434C4B9C
:100750003F00535354415455533A204C6F636174D6
:10076000696F6E200041542B4347505353544154FA
:1007700055533F002B43475053494E464F3A004193
:10078000542B43475053494E464F002B43474E533B
:10079000494E463A200041542B43474E53494E465A
:1007A0000053494E460041542B43474E53494E4651
:1007B0000041542B43475053494E463D0041542B72
:1007C00043475053494E464F0041542B43474E53E5
:1007D0005453543D310041542B43474E53545354CA
:1007E0003D300041542B43494943520041542B535F
:1007F000415042523D312C310041542B5341504223
:10080000523D332C312C22505744222C0041542B82
:1008100053415042523D332C312C225553455222E4
:100820002C0041542B435354543D2200092D2D2DAF
:100830003E200041542B435354543D220041542B3D
:1008400053415042523D332C312C2241504E222CE8
:100850000041542B53415042523D332C312C224302
:100860004F4E54595045222C22475052532200419A
:10087000542B43474154543D310053485554204F65
:100880004B0041542B434950534855540041542B7D
:1008900043474154543D300041542B534150425240
:1008A0003D302C310053485554204F4B0041542BC0
:1008B00043495053485554002B43495047534D4CDE
:1008C0004F433A200041542B43495047534D4C4F1E
:1008D000433D312C31004C656E3A200053746174F5
:1008E00075733A20004C656E3A200053746174753C
:1008F000733A2000444F574E4C4F41440041542B13
:1009000048545450444154413D0041542B485454A0
:1009100050444154413D00092D2D2D3E2000434FB0
:100920004E54454E5400556E6B6E6F776E20636F5C
:100930006D6D616E64004372656174696E6720530A
:10094000455249414C2054554245000A2A2A2A2A38
:1009500000746578742F706C61696E002A2A2A2AE7
:10096000004461746120746F20706F737420286577
:100970002E672E2022666F6F22206F7220227B222C
:1009800073696D706C65223A226A736F6E227D22E4
:10099000293A00687474703A2F2F0055524C207415
:1009A0006F20706F73742028652E672E2068747412
:1009B0007062696E2E6F72672F706F7374293A00C0
:1009C0004E4F54453A20696E20626574612120556E
:1009D00073652073696D706C6520776562736974E7
:1009E000657320746F20706F737421000A2A2A2A9D
:1009F0002A002A2A2A2A00687474703A2F2F005578
:100A0000524C20746F20726561642028652E672E19
:100A100020687474703A2F2F7769666974657374EF
:100A20002E61646166727569742E636F6D2F7465D3
:100A30007374776966692F696E6465782E68746D62
:100A40006C293A004E4F54453A20696E2062657415
:100A500061212055736520736D616C6C2077656230
:100A6000706167657320746F207265616421004650
:100A700061696C20636F64652023004661696C6561
:100A80006421004661696C656420746F207475721E
:100A90006E206F6E004661696C656420746F20740F
:100AA00075726E206F6666004F6E20283129206FA8
:100AB00072204F6666202830293F2000475053207F
:100AC0004E4D4541206F75747075742073656E745A
:100AD000656E636573202830203D206F66662C208C
:100AE0003334203D20524D432B4747412C20323593
:100AF00035203D20616C6C29005265706C7920694D
:100B00006E20666F726D61743A206D6F64652C663D
:100B100069787374617475732C75746374696D6529
:100B200028797979796D6D646448484D4D5353291E
:100B30002C6C617469747564652C6C6F6E67697474
:100B40007564652C616C7469747564652C7370656B
:100B500065642C636F757273652C6669786D6F645C
:100B6000652C7265736572766564312C48444F500C
:100B70002C50444F502C56444F502C726573657264
:100B8000766564322C766965775F736174656C6C29
:100B9000697465732C757365645F736174656C6CDF
:100BA000697465732C7265736572766564332C4362
:100BB0002F4E306D61782C4850412C5650410052D8
:100BC00065706C7920696E20666F726D61743A2071
:100BD0006D6F64652C6C6F6E6769747564652C6CE1
:100BE000617469747564652C616C7469747564658D
:100BF0002C75746374696D6528797979796D6D6484
:100C00006448484D4D5353292C747466662C7361A7
:100C100074656C6C697465732C73706565642C63A2
:100C20006F75727365003344206669780032442022
:100C3000666978004E6F2066697800475053206FD0
:100C40006666004661696C656420746F2071756525
:100C50007279004661696C656420746F20747572E6
:100C60006E206F6E004661696C656420746F20743D
:100C700075726E206F66660054696D65203D2000B8
:100C80004661696C656420746F20656E61626C6595
:100C900000706F6F6C2E6E74702E6F7267004661FD
:100CA000696C656420746F20656E61626C65002AF2
:100CB0002A2A2A2A0029206279746573202A2A2A7E
:100CC0002A2A002A2A2A2A2A2055535344205265C8
:100CD000706C790053656E7421004661696C6564BF
:100CE0000054797065206F7574206F6E652D6C6986
:100CF0006E65206D6573736167652028313430201F
:100D000063686172293A200053656E742100466160
:100D1000696C65640054797065206F7574206F6E1E
:100D2000652D6C696E65206D65737361676520283C
:100D30003134302063686172293A200053656E6453
:100D400020746F202300436F756C646E27742064D9
:100D5000656C657465004F4B21000A0D44656C6538
:100D600074696E6720534D5320230044656C65748D
:100D7000652023002A2A2A2A2A00292062797465FC
:100D800073202A2A2A2A2A002A2A2A2A2A20534D6C
:100D9000532023005B656D70747920736C6F745DF4
:100DA000004661696C656421000A0D5265616469E1
:100DB0006E6720534D532023002A2A2A2A2A00290D
:100DC000206279746573202A2A2A2A2A002A2A2A6C
:100DD0002A2A20534D5320230046524F4D3A2000DB
:100DE0000A0D52656164696E6720534D53202300DC
:100DF0005265616420230020534D532773206F6E8A
:100E00002053494D20636172642100436F756C6407
:100E1000206E6F742072656164202320534D53004F
:100E20004F4B21004661696C6564004F4B210046C1
:100E300061696C656400556E6B6E6F776E00526908
:100E40006E67696E672F696E2070726F6772657367
:100E50007320286F7574676F696E67290052696E19
:100E600067696E672028696E636F6D696E67290018
:100E7000436F756C64206E6F7420676574207374A3
:100E8000617475730052656164790053656E7421F5
:100E9000004661696C65640043616C6C696E672033
:100EA0000043616C6C2023004F4B21004661696C4C
:100EB00065640050574D20467265712C2030203DEE
:100EC000204F66662C2028312D32303030293A20D0
:100ED000005369676E616C206C6576656C202864D0
:100EE00042293A20004661696C656421204D616B9E
:100EF00065207375726520464D20726164696F20AC
:100F00006973206F6E202874756E656420746F207D
:100F100073746174696F6E292E00464D20467265A8
:100F200071202865672031303131203D3D2031303E
:100F3000312E31204D487A293A2000464D20766FD7
:100F40006C756D653A20004F4B21004661696C65F8
:100F5000640053657420464D20566F6C205B302D25
:100F6000365D3A004F4B21004661696C6564005460
:100F7000756E6564004661696C6564004F70656EEE
:100F8000656400464D2046726571202865672031F2
:100F9000303131203D3D203130312E31204D487AE5
:100FA000293A20004F4B21004661696C656400506E
:100FB0006C617920746F6E652023004F4B210046D1
:100FC00061696C6564004F4B21004661696C656422
:100FD000004F4B21004661696C65640053657420C5
:100FE000566F6C2025205B302D3130305D20005352
:100FF000657420566F6C205B302D385D2000526583
:10100000676973746572656420726F616D696E677C
:1010100000556E6B6E6F776E0044656E6965640097
:101020004E6F7420726567697374657265642028F9
:10103000736561726368696E6729005265676973D9
:1010400074657265642028686F6D6529004E6F7441
:101050002072656769737465726564003A20004E9A
:101060006574776F726B20737461747573200020E0
:1010700064426D0052535349203D200053494D2096
:1010800043434944203D20004F4B21004661696C99
:10109000656400556E6C6F636B696E672053494DD4
:1010A00020636172643A2000456E74657220342DAD
:1010B00064696769742050494E0025005650637476
:1010C000203D20004661696C656420746F20726564
:1010D0006164204261747400206D56005642617450
:1010E000203D20004661696C656420746F20726544
:1010F0006164204261747400206D560041444320B5
:101100003D20004661696C656420746F20726561E2
:101110006420414443004E6F7420576F726B696EB8
:1011200067204E6F7721205B5749505D00464F4E38
:10113000413E200000000000000000002A2B280093
:10114000000000000000000000000000000000009F
:10115000000000002C9EB4A0A1A2A434A6A7A5AEB6
:10116000362D3738271E1F20212223242526B3336E
:10117000B62EB7B89F8485868788898A8B8C8D8E9A
:101180008F909192939495969798999A9B9C9D2F66
:101190003130A3AD350405060708090A0B0C0D0E06
:1011A0000F101112131415161718191A1B1C1DAF46
:1011B000B1B0B5000000000200090F0000030401F7
:1011C000000C000000000000000000000000000013
:1011D000000000080B0002020200000904000001E8
:1011E000020200000524001001052401010104246D
:1011F00002060524060001070581031000400904CA
:101200000100020A00000007050202400000070575
:1012100083024000000403090412010002EF0201EE
:10122000404F1B0892000101020301537061726B71
:1012300046756E004C696C795061642055534200CC
:1012400041542B43504D533D22534D222C22534D9C
:10125000222C22534D220053494D3830304800098A
:101260003C2D2D2D2000092D2D2D3E200053494DC4
:10127000434F4D5F53494D35333230450053494D4F
:10128000434F4D5F53494D35333230410053494D43
:10129000383030205231330053494D3830382052E5
:1012A00031330053494D3830382052313400093C35
:1012B0002D2D2D2000092D2D2D3E200041542B4396
:1012C0005648553D300041544530004154453000AA
:1012D00041540041540041540054696D656F757468
:1012E0003A204E6F20726573706F6E736520746F55
:1012F0002041542E2E2E206C617374206469746317
:101300006820617474656D70742E004154004154FE
:1013100000415400417474656D7074696E67207487
:101320006F206F70656E20636F6D6D2077697468D4
:10133000204154730041542B47534E000000544D3C
:10134000003F3F3F00464F4E412033472028457520
:10135000726F7065616E2900464F4E412033472001
:1013600028416D65726963616E2900464F4E4120C8
:10137000383038202876322900464F4E4120383008
:1013800038202876312900464F4E412038303048E9
:1013900000464F4E41203830304C00466F756E6429
:1013A0002000464F4E41206973204F4B00436F751C
:1013B0006C646E27742066696E6420464F4E41004F
:1013C000496E697469616C697A696E672E2E2E2E7A
:1013D000284D61792074616B652033207365636FDC
:1013E0006E64732900464F4E412062617369632029
:1013F000746573740041542B434D49433D00093CCF
:101400002D2D2D2000092D2D2D3E200022534D5F26
:1014100050222C0041542B43504D533F0022534D3A
:10142000222C0041542B43504D533F0022534D2258
:101430002C0041542B43504D533F0041542B434DFE
:1014400047463D31002B434D47523A0041542B4310
:101450004D47523D0041542B434D47523D004154AE
:101460002B435344483D310041542B434D47463DA7
:10147000310041542B434750535057523D300041A7
:10148000542B43474E535057523D300041542B4349
:101490004750535057523D310041542B43474E5310
:1014A0005057523D31002B434750535057523A202A
:1014B0000041542B434750535057523F002B434752
:1014C0004E535057523A200041542B43474E5350ED
:1014D00057523F00093C2D2D2D2000092D2D2D3E6A
:1014E0002000093C2D2D2D2000092D2D2D3E200002
:1014F00041542B4854545053534C3D005245444999
:10150000520041542B48545450494E4954005552AE
:101510004C0055410043494400222C2200222C005B
:1015200041542B48545450504152413D22004154A3
:101530002B48545450504152413D2200092D2D2D2D
:101540003E20002B48545450524541443A004154E7
:101550002B4854545052454144002B485454504158
:101560004354494F4E3A002B485454504143544938
:101570004F4E3A0041542B48545450414354494F24
:101580004E3D00093C2D2D2D2000092D2D2D3E20F6
:1015900000093C2D2D2D200041542B48545450540B
:1015A00045524D0000000000250028002B002E00B1
:1015B000310000000000240027002A002D00300028
:1015C00004040404040304050202020204030202E8
:1015D00002020606060606060404020202040404C9
:1015E0000802011040804010204080408008020422
:1015F0000180402010020110801020404020093C52
:101600002D2D2D2000092D2D2D3E20000501090234
:10161000A1010901A100850105091901290315008E
:101620002501950375018102950175058103050169
:101630000930093109381581257F75089503810620
:10164000C0C005010906A1018502050719E029E7C7
:101650001500250175019508810295017508810322
:101660009506750815002573050719002973810073
:10167000C04F4B00464F4E4100464F4E416E657481
:101680000000132B11241FBECFEFDAE0DEBFCDBF69
:1016900012E0A0E0B1E0E0EBF0E602C005900D92B0
:1016A000A034B107D9F725E0A0E4B2E001C01D9253
:1016B000A83AB207E1F71BE0C2E4DBE004C02197DF
:1016C000FE010E940530C134D107C9F70E943D2CAC
:1016D0000C9456300C94000090E0FC01E152FA4E5C
:1016E000249180549A4EFC018491882399F090E0D3
:1016F000880F991FFC01EE54FA4EA591B491FC019C
:10170000EC55FA4E859194918FB7F894EC91E22BB9
:10171000EC938FBF0895FC0180915E03882311F143
:101720003FB7F89482E08093E9002091F200822F85
:1017300090E01816190614F481E090E0882339F03F
:10174000289844E640935D034091F10040832223B2
:1017500039F02091F200211103C02BE62093E8001C
:101760003FBF08958FEF9FEF08954091570250912A
:101770005802209155023091560242175307B4F493
:101780009091E8009570E1F39091E80092FD19C006
:101790008093F100809157029091580201968F73C7
:1017A0009927892B19F48EEF8093E80080915702D6
:1017B000909158020196909358028093570281E0CD
:1017C000089580E00895EF92FF920F931F93CF93B7
:1017D000DF93F82E192FE62E042F81E0860F880F55
:1017E0000E94B50B83E00E94B50BCF2DD12FEC0EDC
:1017F000FD2EF11CCE15DF05B9F007FF13C0FE0169
:1018000084910E94B50B182F80E00E94B50B8123B4
:1018100021968111EFCFDF91CF911F910F91FF9012
:10182000EF9008958881EDCF81E0F5CFDF92EF92C0
:10183000FF920F931F93CF93DF93D82E8A01EB0172
:101840007B01E40EF51ECE15DF0559F0D7FE12C060
:10185000FE0184910E94B50B21968111F4CF0FEF08
:101860001FEFC801DF91CF911F910F91FF90EF9073
:10187000DF9008958881EECF2FB7F894877080931A
:10188000E9009091E800892F807295FF04C0909143
:10189000F20080E4891B2FBF0895615030F0209141
:1018A000F100FC0120830196F8CF289884E680930C
:1018B0005D030895DC01ED91FC910190F081E02D34
:1018C0000994EF92FF920F931F93CF93DF938C01B4
:1018D0007B01D0E0C0E0F701EC0FFD1F64916623AF
:1018E00061F0D801ED91FC910190F081E02DC801EB
:1018F0000995892B11F02196EECFCE01DF91CF9182
:101900001F910F91FF90EF900895AF92BF92CF92E9
:10191000DF92EF92FF920F931F93CF93DF936C01AF
:101920007B018B01040F151FEB015E01AE18BF0890
:10193000C017D10759F06991D601ED91FC91019042
:10194000F081E02DC6010995892B79F7C501DF915A
:10195000CF911F910F91FF90EF90DF90CF90BF90AC
:10196000AF90089580914D0281110DC082E0809367
:10197000490284E080934A0210924C0210924B027A
:1019800081E080934D0289E492E00895CF93DF9344
:1019900081E080935F048093600425E634E0309317
:1019A00062042093610410926404109263042EE890
:1019B00031E030935C0420935B0410926704109232
:1019C0006604109269041092680480936A048093FC
:1019D0006B0481EC809365040E94B20CFC01818150
:1019E00090915F04482F490F5527551F48305105E6
:1019F0009CF5A281B381109709F52BE534E0338380
:101A00002283208120935D0480935E048091600492
:101A1000820F808320916104A22FB09162048A2FEB
:101A2000821B8917C8F481813D91C82FD0E0CA5E1E
:101A3000DE4F38838F5F8183F2CFD90118962D91C5
:101A40003C91199721153105C1F72BE534E0199622
:101A50003C932E931897D5CFDF91CF9108950F9394
:101A60001F93CF93DF931F92CDB7DEB782E08983B8
:101A700042E450E063ED71E180E80E94160C0E94A0
:101A8000B20CDC0112960D911C910115110589F023
:101A9000D801ED91FC910280F381E02DBE016F5FD2
:101AA0007F4FC801099597FD04C0F8010085118595
:101AB000ECCF89810F90DF91CF911F910F91089505
:101AC000FC01538D448D252F30E0842F90E0821B44
:101AD000930B541710F0CF96089501970895FC01C9
:101AE000918D828D981761F0A28DAE0FBF2FB11D21
:101AF0005D968C91928D9F5F9F73928F90E0089579
:101B00008FEF9FEF0895FC01918D828D981731F032
:101B1000828DE80FF11D858D90E008958FEF9FEF86
:101B20000895FC01918D228D892F90E0805C9F4F5C
:101B3000821B91098F73992708958FE593E00E9486
:101B4000910D21E0892B09F420E0822F089580E097
:101B500090E0892B29F00E949D0D81110C940000CA
:101B60000895FC01A48DA80FB92FB11DA35ABF4F32
:101B70002C91848D90E001968F739927848FA6898C
:101B8000B7892C93A089B1898C9182748C93938DA1
:101B9000848D981306C00288F389E02D80818F7DA3
:101BA00080830895EF92FF920F931F93CF93DF935B
:101BB000EC0181E0888F9B8D8C8D981319C0E8898A
:101BC000F989808185FF14C09FB7F894EE89FF8959
:101BD0006083E889F9898081827480839FBF81E076
:101BE00090E0DF91CF911F910F91FF90EF900895BA
:101BF000F62E0B8D10E00F5F1F4F0F731127E02E95
:101C00008C8D8E110CC00FB607FCFACFE889F989CC
:101C1000808185FFF5CFCE010E94B10DF1CFEB8D14
:101C2000EC0FFD2FF11DE35AFF4FF0829FB7F894A0
:101C30000B8FEA89FB8980818062CFCFCF93DF93BE
:101C4000EC01888D8823B9F0AA89BB89E889F989D4
:101C50008C9185FD03C0808186FD0DC00FB607FC09
:101C6000F7CF8C9185FFF2CF808185FFEDCFCE013C
:101C70000E94B10DE9CFDF91CF910895CF93DF930B
:101C80001F92CDB7DEB76983DC01ED91FC91028034
:101C9000F381E02D41E050E0BE016F5F7F4F099579
:101CA0000F90DF91CF91089583E08093E9008091B8
:101CB000F200882319F08AE38093E800089583E016
:101CC0000E943C0C90E00895CF93DF931F92CDB714
:101CD000DEB7FC018485958597FD08C02FEF3FEFA7
:101CE000358724870F90DF91CF910895CE0101961B
:101CF0000E948B0B019719F4898190E0F3CF8FEF4D
:101D00009FEFF0CF0F931F93CF93DF931F92CDB729
:101D1000DEB78C01FC018485958597FF0BC0CE0151
:101D200001960E948B0B019771F4898190E0F80174
:101D300095878487F801848595850F90DF91CF91F1
:101D40001F910F9108958FEF9FEFF1CFFC018485D4
:101D5000958597FD0BC09FB7F89482E08093E900CA
:101D60008091F2009FBF90E0019608959FB7F8948C
:101D700082E08093E9008091F2009FBF90E0089597
:101D8000282F30E0F901EC54FE4E9491F901E15214
:101D9000FA4E849120543A4EF9012491222309F4F9
:101DA00030C09923E9F091509F30D0F4E92FF0E052
:101DB000E452F14F0C9405300A0F0E0FEB0E020F98
:101DC000060FF00EF00EF00E110F170F1B0F1F0F66
:101DD000250FF00E290F909180009F77909380003F
:101DE000E22FF0E0EE0FFF1FEC55FA4EA591B491F3
:101DF0009FB7F894EC91611132C080958E238C933B
:101E00009FBF0895909180009F7DE8CF90918000C2
:101E1000977FE4CF94B59F7794BDE2CF94B59F7D33
:101E2000FBCF909190009F7790939000D9CF9091A5
:101E300090009F7DF9CF90919000977FF5CF909182
:101E4000C0009F779093C000CBCF9091C0009F7D42
:101E5000F9CF9091C200977F9093C200C1CF8E2B93
:101E6000CECF3FB7F8948091450290914602A09161
:101E70004702B091480226B5A89B05C02F3F19F034
:101E80000196A11DB11D3FBFBA2FA92F982F8827FA
:101E9000BC01CD01620F711D811D911D43E0660FD4
:101EA000771F881F991F4A95D1F708958F929F92A7
:101EB000AF92BF92CF92DF92EF92FF924B015C0103
:101EC0000E94310F6B017C010E94310F6C197D095A
:101ED0008E099F09683E734081059105A8F321E0B2
:101EE000821A9108A108B10888EEC80E83E0D81EB6
:101EF000E11CF11C81149104A104B10429F7FF90A5
:101F0000EF90DF90CF90BF90AF909F908F9008950B
:101F1000FF920F931F93CF93DF938C01F62ED0E0A7
:101F2000C0E00115110599F1CE3FD10580F58091F2
:101F3000A6059091A705DC01ED91FC910084F18547
:101F4000E02D0995892BC9F08091A6059091A705F0
:101F5000DC01ED91FC910284F385E02D09958D3033
:101F600031F38A3021F4209711F3FF2081F0FE0134
:101F7000E257FB4F86872196DACF0150110939F0DD
:101F800061E070E080E090E00E94560FCACFFE0151
:101F9000E257FB4F16868C2FDF91CF911F910F9147
:101FA000FF900895EF92FF920F931F93CF93DF93CB
:101FB0008C01D0E0C0E0E62EF12CEC16FD0680F09E
:101FC0008CEF93E00E94A60E892BE1F08CEF93E05A
:101FD0000E94640E8D30A1F38A3071F4209781F352
:101FE000F801EC0FFD1F10828C2FDF91CF911F9114
:101FF0000F91FF90EF900895F801EC0FFD1F808383
:102000002196DECF61E070E080E090E00E94560F04
:10201000D4CF7F928F929F92AF92BF92CF92DF9256
:10202000EF92FF920F931F93CF93DF93C82E8B01F4
:102030007A0180915E03811110C08FEF9FEFDF91D5
:10204000CF911F910F91FF90EF90DF90CF90BF90B5
:10205000AF909F908F907F90089580915B0280FF5A
:1020600005C08091E00082608093E000CE2DDF2DDE
:10207000D12C8AEFB82E8C2D8770982E8C2D8072E3
:10208000882E8C2D8074782E9AE3A92E209719F42F
:10209000DD2009F452C08C2D0E943C0C81110AC035
:1020A000BA94BB2051F261E070E080E090E00E94C1
:1020B000560FECCF8C171D0611F00CF08C2F9FB72C
:1020C000F8949092E9002091E80025FD02C09FBF9E
:1020D000DDCF282F30E0C21BD30B882029F08150A0
:1020E000A0F01092F100FBCFF801C7FC0AC08150AC
:1020F00050F041914093F100FACF44914093F100A8
:1021000031968150D0F7020F131FDD2021F0A092ED
:10211000E800D12CDCCF8091E80085FD07C0A092BB
:10212000E800DD24D394209791F2F3CF209779F63D
:10213000772069F2A092E800CACF5D9884E6809388
:102140005A02C7017CCF0F931F93CF93DF931F9247
:10215000CDB7DEB78C0180916C04811105C00E945F
:10216000C60C81E080936C0482E0898341E050E0FA
:10217000BE016F5F7F4F80915E040E94091097FD42
:1021800008C080915E0448E050E0B80180640E947D
:1021900009100F90DF91CF911F910F910895CF9368
:1021A000DF93EC0180911501882331F083E00E94D8
:1021B00009101816190634F081E090E09B838A8399
:1021C00080E090E0DF91CF9108950895DC01FB015C
:1021D00012962C911297848195812817190641F443
:1021E00091818081813A31F49D7F81E0913009F0C5
:1021F00080E008958132E1F79B3029F482811F96B7
:102200008C9381E008959A3099F7828150968C934F
:10221000F8CFDC01FB0188E4808389E4818384E4D6
:1022200082831D969C911D979F709F5B93831D9643
:102230008D919C9124E0969587952A95E1F78F7072
:102240008F5B848385E00895EF92FF920F931F9335
:10225000CF93DF93FB012081213871F52381223256
:1022600059F5DC0112964C912481358142171306F1
:1022700019F5EC010B851C85F12CE12C01151105DC
:1022800089F0F801448155816281738180E80E9460
:10229000160C8F3F980749F0E80EF91ED8010D91F2
:1022A0001C91ECCF81E08F87C701DF91CF911F9107
:1022B0000F91FF90EF90089590E080E0F6CFCF93DC
:1022C000DF93CDB7DEB769970FB6F894DEBF0FBEC8
:1022D000CDBFFC01DB018C918F5F8C939E012D5F44
:1022E0003F4F8DE0D9011D928A95E9F729E02983B6
:1022F00084E08A8391E09D8383E08E832A8721E2B4
:102300002B879C879D879F8722E2288B27E02B8B3A
:1023100025E02C8B8E8B20E430E0388F2F8B998F2B
:1023200082818B8395858685998B8A8B8381806852
:102330008D8B49E150E0BE016F5F7F4F80E00E94CE
:10234000160C69960FB6F894DEBF0FBECDBFDF91B5
:10235000CF910895CF92DF92EF92FF920F931F9348
:10236000CF93DF936C01EB017B01E40EF51E10E0CF
:1023700000E0CE15DF0581F069916D30D1F3D60113
:10238000ED91FC910190F081E02DC6010995892B1A
:1023900019F00F5F1F4FEDCFC801DF91CF911F9153
:1023A0000F91FF90EF90DF90CF900895DC01683897
:1023B00088F1685816968C911697861721F1179612
:1023C0008C9117978617F9F018968C9118978617A5
:1023D000D1F019968C9119978617A9F01A968C91BD
:1023E0001A97861781F01B968C911B97861759F0C8
:1023F000FD01369690E080E02191211139C08A0FCD
:102400009B1FFC016683CD0104960E94A31081E00E
:1024100090E00895E62FF0E067FF11C0E058F10961
:1024200021E030E001C0220FEA95EAF714968C9182
:102430001497822B14968C93149760E0BBCFEC5CBE
:10244000FE4E6491611109C081E090E013969C9367
:102450008E93129790E080E0089567FFABCF1496BB
:102460008C911497826014968C9314976F77A2CFF7
:1024700001968630910509F0BFCFE6CFEF92FF922B
:102480000F931F93CF938C01C62F0E94D6117C010E
:10249000C838C8F0C858F80186E0CC2321F09681EE
:1024A000C91301C01682815031968111F6CFC8013F
:1024B00004960E94A310C7019927CF911F910F91F5
:1024C000FF90EF900895EC2FF0E0C7FF0FC0E058A9
:1024D000F10981E090E001C0880FEA95EAF7809564
:1024E000F801948189238483C0E0D5CFEC5CFE4E53
:1024F000C491CC2301F3C7FFCECFF80184818D7F37
:102500008483CF77C8CF885E9E4FDC018D919C91EC
:10251000DC01ED91FC910680F781E02D0994885E45
:102520009E4FDC018D919C91DC01ED91FC91048426
:10253000F585E02D0994885E9E4FDC018D919C917C
:10254000DC01ED91FC910284F385E02D0994885E15
:102550009E4FDC018D919C91DC01ED91FC910190ED
:10256000F081E02D0994885E9E4FDC018D919C9155
:10257000DC01ED91FC910084F185E02D0994CF936D
:10258000DF9390E080E0EC0121968897A8F48EE834
:1025900094E00E94B312892B39F08EE894E00E94F7
:1025A0009B12D0E0C0E0F3CF61E070E080E090E00B
:1025B0000E94560FCE01E7CFDF91CF910895089585
:1025C00090E080E008958CEF93E00E94A60E892BA6
:1025D000D1F38CEF93E00E94640E0895FF920F9365
:1025E0001F93CF93DF930E94E312C82F082E000C95
:1025F000DD0BE097CA30D105B0F7682F8CEF93E080
:102600000E945A0C8AE0F82E0E94E312082F082E2E
:10261000000C110B9801205331092A30310578F450
:10262000682F8CEF93E00E945A0CFC9EC001FD9E27
:10263000900D1124EC01C00FD11FE097E5CFCE0122
:10264000DF91CF911F910F91FF9008958CEF93E050
:102650000E94A60E892B29F08CEF93E00E94640E55
:10266000F5CF0895FB0101900020E9F73197AF0104
:10267000461B570BDC01ED91FC910280F381E02DAC
:1026800009948F929F92AF92BF92EF92FF920F9315
:102690001F93CF93DF93CDB7DEB7A1970FB6F89412
:1026A000DEBF0FBECDBF7C01FA01CB0119A22230E3
:1026B00008F42AE08E010F5D1F4F822E912CB12C61
:1026C000A12CBF01A50194010E94C82FF901CA01E4
:1026D0006A300CF5605DD8016E938D01232B242B9D
:1026E000252B79F790E080E0109721F0BD01C7011C
:1026F0000E943213A1960FB6F894DEBF0FBECDBF75
:10270000DF91CF911F910F91FF90EF90BF90AF900D
:102710009F908F900895695CDECF68ED71E00C9416
:1027200032130F931F93CF93DF93EC010E945A0C47
:102730008C01CE010E948D13800F911FDF91CF91EC
:102740001F910F9108951F93CF93DF93EC01162FE4
:102750000E94BF126CE375E18CEF93E00E94610C64
:102760006EE275E18CEF93E00E94610CBE018CEF8C
:1027700093E00E94610C62E28CEF93E00E9491135F
:1027800060E275E18091A6059091A7050E94610C19
:10279000BE018091A6059091A7050E94610C8091D1
:1027A000A6059091A70569E175E1111102C06DE1DF
:1027B00075E1DF91CF911F910C94610C0F931F93E2
:1027C000CF93DF938C01D0E0C0E06115710519F063
:1027D0000E943213EC01C8010E948D138C0F9D1FC3
:1027E000DF91CF911F910F910895CF93DF93EC016B
:1027F00060E080E197E20E94880F61E975E18CEF6B
:1028000093E00E94610C6CE974E08CEF93E00E940D
:10281000DE13BE018CE994E00E946A2F21E0892B2F
:1028200009F020E0822FDF91CF910895EF92FF927F
:102830000F931F93CF93DF938C01EB017A010E94DA
:10284000BF1269EE74E18CEF93E00E94610CB80155
:102850008CEF93E00E94610C62E28CEF93E00E94A7
:102860005A0CBE018CEF93E00E94610C62E28CEF87
:1028700093E00E949113B8018091A6059091A7055D
:102880000E94610C62E28091A6059091A7050E94CA
:102890005A0CBE018091A6059091A7050E94610C7B
:1028A00062E28091A6059091A7050E94911360E0D5
:1028B00080E197E20E94880F62EE74E18CEF93E072
:1028C0000E94610C6CE974E08CEF93E00E94DE13CF
:1028D000B7018CE994E00E946A2F21E0892B09F06E
:1028E00020E0822FDF91CF911F910F91FF90EF9009
:1028F0000895EF92FF920F931F93CF93DF93EC0114
:102900008B017A010E94BF126BED74E18CEF93E0B2
:102910000E94610CBE018CEF93E00E94DE13BE01A9
:102920008091A6059091A7050E94DE1360E0C70183
:102930000E94880FC82F64ED74E18CEF93E00E9431
:10294000610C6CE974E08CEF93E00E94DE13CC2301
:1029500041F0B8018CE994E00E946A2F21E0892BB4
:1029600009F020E0822FDF91CF911F910F91FF900E
:10297000EF9008950F931F93CF93DF93EC010E9484
:10298000610C8C01CE010E948D13800F911FDF918D
:10299000CF911F910F9108950F931F93CF93DF93C2
:1029A000EC018B010E94BF1265E076E18CEF93E0B1
:1029B0000E94610CBE018CEF93E00E94BA14BE012C
:1029C0008091A6059091A7050E94BA1460E0C80105
:1029D0000E94880FC82F6EEF75E18CEF93E00E9484
:1029E000610C6CE974E08CEF93E00E94DE138C2F95
:1029F000DF91CF911F910F910895CF93DF93EB015A
:102A0000BA010E94CC14882341F0BE018CE994E005
:102A10000E946A2F21E0892B09F020E0822FDF91AC
:102A2000CF9108956091A4057091A50544EF51E000
:102A300088E995E10C94FD146CE875E08CEF93E067
:102A40000E94BA1466E775E08CEF93E00E94BA1416
:102A500069E475E08CEF93E00E94BA1463E275E0DC
:102A60008CEF93E00E94BA146FE075E08CEF93E076
:102A70000E94BA1465EE74E08CEF93E00E94BA14E1
:102A800060EC74E08CEF93E00E94BA146AEA74E0A0
:102A90008CEF93E00E94BA146DE874E08CEF93E041
:102AA0000E94BA146FE774E08CEF93E00E94BA14AE
:102AB00068E674E08CEF93E00E94BA1463E574E07A
:102AC0008CEF93E00E94BA1464E474E08CEF93E01E
:102AD0000E94BA146CE174E08CEF93E00E94BA1487
:102AE00065EF73E08CEF93E00E94BA1461EE73E03F
:102AF0008CEF93E00E94BA146EEB73E08CEF93E0DE
:102B00000E94BA1462EA73E08CEF93E00E94BA1458
:102B100068E873E08CEF93E00E94BA146CE673E00F
:102B20008CEF93E00E94BA1460E573E08CEF93E0C1
:102B30000E94BA1466E273E08CEF93E00E94BA142C
:102B400062E173E08CEF93E00E94BA146EEF72E0E2
:102B50008CEF93E00E94BA146CEE72E08CEF93E07D
:102B60000E94BA146AED72E08CEF93E00E94BA14EE
:102B700067EC72E08CEF93E00E94BA1468EB72E0AD
:102B80008CEF93E00E94BA1467EA72E08CEF93E056
:102B90000E94BA1466E972E08CEF93E00E94BA14C6
:102BA00069E872E08CEF93E00E94BA146BE772E080
:102BB0008CEF93E00E94BA146DE472E08CEF93E026
:102BC0000E94BA146EE172E08CEF93E00E94BA1496
:102BD00069E072E08CEF93E00E94BA1469EF71E053
:102BE0008CEF93E00E94BA1468EE71E08CEF93E0F2
:102BF0000E94BA1460ED71E08CEF93E00E94BA1469
:102C000068EB71E08CEF93E00E94BA146DE971E01B
:102C10008CEF93E00E94BA1480915D028250843060
:102C200010F56DE771E08CEF93E00E94BA146CE54B
:102C300071E08CEF93E00E94BA1465E371E08CEFD1
:102C400093E00E94BA1480915D02823031F460E119
:102C500071E08CEF93E00E94BA1465EF70E08CEFA6
:102C600093E00E94BA1463ED70E08CEF93E00E9451
:102C7000BA146DEA70E08CEF93E00E94BA146CEA2B
:102C800070E08CEF93E00C94BA140C943213DF9242
:102C9000EF92FF920F931F93CF93DF938C017B01F1
:102CA000D42EBC018CE994E00E947C2FEC01892B8E
:102CB000F9F0C8010E94732F8C0F9D1FC0E0CD1545
:102CC00049F06CE270E00E940B30009789F00196A9
:102CD000CF5FF5CF0E944C2FF7019183808381E075
:102CE000DF91CF911F910F91FF90EF90DF900895AA
:102CF00080E0F6CFCF93DF93EC0164EF71E08EE4D8
:102D000095E10E94CC1440E0BE0183E495E1DF919F
:102D1000CF910C944716FF920F931F93CF93DF939D
:102D2000EB018A01F22E64EF71E00E94CC144F2D6A
:102D3000B801CE010E944716C82F882329F060E011
:102D400084EF91E00E94880F8C2FDF91CF911F912B
:102D50000F91FF9008951F93CF93DF9300D0CDB7CD
:102D6000DEB7182F80919B0420E0AE014F5F5F4FCC
:102D7000833021F56DEB74E188EC94E10E948B16B1
:102D80008823A1F089819A8111111DC011E0892B3E
:102D900071F06091A4057091A50580919B0444EFAA
:102DA00051E0833029F58FE794E11BC010E0812FBB
:102DB0000F900F90DF91CF911F91089566EA74E113
:102DC00081EB94E1DBCF892B91F76091A4057091A1
:102DD000A50580919B0444EF51E0833031F489E9EB
:102DE00094E10E94FD14182FE2CF8CE894E1F9CF12
:102DF00082E794E1F6CFCF93DF9300D0CDB7DEB773
:102E00006091A4057091A50544EF51E08BE394E136
:102E10000E94FD14811106C08FEF0F900F90DF917B
:102E2000CF91089520E0AE014F5F5F4F6CE274E1F7
:102E300082E394E10E948B16882311F08981EDCF03
:102E400020E0AE014F5F5F4F6DE174E183E294E1FA
:102E50000E948B168111F2CF20E0AE014F5F5F4FD1
:102E60006CE074E184E194E10E948B168111E6CF5D
:102E7000D3CFCF92DF92EF92FF920F931F93CF9316
:102E8000DF9377FF1DC06A017B01EC016DE20E94B8
:102E90005A0C8C0144275527BA014C195D096E095B
:102EA0007F092AE0CE010E944113800F911FDF911C
:102EB000CF911F910F91FF90EF90DF90CF900895E9
:102EC0002AE0DF91CF911F910F91FF90EF90DF905B
:102ED000CF900C9441130F931F93CF93DF93EC018A
:102EE0000E9439178C01CE010E948D13800F911F13
:102EF000DF91CF911F910F910895CF92DF92EF92C2
:102F0000FF920F931F93CF93DF938C016A017B0194
:102F10000E94BF126AE875E18CEF93E00E94610C99
:102F2000B8018CEF93E00E94610CB701A6018CEF11
:102F300093E00E946B17C6EAD5E0B80188819981B9
:102F40000E94610CB701A601888199810E946B17CC
:102F500060E084EF91E00E94880FC82F63E875E17C
:102F60008CEF93E00E94610C6CE974E08CEF93E0CD
:102F70000E94DE138C2FDF91CF911F910F91FF9054
:102F8000EF90DF90CF900895CF93DF93E9010E94F7
:102F90007D17BE018CE994E00E946A2F21E0892B05
:102FA00009F020E0822FDF91CF9108958F929F92B8
:102FB000AF92BF92EF92FF920F931F93CF93DF9345
:102FC0007B01EA012091A4053091A505482F50E02E
:102FD00070E060E084E795E10E94C4178823E1F087
:102FE00060E0C8010E94880F41E0B70187E695E1E3
:102FF0000E944716882381F042E0BE018AE595E1F0
:10300000DF91CF911F910F91FF90EF90BF90AF9004
:103010009F908F900C94471680E0DF91CF911F9185
:103020000F91FF90EF90BF90AF909F908F90089579
:103030004F925F926F927F92AF92BF92CF92DF9248
:10304000EF92FF920F931F93CF93DF935C012A01BE
:103050003B0179010E94BF1265E074E18CEF93E0BF
:103060000E94610CB5018CEF93E00E94610CB301EA
:10307000A2018CEF93E00E9439176CE28CEF93E091
:103080000E945A0CB701A8018CEF93E00E946B17C5
:10309000C6EAD5E0B501888199810E94610CB3012F
:1030A000A201888199810E9439176CE288819981F7
:1030B0000E945A0CB701A801888199810E946B1760
:1030C00060E084EF91E00E94880FC82F6EEF73E1FB
:1030D0008CEF93E00E94610C6CE974E08CEF93E05C
:1030E0000E94DE138C2FDF91CF911F910F91FF90E3
:1030F000EF90DF90CF90BF90AF907F906F905F90F8
:103100004F9008950F931F93CF93DF93C091A40521
:10311000D091A505062F10E030E020E0482F50E0C8
:1031200070E060E085EF93E10E941818BE018CE921
:1031300094E00E946A2F21E0892B09F020E0822F81
:10314000DF91CF911F910F910895AB0170E060E086
:103150002AE00C9441130F931F93CF93DF93EC015C
:103160000E94A5188C01CE010E948D13800F911F23
:10317000DF91CF911F910F9108950F931F93CF93DC
:10318000DF938B0161E00E94A313C6EAD5E0B8018A
:10319000888199810E94610C62E2888199810E94F4
:1031A00091138091A4059091A505DF91CF911F9176
:1031B0000F910C94F513CF93DF9360E00E94A3135B
:1031C000C6EAD5E041E050E060E070E08881998196
:1031D0000E943917888199810E948D138091A405DE
:1031E0009091A505DF91CF910C94F513CF93DF93C8
:1031F000EC010E9412156091A4057091A50544EFA1
:1032000051E082E095E10E94FD14811104C080E04C
:10321000DF91CF91089585E195E10E94DB18882325
:10322000B1F36091A2057091A30582E195E10E943E
:10323000BD18882361F361E08EE095E10E94A3133D
:10324000BE018091A6059091A7050E94451662E2F5
:103250008091A6059091A7050E9491138091A405E5
:103260009091A5050E94F513882389F29091A105FC
:10327000992371F28CEF94E10E94DB18882339F2D4
:103280002091A4053091A50541E050E060E070E098
:1032900080EF94E1DF91CF910C94C4170F931F93AB
:1032A000CF93DF93EC01462F50E070E060E02AE01E
:1032B0000E9441138C01CE010E948D13800F911F3B
:1032C000DF91CF911F910F910895AF92BF92DF923E
:1032D000EF92FF920F931F93CF93DF9300D0CDB760
:1032E000DEB7182F7B016091A4057091A50544EF0E
:1032F00051E088E694E10E94FD1481110EC0D12CAA
:103300008D2D0F900F90DF91CF911F910F91FF9016
:10331000EF90DF90BF90AF9008956091A4057091F9
:10332000A50544EF51E08EE594E10E94FD14882349
:1033300031F31A82198265E574E18CEF93E00E9403
:10334000610C612F8CEF93E00E944E196CE474E1E4
:103350008091A6059091A7050E94610C612F809134
:10336000A6059091A7050E944E1960E088EE93E0B3
:103370000E94880F6CE974E08CEF93E00E94DE13EA
:103380004BE0BE016F5F7F4F85E494E10E944716DA
:10339000D82E811104C0D7011D921C92B1CFA980F3
:1033A000BA8010E000E0A016B10611F10E3F110541
:1033B000F9F08091A6059091A705DC01ED91FC91B3
:1033C0000084F185E02D0995892B69F38091A6058C
:1033D0009091A705DC01ED91FC910284F385E02D2D
:1033E0000995F801E257FB4F86870F5F1F4FDBCF30
:1033F000F801E257FB4F16860E94BF120CE914E059
:10340000F80101900020E9F78F010D5914400B3F9E
:10341000110510F00AEF10E0A8016CE974E08EE5E8
:1034200092E00E942D30F801E25AFD4F10826CE9C3
:1034300074E08CEF93E00E94DE13D7010D931C9390
:103440005FCF8F929F92AF92BF92EF92FF920F93B6
:103450001F93CF93DF93CDB7DEB7C45FD1090FB60B
:10346000F894DEBF0FBECDBF6DE271E18CEF93E04B
:103470000E94610C8CEF93E00E94A60E892B81F4D0
:103480008EE894E00E94B312892BA1F38EE894E0B9
:103490000E949B12682F8CEF93E00E943E0EEACFB1
:1034A0008CEF93E00E94640E182F682F8CEF93E04E
:1034B0000E949113E1ECE10FEB3310F00C94EB263A
:1034C0000E2E000CFF0BE959F54E0C940530F12639
:1034D000EB26961EEB26C71BEB264823631DB42361
:1034E000C91CEB26EB26A21AF2229A1DDE1E8422AC
:1034F000011EEB26C01FBF26FC1C721BA81C9C25AE
:10350000EB26EF21EB26EB26EB26EB26EB26EB2634
:10351000EB26171B341B311E2720E31C281D8C2390
:10352000BA1EEF1BEB26101BBF24751D3C1C7C2212
:10353000CC1EB41DF01E71203F222E217E1C0525BD
:103540008C22DA2164EF71E080E090E00E94560F57
:1035500063E882E894E00E94D61162E370E080E0C4
:1035600090E00E94560F62E782E894E00E94D61134
:10357000109288041092890410928A0410928B048D
:1035800010928C0410928D041092860486E894E0C8
:103590000E94A31068EE73E080E090E00E94560F56
:1035A0006BED71E082E894E00E94451668EE73E0EE
:1035B00080E090E00E94560F60EB82E894E00E9469
:1035C000D61162E370E080E090E00E94560FE2E8DE
:1035D000F4E08681883209F41682319684E0E83876
:1035E000F807B9F786E894E00E94A31068EE73E04C
:1035F00080E090E00E94560F0E9426138EE894E02F
:103600000E94B312892B11F40C94FB268EE894E0EF
:103610000E949B12682F8CEF93E00E943E0EEECF2B
:1036200066E171E18CEF93E00E94BA14E5CF20E0EF
:10363000AE014F5F5F4F62EB75E08CEB95E00E944F
:103640008B1663E071E1882369F36CEF70E18CEF16
:1036500093E00E94610C69817A818CEF93E00E9473
:10366000A51868EF70E1DECF22E0AE014F5F5F4F3B
:1036700065EC75E08CEC95E00E948B1664EE70E1D1
:10368000882371F06CED70E18CEF93E00E94610C87
:1036900069817A818CEF93E00E94A51868ED70E152
:1036A0008CEF93E00E94BA1421E0AE014F5F5F4FB0
:1036B00063ED75E08AED95E00E948B16811103C0E1
:1036C00064EC70E1AFCF6CEB70E18CEF93E00E94A3
:1036D000610C69817A818CEF93E00E94A5186AEBF6
:1036E00070E1A0CF0E94261368EA70E18CEF93E0AE
:1036F0000E94BA1463E0CE0182579F4F0E94D20FFE
:10370000BE0162577F4F8CEF93E00E94DE1363E9A6
:1037100070E18CEF93E00E94610C89E0EDE1F1E053
:10372000DE01119601900D928A95E1F7FE013A961D
:1037300085E0DF011D928A95E9F7C257DF4F888146
:10374000CE58D0408987C157DF4F8881CF58D040AD
:103750008A87C057DF4F8881C059D0408B87CF56AA
:10376000DF4F8881C159D0408C876091A40570914A
:10377000A50544EF51E0CE0101960E9479146CE852
:1037800070E1882309F44ECF68E870E14BCF64EF15
:1037900071E081EE95E00E94CC1480919C0444E19C
:1037A00050E064EA74E08B3211F06CE974E08EE56D
:1037B00092E00E942D301092720260E084EF91E05E
:1037C0000E94880F6CE770E18CEF93E00E94610C1F
:1037D0006EE572E08CEF93E00E94DE130DCF20E0E7
:1037E000AE014F5F5F4F69EE75E080EF95E00E949C
:1037F0008B161981811101C010E064E770E18CEF34
:1038000093E00E94610C812E912CB12CA12C2AE016
:10381000B501A4018CEF93E00E9441136DE372E0C7
:103820008CEF93E00E94451641E9113021F04DE8FC
:103830001F3109F44CEC12501D3190F4A501940194
:103840002250310941095109A8E3B0E00E94BD2F7F
:103850002CE130E040E050E00E949E2F42E9420F10
:10386000042E000C550B660B770B8CEF93E00E9437
:1038700039176FE670E1D6CE21E0AE014F5F5F4FA2
:1038800067EF75E08FEF95E00E948B16198181112B
:1038900001C010E06FE570E18CEF93E00E94610CD5
:1038A000412F50E070E060E02AE08CEF93E00E944E
:1038B00041136CE570E18CEF93E00E94610C6DE4C4
:1038C00070E1112309F4AECE6BE370E1113009F41D
:1038D000A9CE60E270E1123009F4A4CE69E170E192
:1038E000133009F49FCE61E170E1143009F49ACEEF
:1038F0006EEF7FE0153009F07FCE94CE0E94261344
:1039000080915D0284506FEE7FE0823010F06CEDAC
:103910007FE08CEF93E00E94610C0E94EE12182F62
:103920008CEF93E00E948D132091A4053091A505A2
:10393000412F50E070E060E088E096E00E94C417FC
:1039400065ED7FE0882309F46DCE61ED7FE06ACEFE
:1039500020E0AE014F5F5F4F61E176E089E196E0E4
:103960000E948B164981811101C040E050E070E057
:1039700060E02AE08CEF93E00E94411380915D02A9
:10398000845065EE71E0823008F024CF60EE71E083
:1039900021CF2091A4053091A50540E050E0BA0167
:1039A00082E296E00E94C4176AEC7FE0882311F05F
:1039B00066EC7FE08CEF93E00E94BA146FE080E049
:1039C0000E94821819CE2091A4053091A50541E0EE
:1039D00050E060E070E082E296E00E94C4176FEB76
:1039E0007FE0882311F06BEB7FE08CEF93E00E9487
:1039F000BA146AE081E0E4CF0E9426136FEA7FE008
:103A00008CEF93E00E94610C0E94EE12182F8CEF55
:103A100093E00E948D13E090A405F090A505412F3E
:103A200050E070E060E008EE13E020E030E08BE270
:103A300096E00E941818B7018CE994E00E946A2F62
:103A400068EA7FE0892B09F0EDCD64EA7FE0EACDFA
:103A50000E94261363E87FE08CEF93E00E94610CE4
:103A60000E94EE128C018CEF93E00E948D13209146
:103A7000A4053091A50540E050E0BA0183E496E04A
:103A80000E94C417882331F06CE77FE08CEF93E04D
:103A90000E94BA14C801865693408D3D910518F0D6
:103AA00065E77FE0BFCD2091A4053091A505A80171
:103AB00070E060E088E396E00E94C4176FE67FE064
:103AC0008111B0CDEDCF6091A4057091A50544EFB3
:103AD00051E08EE496E00E94FD1468E67FE08823C2
:103AE00009F4A0CD64E67FE09DCD0E94261362E537
:103AF0007FE08CEF93E00E94610C0E94EE12182F81
:103B00008CEF93E00E948D13173018F06BE47FE088
:103B100089CD2091A4053091A505412F50E070E09A
:103B200060E089E596E00E94C41767E47FE08111B8
:103B300079CDECCF20E0AE014F5F5F4F66E676E0D7
:103B400082E796E00E948B161981811101C010E076
:103B50006BE37FE08CEF93E00E94610C612F8CEFB0
:103B600093E00E944E1948CD0E9426136AE17FE03F
:103B70008CEF93E00E94610C0E94EE128C018CEF9E
:103B800093E00E948D13C8018B5693408E3C9105A3
:103B900018F065EE7EE046CDA80170E060E08BE8AD
:103BA00096E00E947D176FE776E08CE994E00E9432
:103BB0007C2F009771F36AE370E00B960E940B3044
:103BC000009739F301960E944C2F182F60E084EF84
:103BD00091E00E94880F17FDDCCF61ED7EE08CEF55
:103BE00093E00E94610C412F110F550B660B770B70
:103BF0008CEF93E00E9439178CEF93E00E948D13B5
:103C0000FBCC0E94261363EB7EE08CEF93E00E94D6
:103C1000610C0E94EE128C018CEF93E00E948D13D8
:103C2000013DB7E01B0718F06CEA7EE0FBCCE090AA
:103C3000A405F090A505A80170E060E002E310E0A3
:103C400020E030E088E996E00E941818B7018CE97E
:103C500094E00E946A2F68EA7EE0892B09F4E2CCA6
:103C6000E3CF0E94261361EA7EE08CEF93E00E948E
:103C7000610C7E01EEE8EE0EF11C6EE1C7010E94C0
:103C8000D20F8CEF93E00E948D1368E97EE08CEFF9
:103C900093E00E94610CB7018CEF93E00E94DE1369
:103CA00084E0EBE2F1E08E010F5F1F4FD80101903D
:103CB0000D928A95E1F7FE0135968FE1DF011D92A5
:103CC0008A95E9F7F70101900020E9F7AF0141502B
:103CD00051094E195F094F31510510F04EE150E086
:103CE000B701CE0104960E942D30F801019000200A
:103CF000E9F73197E01BF10BFF27D801AE0FBF1F8B
:103D00008BE38C93EC0FFD1F12826091A4057091E0
:103D1000A50544EF51E0C8010E94791461E97EE0F5
:103D2000882309F47FCC6BE87EE07CCC20E0AE01F8
:103D30004F5F5F4F63EA76E08BEA96E00E948B1656
:103D40008823A9F08981813091F065E87EE0813097
:103D500008F468CC6DE57EE0833009F463CC6EE353
:103D60007EE0843009F45ECC66E37EE05BCC60E705
:103D70007EE058CC6091A4057091A50544EF51E018
:103D800083EB96E00E94FD146FE27EE0882309F445
:103D900049CC6BE27EE046CC6091A4057091A5050C
:103DA00044EF51E088EB96E00E94FD1464E27EE06F
:103DB000882309F437CC60E27EE034CC0E94FB1605
:103DC0006BE07EE087FD2ECC482F880F550B660BED
:103DD000770B8CEF93E00E94391767EF7DE022CCE0
:103DE0000E94261360EF7DE08CEF93E00E94610C4F
:103DF0000E94EE12182F60EE7DE08CEF93E00E949F
:103E0000610C612F8CEF93E00E944E196091A40524
:103E10007091A50544EF51E08FED96E00E94FD14EE
:103E2000882309F4AAC06091A4057091A50544EF08
:103E300051E085ED96E00E94FD14882309F49DC0B1
:103E40006CEC76E08CEF93E00E94610C612F8CEFBC
:103E500093E00E944E1963EC76E08091A605909164
:103E6000A7050E94610C612F8091A6059091A7057E
:103E70000E944E1960E088EE93E00E94880F6CE982
:103E800074E08CEF93E00E94DE136CEB76E08CE93B
:103E900094E00E947C2F009709F46DC06CE270E002
:103EA00006960E940B30009709F465C0DC0111965C
:103EB00040E050E0242F30E0FD0101900020E9F7C0
:103EC000CF0101978A1B9B0B2817390708F08DC774
:103ED0002A0F3B1FF90120812C3209F486C72232B8
:103EE00039F0852F90E0825A9D4FFC0120835F5F5F
:103EF0004F5F5A3FF8F20E94BF1269ED7DE08CEFF0
:103F000093E00E94610C6EE572E08CEF93E00E94FA
:103F1000DE13BE016F5F7F4F812F0E9465198823DA
:103F200061F16DEC7DE08CEF93E00E94610C412F1C
:103F300050E070E060E02AE08CEF93E00E944113D3
:103F40006FEE71E08CEF93E00E94451669817A81F3
:103F50008CEF93E00E94A5186FEB7DE08CEF93E06F
:103F60000E94BA146EE572E08CEF93E00E94DE13BB
:103F700069EB7DE057CB0E94BF1267EE71E02ACC5F
:103F80000E94FB16082F80915D02845011E0823060
:103F900010F4015010E001170CF42ECB69EA7DE01B
:103FA0008CEF93E00E94610C812E012E000C990889
:103FB000AA08BB08B501A4018CEF93E00E94391751
:103FC0008CEF93E00E948D13BE016F5F7F4F812FB6
:103FD0000E946519811103C061EA7DE023CB8981CC
:103FE0009A81892B49F464E97DE08CEF93E00E948B
:103FF000BA140F5F1F5FCFCF68E87DE08CEF93E0CE
:104000000E94610CB501A4018CEF93E00E94391766
:104010006FEE71E08CEF93E00E94451669817A8122
:104020008CEF93E00E94A5186AE77DE08CEF93E0A7
:104030000E94BA146EE572E08CEF93E00E94DE13EA
:1040400064E77DE08CEF93E00E94BA14D3CF0E9426
:1040500026136BE67DE08CEF93E00E94610C0E94DA
:10406000EE12182F6AE57DE08CEF93E00E94610C60
:10407000612F8CEF93E00E944E196091A40570911E
:10408000A50544EF51E089EE96E00E94FD148823D7
:1040900029F18CE0ECE0F2E0DE01119601900D9246
:1040A0008A95E1F7812F64E60E94F92F805D898768
:1040B000892F6AE00E94F92F805D8A87905D9B8737
:1040C0006091A4057091A50540ED57E0CE010196E1
:1040D0000E94791466E57DE08111A4CA66E47DE062
:1040E000A1CA0E9426136CE37DE08CEF93E00E944E
:1040F000610C64E1CE0182529F4F0E94D20FBE013B
:1041000062527F4F8CEF93E00E94DE1365E17DE009
:104110008CEF93E00E94610C6CE8CE0101960E9446
:10412000D20FBE016F5F7F4F8CEF93E00E94DE13D2
:104130006091A4057091A50544EF51E089EF96E0E8
:104140000E94FD14882309F486C08E0102571F4F78
:104150008AE0EEE4F1E0D80101900D928A95E1F752
:10416000F8013A9684E1DF011D928A95E9F743E16F
:1041700050E0BE0162527F4FC80109960E942D3067
:10418000F80101900020E9F7319782E2808344EF43
:1041900051E066EF76E0C8010E947914882309F4A3
:1041A0005AC063EF76E08CEF93E00E94610CBE0191
:1041B0006F5F7F4F8CEF93E00E94DE13BE016F5F55
:1041C0007F4F8091A6059091A7050E94DE138091F4
:1041D000A6059091A7050E948D138091A605909148
:1041E000A705DC01ED91FC910190F081E02D6AE1E1
:1041F000099562EF71E08CEF93E00E94DE138091ED
:104200009B048450823050F460E088EC90E00E947F
:10421000880F60E088EC90E00E94880F60E080E109
:1042200097E20E94880F65EF71E08CE994E00E94AC
:104230003C30892B81F060E088EE93E00E94880F8B
:104240006BEF71E08CE994E00E94163068E07DE04D
:10425000892B09F4E7C96EE07DE0E4C90E942613CA
:1042600061EE7CE08CEF93E00E94610C6CE8CE0183
:1042700001960E94D20FBE016F5F7F4F8CEF93E0DB
:104280000E94DE136091A4057091A50544EF51E0F2
:104290008BE097E00E94FD14882309F49AC08E01F8
:1042A00002571F4F8CE0ECE6F1E0D80101900D922F
:1042B0008A95E1F7F8013C9682E1DF011D928A952B
:1042C000E9F741E150E0BE016F5F7F4FC8010B96F7
:1042D0000E942D30F80101900020E9F7319782E229
:1042E00080836091A4057091A50544EF51E0C80159
:1042F0000E947914882309F46CC060E080E197E2A1
:104300000E94880F63E077E08CE994E00E947C2FA4
:10431000009709F45EC062E270E007960E940B30DD
:10432000009709F456C08C010F5F1F4F62E270E0E6
:10433000C8010E940B307C01E01AF10ABAEFEB16BB
:10434000F10418F089EFE82EF12CA7014F5F5F4FC1
:10435000B8018EE592E00E942D30F701E25AFD4F40
:10436000108264ED7CE08CEF93E00E94BA1463EC61
:104370007CE08CEF93E00E94610C6FEE71E08CEFBB
:1043800093E00E944516B7018CEF93E00E94A518B8
:1043900065EB7CE08CEF93E00E94BA146EE572E06E
:1043A0008CEF93E00E94DE136FEA7CE08CEF93E0E9
:1043B0000E94BA146091A4057091A50544EF51E0E4
:1043C00085E197E00E94FD14882331F00E94BF121E
:1043D00013C96AED7CE0EACF6EE97CE023C9609105
:1043E000A4057091A50544EF51E08CE397E00E948D
:1043F000FD14882309F440C062E377E08091A605AC
:104400009091A7050E94610C61E97CE08091A6056E
:104410009091A7050E94610C6EE277E08091A6055D
:104420009091A7050E94BA1460E084EF91E00E9489
:10443000880F6BEF71E08CE994E00E941630892BB5
:10444000D9F46091A4057091A50540E157E286E298
:1044500097E00E94FD14882379F060E080E197E204
:104460000E94880F40E0BE016F5F7F4F8FE197E0B1
:104470000E9447168111C0C860E87CE0D3C860E1A3
:1044800077E289E497E00E94CC1447E050E06EEFB9
:1044900071E08CE994E00E941F30892B19F503EA42
:1044A00014E0F80101900020E9F78F01045A14404C
:1044B0000731110510F006E110E0A8014F5F5F4FD2
:1044C00063EA74E0CE0101960E942D30E1E0F0E055
:1044D000EC0FFD1FE00FF11F108260E084EF91E010
:1044E0000E94880F68E77CE08CEF93E00E94610CEB
:1044F000BE016F5F7F4F6EC980E00E94AB1665E61C
:104500007CE0811179C88EC881E00E94AB1663E51A
:104510007CE0811171C886C880919B04833019F5B5
:1045200064EF71E086E997E00E94CC146BE877E0D5
:104530008CE994E00E947C2F8C01892B09F44CC0FB
:1045400060E084EF91E00E94880FD8011A968C9168
:104550001A978033E9F01C968C91813309F03FC0A3
:1045600066E27CE05FC8845064EF71E0823098F4CA
:104570008FE797E00E94CC1464E777E08CE994E041
:104580000E947C2F009741F1FC0182858C3241F71B
:104590006BE37CE047C885E697E00E94CC1462E5B7
:1045A00077E08CE994E00E947C2F8C01892BA1F0AC
:1045B00060E084EF91E00E94880FD80152968C91C0
:1045C000853531F38E3459F06DE27CE0823309F4A5
:1045D00029C88333E9F6C4CF63E47CE023C864E3ED
:1045E0007CE020C880919B049CEF980F923038F4B7
:1045F00064EF71E08DEB97E00E94CC1409C082302B
:10460000E9F440E050E0BA0181EB97E00E947D17A9
:1046100061EA77E08CE994E00E947C2F009799F49E
:10462000198280915D026FEB7BE0823011F069EFBF
:104630007AE08CEF93E00E94BA145ACF64EF71E0F5
:1046400086EA97E0D9CFBC016A5F7F4FFB010190FA
:104650000020E9F7AF0141505109461B570B47377E
:10466000510510F447E750E08A011127A801CE0157
:1046700001960E942D30E1E0F0E0EC0FFD1FE00F0D
:10468000F11F108260E084EF91E00E94880FC9CF93
:104690000E94261380915D026CEB7AE0823011F06B
:1046A00068EA7AE08CEF93E00E94610C0E94EE12BF
:1046B0009FE0E8E1F2E0DE01119601900D929A95FB
:1046C000E1F764E60E94F92F805D8C87892F6AE00C
:1046D0000E94F92F805D8D8780E3890F8E878091FE
:1046E0009B046091A4057091A505833069F444EFA3
:1046F00051E0992331F089EC97E00E94FD140C946D
:10470000FC1A86ED97E0F9CF40ED57E0CE01019617
:104710000E9479140C94FC1A40E25EE465EA78E0A9
:104720008DEA98E00E94FD14811104C065E97AE0E9
:104730000C94121B6091A4057091A50540E157E20D
:1047400088E998E00E94FD14882381F36091A40514
:104750007091A50540E157E28DE898E00E94FD14B4
:1047600081110C94FC1AE2CF40E25EE46AE778E043
:1047700082E898E00E94FD146091A4057091A5055F
:1047800040E157E28FE698E00E94FD14811104C0D9
:1047900063E87AE00C94121B6091A4057091A50562
:1047A00040E157E281E598E00E94FD14882381F3FF
:1047B00060919B0570919C054091A4055091A505C1
:1047C00061157105D1F46091A4057091A50540E3D0
:1047D00055E78CEE97E00E94FD148823C9F26091A2
:1047E000A4057091A50540E157E283EE97E00E9491
:1047F000FD1481110C94FC1ACBCF8DE398E00E943C
:104800001614882329F20E94BF1263E378E0809196
:10481000A6059091A7050E94610C60919B0570917F
:104820009C058091A6059091A7050E94610C80913E
:104830009D0590919E05892B91F066E072E0809134
:10484000A6059091A7050E94451660919D0570915F
:104850009E058091A6059091A7050E94610C80910C
:10486000A6059091A70520919F053091A005232BC7
:1048700071F066E072E00E94451660919F057091AC
:10488000A0058091A6059091A7050E94610C68E0A3
:1048900072E08091A6059091A7050E94DE136CE25C
:1048A00078E08CEF93E00E94610C62E278E08CEF9C
:1048B00093E00E94610C60919B0570919C058CEFC8
:1048C00093E00E94610C80919D0590919E05892B3B
:1048D00071F066E072E08CEF93E00E944516609103
:1048E0009D0570919E058CEF93E00E94610C809174
:1048F0009F059091A005892B71F066E072E08CEF26
:1049000093E00E94451660919F057091A0058CEF81
:1049100093E00E94610C68E072E08CEF93E00E94EB
:10492000DE138091A4059091A5050E94F5138823BC
:1049300009F42ECF60919D0570919E054091A405CC
:104940005091A5056115710599F460919F057091CD
:10495000A0054091A4055091A5056115710509F4C4
:1049600032CF89EF97E00E94161481112CCF10CF1F
:104970008DE098E00E9416148111E7CF09CF60E125
:1049800077E285EC98E00E94CC1440E0BE016F5FB6
:104990007F4F88EB98E00E944716882379F14AEA16
:1049A00054E0DA010D900020E9F7AD014B5A544074
:1049B0004A3F510510F049EF50E04F5F5F4F6AEA00
:1049C00074E08EE592E00E942D3060E084EF91E08B
:1049D0000E94880F89819A81892B11F40C94E81B1D
:1049E0006FE67AE08CEF93E00E94610C69817A8136
:1049F0008CEF93E00E94AB180C94FC1A6BE77AE002
:104A00008CEF93E00E94BA14E5CF0E94261364E471
:104A10007AE08CEF93E00E94BA146FEF79E08CEFAC
:104A200093E00E94BA1467EF79E08CEF93E00E9464
:104A3000610C6FE4CE0101960E94D20FBE016F5F40
:104A40007F4F8CEF93E00E94DE1362EF79E08CEFF2
:104A500093E00E94BA14CE0101960E94F6188823B2
:104A600009F48BCA00E315E720E030E0AE014257BD
:104A70005F4FBE0162527F4F80E00E94D6178823AD
:104A800009F47BCA6CED78E08CEF93E00E94610C36
:104A9000C252DF4F68817981CE5DD0408CEF93E0C8
:104AA0000E94AB1866ED78E08CEF93E00E94610CF9
:104AB000C257DF4F68817981CE58D0408CEF93E0A8
:104AC0000E94AB18CE0182579F4F0E947A1688230E
:104AD00009F453CAC257DF4F88819981CE58D0401C
:104AE00018161906FCF48EE894E00E94B312892B84
:104AF00089F38EE894E00E949B12682F8CEF93E07C
:104B00000E943E0EC257DF4F88819981CE58D04017
:104B10000197C257DF4F99838883CE58D040892BA5
:104B200011F7D8CF6CEE79E08CEF93E00E94BA14C5
:104B30000E9412150C94FC1A0E94261360EC79E076
:104B40008CEF93E00E94BA146BE979E08CEF93E06C
:104B50000E94BA1463E979E08CEF93E00E94610C43
:104B60006FE4CE0182579F4F0E94D20FBE01625761
:104B70007F4F8CEF93E00E94DE1361E679E08CEFCB
:104B800093E00E94BA146FE4FE0131967F01CF01D9
:104B90000E94D20FB7018CEF93E00E94DE136CE508
:104BA00079E08CEF93E00E94BA14F70101900020A5
:104BB000E9F731978F010E191F09CE0182579F4FD8
:104BC0000E94F618882309F4D8C961E579E08EE1DE
:104BD00099E00E94BD18882309F4CFC9B12CA12CFB
:104BE0000E94BF1267E179E08CEF93E00E94610CB4
:104BF0006AE079E08CEF93E00E94610C2AE0B50155
:104C0000A8018CEF93E00E9441136CE28CEF93E0DB
:104C10000E945A0C2AE040E157E260E070E08CEF1D
:104C200093E00E9441138CEF93E00E948D136DEF8F
:104C300078E08091A6059091A7050E94610C2AE07A
:104C4000B501A8018091A6059091A7050E94411386
:104C50006AE072E08091A6059091A7050E94451632
:104C6000A090A605B090A7052AE040E157E260E0D9
:104C700070E0C5010E944113C5010E948D1384EFAD
:104C800098E00E94F513882309F477C98091A6055E
:104C90009091A705DC01ED91FC910280F381E02D5C
:104CA000A801B70109958091A4059091A5050E94DE
:104CB000F513882309F461C900E117E220E030E030
:104CC000AE0142525F4FBE016D507F4F81E00E94A6
:104CD000D617882309F451C96BEE78E08CEF93E086
:104CE0000E94610CCD50DF4F68817981C35FD04055
:104CF0008CEF93E00E94AB1865EE78E08CEF93E0C8
:104D00000E94610CC252DF4F68817981CE5DD04034
:104D10008CEF93E00E94AB18CE0182529F4F0E940D
:104D20007A16882309F429C9C252DF4F88819981F4
:104D3000CE5DD04018161906FCF48EE894E00E946F
:104D4000B312892B89F38EE894E00E949B12682F9E
:104D50008CEF93E00E943E0EC252DF4F8881998112
:104D6000CE5DD0400197C252DF4F99838883CE5DDC
:104D7000D040892B11F7D8CF6BE479E0D5CE66E32C
:104D800079E08CEF93E00E94BA148CEF93E00E94DC
:104D9000A60E892B81F061E070E080E090E00E9437
:104DA000560F8CEF93E00E94640E682F8EE894E01B
:104DB0000E94A712EACF8EE894E00E94B312892BDA
:104DC00021F38EE894E00E949B12682F8CEF93E011
:104DD0000E943E0EDACF66E279E08CEF93E00E940B
:104DE000BA140E941C150C94FC1AE52FF0E0E25A4C
:104DF000FD4F108280C8CC50DF4F0FB6F894DEBF55
:104E00000FBECDBFDF91CF911F910F91FF90EF901B
:104E1000BF90AF909F908F9008951F920F920FB602
:104E20000F9211248F939F938091E1009091E10064
:104E3000937F9093E10083FF0FC01092E90091E00F
:104E40009093EB001092EC0092E39093ED0010929F
:104E50005E0398E09093F00082FF22C093E090936D
:104E6000E9009091F200992319F09AE39093E800F9
:104E700090915A02992341F090915A029150909347
:104E80005A02911101C05D9A90915D03992341F0FE
:104E900090915D03915090935D03911101C0289A08
:104EA00084FF18C08091E2008E7E81608093E200D2
:104EB0008091E1008F7E8093E10080915B028E7E85
:104EC000806180935B029F918F910F900FBE0F9036
:104ED0001F90189580FFF7CF8091E2008E7E806151
:104EE0008093E2008091E1008E7E8093E1008091CA
:104EF0005B028E7E8160E5CF1F920F920FB60F92FC
:104F00001124CF92DF92EF92FF920F931F932F9372
:104F10003F934F935F936F937F938F939F93AF9341
:104F2000BF93EF93FF93CF93DF93CDB7DEB76C972B
:104F3000DEBFCDBF1092E9008091E80083FF25C05D
:104F400068E0CE0145960E944D0C82EF8093E80008
:104F50008D8987FF39C09091E80090FFFCCF982F92
:104F6000907609F034C19E894F89588D2F89F88C2D
:104F7000911131C0803861F580915C028093F1001D
:104F80001092F1008EEF8093E8006C960FB6F894C3
:104F9000DEBF0FBECDBFDF91CF91FF91EF91BF91EB
:104FA000AF919F918F917F916F915F914F913F91C1
:104FB0002F911F910F91FF90EF90DF90CF900F9066
:104FC0000FBE0F901F9018959EEF9093E800C7CFEB
:104FD0001092F100D5CF913059F48111D3CF4130E7
:104FE000510581F680915C028D7F80935C02CACF6F
:104FF000933049F48111C6CF4130510519F68091A3
:105000005C028260F2CF953041F48091E80080FF2D
:10501000FCCF20682093E300B5CF963009F0A9C0FB
:105020000B8D1C8D22E01092E90010925802109214
:105030005702F2122EC010925602109255020E9490
:105040002F0D1F8299E09983FA8291E09E8390EA66
:1050500098879AEF99872091570230915802275FDD
:105060003F4F3C832B838D831092E90010925802AE
:1050700010925702109356020093550249E050E0F7
:10508000BE016F5F7F4F80E00E94160C0E942F0DC3
:1050900079CF10935602009355020E94B20CDC01A6
:1050A00012960D911C910115110509F451C1D801F9
:1050B000ED91FC910480F581E02DBE016B5E7F4F88
:1050C000C8010995009709F03EC1F80100851185D6
:1050D000EACFF3E0FF120EC08F89882309F440C0A5
:1050E000823061F440E86BE084E392E10E94E30BDC
:1050F000811148CF81E28093EB0047CF813029F4C2
:1051000040E868E08BE292E1F1CF833099F70E94AA
:10511000B20CDC011296ED90FC908E010F5F1F4FD8
:105120006801E114F10479F0D701ED91FC9106805A
:10513000F781E02DB801C7010995080F111DF7018E
:10514000E084F184EECFD8011C92F601019000209A
:10515000E9F73197BF016C197D0940E0C601C6CF60
:1051600065E172E1FB01449150E080E80E94160C79
:1051700009CF973009F4BECF983021F481E08093B5
:10518000F10000CF993009F0FDCE837009F0B2CF65
:10519000E7E1F1E081E031E096E32191222371F033
:1051A0008093E9003093EB00DF0111972C9120935D
:1051B000EC009093ED008F5F873079F78EE7809356
:1051C000EA001092EA008F8980935E03DBCE8B8D1C
:1051D0009C8D1092E9001092580210925702909301
:1051E000560280935502898D811192C08E899D89C6
:1051F000913A49F4813209F07DCF47E050E06EE00A
:1052000071E080E0B3CF913209F074CF833269F45A
:105210008F89988DB0E0A0E080930A0190930B01F4
:10522000A0930C01B0930D01ADCE803269F4809152
:10523000E80082FFFCCF67E08EE091E00E944D0C19
:105240008BEF8093E8009ECE823209F09BCE8F894F
:1052500080931501EEEFFFE7859194918B3F9C4D74
:1052600051F1E0E0F8E080910E0190910F01A091E2
:105270001001B0911101803B9440A105B105F1F4FA
:105280008091150180FD1AC0EE3F8AE0F80789F58C
:1052900087E797E79183808380916000809359022C
:1052A00088E19BE00FB6F894A895809360000FBE4C
:1052B0009093600067CEEEEFFAE0D5CF80819181C8
:1052C0008737974709F05ECEA89580916000886186
:1052D000809360008091590280936000EE3F2AE045
:1052E000F20789F08091FE0A9091FF0A91838083F2
:1052F00049CE808191818737980751F29093FF0AB8
:105300008093FE0AC5CF1092FF0A1092FE0A3ACE91
:105310000E94B20CDC0112960D911C910115110531
:1053200009F4E8CED801ED91FC910190F081E02DD7
:10533000BE016B5E7F4FC8010995811123CEF80134
:1053400000851185EBCF181619060CF41BCED2CEB2
:10535000F1E0FF12BECE69E172E104CF1F920F921D
:105360000FB60F9211242F933F934F935F936F9338
:105370007F938F939F93AF93BF93EF93FF938FE5AB
:1053800093E00E94B10DFF91EF91BF91AF919F917A
:105390008F917F916F915F914F913F912F910F90DE
:1053A0000FBE0F901F9018951F920F920FB60F927D
:1053B00011242F938F939F93EF93FF93E0916F03AB
:1053C000F09170038081E0917503F091760382FD86
:1053D0001BC09081809178038F5F8F732091790338
:1053E000821741F0E0917803F0E0E15AFC4F958F8D
:1053F00080937803FF91EF919F918F912F910F9060
:105400000FBE0F901F9018958081F4CF1F920F92BE
:105410000FB60F9211242F933F938F939F93AF93C7
:10542000BF938091410290914202A0914302B091BA
:1054300044023091400226E0230F2D3758F50296A2
:10544000A11DB11D2093400280934102909342021E
:10545000A0934302B093440280914502909146028A
:10546000A0914702B09148020196A11DB11D809301
:10547000450290934602A0934702B0934802BF9121
:10548000AF919F918F913F912F910F900FBE0F90F1
:105490001F90189529E8230F0396A11DB11DD2CFA7
:1054A0001F920F920FB60F9211242F933F934F9399
:1054B0005F936F937F938F939F93AF93BF93EF937C
:1054C000FF93E0910801F09109010995FF91EF9197
:1054D000BF91AF919F918F917F916F915F914F910C
:1054E0003F912F910F900FBE0F901F9018951F9214
:1054F0000F920FB60F9211242F933F934F935F9308
:105500006F937F938F939F93AF93BF93EF93FF938B
:10551000E0910601F09107010995FF91EF91BF918C
:10552000AF919F918F917F916F915F914F913F913B
:105530002F910F900FBE0F901F9018951F920F92F2
:105540000FB60F9211242F933F934F935F936F9356
:105550007F938F939F93AF93BF93EF93FF93E091CC
:105560000401F09105010995FF91EF91BF91AF9171
:105570009F918F917F916F915F914F913F912F916B
:105580000F900FBE0F901F9018951F920F920FB69D
:105590000F9211242F933F934F935F936F937F93B9
:1055A0008F939F93AF93BF93EF93FF93E09102018B
:1055B000F09103010995FF91EF91BF91AF919F91F8
:1055C0008F917F916F915F914F913F912F910F90AC
:1055D0000FBE0F901F9018951F920F920FB60F924B
:1055E00011242F933F934F935F936F937F938F93E8
:1055F0009F93AF93BF93EF93FF93E0910001F091DE
:1056000001010995FF91EF91BF91AF919F918F910A
:105610007F916F915F914F913F912F910F900FBEAE
:105620000F901F901895109262031092610388EEFC
:1056300093E0A0E0B0E08093630390936403A093B1
:105640006503B09366032AE931E030936003209349
:105650005F032DEC30E030936C0320936B032CEC54
:1056600030E030936E0320936D0328EC30E03093EC
:10567000700320936F0329EC30E030937203209382
:1056800071032AEC30E030937403209373032EEC03
:1056900030E03093760320937503109278031092D4
:1056A000790310927A0310927B031092FF031092F9
:1056B000FE038093000490930104A0930204B0932E
:1056C00003048CEA91E09093FD038093FC038FEF39
:1056D0009FEF909309048093080410925A048091DC
:1056E0005204811113C010924D0410924C048CE0AE
:1056F00096E190934F0480934E0486E390E090935C
:1057000051048093500481E08093520480916C0492
:10571000811105C00E94C60C81E080936C04E09169
:105720006604F0916704309709F094C08CE494E02B
:105730009093670480936604809168049091690453
:105740002091500430915104820F931F909369046B
:105750008093680410928504109284048EEB91E08B
:10576000909383048093820480917A04811113C002
:10577000109275041092740482E496E19093770479
:10578000809376048FE290E090937904809378047C
:1057900081E080937A0480916C04811105C00E949D
:1057A000C60C81E080936C04E0916604F09167047C
:1057B000309709F059C084E794E090936704809390
:1057C0006604809168049091690420917804309176
:1057D0007904820F931F9093690480936804109258
:1057E00091041092900488EE93E0A0E0B0E08093E2
:1057F000920490939304A0939404B09395048AEC3C
:1058000091E090938F0480938E0484E080939A04B7
:1058100089E796E190939C0580939B0510929E05E5
:1058200010929D051092A00510929F051092A70559
:105830001092A6051092A10584E796E19093A30526
:105840008093A20581E796E19093A5058093A40536
:105850000895FC01808191810097D9F78CE494E050
:105860009183808369CFFC01808191810097D9F772
:1058700084E794E091838083A4CFCF93DF93CDB767
:10588000DEB760970FB6F894DEBF0FBECDBF789439
:1058900084B5826084BD84B5816084BD85B5826035
:1058A00085BD85B5816085BD80916E0081608093E6
:1058B0006E0010928100809181008260809381004F
:1058C000809181008160809381008091800081605F
:1058D00080938000809191008260809391008091FC
:1058E000910081608093910080919000816080930D
:1058F00090008091C10084608093C1008091C100BC
:1059000082608093C1008091C10081608093C1005A
:105910008091C30081608093C3008091C000826049
:105920008093C0008091C20081608093C20080910A
:105930007A00846080937A0080917A0082608093FC
:105940007A0080917A008E7F80937A0080917A002D
:10595000806880937A0010925E0310925C0210922D
:105960005B028091D70081608093D70080EA8093AA
:10597000D80089B58F7E89BD89B5826089BD09B49B
:1059800000FEFDCF61E070E080E090E00E94560FE5
:105990008091D8008F7C80618093D8008091E00056
:1059A000807F8093E0008091E1008E7E8093E10013
:1059B0008DE08093E200559A209A0E946C0B61E082
:1059C0008DE00E94C00E82E00E946C0B61E082E0DC
:1059D0000E94C00E68EE73E080E090E00E94560FD7
:1059E00060E082E00E94C00E109115016AE070E054
:1059F00080E090E00E94560F1123B1F38FEF9FEFEC
:105A0000909309048093080465EE73E18CEF93E0B2
:105A10000E94BA1460EC73E18CEF93E00E94BA1418
:105A2000E0916F03F091700382E08083E0916B035B
:105A3000F0916C031082E0916D03F0916E038FEC96
:105A4000808310927703E0917303F091740386E0F2
:105A50008083E0917103F091720380818061808383
:105A6000E0917103F0917203808188608083E091FE
:105A70007103F0917203808180688083E0917103EB
:105A8000F091720380818F7D80838FE593E0909306
:105A9000A7058093A60580919A040E946C0B61E093
:105AA00080919A040E94C00E6AE070E080E090E06D
:105AB0000E94560F60E080919A040E94C00E64E636
:105AC00070E080E090E00E94560F61E080919A04BF
:105AD0000E94C00E64E173E18CEF93E00E94BA145F
